{
  "_format": "hh-sol-artifact-1",
  "contractName": "Foreign20NoName",
  "sourceName": "contracts/mock/Foreign20.sol",
  "abi": [
    {
      "anonymous": false,
      "inputs": [
        {
          "indexed": true,
          "internalType": "address",
          "name": "owner",
          "type": "address"
        },
        {
          "indexed": true,
          "internalType": "address",
          "name": "spender",
          "type": "address"
        },
        {
          "indexed": false,
          "internalType": "uint256",
          "name": "value",
          "type": "uint256"
        }
      ],
      "name": "Approval",
      "type": "event"
    },
    {
      "anonymous": false,
      "inputs": [
        {
          "indexed": false,
          "internalType": "address",
          "name": "account",
          "type": "address"
        }
      ],
      "name": "Paused",
      "type": "event"
    },
    {
      "anonymous": false,
      "inputs": [
        {
          "indexed": true,
          "internalType": "address",
          "name": "from",
          "type": "address"
        },
        {
          "indexed": true,
          "internalType": "address",
          "name": "to",
          "type": "address"
        },
        {
          "indexed": false,
          "internalType": "uint256",
          "name": "value",
          "type": "uint256"
        }
      ],
      "name": "Transfer",
      "type": "event"
    },
    {
      "anonymous": false,
      "inputs": [
        {
          "indexed": false,
          "internalType": "address",
          "name": "account",
          "type": "address"
        }
      ],
      "name": "Unpaused",
      "type": "event"
    },
    {
      "inputs": [],
      "name": "TOKEN_NAME",
      "outputs": [
        {
          "internalType": "string",
          "name": "",
          "type": "string"
        }
      ],
      "stateMutability": "view",
      "type": "function"
    },
    {
      "inputs": [],
      "name": "TOKEN_SYMBOL",
      "outputs": [
        {
          "internalType": "string",
          "name": "",
          "type": "string"
        }
      ],
      "stateMutability": "view",
      "type": "function"
    },
    {
      "inputs": [
        {
          "internalType": "address",
          "name": "owner",
          "type": "address"
        },
        {
          "internalType": "address",
          "name": "spender",
          "type": "address"
        }
      ],
      "name": "allowance",
      "outputs": [
        {
          "internalType": "uint256",
          "name": "",
          "type": "uint256"
        }
      ],
      "stateMutability": "view",
      "type": "function"
    },
    {
      "inputs": [
        {
          "internalType": "address",
          "name": "spender",
          "type": "address"
        },
        {
          "internalType": "uint256",
          "name": "amount",
          "type": "uint256"
        }
      ],
      "name": "approve",
      "outputs": [
        {
          "internalType": "bool",
          "name": "",
          "type": "bool"
        }
      ],
      "stateMutability": "nonpayable",
      "type": "function"
    },
    {
      "inputs": [
        {
          "internalType": "address",
          "name": "account",
          "type": "address"
        }
      ],
      "name": "balanceOf",
      "outputs": [
        {
          "internalType": "uint256",
          "name": "",
          "type": "uint256"
        }
      ],
      "stateMutability": "view",
      "type": "function"
    },
    {
      "inputs": [],
      "name": "decimals",
      "outputs": [
        {
          "internalType": "uint8",
          "name": "",
          "type": "uint8"
        }
      ],
      "stateMutability": "view",
      "type": "function"
    },
    {
      "inputs": [
        {
          "internalType": "address",
          "name": "spender",
          "type": "address"
        },
        {
          "internalType": "uint256",
          "name": "subtractedValue",
          "type": "uint256"
        }
      ],
      "name": "decreaseAllowance",
      "outputs": [
        {
          "internalType": "bool",
          "name": "",
          "type": "bool"
        }
      ],
      "stateMutability": "nonpayable",
      "type": "function"
    },
    {
      "inputs": [],
      "name": "destruct",
      "outputs": [],
      "stateMutability": "nonpayable",
      "type": "function"
    },
    {
      "inputs": [
        {
          "internalType": "address",
          "name": "spender",
          "type": "address"
        },
        {
          "internalType": "uint256",
          "name": "addedValue",
          "type": "uint256"
        }
      ],
      "name": "increaseAllowance",
      "outputs": [
        {
          "internalType": "bool",
          "name": "",
          "type": "bool"
        }
      ],
      "stateMutability": "nonpayable",
      "type": "function"
    },
    {
      "inputs": [
        {
          "internalType": "address",
          "name": "_account",
          "type": "address"
        },
        {
          "internalType": "uint256",
          "name": "_amount",
          "type": "uint256"
        }
      ],
      "name": "mint",
      "outputs": [],
      "stateMutability": "nonpayable",
      "type": "function"
    },
    {
      "inputs": [],
      "name": "name",
      "outputs": [
        {
          "internalType": "string",
          "name": "",
          "type": "string"
        }
      ],
      "stateMutability": "pure",
      "type": "function"
    },
    {
      "inputs": [],
      "name": "pause",
      "outputs": [],
      "stateMutability": "nonpayable",
      "type": "function"
    },
    {
      "inputs": [],
      "name": "paused",
      "outputs": [
        {
          "internalType": "bool",
          "name": "",
          "type": "bool"
        }
      ],
      "stateMutability": "view",
      "type": "function"
    },
    {
      "inputs": [],
      "name": "symbol",
      "outputs": [
        {
          "internalType": "string",
          "name": "",
          "type": "string"
        }
      ],
      "stateMutability": "view",
      "type": "function"
    },
    {
      "inputs": [],
      "name": "totalSupply",
      "outputs": [
        {
          "internalType": "uint256",
          "name": "",
          "type": "uint256"
        }
      ],
      "stateMutability": "view",
      "type": "function"
    },
    {
      "inputs": [
        {
          "internalType": "address",
          "name": "to",
          "type": "address"
        },
        {
          "internalType": "uint256",
          "name": "amount",
          "type": "uint256"
        }
      ],
      "name": "transfer",
      "outputs": [
        {
          "internalType": "bool",
          "name": "",
          "type": "bool"
        }
      ],
      "stateMutability": "nonpayable",
      "type": "function"
    },
    {
      "inputs": [
        {
          "internalType": "address",
          "name": "from",
          "type": "address"
        },
        {
          "internalType": "address",
          "name": "to",
          "type": "address"
        },
        {
          "internalType": "uint256",
          "name": "amount",
          "type": "uint256"
        }
      ],
      "name": "transferFrom",
      "outputs": [
        {
          "internalType": "bool",
          "name": "",
          "type": "bool"
        }
      ],
      "stateMutability": "nonpayable",
      "type": "function"
    }
  ],
  "bytecode": "0x608060405234801561001057600080fd5b5060408051808201825260098152680466f726569676e32360bc1b6020808301918252835180850190945260068452650c8c15195cdd60d21b90840152815191929161005e91600391610084565b508051610072906004906020840190610084565b50506005805460ff1916905550610158565b8280546100909061011d565b90600052602060002090601f0160209004810192826100b257600085556100f8565b82601f106100cb57805160ff19168380011785556100f8565b828001600101855582156100f8579182015b828111156100f85782518255916020019190600101906100dd565b50610104929150610108565b5090565b5b808211156101045760008155600101610109565b600181811c9082168061013157607f821691505b6020821081141561015257634e487b7160e01b600052602260045260246000fd5b50919050565b610bb480620001686000396000f3fe608060405234801561001057600080fd5b506004361061010b5760003560e01c806339509351116100a25780638456cb59116100715780638456cb591461023457806395d89b411461023c578063a457c2d714610244578063a9059cbb14610257578063dd62ed3e1461026a57600080fd5b806339509351146101da57806340c10f19146101ed5780635c975abb1461020057806370a082311461020b57600080fd5b806323b872dd116100de57806323b872dd1461018b5780632a9053181461019e5780632b68b9c6146101c3578063313ce567146101cb57600080fd5b806306fdde0314610110578063095ea7b31461012e57806318160ddd146101515780631882140014610163575b600080fd5b6101186102a3565b60405161012591906109f1565b60405180910390f35b61014161013c366004610a62565b6102aa565b6040519015158152602001610125565b6002545b604051908152602001610125565b610118604051806040016040528060098152602001680466f726569676e32360bc1b81525081565b610141610199366004610a8c565b6102c2565b610118604051806040016040528060068152602001650c8c15195cdd60d21b81525081565b6101c933ff5b005b60405160128152602001610125565b6101416101e8366004610a62565b6102e6565b6101c96101fb366004610a62565b610325565b60055460ff16610141565b610155610219366004610ac8565b6001600160a01b031660009081526020819052604090205490565b6101c9610333565b61011861033d565b610141610252366004610a62565b6103cf565b610141610265366004610a62565b610466565b610155610278366004610aea565b6001600160a01b03918216600090815260016020908152604080832093909416825291909152205490565b6060600080fd5b6000336102b8818585610474565b5060019392505050565b6000336102d0858285610598565b6102db85858561062a565b506001949350505050565b3360008181526001602090815260408083206001600160a01b03871684529091528120549091906102b89082908690610320908790610b1d565b610474565b61032f8282610803565b5050565b61033b6108ee565b565b60606004805461034c90610b43565b80601f016020809104026020016040519081016040528092919081815260200182805461037890610b43565b80156103c55780601f1061039a576101008083540402835291602001916103c5565b820191906000526020600020905b8154815290600101906020018083116103a857829003601f168201915b5050505050905090565b3360008181526001602090815260408083206001600160a01b0387168452909152812054909190838110156104595760405162461bcd60e51b815260206004820152602560248201527f45524332303a2064656372656173656420616c6c6f77616e63652062656c6f77604482015264207a65726f60d81b60648201526084015b60405180910390fd5b6102db8286868403610474565b6000336102b881858561062a565b6001600160a01b0383166104d65760405162461bcd60e51b8152602060048201526024808201527f45524332303a20617070726f76652066726f6d20746865207a65726f206164646044820152637265737360e01b6064820152608401610450565b6001600160a01b0382166105375760405162461bcd60e51b815260206004820152602260248201527f45524332303a20617070726f766520746f20746865207a65726f206164647265604482015261737360f01b6064820152608401610450565b6001600160a01b0383811660008181526001602090815260408083209487168084529482529182902085905590518481527f8c5be1e5ebec7d5bd14f71427d1e84f3dd0314c0f7b2291e5b200ac8c7c3b925910160405180910390a3505050565b6001600160a01b03838116600090815260016020908152604080832093861683529290522054600019811461062457818110156106175760405162461bcd60e51b815260206004820152601d60248201527f45524332303a20696e73756666696369656e7420616c6c6f77616e63650000006044820152606401610450565b6106248484848403610474565b50505050565b6001600160a01b03831661068e5760405162461bcd60e51b815260206004820152602560248201527f45524332303a207472616e736665722066726f6d20746865207a65726f206164604482015264647265737360d81b6064820152608401610450565b6001600160a01b0382166106f05760405162461bcd60e51b815260206004820152602360248201527f45524332303a207472616e7366657220746f20746865207a65726f206164647260448201526265737360e81b6064820152608401610450565b6106fb838383610986565b6001600160a01b038316600090815260208190526040902054818110156107735760405162461bcd60e51b815260206004820152602660248201527f45524332303a207472616e7366657220616d6f756e7420657863656564732062604482015265616c616e636560d01b6064820152608401610450565b6001600160a01b038085166000908152602081905260408082208585039055918516815290812080548492906107aa908490610b1d565b92505081905550826001600160a01b0316846001600160a01b03167fddf252ad1be2c89b69c2b068fc378daa952ba7f163c4a11628f55a4df523b3ef846040516107f691815260200190565b60405180910390a3610624565b6001600160a01b0382166108595760405162461bcd60e51b815260206004820152601f60248201527f45524332303a206d696e7420746f20746865207a65726f2061646472657373006044820152606401610450565b61086560008383610986565b80600260008282546108779190610b1d565b90915550506001600160a01b038216600090815260208190526040812080548392906108a4908490610b1d565b90915550506040518181526001600160a01b038316906000907fddf252ad1be2c89b69c2b068fc378daa952ba7f163c4a11628f55a4df523b3ef9060200160405180910390a35050565b60055460ff16156109345760405162461bcd60e51b815260206004820152601060248201526f14185d5cd8589b194e881c185d5cd95960821b6044820152606401610450565b6005805460ff191660011790557f62e78cea01bee320cd4e420270b5ea74000d11b0c9f74754ebdbfc544b05a2586109693390565b6040516001600160a01b03909116815260200160405180910390a1565b60055460ff16156109ec5760405162461bcd60e51b815260206004820152602a60248201527f45524332305061757361626c653a20746f6b656e207472616e736665722077686044820152691a5b19481c185d5cd95960b21b6064820152608401610450565b505050565b600060208083528351808285015260005b81811015610a1e57858101830151858201604001528201610a02565b81811115610a30576000604083870101525b50601f01601f1916929092016040019392505050565b80356001600160a01b0381168114610a5d57600080fd5b919050565b60008060408385031215610a7557600080fd5b610a7e83610a46565b946020939093013593505050565b600080600060608486031215610aa157600080fd5b610aaa84610a46565b9250610ab860208501610a46565b9150604084013590509250925092565b600060208284031215610ada57600080fd5b610ae382610a46565b9392505050565b60008060408385031215610afd57600080fd5b610b0683610a46565b9150610b1460208401610a46565b90509250929050565b60008219821115610b3e57634e487b7160e01b600052601160045260246000fd5b500190565b600181811c90821680610b5757607f821691505b60208210811415610b7857634e487b7160e01b600052602260045260246000fd5b5091905056fea2646970667358221220c50339986dcbbf611b033501d834d80282cb68d747f6e0a8368b19ee8043a36064736f6c63430008090033",
  "linkReferences": {},
  "deployedLinkReferences": {}
}