{
  "_format": "hh-sol-artifact-1",
  "contractName": "Foreign20",
  "sourceName": "contracts/mock/Foreign20.sol",
  "abi": [
    {
      "inputs": [],
      "stateMutability": "nonpayable",
      "type": "constructor"
    },
    {
      "anonymous": false,
      "inputs": [
        {
          "indexed": true,
          "internalType": "address",
          "name": "owner",
          "type": "address"
        },
        {
          "indexed": true,
          "internalType": "address",
          "name": "spender",
          "type": "address"
        },
        {
          "indexed": false,
          "internalType": "uint256",
          "name": "value",
          "type": "uint256"
        }
      ],
      "name": "Approval",
      "type": "event"
    },
    {
      "anonymous": false,
      "inputs": [
        {
          "indexed": false,
          "internalType": "address",
          "name": "account",
          "type": "address"
        }
      ],
      "name": "Paused",
      "type": "event"
    },
    {
      "anonymous": false,
      "inputs": [
        {
          "indexed": true,
          "internalType": "address",
          "name": "from",
          "type": "address"
        },
        {
          "indexed": true,
          "internalType": "address",
          "name": "to",
          "type": "address"
        },
        {
          "indexed": false,
          "internalType": "uint256",
          "name": "value",
          "type": "uint256"
        }
      ],
      "name": "Transfer",
      "type": "event"
    },
    {
      "anonymous": false,
      "inputs": [
        {
          "indexed": false,
          "internalType": "address",
          "name": "account",
          "type": "address"
        }
      ],
      "name": "Unpaused",
      "type": "event"
    },
    {
      "inputs": [],
      "name": "TOKEN_NAME",
      "outputs": [
        {
          "internalType": "string",
          "name": "",
          "type": "string"
        }
      ],
      "stateMutability": "view",
      "type": "function"
    },
    {
      "inputs": [],
      "name": "TOKEN_SYMBOL",
      "outputs": [
        {
          "internalType": "string",
          "name": "",
          "type": "string"
        }
      ],
      "stateMutability": "view",
      "type": "function"
    },
    {
      "inputs": [
        {
          "internalType": "address",
          "name": "owner",
          "type": "address"
        },
        {
          "internalType": "address",
          "name": "spender",
          "type": "address"
        }
      ],
      "name": "allowance",
      "outputs": [
        {
          "internalType": "uint256",
          "name": "",
          "type": "uint256"
        }
      ],
      "stateMutability": "view",
      "type": "function"
    },
    {
      "inputs": [
        {
          "internalType": "address",
          "name": "spender",
          "type": "address"
        },
        {
          "internalType": "uint256",
          "name": "amount",
          "type": "uint256"
        }
      ],
      "name": "approve",
      "outputs": [
        {
          "internalType": "bool",
          "name": "",
          "type": "bool"
        }
      ],
      "stateMutability": "nonpayable",
      "type": "function"
    },
    {
      "inputs": [
        {
          "internalType": "address",
          "name": "account",
          "type": "address"
        }
      ],
      "name": "balanceOf",
      "outputs": [
        {
          "internalType": "uint256",
          "name": "",
          "type": "uint256"
        }
      ],
      "stateMutability": "view",
      "type": "function"
    },
    {
      "inputs": [],
      "name": "decimals",
      "outputs": [
        {
          "internalType": "uint8",
          "name": "",
          "type": "uint8"
        }
      ],
      "stateMutability": "view",
      "type": "function"
    },
    {
      "inputs": [
        {
          "internalType": "address",
          "name": "spender",
          "type": "address"
        },
        {
          "internalType": "uint256",
          "name": "subtractedValue",
          "type": "uint256"
        }
      ],
      "name": "decreaseAllowance",
      "outputs": [
        {
          "internalType": "bool",
          "name": "",
          "type": "bool"
        }
      ],
      "stateMutability": "nonpayable",
      "type": "function"
    },
    {
      "inputs": [],
      "name": "destruct",
      "outputs": [],
      "stateMutability": "nonpayable",
      "type": "function"
    },
    {
      "inputs": [
        {
          "internalType": "address",
          "name": "spender",
          "type": "address"
        },
        {
          "internalType": "uint256",
          "name": "addedValue",
          "type": "uint256"
        }
      ],
      "name": "increaseAllowance",
      "outputs": [
        {
          "internalType": "bool",
          "name": "",
          "type": "bool"
        }
      ],
      "stateMutability": "nonpayable",
      "type": "function"
    },
    {
      "inputs": [
        {
          "internalType": "address",
          "name": "_account",
          "type": "address"
        },
        {
          "internalType": "uint256",
          "name": "_amount",
          "type": "uint256"
        }
      ],
      "name": "mint",
      "outputs": [],
      "stateMutability": "nonpayable",
      "type": "function"
    },
    {
      "inputs": [],
      "name": "name",
      "outputs": [
        {
          "internalType": "string",
          "name": "",
          "type": "string"
        }
      ],
      "stateMutability": "view",
      "type": "function"
    },
    {
      "inputs": [],
      "name": "pause",
      "outputs": [],
      "stateMutability": "nonpayable",
      "type": "function"
    },
    {
      "inputs": [],
      "name": "paused",
      "outputs": [
        {
          "internalType": "bool",
          "name": "",
          "type": "bool"
        }
      ],
      "stateMutability": "view",
      "type": "function"
    },
    {
      "inputs": [],
      "name": "symbol",
      "outputs": [
        {
          "internalType": "string",
          "name": "",
          "type": "string"
        }
      ],
      "stateMutability": "view",
      "type": "function"
    },
    {
      "inputs": [],
      "name": "totalSupply",
      "outputs": [
        {
          "internalType": "uint256",
          "name": "",
          "type": "uint256"
        }
      ],
      "stateMutability": "view",
      "type": "function"
    },
    {
      "inputs": [
        {
          "internalType": "address",
          "name": "to",
          "type": "address"
        },
        {
          "internalType": "uint256",
          "name": "amount",
          "type": "uint256"
        }
      ],
      "name": "transfer",
      "outputs": [
        {
          "internalType": "bool",
          "name": "",
          "type": "bool"
        }
      ],
      "stateMutability": "nonpayable",
      "type": "function"
    },
    {
      "inputs": [
        {
          "internalType": "address",
          "name": "from",
          "type": "address"
        },
        {
          "internalType": "address",
          "name": "to",
          "type": "address"
        },
        {
          "internalType": "uint256",
          "name": "amount",
          "type": "uint256"
        }
      ],
      "name": "transferFrom",
      "outputs": [
        {
          "internalType": "bool",
          "name": "",
          "type": "bool"
        }
      ],
      "stateMutability": "nonpayable",
      "type": "function"
    }
  ],
  "bytecode": "0x608060405234801561001057600080fd5b5060408051808201825260098152680466f726569676e32360bc1b6020808301918252835180850190945260068452650c8c15195cdd60d21b90840152815191929161005e91600391610084565b508051610072906004906020840190610084565b50506005805460ff1916905550610158565b8280546100909061011d565b90600052602060002090601f0160209004810192826100b257600085556100f8565b82601f106100cb57805160ff19168380011785556100f8565b828001600101855582156100f8579182015b828111156100f85782518255916020019190600101906100dd565b50610104929150610108565b5090565b5b808211156101045760008155600101610109565b600181811c9082168061013157607f821691505b6020821081141561015257634e487b7160e01b600052602260045260246000fd5b50919050565b610bbc80620001686000396000f3fe608060405234801561001057600080fd5b506004361061010b5760003560e01c806339509351116100a25780638456cb59116100715780638456cb591461023457806395d89b411461023c578063a457c2d714610244578063a9059cbb14610257578063dd62ed3e1461026a57600080fd5b806339509351146101da57806340c10f19146101ed5780635c975abb1461020057806370a082311461020b57600080fd5b806323b872dd116100de57806323b872dd1461018b5780632a9053181461019e5780632b68b9c6146101c3578063313ce567146101cb57600080fd5b806306fdde0314610110578063095ea7b31461012e57806318160ddd146101515780631882140014610163575b600080fd5b6101186102a3565b60405161012591906109f9565b60405180910390f35b61014161013c366004610a6a565b610335565b6040519015158152602001610125565b6002545b604051908152602001610125565b610118604051806040016040528060098152602001680466f726569676e32360bc1b81525081565b610141610199366004610a94565b61034d565b610118604051806040016040528060068152602001650c8c15195cdd60d21b81525081565b6101c933ff5b005b60405160128152602001610125565b6101416101e8366004610a6a565b610371565b6101c96101fb366004610a6a565b6103b0565b60055460ff16610141565b610155610219366004610ad0565b6001600160a01b031660009081526020819052604090205490565b6101c96103be565b6101186103c8565b610141610252366004610a6a565b6103d7565b610141610265366004610a6a565b61046e565b610155610278366004610af2565b6001600160a01b03918216600090815260016020908152604080832093909416825291909152205490565b6060600380546102b290610b25565b80601f01602080910402602001604051908101604052809291908181526020018280546102de90610b25565b801561032b5780601f106103005761010080835404028352916020019161032b565b820191906000526020600020905b81548152906001019060200180831161030e57829003601f168201915b5050505050905090565b60003361034381858561047c565b5060019392505050565b60003361035b8582856105a0565b610366858585610632565b506001949350505050565b3360008181526001602090815260408083206001600160a01b038716845290915281205490919061034390829086906103ab908790610b60565b61047c565b6103ba828261080b565b5050565b6103c66108f6565b565b6060600480546102b290610b25565b3360008181526001602090815260408083206001600160a01b0387168452909152812054909190838110156104615760405162461bcd60e51b815260206004820152602560248201527f45524332303a2064656372656173656420616c6c6f77616e63652062656c6f77604482015264207a65726f60d81b60648201526084015b60405180910390fd5b610366828686840361047c565b600033610343818585610632565b6001600160a01b0383166104de5760405162461bcd60e51b8152602060048201526024808201527f45524332303a20617070726f76652066726f6d20746865207a65726f206164646044820152637265737360e01b6064820152608401610458565b6001600160a01b03821661053f5760405162461bcd60e51b815260206004820152602260248201527f45524332303a20617070726f766520746f20746865207a65726f206164647265604482015261737360f01b6064820152608401610458565b6001600160a01b0383811660008181526001602090815260408083209487168084529482529182902085905590518481527f8c5be1e5ebec7d5bd14f71427d1e84f3dd0314c0f7b2291e5b200ac8c7c3b925910160405180910390a3505050565b6001600160a01b03838116600090815260016020908152604080832093861683529290522054600019811461062c578181101561061f5760405162461bcd60e51b815260206004820152601d60248201527f45524332303a20696e73756666696369656e7420616c6c6f77616e63650000006044820152606401610458565b61062c848484840361047c565b50505050565b6001600160a01b0383166106965760405162461bcd60e51b815260206004820152602560248201527f45524332303a207472616e736665722066726f6d20746865207a65726f206164604482015264647265737360d81b6064820152608401610458565b6001600160a01b0382166106f85760405162461bcd60e51b815260206004820152602360248201527f45524332303a207472616e7366657220746f20746865207a65726f206164647260448201526265737360e81b6064820152608401610458565b61070383838361098e565b6001600160a01b0383166000908152602081905260409020548181101561077b5760405162461bcd60e51b815260206004820152602660248201527f45524332303a207472616e7366657220616d6f756e7420657863656564732062604482015265616c616e636560d01b6064820152608401610458565b6001600160a01b038085166000908152602081905260408082208585039055918516815290812080548492906107b2908490610b60565b92505081905550826001600160a01b0316846001600160a01b03167fddf252ad1be2c89b69c2b068fc378daa952ba7f163c4a11628f55a4df523b3ef846040516107fe91815260200190565b60405180910390a361062c565b6001600160a01b0382166108615760405162461bcd60e51b815260206004820152601f60248201527f45524332303a206d696e7420746f20746865207a65726f2061646472657373006044820152606401610458565b61086d6000838361098e565b806002600082825461087f9190610b60565b90915550506001600160a01b038216600090815260208190526040812080548392906108ac908490610b60565b90915550506040518181526001600160a01b038316906000907fddf252ad1be2c89b69c2b068fc378daa952ba7f163c4a11628f55a4df523b3ef9060200160405180910390a35050565b60055460ff161561093c5760405162461bcd60e51b815260206004820152601060248201526f14185d5cd8589b194e881c185d5cd95960821b6044820152606401610458565b6005805460ff191660011790557f62e78cea01bee320cd4e420270b5ea74000d11b0c9f74754ebdbfc544b05a2586109713390565b6040516001600160a01b03909116815260200160405180910390a1565b60055460ff16156109f45760405162461bcd60e51b815260206004820152602a60248201527f45524332305061757361626c653a20746f6b656e207472616e736665722077686044820152691a5b19481c185d5cd95960b21b6064820152608401610458565b505050565b600060208083528351808285015260005b81811015610a2657858101830151858201604001528201610a0a565b81811115610a38576000604083870101525b50601f01601f1916929092016040019392505050565b80356001600160a01b0381168114610a6557600080fd5b919050565b60008060408385031215610a7d57600080fd5b610a8683610a4e565b946020939093013593505050565b600080600060608486031215610aa957600080fd5b610ab284610a4e565b9250610ac060208501610a4e565b9150604084013590509250925092565b600060208284031215610ae257600080fd5b610aeb82610a4e565b9392505050565b60008060408385031215610b0557600080fd5b610b0e83610a4e565b9150610b1c60208401610a4e565b90509250929050565b600181811c90821680610b3957607f821691505b60208210811415610b5a57634e487b7160e01b600052602260045260246000fd5b50919050565b60008219821115610b8157634e487b7160e01b600052601160045260246000fd5b50019056fea26469706673582212206b40a7026e2cc25d49dd8114a1a81ddd9a27405ada8d7e26c7f5f385f21c62ef64736f6c63430008090033",
  "linkReferences": {},
  "deployedLinkReferences": {}
}