{
  "_format": "hh-sol-artifact-1",
  "contractName": "OrchestrationHandlerFacet",
  "sourceName": "contracts/protocol/facets/OrchestrationHandlerFacet.sol",
  "abi": [
    {
      "anonymous": false,
      "inputs": [
        {
          "indexed": true,
          "internalType": "uint256",
          "name": "bundleId",
          "type": "uint256"
        },
        {
          "indexed": true,
          "internalType": "uint256",
          "name": "sellerId",
          "type": "uint256"
        },
        {
          "components": [
            {
              "internalType": "uint256",
              "name": "id",
              "type": "uint256"
            },
            {
              "internalType": "uint256",
              "name": "sellerId",
              "type": "uint256"
            },
            {
              "internalType": "uint256[]",
              "name": "offerIds",
              "type": "uint256[]"
            },
            {
              "internalType": "uint256[]",
              "name": "twinIds",
              "type": "uint256[]"
            }
          ],
          "indexed": false,
          "internalType": "struct BosonTypes.Bundle",
          "name": "bundle",
          "type": "tuple"
        }
      ],
      "name": "BundleCreated",
      "type": "event"
    },
    {
      "anonymous": false,
      "inputs": [
        {
          "indexed": true,
          "internalType": "uint256",
          "name": "bundleId",
          "type": "uint256"
        },
        {
          "indexed": true,
          "internalType": "uint256",
          "name": "sellerId",
          "type": "uint256"
        }
      ],
      "name": "BundleDeleted",
      "type": "event"
    },
    {
      "anonymous": false,
      "inputs": [
        {
          "indexed": true,
          "internalType": "uint256",
          "name": "bundleId",
          "type": "uint256"
        },
        {
          "indexed": true,
          "internalType": "uint256",
          "name": "sellerId",
          "type": "uint256"
        },
        {
          "components": [
            {
              "internalType": "uint256",
              "name": "id",
              "type": "uint256"
            },
            {
              "internalType": "uint256",
              "name": "sellerId",
              "type": "uint256"
            },
            {
              "internalType": "uint256[]",
              "name": "offerIds",
              "type": "uint256[]"
            },
            {
              "internalType": "uint256[]",
              "name": "twinIds",
              "type": "uint256[]"
            }
          ],
          "indexed": false,
          "internalType": "struct BosonTypes.Bundle",
          "name": "bundle",
          "type": "tuple"
        }
      ],
      "name": "BundleUpdated",
      "type": "event"
    },
    {
      "anonymous": false,
      "inputs": [
        {
          "indexed": true,
          "internalType": "uint256",
          "name": "buyerId",
          "type": "uint256"
        },
        {
          "components": [
            {
              "internalType": "uint256",
              "name": "id",
              "type": "uint256"
            },
            {
              "internalType": "address payable",
              "name": "wallet",
              "type": "address"
            },
            {
              "internalType": "bool",
              "name": "active",
              "type": "bool"
            }
          ],
          "indexed": false,
          "internalType": "struct BosonTypes.Buyer",
          "name": "buyer",
          "type": "tuple"
        }
      ],
      "name": "BuyerCreated",
      "type": "event"
    },
    {
      "anonymous": false,
      "inputs": [
        {
          "indexed": true,
          "internalType": "uint256",
          "name": "buyerId",
          "type": "uint256"
        },
        {
          "components": [
            {
              "internalType": "uint256",
              "name": "id",
              "type": "uint256"
            },
            {
              "internalType": "address payable",
              "name": "wallet",
              "type": "address"
            },
            {
              "internalType": "bool",
              "name": "active",
              "type": "bool"
            }
          ],
          "indexed": false,
          "internalType": "struct BosonTypes.Buyer",
          "name": "buyer",
          "type": "tuple"
        }
      ],
      "name": "BuyerUpdated",
      "type": "event"
    },
    {
      "anonymous": false,
      "inputs": [
        {
          "indexed": true,
          "internalType": "uint256",
          "name": "groupId",
          "type": "uint256"
        },
        {
          "indexed": true,
          "internalType": "uint256",
          "name": "sellerId",
          "type": "uint256"
        },
        {
          "components": [
            {
              "internalType": "uint256",
              "name": "id",
              "type": "uint256"
            },
            {
              "internalType": "uint256",
              "name": "sellerId",
              "type": "uint256"
            },
            {
              "internalType": "uint256[]",
              "name": "offerIds",
              "type": "uint256[]"
            },
            {
              "components": [
                {
                  "internalType": "enum BosonTypes.EvaluationMethod",
                  "name": "method",
                  "type": "uint8"
                },
                {
                  "internalType": "address",
                  "name": "tokenAddress",
                  "type": "address"
                },
                {
                  "internalType": "uint256",
                  "name": "tokenId",
                  "type": "uint256"
                },
                {
                  "internalType": "uint256",
                  "name": "threshold",
                  "type": "uint256"
                }
              ],
              "internalType": "struct BosonTypes.Condition",
              "name": "condition",
              "type": "tuple"
            }
          ],
          "indexed": false,
          "internalType": "struct BosonTypes.Group",
          "name": "group",
          "type": "tuple"
        }
      ],
      "name": "GroupCreated",
      "type": "event"
    },
    {
      "anonymous": false,
      "inputs": [
        {
          "indexed": true,
          "internalType": "uint256",
          "name": "groupId",
          "type": "uint256"
        },
        {
          "indexed": true,
          "internalType": "uint256",
          "name": "sellerId",
          "type": "uint256"
        },
        {
          "components": [
            {
              "internalType": "uint256",
              "name": "id",
              "type": "uint256"
            },
            {
              "internalType": "uint256",
              "name": "sellerId",
              "type": "uint256"
            },
            {
              "internalType": "uint256[]",
              "name": "offerIds",
              "type": "uint256[]"
            },
            {
              "components": [
                {
                  "internalType": "enum BosonTypes.EvaluationMethod",
                  "name": "method",
                  "type": "uint8"
                },
                {
                  "internalType": "address",
                  "name": "tokenAddress",
                  "type": "address"
                },
                {
                  "internalType": "uint256",
                  "name": "tokenId",
                  "type": "uint256"
                },
                {
                  "internalType": "uint256",
                  "name": "threshold",
                  "type": "uint256"
                }
              ],
              "internalType": "struct BosonTypes.Condition",
              "name": "condition",
              "type": "tuple"
            }
          ],
          "indexed": false,
          "internalType": "struct BosonTypes.Group",
          "name": "group",
          "type": "tuple"
        }
      ],
      "name": "GroupUpdated",
      "type": "event"
    },
    {
      "anonymous": false,
      "inputs": [
        {
          "indexed": true,
          "internalType": "uint256",
          "name": "offerId",
          "type": "uint256"
        },
        {
          "indexed": true,
          "internalType": "uint256",
          "name": "sellerId",
          "type": "uint256"
        },
        {
          "components": [
            {
              "internalType": "uint256",
              "name": "id",
              "type": "uint256"
            },
            {
              "internalType": "uint256",
              "name": "sellerId",
              "type": "uint256"
            },
            {
              "internalType": "uint256",
              "name": "price",
              "type": "uint256"
            },
            {
              "internalType": "uint256",
              "name": "sellerDeposit",
              "type": "uint256"
            },
            {
              "internalType": "uint256",
              "name": "protocolFee",
              "type": "uint256"
            },
            {
              "internalType": "uint256",
              "name": "buyerCancelPenalty",
              "type": "uint256"
            },
            {
              "internalType": "uint256",
              "name": "quantityAvailable",
              "type": "uint256"
            },
            {
              "internalType": "uint256",
              "name": "validFromDate",
              "type": "uint256"
            },
            {
              "internalType": "uint256",
              "name": "validUntilDate",
              "type": "uint256"
            },
            {
              "internalType": "uint256",
              "name": "redeemableFromDate",
              "type": "uint256"
            },
            {
              "internalType": "uint256",
              "name": "fulfillmentPeriodDuration",
              "type": "uint256"
            },
            {
              "internalType": "uint256",
              "name": "voucherValidDuration",
              "type": "uint256"
            },
            {
              "internalType": "address",
              "name": "exchangeToken",
              "type": "address"
            },
            {
              "internalType": "string",
              "name": "metadataUri",
              "type": "string"
            },
            {
              "internalType": "string",
              "name": "offerChecksum",
              "type": "string"
            },
            {
              "internalType": "bool",
              "name": "voided",
              "type": "bool"
            }
          ],
          "indexed": false,
          "internalType": "struct BosonTypes.Offer",
          "name": "offer",
          "type": "tuple"
        }
      ],
      "name": "OfferCreated",
      "type": "event"
    },
    {
      "anonymous": false,
      "inputs": [
        {
          "indexed": true,
          "internalType": "uint256",
          "name": "offerId",
          "type": "uint256"
        },
        {
          "indexed": true,
          "internalType": "uint256",
          "name": "sellerId",
          "type": "uint256"
        },
        {
          "indexed": false,
          "internalType": "uint256",
          "name": "validUntilDate",
          "type": "uint256"
        }
      ],
      "name": "OfferExtended",
      "type": "event"
    },
    {
      "anonymous": false,
      "inputs": [
        {
          "indexed": true,
          "internalType": "uint256",
          "name": "offerId",
          "type": "uint256"
        },
        {
          "indexed": true,
          "internalType": "uint256",
          "name": "sellerId",
          "type": "uint256"
        }
      ],
      "name": "OfferVoided",
      "type": "event"
    },
    {
      "anonymous": false,
      "inputs": [
        {
          "indexed": true,
          "internalType": "uint256",
          "name": "sellerId",
          "type": "uint256"
        },
        {
          "components": [
            {
              "internalType": "uint256",
              "name": "id",
              "type": "uint256"
            },
            {
              "internalType": "address",
              "name": "operator",
              "type": "address"
            },
            {
              "internalType": "address",
              "name": "admin",
              "type": "address"
            },
            {
              "internalType": "address",
              "name": "clerk",
              "type": "address"
            },
            {
              "internalType": "address payable",
              "name": "treasury",
              "type": "address"
            },
            {
              "internalType": "bool",
              "name": "active",
              "type": "bool"
            }
          ],
          "indexed": false,
          "internalType": "struct BosonTypes.Seller",
          "name": "seller",
          "type": "tuple"
        }
      ],
      "name": "SellerCreated",
      "type": "event"
    },
    {
      "anonymous": false,
      "inputs": [
        {
          "indexed": true,
          "internalType": "uint256",
          "name": "sellerId",
          "type": "uint256"
        },
        {
          "components": [
            {
              "internalType": "uint256",
              "name": "id",
              "type": "uint256"
            },
            {
              "internalType": "address",
              "name": "operator",
              "type": "address"
            },
            {
              "internalType": "address",
              "name": "admin",
              "type": "address"
            },
            {
              "internalType": "address",
              "name": "clerk",
              "type": "address"
            },
            {
              "internalType": "address payable",
              "name": "treasury",
              "type": "address"
            },
            {
              "internalType": "bool",
              "name": "active",
              "type": "bool"
            }
          ],
          "indexed": false,
          "internalType": "struct BosonTypes.Seller",
          "name": "seller",
          "type": "tuple"
        }
      ],
      "name": "SellerUpdated",
      "type": "event"
    },
    {
      "anonymous": false,
      "inputs": [
        {
          "indexed": true,
          "internalType": "uint256",
          "name": "twinId",
          "type": "uint256"
        },
        {
          "indexed": true,
          "internalType": "uint256",
          "name": "sellerId",
          "type": "uint256"
        },
        {
          "components": [
            {
              "internalType": "uint256",
              "name": "id",
              "type": "uint256"
            },
            {
              "internalType": "uint256",
              "name": "sellerId",
              "type": "uint256"
            },
            {
              "internalType": "uint256",
              "name": "supplyAvailable",
              "type": "uint256"
            },
            {
              "internalType": "uint256[]",
              "name": "supplyIds",
              "type": "uint256[]"
            },
            {
              "internalType": "uint256",
              "name": "tokenId",
              "type": "uint256"
            },
            {
              "internalType": "address",
              "name": "tokenAddress",
              "type": "address"
            }
          ],
          "indexed": false,
          "internalType": "struct BosonTypes.Twin",
          "name": "twin",
          "type": "tuple"
        }
      ],
      "name": "TwinCreated",
      "type": "event"
    },
    {
      "anonymous": false,
      "inputs": [
        {
          "indexed": true,
          "internalType": "uint256",
          "name": "twinId",
          "type": "uint256"
        },
        {
          "indexed": true,
          "internalType": "uint256",
          "name": "sellerId",
          "type": "uint256"
        }
      ],
      "name": "TwinDeleted",
      "type": "event"
    },
    {
      "inputs": [
        {
          "components": [
            {
              "internalType": "uint256",
              "name": "id",
              "type": "uint256"
            },
            {
              "internalType": "uint256",
              "name": "sellerId",
              "type": "uint256"
            },
            {
              "internalType": "uint256",
              "name": "price",
              "type": "uint256"
            },
            {
              "internalType": "uint256",
              "name": "sellerDeposit",
              "type": "uint256"
            },
            {
              "internalType": "uint256",
              "name": "protocolFee",
              "type": "uint256"
            },
            {
              "internalType": "uint256",
              "name": "buyerCancelPenalty",
              "type": "uint256"
            },
            {
              "internalType": "uint256",
              "name": "quantityAvailable",
              "type": "uint256"
            },
            {
              "internalType": "uint256",
              "name": "validFromDate",
              "type": "uint256"
            },
            {
              "internalType": "uint256",
              "name": "validUntilDate",
              "type": "uint256"
            },
            {
              "internalType": "uint256",
              "name": "redeemableFromDate",
              "type": "uint256"
            },
            {
              "internalType": "uint256",
              "name": "fulfillmentPeriodDuration",
              "type": "uint256"
            },
            {
              "internalType": "uint256",
              "name": "voucherValidDuration",
              "type": "uint256"
            },
            {
              "internalType": "address",
              "name": "exchangeToken",
              "type": "address"
            },
            {
              "internalType": "string",
              "name": "metadataUri",
              "type": "string"
            },
            {
              "internalType": "string",
              "name": "offerChecksum",
              "type": "string"
            },
            {
              "internalType": "bool",
              "name": "voided",
              "type": "bool"
            }
          ],
          "internalType": "struct BosonTypes.Offer",
          "name": "_offer",
          "type": "tuple"
        },
        {
          "internalType": "uint256",
          "name": "_groupId",
          "type": "uint256"
        }
      ],
      "name": "createOfferAddToGroup",
      "outputs": [],
      "stateMutability": "nonpayable",
      "type": "function"
    },
    {
      "inputs": [
        {
          "components": [
            {
              "internalType": "uint256",
              "name": "id",
              "type": "uint256"
            },
            {
              "internalType": "uint256",
              "name": "sellerId",
              "type": "uint256"
            },
            {
              "internalType": "uint256",
              "name": "price",
              "type": "uint256"
            },
            {
              "internalType": "uint256",
              "name": "sellerDeposit",
              "type": "uint256"
            },
            {
              "internalType": "uint256",
              "name": "protocolFee",
              "type": "uint256"
            },
            {
              "internalType": "uint256",
              "name": "buyerCancelPenalty",
              "type": "uint256"
            },
            {
              "internalType": "uint256",
              "name": "quantityAvailable",
              "type": "uint256"
            },
            {
              "internalType": "uint256",
              "name": "validFromDate",
              "type": "uint256"
            },
            {
              "internalType": "uint256",
              "name": "validUntilDate",
              "type": "uint256"
            },
            {
              "internalType": "uint256",
              "name": "redeemableFromDate",
              "type": "uint256"
            },
            {
              "internalType": "uint256",
              "name": "fulfillmentPeriodDuration",
              "type": "uint256"
            },
            {
              "internalType": "uint256",
              "name": "voucherValidDuration",
              "type": "uint256"
            },
            {
              "internalType": "address",
              "name": "exchangeToken",
              "type": "address"
            },
            {
              "internalType": "string",
              "name": "metadataUri",
              "type": "string"
            },
            {
              "internalType": "string",
              "name": "offerChecksum",
              "type": "string"
            },
            {
              "internalType": "bool",
              "name": "voided",
              "type": "bool"
            }
          ],
          "internalType": "struct BosonTypes.Offer",
          "name": "_offer",
          "type": "tuple"
        },
        {
          "components": [
            {
              "internalType": "uint256",
              "name": "id",
              "type": "uint256"
            },
            {
              "internalType": "uint256",
              "name": "sellerId",
              "type": "uint256"
            },
            {
              "internalType": "uint256",
              "name": "supplyAvailable",
              "type": "uint256"
            },
            {
              "internalType": "uint256[]",
              "name": "supplyIds",
              "type": "uint256[]"
            },
            {
              "internalType": "uint256",
              "name": "tokenId",
              "type": "uint256"
            },
            {
              "internalType": "address",
              "name": "tokenAddress",
              "type": "address"
            }
          ],
          "internalType": "struct BosonTypes.Twin",
          "name": "_twin",
          "type": "tuple"
        }
      ],
      "name": "createOfferAndTwinWithBundle",
      "outputs": [],
      "stateMutability": "nonpayable",
      "type": "function"
    },
    {
      "inputs": [
        {
          "components": [
            {
              "internalType": "uint256",
              "name": "id",
              "type": "uint256"
            },
            {
              "internalType": "uint256",
              "name": "sellerId",
              "type": "uint256"
            },
            {
              "internalType": "uint256",
              "name": "price",
              "type": "uint256"
            },
            {
              "internalType": "uint256",
              "name": "sellerDeposit",
              "type": "uint256"
            },
            {
              "internalType": "uint256",
              "name": "protocolFee",
              "type": "uint256"
            },
            {
              "internalType": "uint256",
              "name": "buyerCancelPenalty",
              "type": "uint256"
            },
            {
              "internalType": "uint256",
              "name": "quantityAvailable",
              "type": "uint256"
            },
            {
              "internalType": "uint256",
              "name": "validFromDate",
              "type": "uint256"
            },
            {
              "internalType": "uint256",
              "name": "validUntilDate",
              "type": "uint256"
            },
            {
              "internalType": "uint256",
              "name": "redeemableFromDate",
              "type": "uint256"
            },
            {
              "internalType": "uint256",
              "name": "fulfillmentPeriodDuration",
              "type": "uint256"
            },
            {
              "internalType": "uint256",
              "name": "voucherValidDuration",
              "type": "uint256"
            },
            {
              "internalType": "address",
              "name": "exchangeToken",
              "type": "address"
            },
            {
              "internalType": "string",
              "name": "metadataUri",
              "type": "string"
            },
            {
              "internalType": "string",
              "name": "offerChecksum",
              "type": "string"
            },
            {
              "internalType": "bool",
              "name": "voided",
              "type": "bool"
            }
          ],
          "internalType": "struct BosonTypes.Offer",
          "name": "_offer",
          "type": "tuple"
        },
        {
          "components": [
            {
              "internalType": "enum BosonTypes.EvaluationMethod",
              "name": "method",
              "type": "uint8"
            },
            {
              "internalType": "address",
              "name": "tokenAddress",
              "type": "address"
            },
            {
              "internalType": "uint256",
              "name": "tokenId",
              "type": "uint256"
            },
            {
              "internalType": "uint256",
              "name": "threshold",
              "type": "uint256"
            }
          ],
          "internalType": "struct BosonTypes.Condition",
          "name": "_condition",
          "type": "tuple"
        }
      ],
      "name": "createOfferWithCondition",
      "outputs": [],
      "stateMutability": "nonpayable",
      "type": "function"
    },
    {
      "inputs": [
        {
          "components": [
            {
              "internalType": "uint256",
              "name": "id",
              "type": "uint256"
            },
            {
              "internalType": "uint256",
              "name": "sellerId",
              "type": "uint256"
            },
            {
              "internalType": "uint256",
              "name": "price",
              "type": "uint256"
            },
            {
              "internalType": "uint256",
              "name": "sellerDeposit",
              "type": "uint256"
            },
            {
              "internalType": "uint256",
              "name": "protocolFee",
              "type": "uint256"
            },
            {
              "internalType": "uint256",
              "name": "buyerCancelPenalty",
              "type": "uint256"
            },
            {
              "internalType": "uint256",
              "name": "quantityAvailable",
              "type": "uint256"
            },
            {
              "internalType": "uint256",
              "name": "validFromDate",
              "type": "uint256"
            },
            {
              "internalType": "uint256",
              "name": "validUntilDate",
              "type": "uint256"
            },
            {
              "internalType": "uint256",
              "name": "redeemableFromDate",
              "type": "uint256"
            },
            {
              "internalType": "uint256",
              "name": "fulfillmentPeriodDuration",
              "type": "uint256"
            },
            {
              "internalType": "uint256",
              "name": "voucherValidDuration",
              "type": "uint256"
            },
            {
              "internalType": "address",
              "name": "exchangeToken",
              "type": "address"
            },
            {
              "internalType": "string",
              "name": "metadataUri",
              "type": "string"
            },
            {
              "internalType": "string",
              "name": "offerChecksum",
              "type": "string"
            },
            {
              "internalType": "bool",
              "name": "voided",
              "type": "bool"
            }
          ],
          "internalType": "struct BosonTypes.Offer",
          "name": "_offer",
          "type": "tuple"
        },
        {
          "components": [
            {
              "internalType": "enum BosonTypes.EvaluationMethod",
              "name": "method",
              "type": "uint8"
            },
            {
              "internalType": "address",
              "name": "tokenAddress",
              "type": "address"
            },
            {
              "internalType": "uint256",
              "name": "tokenId",
              "type": "uint256"
            },
            {
              "internalType": "uint256",
              "name": "threshold",
              "type": "uint256"
            }
          ],
          "internalType": "struct BosonTypes.Condition",
          "name": "_condition",
          "type": "tuple"
        },
        {
          "components": [
            {
              "internalType": "uint256",
              "name": "id",
              "type": "uint256"
            },
            {
              "internalType": "uint256",
              "name": "sellerId",
              "type": "uint256"
            },
            {
              "internalType": "uint256",
              "name": "supplyAvailable",
              "type": "uint256"
            },
            {
              "internalType": "uint256[]",
              "name": "supplyIds",
              "type": "uint256[]"
            },
            {
              "internalType": "uint256",
              "name": "tokenId",
              "type": "uint256"
            },
            {
              "internalType": "address",
              "name": "tokenAddress",
              "type": "address"
            }
          ],
          "internalType": "struct BosonTypes.Twin",
          "name": "_twin",
          "type": "tuple"
        }
      ],
      "name": "createOfferWithConditionAndTwinAndBundle",
      "outputs": [],
      "stateMutability": "nonpayable",
      "type": "function"
    },
    {
      "inputs": [
        {
          "components": [
            {
              "internalType": "uint256",
              "name": "id",
              "type": "uint256"
            },
            {
              "internalType": "address",
              "name": "operator",
              "type": "address"
            },
            {
              "internalType": "address",
              "name": "admin",
              "type": "address"
            },
            {
              "internalType": "address",
              "name": "clerk",
              "type": "address"
            },
            {
              "internalType": "address payable",
              "name": "treasury",
              "type": "address"
            },
            {
              "internalType": "bool",
              "name": "active",
              "type": "bool"
            }
          ],
          "internalType": "struct BosonTypes.Seller",
          "name": "_seller",
          "type": "tuple"
        },
        {
          "components": [
            {
              "internalType": "uint256",
              "name": "id",
              "type": "uint256"
            },
            {
              "internalType": "uint256",
              "name": "sellerId",
              "type": "uint256"
            },
            {
              "internalType": "uint256",
              "name": "price",
              "type": "uint256"
            },
            {
              "internalType": "uint256",
              "name": "sellerDeposit",
              "type": "uint256"
            },
            {
              "internalType": "uint256",
              "name": "protocolFee",
              "type": "uint256"
            },
            {
              "internalType": "uint256",
              "name": "buyerCancelPenalty",
              "type": "uint256"
            },
            {
              "internalType": "uint256",
              "name": "quantityAvailable",
              "type": "uint256"
            },
            {
              "internalType": "uint256",
              "name": "validFromDate",
              "type": "uint256"
            },
            {
              "internalType": "uint256",
              "name": "validUntilDate",
              "type": "uint256"
            },
            {
              "internalType": "uint256",
              "name": "redeemableFromDate",
              "type": "uint256"
            },
            {
              "internalType": "uint256",
              "name": "fulfillmentPeriodDuration",
              "type": "uint256"
            },
            {
              "internalType": "uint256",
              "name": "voucherValidDuration",
              "type": "uint256"
            },
            {
              "internalType": "address",
              "name": "exchangeToken",
              "type": "address"
            },
            {
              "internalType": "string",
              "name": "metadataUri",
              "type": "string"
            },
            {
              "internalType": "string",
              "name": "offerChecksum",
              "type": "string"
            },
            {
              "internalType": "bool",
              "name": "voided",
              "type": "bool"
            }
          ],
          "internalType": "struct BosonTypes.Offer",
          "name": "_offer",
          "type": "tuple"
        }
      ],
      "name": "createSellerAndOffer",
      "outputs": [],
      "stateMutability": "nonpayable",
      "type": "function"
    },
    {
      "inputs": [
        {
          "components": [
            {
              "internalType": "uint256",
              "name": "id",
              "type": "uint256"
            },
            {
              "internalType": "address",
              "name": "operator",
              "type": "address"
            },
            {
              "internalType": "address",
              "name": "admin",
              "type": "address"
            },
            {
              "internalType": "address",
              "name": "clerk",
              "type": "address"
            },
            {
              "internalType": "address payable",
              "name": "treasury",
              "type": "address"
            },
            {
              "internalType": "bool",
              "name": "active",
              "type": "bool"
            }
          ],
          "internalType": "struct BosonTypes.Seller",
          "name": "_seller",
          "type": "tuple"
        },
        {
          "components": [
            {
              "internalType": "uint256",
              "name": "id",
              "type": "uint256"
            },
            {
              "internalType": "uint256",
              "name": "sellerId",
              "type": "uint256"
            },
            {
              "internalType": "uint256",
              "name": "price",
              "type": "uint256"
            },
            {
              "internalType": "uint256",
              "name": "sellerDeposit",
              "type": "uint256"
            },
            {
              "internalType": "uint256",
              "name": "protocolFee",
              "type": "uint256"
            },
            {
              "internalType": "uint256",
              "name": "buyerCancelPenalty",
              "type": "uint256"
            },
            {
              "internalType": "uint256",
              "name": "quantityAvailable",
              "type": "uint256"
            },
            {
              "internalType": "uint256",
              "name": "validFromDate",
              "type": "uint256"
            },
            {
              "internalType": "uint256",
              "name": "validUntilDate",
              "type": "uint256"
            },
            {
              "internalType": "uint256",
              "name": "redeemableFromDate",
              "type": "uint256"
            },
            {
              "internalType": "uint256",
              "name": "fulfillmentPeriodDuration",
              "type": "uint256"
            },
            {
              "internalType": "uint256",
              "name": "voucherValidDuration",
              "type": "uint256"
            },
            {
              "internalType": "address",
              "name": "exchangeToken",
              "type": "address"
            },
            {
              "internalType": "string",
              "name": "metadataUri",
              "type": "string"
            },
            {
              "internalType": "string",
              "name": "offerChecksum",
              "type": "string"
            },
            {
              "internalType": "bool",
              "name": "voided",
              "type": "bool"
            }
          ],
          "internalType": "struct BosonTypes.Offer",
          "name": "_offer",
          "type": "tuple"
        },
        {
          "components": [
            {
              "internalType": "uint256",
              "name": "id",
              "type": "uint256"
            },
            {
              "internalType": "uint256",
              "name": "sellerId",
              "type": "uint256"
            },
            {
              "internalType": "uint256",
              "name": "supplyAvailable",
              "type": "uint256"
            },
            {
              "internalType": "uint256[]",
              "name": "supplyIds",
              "type": "uint256[]"
            },
            {
              "internalType": "uint256",
              "name": "tokenId",
              "type": "uint256"
            },
            {
              "internalType": "address",
              "name": "tokenAddress",
              "type": "address"
            }
          ],
          "internalType": "struct BosonTypes.Twin",
          "name": "_twin",
          "type": "tuple"
        }
      ],
      "name": "createSellerAndOfferAndTwinWithBundle",
      "outputs": [],
      "stateMutability": "nonpayable",
      "type": "function"
    },
    {
      "inputs": [
        {
          "components": [
            {
              "internalType": "uint256",
              "name": "id",
              "type": "uint256"
            },
            {
              "internalType": "address",
              "name": "operator",
              "type": "address"
            },
            {
              "internalType": "address",
              "name": "admin",
              "type": "address"
            },
            {
              "internalType": "address",
              "name": "clerk",
              "type": "address"
            },
            {
              "internalType": "address payable",
              "name": "treasury",
              "type": "address"
            },
            {
              "internalType": "bool",
              "name": "active",
              "type": "bool"
            }
          ],
          "internalType": "struct BosonTypes.Seller",
          "name": "_seller",
          "type": "tuple"
        },
        {
          "components": [
            {
              "internalType": "uint256",
              "name": "id",
              "type": "uint256"
            },
            {
              "internalType": "uint256",
              "name": "sellerId",
              "type": "uint256"
            },
            {
              "internalType": "uint256",
              "name": "price",
              "type": "uint256"
            },
            {
              "internalType": "uint256",
              "name": "sellerDeposit",
              "type": "uint256"
            },
            {
              "internalType": "uint256",
              "name": "protocolFee",
              "type": "uint256"
            },
            {
              "internalType": "uint256",
              "name": "buyerCancelPenalty",
              "type": "uint256"
            },
            {
              "internalType": "uint256",
              "name": "quantityAvailable",
              "type": "uint256"
            },
            {
              "internalType": "uint256",
              "name": "validFromDate",
              "type": "uint256"
            },
            {
              "internalType": "uint256",
              "name": "validUntilDate",
              "type": "uint256"
            },
            {
              "internalType": "uint256",
              "name": "redeemableFromDate",
              "type": "uint256"
            },
            {
              "internalType": "uint256",
              "name": "fulfillmentPeriodDuration",
              "type": "uint256"
            },
            {
              "internalType": "uint256",
              "name": "voucherValidDuration",
              "type": "uint256"
            },
            {
              "internalType": "address",
              "name": "exchangeToken",
              "type": "address"
            },
            {
              "internalType": "string",
              "name": "metadataUri",
              "type": "string"
            },
            {
              "internalType": "string",
              "name": "offerChecksum",
              "type": "string"
            },
            {
              "internalType": "bool",
              "name": "voided",
              "type": "bool"
            }
          ],
          "internalType": "struct BosonTypes.Offer",
          "name": "_offer",
          "type": "tuple"
        },
        {
          "components": [
            {
              "internalType": "enum BosonTypes.EvaluationMethod",
              "name": "method",
              "type": "uint8"
            },
            {
              "internalType": "address",
              "name": "tokenAddress",
              "type": "address"
            },
            {
              "internalType": "uint256",
              "name": "tokenId",
              "type": "uint256"
            },
            {
              "internalType": "uint256",
              "name": "threshold",
              "type": "uint256"
            }
          ],
          "internalType": "struct BosonTypes.Condition",
          "name": "_condition",
          "type": "tuple"
        }
      ],
      "name": "createSellerAndOfferWithCondition",
      "outputs": [],
      "stateMutability": "nonpayable",
      "type": "function"
    },
    {
      "inputs": [
        {
          "components": [
            {
              "internalType": "uint256",
              "name": "id",
              "type": "uint256"
            },
            {
              "internalType": "address",
              "name": "operator",
              "type": "address"
            },
            {
              "internalType": "address",
              "name": "admin",
              "type": "address"
            },
            {
              "internalType": "address",
              "name": "clerk",
              "type": "address"
            },
            {
              "internalType": "address payable",
              "name": "treasury",
              "type": "address"
            },
            {
              "internalType": "bool",
              "name": "active",
              "type": "bool"
            }
          ],
          "internalType": "struct BosonTypes.Seller",
          "name": "_seller",
          "type": "tuple"
        },
        {
          "components": [
            {
              "internalType": "uint256",
              "name": "id",
              "type": "uint256"
            },
            {
              "internalType": "uint256",
              "name": "sellerId",
              "type": "uint256"
            },
            {
              "internalType": "uint256",
              "name": "price",
              "type": "uint256"
            },
            {
              "internalType": "uint256",
              "name": "sellerDeposit",
              "type": "uint256"
            },
            {
              "internalType": "uint256",
              "name": "protocolFee",
              "type": "uint256"
            },
            {
              "internalType": "uint256",
              "name": "buyerCancelPenalty",
              "type": "uint256"
            },
            {
              "internalType": "uint256",
              "name": "quantityAvailable",
              "type": "uint256"
            },
            {
              "internalType": "uint256",
              "name": "validFromDate",
              "type": "uint256"
            },
            {
              "internalType": "uint256",
              "name": "validUntilDate",
              "type": "uint256"
            },
            {
              "internalType": "uint256",
              "name": "redeemableFromDate",
              "type": "uint256"
            },
            {
              "internalType": "uint256",
              "name": "fulfillmentPeriodDuration",
              "type": "uint256"
            },
            {
              "internalType": "uint256",
              "name": "voucherValidDuration",
              "type": "uint256"
            },
            {
              "internalType": "address",
              "name": "exchangeToken",
              "type": "address"
            },
            {
              "internalType": "string",
              "name": "metadataUri",
              "type": "string"
            },
            {
              "internalType": "string",
              "name": "offerChecksum",
              "type": "string"
            },
            {
              "internalType": "bool",
              "name": "voided",
              "type": "bool"
            }
          ],
          "internalType": "struct BosonTypes.Offer",
          "name": "_offer",
          "type": "tuple"
        },
        {
          "components": [
            {
              "internalType": "enum BosonTypes.EvaluationMethod",
              "name": "method",
              "type": "uint8"
            },
            {
              "internalType": "address",
              "name": "tokenAddress",
              "type": "address"
            },
            {
              "internalType": "uint256",
              "name": "tokenId",
              "type": "uint256"
            },
            {
              "internalType": "uint256",
              "name": "threshold",
              "type": "uint256"
            }
          ],
          "internalType": "struct BosonTypes.Condition",
          "name": "_condition",
          "type": "tuple"
        },
        {
          "components": [
            {
              "internalType": "uint256",
              "name": "id",
              "type": "uint256"
            },
            {
              "internalType": "uint256",
              "name": "sellerId",
              "type": "uint256"
            },
            {
              "internalType": "uint256",
              "name": "supplyAvailable",
              "type": "uint256"
            },
            {
              "internalType": "uint256[]",
              "name": "supplyIds",
              "type": "uint256[]"
            },
            {
              "internalType": "uint256",
              "name": "tokenId",
              "type": "uint256"
            },
            {
              "internalType": "address",
              "name": "tokenAddress",
              "type": "address"
            }
          ],
          "internalType": "struct BosonTypes.Twin",
          "name": "_twin",
          "type": "tuple"
        }
      ],
      "name": "createSellerAndOfferWithConditionAndTwinAndBundle",
      "outputs": [],
      "stateMutability": "nonpayable",
      "type": "function"
    },
    {
      "inputs": [],
      "name": "initialize",
      "outputs": [],
      "stateMutability": "nonpayable",
      "type": "function"
    }
  ],
  "bytecode": "0x608060405234801561001057600080fd5b50612cc2806100206000396000f3fe608060405234801561001057600080fd5b50600436106100935760003560e01c8063bd7e75b311610066578063bd7e75b3146100db578063c5ede660146100ee578063dafc691d14610101578063dcf8b9a814610114578063f5426c2d1461012757600080fd5b8063213e7efe146100985780635cc59360146100ad5780638129fc1c146100c05780639c207480146100c8575b600080fd5b6100ab6100a636600461229e565b61013a565b005b6100ab6100bb3660046123d4565b6101be565b6100ab6101db565b6100ab6100d63660046124c2565b61030f565b6100ab6100e9366004612510565b610321565b6100ab6100fc36600461256e565b610334565b6100ab61010f3660046125ce565b610347565b6100ab610122366004612627565b610363565b6100ab61013536600461266b565b6103bc565b610143826103d6565b604080516080810182526000808252602085810151908301528251600180825281850185529193830191816020016020820280368337019050508152602001838152509050826000015181604001516000815181106101a4576101a46126f3565b6020026020010181815250506101b9816104b2565b505050565b6101c8838361013a565b6101b981846000015185602001516107f2565b636a0eb65560e01b60008190527fe7ad30265b8084c731e610579d091ebe2886115e8a5cacb6b704e4392f48b2c160208181527f2da971b1896d1f039c80f9aae29334f64a8dd95db0cddfcd93fface3b9806ce054604080518082019091526013815272105b1c9958591e481a5b9a5d1a585b1a5e9959606a1b9281019290925260ff16156102865760405162461bcd60e51b815260040161027d9190612756565b60405180910390fd5b506001600160e01b0319821660009081526020828152604082208054600160ff199182168117909255636a0eb65560e01b9093527fc8fcad8db84d3cc18b4c41d551ea0ee66dd599cde068d998e57d5e09332c131f9091527f4b4ca659a9eb8c5d93c09b2d2661e7a496834ae5174eac8652860ae94ea38aa580549092161790555050565b5050565b610318826108ac565b61030b816103d6565b61032a836108ac565b6101b98282610347565b61033d836108ac565b6101b9828261013a565b610350826103d6565b61030b81836000015184602001516107f2565b61036c826103d6565b604080516001808252818301909252600091602080830190803683370190505090508260000151816000815181106103a6576103a66126f3565b6020026020010181815250506101b98282610914565b6103c5846108ac565b6103d08383836101be565b50505050565b6000806103e233610a3b565b9150915081604051806040016040528060158152602001600080516020612bb4833981519152815250906104295760405162461bcd60e51b815260040161027d9190612756565b50602083018190527f236215f8ddaf4ac1232d1f2516766788cddc14962c93aafa73278d9e2e4497de8054600091826104618361277f565b90915550808552905061047384610a6c565b81817f9ad06815b852aa1306640c923d777c61455cbebcdb37df3a10a440031f92bf04866040516104a4919061279a565b60405180910390a350505050565b6000806104be33610a3b565b9150915081604051806040016040528060158152602001600080516020612bb4833981519152815250906105055760405162461bcd60e51b815260040161027d9190612756565b5061050e610d56565b60020160169054906101000a900461ffff1661ffff1683604001515111156040518060600160405280602f8152602001612bd4602f9139906105635760405162461bcd60e51b815260040161027d9190612756565b506105718360600151610d7a565b6040518060400160405280601c81526020017f496e76616c696420636f6e646974696f6e20706172616d657465727300000000815250906105c55760405162461bcd60e51b815260040161027d9190612756565b507f236215f8ddaf4ac1232d1f2516766788cddc14962c93aafa73278d9e2e4497e18054600091826105f68361277f565b91905055905060005b8460400151518110156107075761063285604001518281518110610625576106256126f3565b6020026020010151610e27565b50600061065b8660400151838151811061064e5761064e6126f3565b6020026020010151610f3c565b50905080156040518060400160405280601f81526020017f4f66666572206d75737420626520756e6971756520746f20612067726f757000815250906106b45760405162461bcd60e51b815260040161027d9190612756565b50826106be610d56565b600e016000886040015185815181106106d9576106d96126f3565b60200260200101518152602001908152602001600020819055505080806106ff9061277f565b9150506105ff565b50600061071382610f5f565b8387528381556020808801869052600182018690556040880151805192945061074493506002850192910190611eff565b5060608501518051600383018054909190829060ff1916600183600281111561076f5761076f61289c565b0217905550602082015181546001600160a01b0390911661010002610100600160a81b0319909116178155604080830151600183015560609092015160029091015551839083907f7e80ace71457947c82cc37d920210a7ee665a6eeb825965e8d6a76c9b1fa7c9a906107e390899061290f565b60405180910390a35050505050565b6107fb83610f94565b60408051608081018252600080825260208201849052825160018082528185018552919383019181602001602082028036833750505081526040805160018082528183019092526020928301929091908083019080368337019050508152509050828160400151600081518110610874576108746126f3565b6020908102919091010152835160608201518051600090610897576108976126f3565b6020026020010181815250506103d081611124565b336001600160a01b031681602001516001600160a01b031614604051806040016040528060158152602001600080516020612bb4833981519152815250906109075760405162461bcd60e51b815260040161027d9190612756565b50610911816115bd565b50565b60008061092184846117a5565b9150915060005b8351811015610a09576000848281518110610945576109456126f3565b6020026020010151905061095881610e27565b50600061096482610f3c565b50905080156040518060400160405280601f81526020017f4f66666572206d75737420626520756e6971756520746f20612067726f757000815250906109bd5760405162461bcd60e51b815260040161027d9190612756565b50866109c7610d56565b6000848152600e919091016020908152604082209290925560028601805460018101825590825291902001919091555080610a018161277f565b915050610928565b5081847fcc5b9e78914db9bab487bf766b0c58ac9a73deba6d3a319003e0c87e2f415f2e836040516104a49190612985565b600080610a46610d56565b6001600160a01b039093166000908152600f939093016020525050604090205480151591565b8061010001518160e00151106040518060400160405280601481526020017313d999995c881c195c9a5bd9081a5b9d985b1a5960621b81525090610ac35760405162461bcd60e51b815260040161027d9190612756565b5042816101000151116040518060400160405280601481526020017313d999995c881c195c9a5bd9081a5b9d985b1a5960621b81525090610b175760405162461bcd60e51b815260040161027d9190612756565b50806101e0015115604051806040016040528060148152602001734f66666572206d7573742062652061637469766560601b81525090610b6a5760405162461bcd60e51b815260040161027d9190612756565b50600061271082606001518360400151610b849190612a2e565b610b8c610d56565b60020154610ba59190600160a01b900461ffff16612a46565b610baf9190612a65565b60808301819052606083015160408051808201909152601581527413d999995c8819195c1bdcda5d081a5b9d985b1a59605a1b6020820152919250821115610c0a5760405162461bcd60e51b815260040161027d9190612756565b508160400151818360a00151610c209190612a2e565b11156040518060400160405280601581526020017413d999995c881c195b985b1d1e481a5b9d985b1a59605a1b81525090610c6e5760405162461bcd60e51b815260040161027d9190612756565b506000610c7e8360000151611901565b84518155602080860151600183015560408601516002830155606086015160038301556080860151600483015560a0860151600583015560c0860151600683015560e0860151600783015561010086015160088301556101208601516009830155610140860151600a830155610160860151600b830155610180860151600c830180546001600160a01b0319166001600160a01b039092169190911790556101a08601518051929450610d399350600d850192910190611f4a565b506101c083015180516103d091600e840191602090910190611f4a565b7f14c87be183d40876b1316e67a92c4469522d68b1be15fad3f5453a003ce0952b90565b60008082516002811115610d9057610d9061289c565b1415610dc75760208201516001600160a01b0316158015610db357506040820151155b8015610dc157506060820151155b92915050565b600182516002811115610ddc57610ddc61289c565b1415610df55750602001516001600160a01b0316151590565b600282516002811115610e0a57610e0a61289c565b1415610e22575060208101516001600160a01b031615155b919050565b6000806000610e3584611901565b60408051808201909152600d81526c27379039bab1b41037b33332b960991b602082015290945090925082610e7d5760405162461bcd60e51b815260040161027d9190612756565b50600f83015460408051808201909152601581527413d999995c881a185cc81899595b881d9bda591959605a1b60208201529060ff1615610ed15760405162461bcd60e51b815260040161027d9190612756565b50610edf8360010154611935565b60018101546040805180820190915260158152600080516020612bb483398151915260208201529193509091506001600160a01b03163314610f345760405162461bcd60e51b815260040161027d9190612756565b505050919050565b600080610f47610d56565b6000938452600e016020525050604090205480151591565b600080610f6a610d56565b60008481526008919091016020526040902090508215801590610f8d5750805483145b9150915091565b600080610fa033610a3b565b9150915081604051806040016040528060158152602001600080516020612bb483398151915281525090610fe75760405162461bcd60e51b815260040161027d9190612756565b50610ff78360a001513330611969565b60405180604001604052806014815260200173139bc81d1c985b9cd9995c88185c1c1c9bdd995960621b815250906110425760405162461bcd60e51b815260040161027d9190612756565b507f236215f8ddaf4ac1232d1f2516766788cddc14962c93aafa73278d9e2e4497e08054600091826110738361277f565b919050559050600061108482611b10565b83875283815560208088018690526001820186905560408801516002830155606088015180519294506110bf93506003850192910190611eff565b506080850151600482015560a08501516005820180546001600160a01b0319166001600160a01b03909216919091179055604051839083907f30ece5f3271c6da0773f682316cb7904f5405dd4dbd8693ce1c0481fc40b1e03906107e3908990612a87565b60008061113033610a3b565b9150915081604051806040016040528060158152602001600080516020612bb4833981519152815250906111775760405162461bcd60e51b815260040161027d9190612756565b50611180610d56565b60020160189054906101000a900461ffff1661ffff1683604001515111156040518060600160405280602f8152602001612bd4602f9139906111d55760405162461bcd60e51b815260040161027d9190612756565b506111de610d56565b600201601a9054906101000a900461ffff1661ffff1683606001515111156040518060600160405280602e8152602001612c03602e9139906112335760405162461bcd60e51b815260040161027d9190612756565b507f236215f8ddaf4ac1232d1f2516766788cddc14962c93aafa73278d9e2e4497e28054600091826112648361277f565b91905055905060005b8460400151518110156113eb5761129385604001518281518110610625576106256126f3565b5060006112bc866040015183815181106112af576112af6126f3565b6020026020010151611b44565b50905080156040518060400160405280602081526020017f4f66666572206d75737420626520756e6971756520746f20612062756e646c65815250906113155760405162461bcd60e51b815260040161027d9190612756565b50600061133e87604001518481518110611331576113316126f3565b6020026020010151611b67565b50905080156040518060400160405280601981526020017f45786368616e676520666f72206f666665722065786973747300000000000000815250906113975760405162461bcd60e51b815260040161027d9190612756565b50836113a1610d56565b600c016000896040015186815181106113bc576113bc6126f3565b6020026020010151815260200190815260200160002081905550505080806113e39061277f565b91505061126d565b5060005b8460600151518110156115325761142285606001518281518110611415576114156126f3565b6020026020010151611be4565b5060008061144c8760600151848151811061143f5761143f6126f3565b6020026020010151611c8f565b9150915081156114cb5760005b81518110156114c95784828281518110611475576114756126f3565b60200260200101511415604051806060016040528060268152602001612c6760269139906114b65760405162461bcd60e51b815260040161027d9190612756565b50806114c18161277f565b915050611459565b505b6114d3610d56565b600d016000886060015185815181106114ee576114ee6126f3565b60209081029190910181015182528181019290925260400160009081208054600181018255908252919020018490555081905061152a8161277f565b9150506113ef565b50600061153e82611d0a565b8387528381556020808801869052600182018690556040880151805192945061156f93506002850192910190611eff565b506060850151805161158b916003840191602090910190611eff565b5082827fcf8f9159d5f8995097f8c58aefe95e80146552ccedba0702a60fde60981ff5a8876040516107e39190612aec565b8060a00151604051806040016040528060168152602001754163636f756e74206d7573742062652061637469766560501b8152509061160f5760405162461bcd60e51b815260040161027d9190612756565b5060007f236215f8ddaf4ac1232d1f2516766788cddc14962c93aafa73278d9e2e4497dd80549060006116418361277f565b91905055905061164f610d56565b6020808401516001600160a01b03166000908152600f92909201905260409020541580156116a25750611680610d56565b6040808401516001600160a01b03166000908152601092909201602052902054155b80156116d457506116b1610d56565b60608301516001600160a01b031660009081526011919091016020526040902054155b604051806060016040528060368152602001612c31603691399061170b5760405162461bcd60e51b815260040161027d9190612756565b5080825261171882611d3e565b807ff6f1580f911f702a0de6efe2316db2a2510c77bfd90c52562d127f7ef3a64011836040516117999190815181526020808301516001600160a01b03908116918301919091526040808401518216908301526060808401518216908301526080808401519091169082015260a09182015115159181019190915260c00190565b60405180910390a25050565b6000808251600014156040518060400160405280600f81526020016e139bdd1a1a5b99c81d5c19185d1959608a1b815250906117f45760405162461bcd60e51b815260040161027d9190612756565b506117fd610d56565b60020160169054906101000a900461ffff1661ffff16835111156040518060600160405280602f8152602001612bd4602f91399061184e5760405162461bcd60e51b815260040161027d9190612756565b50600061185a85610f5f565b60408051808201909152600d81526c27379039bab1b41037b33332b960991b6020820152909350909150816118a25760405162461bcd60e51b815260040161027d9190612756565b506118ac33610a3b565b60018401546040805180820190915260158152600080516020612bb4833981519152602082015291955090915084146118f85760405162461bcd60e51b815260040161027d9190612756565b50509250929050565b60008061190c610d56565b60008481526003919091016020526040902090508215801590610f8d5750805483149150915091565b600080611940610d56565b60008481526006919091016020526040902090508215801590610f8d5750805483149150915091565b6040805180820190915260118152702ab739bab83837b93a32b2103a37b5b2b760791b60208201526000906001600160a01b0385166119bb5760405162461bcd60e51b815260040161027d9190612756565b50604051636eb1769f60e11b81526001600160a01b038481166004830152838116602483015285169063dd62ed3e9060440160206040518083038186803b158015611a0557600080fd5b505afa925050508015611a35575060408051601f3d908101601f19168201909252611a3291810190612b42565b60015b611afc5760405163e985e9c560e01b81526001600160a01b038481166004830152838116602483015285169063e985e9c59060440160206040518083038186803b158015611a8257600080fd5b505afa925050508015611ab2575060408051601f3d908101601f19168201909252611aaf91810190612b5b565b60015b611af55760408051808201825260118152702ab739bab83837b93a32b2103a37b5b2b760791b6020820152905162461bcd60e51b815261027d9190600401612756565b9050611b09565b8015611b0757600191505b505b9392505050565b600080611b1b610d56565b6000848152600a919091016020526040902090508215801590610f8d5750805483149150915091565b600080611b4f610d56565b6000938452600c016020525050604090205480151591565b60006060611b73610d56565b600b016000848152602001908152602001600020805480602002602001604051908101604052809291908181526020018280548015611bd157602002820191906000526020600020905b815481526020019060010190808311611bbd575b5050505050905060008151119150915091565b600080611bf083611b10565b60408051808201909152600c81526b27379039bab1b4103a3bb4b760a11b602082015290935090915081611c375760405162461bcd60e51b815260040161027d9190612756565b506000611c4333610a3b565b91505082600101548114604051806040016040528060158152602001600080516020612bb483398151915281525090610f345760405162461bcd60e51b815260040161027d9190612756565b60006060611c9b610d56565b600d016000848152602001908152602001600020805480602002602001604051908101604052809291908181526020018280548015611bd15760200282019190600052602060002090815481526020019060010190808311611bbd575050505050905060008151119150915091565b600080611d15610d56565b60008481526009919091016020526040902090508215801590610f8d5750805483149150915091565b60408101516001600160a01b031615801590611d66575060208101516001600160a01b031615155b8015611d7e575060608101516001600160a01b031615155b8015611d96575060808101516001600160a01b031615155b6040518060400160405280600f81526020016e496e76616c6964206164647265737360881b81525090611ddc5760405162461bcd60e51b815260040161027d9190612756565b506000611dec8260000151611935565b835180825560208501516001830180546001600160a01b03199081166001600160a01b0393841617909155604087015160028501805483169184169190911790556060870151600385018054909216908316179055608086015160048401805460a0890151929093166001600160a81b031990931692909217600160a01b911515919091021790559092509050611e81610d56565b6020808501516001600160a01b03166000908152600f92909201905260409020558151611eac610d56565b6040808501516001600160a01b031660009081526010929092016020529020558151611ed6610d56565b6060909301516001600160a01b0316600090815260119390930160205260409092209190915550565b828054828255906000526020600020908101928215611f3a579160200282015b82811115611f3a578251825591602001919060010190611f1f565b50611f46929150611fbd565b5090565b828054611f5690612b78565b90600052602060002090601f016020900481019282611f785760008555611f3a565b82601f10611f9157805160ff1916838001178555611f3a565b82800160010185558215611f3a5791820182811115611f3a578251825591602001919060010190611f1f565b5b80821115611f465760008155600101611fbe565b634e487b7160e01b600052604160045260246000fd5b60405161020081016001600160401b038111828210171561200b5761200b611fd2565b60405290565b60405160c081016001600160401b038111828210171561200b5761200b611fd2565b604051601f8201601f191681016001600160401b038111828210171561205b5761205b611fd2565b604052919050565b6001600160a01b038116811461091157600080fd5b8035610e2281612063565b600082601f83011261209457600080fd5b81356001600160401b038111156120ad576120ad611fd2565b6120c0601f8201601f1916602001612033565b8181528460208386010111156120d557600080fd5b816020850160208301376000918101602001919091529392505050565b801515811461091157600080fd5b8035610e22816120f2565b6000610200828403121561211e57600080fd5b612126611fe8565b9050813581526020820135602082015260408201356040820152606082013560608201526080820135608082015260a082013560a082015260c082013560c082015260e082013560e08201526101008083013581830152506101208083013581830152506101408083013581830152506101608083013581830152506101806121b0818401612078565b908201526101a0828101356001600160401b03808211156121d057600080fd5b6121dc86838701612083565b838501526101c09250828501359150808211156121f857600080fd5b5061220585828601612083565b8284015250506101e0612219818401612100565b9082015292915050565b60006080828403121561223557600080fd5b604051608081018181106001600160401b038211171561225757612257611fd2565b60405290508082356003811061226c57600080fd5b8152602083013561227c81612063565b8060208301525060408301356040820152606083013560608201525092915050565b60008060a083850312156122b157600080fd5b82356001600160401b038111156122c757600080fd5b6122d38582860161210b565b9250506122e38460208501612223565b90509250929050565b600060c082840312156122fe57600080fd5b612306612011565b905081358152602080830135818301526040830135604083015260608301356001600160401b038082111561233a57600080fd5b818501915085601f83011261234e57600080fd5b81358181111561236057612360611fd2565b8060051b9150612371848301612033565b818152918301840191848101908884111561238b57600080fd5b938501935b838510156123a957843582529385019390850190612390565b60608701525050505050608082810135908201526123c960a08301612078565b60a082015292915050565b600080600060c084860312156123e957600080fd5b83356001600160401b038082111561240057600080fd5b61240c8783880161210b565b945061241b8760208801612223565b935060a086013591508082111561243157600080fd5b5061243e868287016122ec565b9150509250925092565b600060c0828403121561245a57600080fd5b612462612011565b905081358152602082013561247681612063565b6020820152604082013561248981612063565b6040820152606082013561249c81612063565b606082015260808201356124af81612063565b608082015260a08201356123c9816120f2565b60008060e083850312156124d557600080fd5b6124df8484612448565b915060c08301356001600160401b038111156124fa57600080fd5b6125068582860161210b565b9150509250929050565b6000806000610100848603121561252657600080fd5b6125308585612448565b925060c08401356001600160401b038082111561254c57600080fd5b6125588783880161210b565b935060e086013591508082111561243157600080fd5b6000806000610160848603121561258457600080fd5b61258e8585612448565b925060c08401356001600160401b038111156125a957600080fd5b6125b58682870161210b565b9250506125c58560e08601612223565b90509250925092565b600080604083850312156125e157600080fd5b82356001600160401b03808211156125f857600080fd5b6126048683870161210b565b9350602085013591508082111561261a57600080fd5b50612506858286016122ec565b6000806040838503121561263a57600080fd5b82356001600160401b0381111561265057600080fd5b61265c8582860161210b565b95602094909401359450505050565b600080600080610180858703121561268257600080fd5b61268c8686612448565b935060c08501356001600160401b03808211156126a857600080fd5b6126b48883890161210b565b94506126c38860e08901612223565b93506101608701359150808211156126da57600080fd5b506126e7878288016122ec565b91505092959194509250565b634e487b7160e01b600052603260045260246000fd5b6000815180845260005b8181101561272f57602081850181015186830182015201612713565b81811115612741576000602083870101525b50601f01601f19169290920160200192915050565b602081526000611b096020830184612709565b634e487b7160e01b600052601160045260246000fd5b600060001982141561279357612793612769565b5060010190565b6020815281516020820152602082015160408201526040820151606082015260608201516080820152608082015160a082015260a082015160c082015260c082015160e0820152600060e08301516101008181850152808501519150506101208181850152808501519150506101408181850152808501519150506101608181850152808501519150506101808181850152808501519150506101a061284a818501836001600160a01b03169052565b808501519150506102006101c0818186015261286a610220860184612709565b92508086015190506101e0601f19868503018187015261288a8483612709565b96015115159190940152509192915050565b634e487b7160e01b600052602160045260246000fd5b600081518084526020808501945080840160005b838110156128e2578151875295820195908201906001016128c6565b509495945050505050565b6003811061290b57634e487b7160e01b600052602160045260246000fd5b9052565b6020815281516020820152602082015160408201526000604083015160e060608401526129406101008401826128b2565b905060608401516129556080850182516128ed565b60208101516001600160a01b031660a0850152604081015160c08501526060015160e09093019290925250919050565b6020808252825482820152600180840154604084015260e06060840152600284018054610100850181905260009182528382209193929084906101208701905b808310156129e257845482529383019391830191908501906129c5565b50600388015494506129fa6080880160ff87166128ed565b60089490941c6001600160a01b031660a0870152505050600484015460c084015260059093015460e0909201919091525090565b60008219821115612a4157612a41612769565b500190565b6000816000190483118215151615612a6057612a60612769565b500290565b600082612a8257634e487b7160e01b600052601260045260246000fd5b500490565b602081528151602082015260208201516040820152604082015160608201526000606083015160c06080840152612ac160e08401826128b2565b608085015160a085810191909152909401516001600160a01b031660c0909301929092525090919050565b6020815281516020820152602082015160408201526000604083015160806060840152612b1c60a08401826128b2565b90506060840151601f19848303016080850152612b3982826128b2565b95945050505050565b600060208284031215612b5457600080fd5b5051919050565b600060208284031215612b6d57600080fd5b8151611b09816120f2565b600181811c90821680612b8c57607f821691505b60208210811415612bad57634e487b7160e01b600052602260045260246000fd5b5091905056fe4e6f742073656c6c65722773206f70657261746f7200000000000000000000004578636565646564206d6178696d756d206f666665727320696e20612073696e676c65207472616e73616374696f6e4578636565646564206d6178696d756d207477696e7320696e20612073696e676c65207472616e73616374696f6e53656c6c657220616464726573732063616e6e6f742062652061737369676e656420746f20616e6f746865722073656c6c65722049645477696e20616c72656164792065786973747320696e207468652073616d652062756e646c65a264697066735822122003d7fb7367174a9540b463d83839ae2345c2a4d59f4b1d1d04b480dedf0b110e64736f6c63430008090033",
  "linkReferences": {},
  "deployedLinkReferences": {}
}