{
  "_format": "hh-sol-artifact-1",
  "contractName": "FallbackError",
  "sourceName": "contracts/mock/FallbackError.sol",
  "abi": [
    {
      "inputs": [
        {
          "internalType": "address",
          "name": "_fundsHandlerAddress",
          "type": "address"
        },
        {
          "internalType": "uint256",
          "name": "_buyerId",
          "type": "uint256"
        },
        {
          "internalType": "address[]",
          "name": "_tokenList",
          "type": "address[]"
        },
        {
          "internalType": "uint256[]",
          "name": "_tokenAmounts",
          "type": "uint256[]"
        }
      ],
      "name": "withdrawFunds",
      "outputs": [],
      "stateMutability": "nonpayable",
      "type": "function"
    },
    {
      "inputs": [
        {
          "internalType": "address",
          "name": "_fundsHandlerAddress",
          "type": "address"
        },
        {
          "internalType": "address[]",
          "name": "_tokenList",
          "type": "address[]"
        },
        {
          "internalType": "uint256[]",
          "name": "_tokenAmounts",
          "type": "uint256[]"
        }
      ],
      "name": "withdrawProtocolFees",
      "outputs": [],
      "stateMutability": "nonpayable",
      "type": "function"
    },
    {
      "stateMutability": "payable",
      "type": "receive"
    }
  ],
  "bytecode": "0x608060405234801561001057600080fd5b5061042f806100206000396000f3fe60806040526004361061002d5760003560e01c806360fc0433146100835780636c3eb838146100a557600080fd5b3661007e5760405162461bcd60e51b815260206004820152601c60248201527f4572726f722066726f6d2066616c6c6261636b2066756e6374696f6e00000000604482015260640160405180910390fd5b600080fd5b34801561008f57600080fd5b506100a361009e366004610206565b6100c5565b005b3480156100b157600080fd5b506100a36100c0366004610290565b610133565b60405163685ef73360e01b81526001600160a01b0387169063685ef733906100f9908890889088908890889060040161038e565b600060405180830381600087803b15801561011357600080fd5b505af1158015610127573d6000803e3d6000fd5b50505050505050505050565b6040516311ec869360e01b81526001600160a01b038616906311ec8693906101659087908790879087906004016103c7565b600060405180830381600087803b15801561017f57600080fd5b505af1158015610193573d6000803e3d6000fd5b505050505050505050565b80356001600160a01b03811681146101b557600080fd5b919050565b60008083601f8401126101cc57600080fd5b50813567ffffffffffffffff8111156101e457600080fd5b6020830191508360208260051b85010111156101ff57600080fd5b9250929050565b6000806000806000806080878903121561021f57600080fd5b6102288761019e565b955060208701359450604087013567ffffffffffffffff8082111561024c57600080fd5b6102588a838b016101ba565b9096509450606089013591508082111561027157600080fd5b5061027e89828a016101ba565b979a9699509497509295939492505050565b6000806000806000606086880312156102a857600080fd5b6102b18661019e565b9450602086013567ffffffffffffffff808211156102ce57600080fd5b6102da89838a016101ba565b909650945060408801359150808211156102f357600080fd5b50610300888289016101ba565b969995985093965092949392505050565b8183526000602080850194508260005b8581101561034d576001600160a01b0361033a8361019e565b1687529582019590820190600101610321565b509495945050505050565b81835260006001600160fb1b0383111561037157600080fd5b8260051b8083602087013760009401602001938452509192915050565b8581526060602082015260006103a8606083018688610311565b82810360408401526103bb818587610358565b98975050505050505050565b6040815260006103db604083018688610311565b82810360208401526103ee818587610358565b97965050505050505056fea2646970667358221220700a28b5f68cfcc1c7ff6cd760d3349371a68a8c14cd240dc6fc98020d5e00c264736f6c63430008090033",
  "linkReferences": {},
  "deployedLinkReferences": {}
}