{
  "_format": "hh-sol-artifact-1",
  "contractName": "WithoutFallbackError",
  "sourceName": "contracts/mock/FallbackError.sol",
  "abi": [
    {
      "inputs": [
        {
          "internalType": "address",
          "name": "_fundsHandlerAddress",
          "type": "address"
        },
        {
          "internalType": "uint256",
          "name": "_buyerId",
          "type": "uint256"
        },
        {
          "internalType": "address[]",
          "name": "_tokenList",
          "type": "address[]"
        },
        {
          "internalType": "uint256[]",
          "name": "_tokenAmounts",
          "type": "uint256[]"
        }
      ],
      "name": "withdrawFunds",
      "outputs": [],
      "stateMutability": "nonpayable",
      "type": "function"
    },
    {
      "inputs": [
        {
          "internalType": "address",
          "name": "_fundsHandlerAddress",
          "type": "address"
        },
        {
          "internalType": "address[]",
          "name": "_tokenList",
          "type": "address[]"
        },
        {
          "internalType": "uint256[]",
          "name": "_tokenAmounts",
          "type": "uint256[]"
        }
      ],
      "name": "withdrawProtocolFees",
      "outputs": [],
      "stateMutability": "nonpayable",
      "type": "function"
    }
  ],
  "bytecode": "0x608060405234801561001057600080fd5b506103cd806100206000396000f3fe608060405234801561001057600080fd5b50600436106100365760003560e01c806360fc04331461003b5780636c3eb83814610050575b600080fd5b61004e6100493660046101a4565b610063565b005b61004e61005e36600461022e565b6100d1565b60405163685ef73360e01b81526001600160a01b0387169063685ef73390610097908890889088908890889060040161032c565b600060405180830381600087803b1580156100b157600080fd5b505af11580156100c5573d6000803e3d6000fd5b50505050505050505050565b6040516311ec869360e01b81526001600160a01b038616906311ec869390610103908790879087908790600401610365565b600060405180830381600087803b15801561011d57600080fd5b505af1158015610131573d6000803e3d6000fd5b505050505050505050565b80356001600160a01b038116811461015357600080fd5b919050565b60008083601f84011261016a57600080fd5b50813567ffffffffffffffff81111561018257600080fd5b6020830191508360208260051b850101111561019d57600080fd5b9250929050565b600080600080600080608087890312156101bd57600080fd5b6101c68761013c565b955060208701359450604087013567ffffffffffffffff808211156101ea57600080fd5b6101f68a838b01610158565b9096509450606089013591508082111561020f57600080fd5b5061021c89828a01610158565b979a9699509497509295939492505050565b60008060008060006060868803121561024657600080fd5b61024f8661013c565b9450602086013567ffffffffffffffff8082111561026c57600080fd5b61027889838a01610158565b9096509450604088013591508082111561029157600080fd5b5061029e88828901610158565b969995985093965092949392505050565b8183526000602080850194508260005b858110156102eb576001600160a01b036102d88361013c565b16875295820195908201906001016102bf565b509495945050505050565b81835260006001600160fb1b0383111561030f57600080fd5b8260051b8083602087013760009401602001938452509192915050565b8581526060602082015260006103466060830186886102af565b82810360408401526103598185876102f6565b98975050505050505050565b6040815260006103796040830186886102af565b828103602084015261038c8185876102f6565b97965050505050505056fea2646970667358221220d777c0db7d6880e85c29cfaebecb368fe08f2d3dff4018d05024a3adfaa8957064736f6c63430008090033",
  "linkReferences": {},
  "deployedLinkReferences": {}
}