{
  "_format": "hh-sol-artifact-1",
  "contractName": "Foreign721",
  "sourceName": "contracts/mock/Foreign721.sol",
  "abi": [
    {
      "anonymous": false,
      "inputs": [
        {
          "indexed": true,
          "internalType": "address",
          "name": "owner",
          "type": "address"
        },
        {
          "indexed": true,
          "internalType": "address",
          "name": "approved",
          "type": "address"
        },
        {
          "indexed": true,
          "internalType": "uint256",
          "name": "tokenId",
          "type": "uint256"
        }
      ],
      "name": "Approval",
      "type": "event"
    },
    {
      "anonymous": false,
      "inputs": [
        {
          "indexed": true,
          "internalType": "address",
          "name": "owner",
          "type": "address"
        },
        {
          "indexed": true,
          "internalType": "address",
          "name": "operator",
          "type": "address"
        },
        {
          "indexed": false,
          "internalType": "bool",
          "name": "approved",
          "type": "bool"
        }
      ],
      "name": "ApprovalForAll",
      "type": "event"
    },
    {
      "anonymous": false,
      "inputs": [
        {
          "indexed": true,
          "internalType": "address",
          "name": "from",
          "type": "address"
        },
        {
          "indexed": true,
          "internalType": "address",
          "name": "to",
          "type": "address"
        },
        {
          "indexed": true,
          "internalType": "uint256",
          "name": "tokenId",
          "type": "uint256"
        }
      ],
      "name": "Transfer",
      "type": "event"
    },
    {
      "inputs": [],
      "name": "TOKEN_NAME",
      "outputs": [
        {
          "internalType": "string",
          "name": "",
          "type": "string"
        }
      ],
      "stateMutability": "view",
      "type": "function"
    },
    {
      "inputs": [],
      "name": "TOKEN_SYMBOL",
      "outputs": [
        {
          "internalType": "string",
          "name": "",
          "type": "string"
        }
      ],
      "stateMutability": "view",
      "type": "function"
    },
    {
      "inputs": [
        {
          "internalType": "address",
          "name": "to",
          "type": "address"
        },
        {
          "internalType": "uint256",
          "name": "tokenId",
          "type": "uint256"
        }
      ],
      "name": "approve",
      "outputs": [],
      "stateMutability": "nonpayable",
      "type": "function"
    },
    {
      "inputs": [
        {
          "internalType": "address",
          "name": "owner",
          "type": "address"
        }
      ],
      "name": "balanceOf",
      "outputs": [
        {
          "internalType": "uint256",
          "name": "",
          "type": "uint256"
        }
      ],
      "stateMutability": "view",
      "type": "function"
    },
    {
      "inputs": [
        {
          "internalType": "uint256",
          "name": "tokenId",
          "type": "uint256"
        }
      ],
      "name": "getApproved",
      "outputs": [
        {
          "internalType": "address",
          "name": "",
          "type": "address"
        }
      ],
      "stateMutability": "view",
      "type": "function"
    },
    {
      "inputs": [
        {
          "internalType": "address",
          "name": "owner",
          "type": "address"
        },
        {
          "internalType": "address",
          "name": "operator",
          "type": "address"
        }
      ],
      "name": "isApprovedForAll",
      "outputs": [
        {
          "internalType": "bool",
          "name": "",
          "type": "bool"
        }
      ],
      "stateMutability": "view",
      "type": "function"
    },
    {
      "inputs": [
        {
          "internalType": "uint256",
          "name": "_tokenId",
          "type": "uint256"
        }
      ],
      "name": "mint",
      "outputs": [],
      "stateMutability": "nonpayable",
      "type": "function"
    },
    {
      "inputs": [],
      "name": "name",
      "outputs": [
        {
          "internalType": "string",
          "name": "",
          "type": "string"
        }
      ],
      "stateMutability": "view",
      "type": "function"
    },
    {
      "inputs": [
        {
          "internalType": "uint256",
          "name": "tokenId",
          "type": "uint256"
        }
      ],
      "name": "ownerOf",
      "outputs": [
        {
          "internalType": "address",
          "name": "",
          "type": "address"
        }
      ],
      "stateMutability": "view",
      "type": "function"
    },
    {
      "inputs": [
        {
          "internalType": "address",
          "name": "from",
          "type": "address"
        },
        {
          "internalType": "address",
          "name": "to",
          "type": "address"
        },
        {
          "internalType": "uint256",
          "name": "tokenId",
          "type": "uint256"
        }
      ],
      "name": "safeTransferFrom",
      "outputs": [],
      "stateMutability": "nonpayable",
      "type": "function"
    },
    {
      "inputs": [
        {
          "internalType": "address",
          "name": "from",
          "type": "address"
        },
        {
          "internalType": "address",
          "name": "to",
          "type": "address"
        },
        {
          "internalType": "uint256",
          "name": "tokenId",
          "type": "uint256"
        },
        {
          "internalType": "bytes",
          "name": "_data",
          "type": "bytes"
        }
      ],
      "name": "safeTransferFrom",
      "outputs": [],
      "stateMutability": "nonpayable",
      "type": "function"
    },
    {
      "inputs": [
        {
          "internalType": "address",
          "name": "operator",
          "type": "address"
        },
        {
          "internalType": "bool",
          "name": "approved",
          "type": "bool"
        }
      ],
      "name": "setApprovalForAll",
      "outputs": [],
      "stateMutability": "nonpayable",
      "type": "function"
    },
    {
      "inputs": [
        {
          "internalType": "bytes4",
          "name": "interfaceId",
          "type": "bytes4"
        }
      ],
      "name": "supportsInterface",
      "outputs": [
        {
          "internalType": "bool",
          "name": "",
          "type": "bool"
        }
      ],
      "stateMutability": "view",
      "type": "function"
    },
    {
      "inputs": [],
      "name": "symbol",
      "outputs": [
        {
          "internalType": "string",
          "name": "",
          "type": "string"
        }
      ],
      "stateMutability": "view",
      "type": "function"
    },
    {
      "inputs": [
        {
          "internalType": "uint256",
          "name": "tokenId",
          "type": "uint256"
        }
      ],
      "name": "tokenURI",
      "outputs": [
        {
          "internalType": "string",
          "name": "",
          "type": "string"
        }
      ],
      "stateMutability": "view",
      "type": "function"
    },
    {
      "inputs": [
        {
          "internalType": "address",
          "name": "from",
          "type": "address"
        },
        {
          "internalType": "address",
          "name": "to",
          "type": "address"
        },
        {
          "internalType": "uint256",
          "name": "tokenId",
          "type": "uint256"
        }
      ],
      "name": "transferFrom",
      "outputs": [],
      "stateMutability": "nonpayable",
      "type": "function"
    }
  ],
  "bytecode": "0x608060405234801561001057600080fd5b5061143a806100206000396000f3fe608060405234801561001057600080fd5b50600436106101005760003560e01c80636352211e11610097578063a22cb46511610066578063a22cb46514610246578063b88d4fde14610259578063c87b56dd1461026c578063e985e9c51461027f57600080fd5b80636352211e146101f757806370a082311461020a57806395d89b411461022b578063a0712d681461023357600080fd5b806318821400116100d3578063188214001461018257806323b872dd146101ab5780632a905318146101be57806342842e0e146101e457600080fd5b806301ffc9a71461010557806306fdde031461012d578063081812fc14610142578063095ea7b31461016d575b600080fd5b610118610113366004610f4a565b6102bb565b60405190151581526020015b60405180910390f35b61013561030d565b6040516101249190610fbf565b610155610150366004610fd2565b61039f565b6040516001600160a01b039091168152602001610124565b61018061017b366004611007565b610439565b005b6101356040518060400160405280600a815260200169466f726569676e37323160b01b81525081565b6101806101b9366004611031565b61054f565b610135604051806040016040528060078152602001660dcc8c55195cdd60ca1b81525081565b6101806101f2366004611031565b610580565b610155610205366004610fd2565b61059b565b61021d61021836600461106d565b610612565b604051908152602001610124565b610135610699565b610180610241366004610fd2565b6106a8565b610180610254366004611088565b6106b5565b6101806102673660046110da565b6106c4565b61013561027a366004610fd2565b6106fc565b61011861028d3660046111b6565b6001600160a01b039182166000908152606a6020908152604080832093909416825291909152205460ff1690565b60006001600160e01b031982166380ac58cd60e01b14806102ec57506001600160e01b03198216635b5e139f60e01b145b8061030757506301ffc9a760e01b6001600160e01b03198316145b92915050565b60606065805461031c906111e9565b80601f0160208091040260200160405190810160405280929190818152602001828054610348906111e9565b80156103955780601f1061036a57610100808354040283529160200191610395565b820191906000526020600020905b81548152906001019060200180831161037857829003601f168201915b5050505050905090565b6000818152606760205260408120546001600160a01b031661041d5760405162461bcd60e51b815260206004820152602c60248201527f4552433732313a20617070726f76656420717565727920666f72206e6f6e657860448201526b34b9ba32b73a103a37b5b2b760a11b60648201526084015b60405180910390fd5b506000908152606960205260409020546001600160a01b031690565b60006104448261059b565b9050806001600160a01b0316836001600160a01b031614156104b25760405162461bcd60e51b815260206004820152602160248201527f4552433732313a20617070726f76616c20746f2063757272656e74206f776e656044820152603960f91b6064820152608401610414565b336001600160a01b03821614806104ce57506104ce813361028d565b6105405760405162461bcd60e51b815260206004820152603860248201527f4552433732313a20617070726f76652063616c6c6572206973206e6f74206f7760448201527f6e6572206e6f7220617070726f76656420666f7220616c6c00000000000000006064820152608401610414565b61054a83836107e4565b505050565b6105593382610852565b6105755760405162461bcd60e51b815260040161041490611224565b61054a838383610949565b61054a838383604051806020016040528060008152506106c4565b6000818152606760205260408120546001600160a01b0316806103075760405162461bcd60e51b815260206004820152602960248201527f4552433732313a206f776e657220717565727920666f72206e6f6e657869737460448201526832b73a103a37b5b2b760b91b6064820152608401610414565b60006001600160a01b03821661067d5760405162461bcd60e51b815260206004820152602a60248201527f4552433732313a2062616c616e636520717565727920666f7220746865207a65604482015269726f206164647265737360b01b6064820152608401610414565b506001600160a01b031660009081526068602052604090205490565b60606066805461031c906111e9565b6106b23382610ae5565b50565b6106c0338383610c27565b5050565b6106ce3383610852565b6106ea5760405162461bcd60e51b815260040161041490611224565b6106f684848484610cf6565b50505050565b6000818152606760205260409020546060906001600160a01b031661077b5760405162461bcd60e51b815260206004820152602f60248201527f4552433732314d657461646174613a2055524920717565727920666f72206e6f60448201526e3732bc34b9ba32b73a103a37b5b2b760891b6064820152608401610414565b600061079260408051602081019091526000815290565b905060008151116107b257604051806020016040528060008152506107dd565b806107bc84610d29565b6040516020016107cd929190611275565b6040516020818303038152906040525b9392505050565b600081815260696020526040902080546001600160a01b0319166001600160a01b03841690811790915581906108198261059b565b6001600160a01b03167f8c5be1e5ebec7d5bd14f71427d1e84f3dd0314c0f7b2291e5b200ac8c7c3b92560405160405180910390a45050565b6000818152606760205260408120546001600160a01b03166108cb5760405162461bcd60e51b815260206004820152602c60248201527f4552433732313a206f70657261746f7220717565727920666f72206e6f6e657860448201526b34b9ba32b73a103a37b5b2b760a11b6064820152608401610414565b60006108d68361059b565b9050806001600160a01b0316846001600160a01b031614806109115750836001600160a01b03166109068461039f565b6001600160a01b0316145b8061094157506001600160a01b038082166000908152606a602090815260408083209388168352929052205460ff165b949350505050565b826001600160a01b031661095c8261059b565b6001600160a01b0316146109c05760405162461bcd60e51b815260206004820152602560248201527f4552433732313a207472616e736665722066726f6d20696e636f72726563742060448201526437bbb732b960d91b6064820152608401610414565b6001600160a01b038216610a225760405162461bcd60e51b8152602060048201526024808201527f4552433732313a207472616e7366657220746f20746865207a65726f206164646044820152637265737360e01b6064820152608401610414565b610a2d6000826107e4565b6001600160a01b0383166000908152606860205260408120805460019290610a569084906112ba565b90915550506001600160a01b0382166000908152606860205260408120805460019290610a849084906112d1565b909155505060008181526067602052604080822080546001600160a01b0319166001600160a01b0386811691821790925591518493918716917fddf252ad1be2c89b69c2b068fc378daa952ba7f163c4a11628f55a4df523b3ef91a4505050565b6001600160a01b038216610b3b5760405162461bcd60e51b815260206004820181905260248201527f4552433732313a206d696e7420746f20746865207a65726f20616464726573736044820152606401610414565b6000818152606760205260409020546001600160a01b031615610ba05760405162461bcd60e51b815260206004820152601c60248201527f4552433732313a20746f6b656e20616c7265616479206d696e746564000000006044820152606401610414565b6001600160a01b0382166000908152606860205260408120805460019290610bc99084906112d1565b909155505060008181526067602052604080822080546001600160a01b0319166001600160a01b03861690811790915590518392907fddf252ad1be2c89b69c2b068fc378daa952ba7f163c4a11628f55a4df523b3ef908290a45050565b816001600160a01b0316836001600160a01b03161415610c895760405162461bcd60e51b815260206004820152601960248201527f4552433732313a20617070726f766520746f2063616c6c6572000000000000006044820152606401610414565b6001600160a01b038381166000818152606a6020908152604080832094871680845294825291829020805460ff191686151590811790915591519182527f17307eab39ab6107e8899845ad3d59bd9653f200f220920489ca2b5937696c31910160405180910390a3505050565b610d01848484610949565b610d0d84848484610e27565b6106f65760405162461bcd60e51b8152600401610414906112e9565b606081610d4d5750506040805180820190915260018152600360fc1b602082015290565b8160005b8115610d775780610d618161133b565b9150610d709050600a8361136c565b9150610d51565b60008167ffffffffffffffff811115610d9257610d926110c4565b6040519080825280601f01601f191660200182016040528015610dbc576020820181803683370190505b5090505b841561094157610dd16001836112ba565b9150610dde600a86611380565b610de99060306112d1565b60f81b818381518110610dfe57610dfe611394565b60200101906001600160f81b031916908160001a905350610e20600a8661136c565b9450610dc0565b60006001600160a01b0384163b15610f2957604051630a85bd0160e11b81526001600160a01b0385169063150b7a0290610e6b9033908990889088906004016113aa565b602060405180830381600087803b158015610e8557600080fd5b505af1925050508015610eb5575060408051601f3d908101601f19168201909252610eb2918101906113e7565b60015b610f0f573d808015610ee3576040519150601f19603f3d011682016040523d82523d6000602084013e610ee8565b606091505b508051610f075760405162461bcd60e51b8152600401610414906112e9565b805181602001fd5b6001600160e01b031916630a85bd0160e11b149050610941565b506001949350505050565b6001600160e01b0319811681146106b257600080fd5b600060208284031215610f5c57600080fd5b81356107dd81610f34565b60005b83811015610f82578181015183820152602001610f6a565b838111156106f65750506000910152565b60008151808452610fab816020860160208601610f67565b601f01601f19169290920160200192915050565b6020815260006107dd6020830184610f93565b600060208284031215610fe457600080fd5b5035919050565b80356001600160a01b038116811461100257600080fd5b919050565b6000806040838503121561101a57600080fd5b61102383610feb565b946020939093013593505050565b60008060006060848603121561104657600080fd5b61104f84610feb565b925061105d60208501610feb565b9150604084013590509250925092565b60006020828403121561107f57600080fd5b6107dd82610feb565b6000806040838503121561109b57600080fd5b6110a483610feb565b9150602083013580151581146110b957600080fd5b809150509250929050565b634e487b7160e01b600052604160045260246000fd5b600080600080608085870312156110f057600080fd5b6110f985610feb565b935061110760208601610feb565b925060408501359150606085013567ffffffffffffffff8082111561112b57600080fd5b818701915087601f83011261113f57600080fd5b813581811115611151576111516110c4565b604051601f8201601f19908116603f01168101908382118183101715611179576111796110c4565b816040528281528a602084870101111561119257600080fd5b82602086016020830137600060208483010152809550505050505092959194509250565b600080604083850312156111c957600080fd5b6111d283610feb565b91506111e060208401610feb565b90509250929050565b600181811c908216806111fd57607f821691505b6020821081141561121e57634e487b7160e01b600052602260045260246000fd5b50919050565b60208082526031908201527f4552433732313a207472616e736665722063616c6c6572206973206e6f74206f6040820152701ddb995c881b9bdc88185c1c1c9bdd9959607a1b606082015260800190565b60008351611287818460208801610f67565b83519083019061129b818360208801610f67565b01949350505050565b634e487b7160e01b600052601160045260246000fd5b6000828210156112cc576112cc6112a4565b500390565b600082198211156112e4576112e46112a4565b500190565b60208082526032908201527f4552433732313a207472616e7366657220746f206e6f6e20455243373231526560408201527131b2b4bb32b91034b6b83632b6b2b73a32b960711b606082015260800190565b600060001982141561134f5761134f6112a4565b5060010190565b634e487b7160e01b600052601260045260246000fd5b60008261137b5761137b611356565b500490565b60008261138f5761138f611356565b500690565b634e487b7160e01b600052603260045260246000fd5b6001600160a01b03858116825284166020820152604081018390526080606082018190526000906113dd90830184610f93565b9695505050505050565b6000602082840312156113f957600080fd5b81516107dd81610f3456fea2646970667358221220c7923b2594530916c499c0617a1554547ce322a964205cdc1f8da1e3a7beec9064736f6c63430008090033",
  "linkReferences": {},
  "deployedLinkReferences": {}
}