{
  "_format": "hh-sol-artifact-1",
  "contractName": "PausableZoneController",
  "sourceName": "contracts/zones/PausableZoneController.sol",
  "abi": [
    {
      "inputs": [
        {
          "internalType": "address",
          "name": "ownerAddress",
          "type": "address"
        }
      ],
      "stateMutability": "nonpayable",
      "type": "constructor"
    },
    {
      "inputs": [],
      "name": "CallerIsNotOperator",
      "type": "error"
    },
    {
      "inputs": [],
      "name": "CallerIsNotOwner",
      "type": "error"
    },
    {
      "inputs": [],
      "name": "CallerIsNotPotentialOwner",
      "type": "error"
    },
    {
      "inputs": [],
      "name": "InvalidController",
      "type": "error"
    },
    {
      "inputs": [],
      "name": "InvalidOperator",
      "type": "error"
    },
    {
      "inputs": [],
      "name": "InvalidPauser",
      "type": "error"
    },
    {
      "inputs": [],
      "name": "OwnerCanNotBeSetAsZero",
      "type": "error"
    },
    {
      "inputs": [],
      "name": "PauserCanNotBeSetAsZero",
      "type": "error"
    },
    {
      "inputs": [
        {
          "internalType": "address",
          "name": "zone",
          "type": "address"
        }
      ],
      "name": "ZoneAlreadyExists",
      "type": "error"
    },
    {
      "anonymous": false,
      "inputs": [
        {
          "indexed": false,
          "internalType": "address",
          "name": "newOperator",
          "type": "address"
        }
      ],
      "name": "OperatorUpdated",
      "type": "event"
    },
    {
      "anonymous": false,
      "inputs": [
        {
          "indexed": false,
          "internalType": "address",
          "name": "previousOwner",
          "type": "address"
        },
        {
          "indexed": false,
          "internalType": "address",
          "name": "newOwner",
          "type": "address"
        }
      ],
      "name": "OwnershipTransferred",
      "type": "event"
    },
    {
      "anonymous": false,
      "inputs": [],
      "name": "Paused",
      "type": "event"
    },
    {
      "anonymous": false,
      "inputs": [
        {
          "indexed": false,
          "internalType": "address",
          "name": "newPauser",
          "type": "address"
        }
      ],
      "name": "PauserUpdated",
      "type": "event"
    },
    {
      "anonymous": false,
      "inputs": [
        {
          "indexed": false,
          "internalType": "address",
          "name": "newPotentialOwner",
          "type": "address"
        }
      ],
      "name": "PotentialOwnerUpdated",
      "type": "event"
    },
    {
      "anonymous": false,
      "inputs": [],
      "name": "Unpaused",
      "type": "event"
    },
    {
      "anonymous": false,
      "inputs": [
        {
          "indexed": false,
          "internalType": "address",
          "name": "zone",
          "type": "address"
        },
        {
          "indexed": false,
          "internalType": "bytes32",
          "name": "salt",
          "type": "bytes32"
        }
      ],
      "name": "ZoneCreated",
      "type": "event"
    },
    {
      "inputs": [],
      "name": "acceptOwnership",
      "outputs": [],
      "stateMutability": "nonpayable",
      "type": "function"
    },
    {
      "inputs": [
        {
          "internalType": "address",
          "name": "pausableZoneAddress",
          "type": "address"
        },
        {
          "internalType": "address",
          "name": "operatorToAssign",
          "type": "address"
        }
      ],
      "name": "assignOperator",
      "outputs": [],
      "stateMutability": "nonpayable",
      "type": "function"
    },
    {
      "inputs": [
        {
          "internalType": "address",
          "name": "pauserToAssign",
          "type": "address"
        }
      ],
      "name": "assignPauser",
      "outputs": [],
      "stateMutability": "nonpayable",
      "type": "function"
    },
    {
      "inputs": [
        {
          "internalType": "address",
          "name": "pausableZoneAddress",
          "type": "address"
        },
        {
          "internalType": "contract SeaportInterface",
          "name": "seaportAddress",
          "type": "address"
        },
        {
          "components": [
            {
              "internalType": "address",
              "name": "offerer",
              "type": "address"
            },
            {
              "internalType": "address",
              "name": "zone",
              "type": "address"
            },
            {
              "components": [
                {
                  "internalType": "enum ItemType",
                  "name": "itemType",
                  "type": "uint8"
                },
                {
                  "internalType": "address",
                  "name": "token",
                  "type": "address"
                },
                {
                  "internalType": "uint256",
                  "name": "identifierOrCriteria",
                  "type": "uint256"
                },
                {
                  "internalType": "uint256",
                  "name": "startAmount",
                  "type": "uint256"
                },
                {
                  "internalType": "uint256",
                  "name": "endAmount",
                  "type": "uint256"
                }
              ],
              "internalType": "struct OfferItem[]",
              "name": "offer",
              "type": "tuple[]"
            },
            {
              "components": [
                {
                  "internalType": "enum ItemType",
                  "name": "itemType",
                  "type": "uint8"
                },
                {
                  "internalType": "address",
                  "name": "token",
                  "type": "address"
                },
                {
                  "internalType": "uint256",
                  "name": "identifierOrCriteria",
                  "type": "uint256"
                },
                {
                  "internalType": "uint256",
                  "name": "startAmount",
                  "type": "uint256"
                },
                {
                  "internalType": "uint256",
                  "name": "endAmount",
                  "type": "uint256"
                },
                {
                  "internalType": "address payable",
                  "name": "recipient",
                  "type": "address"
                }
              ],
              "internalType": "struct ConsiderationItem[]",
              "name": "consideration",
              "type": "tuple[]"
            },
            {
              "internalType": "enum OrderType",
              "name": "orderType",
              "type": "uint8"
            },
            {
              "internalType": "uint256",
              "name": "startTime",
              "type": "uint256"
            },
            {
              "internalType": "uint256",
              "name": "endTime",
              "type": "uint256"
            },
            {
              "internalType": "bytes32",
              "name": "zoneHash",
              "type": "bytes32"
            },
            {
              "internalType": "uint256",
              "name": "salt",
              "type": "uint256"
            },
            {
              "internalType": "bytes32",
              "name": "conduitKey",
              "type": "bytes32"
            },
            {
              "internalType": "uint256",
              "name": "counter",
              "type": "uint256"
            }
          ],
          "internalType": "struct OrderComponents[]",
          "name": "orders",
          "type": "tuple[]"
        }
      ],
      "name": "cancelOrders",
      "outputs": [],
      "stateMutability": "nonpayable",
      "type": "function"
    },
    {
      "inputs": [],
      "name": "cancelOwnershipTransfer",
      "outputs": [],
      "stateMutability": "nonpayable",
      "type": "function"
    },
    {
      "inputs": [
        {
          "internalType": "bytes32",
          "name": "salt",
          "type": "bytes32"
        }
      ],
      "name": "createZone",
      "outputs": [
        {
          "internalType": "address",
          "name": "derivedAddress",
          "type": "address"
        }
      ],
      "stateMutability": "nonpayable",
      "type": "function"
    },
    {
      "inputs": [
        {
          "internalType": "address",
          "name": "pausableZoneAddress",
          "type": "address"
        },
        {
          "internalType": "contract SeaportInterface",
          "name": "seaportAddress",
          "type": "address"
        },
        {
          "components": [
            {
              "components": [
                {
                  "internalType": "address",
                  "name": "offerer",
                  "type": "address"
                },
                {
                  "internalType": "address",
                  "name": "zone",
                  "type": "address"
                },
                {
                  "components": [
                    {
                      "internalType": "enum ItemType",
                      "name": "itemType",
                      "type": "uint8"
                    },
                    {
                      "internalType": "address",
                      "name": "token",
                      "type": "address"
                    },
                    {
                      "internalType": "uint256",
                      "name": "identifierOrCriteria",
                      "type": "uint256"
                    },
                    {
                      "internalType": "uint256",
                      "name": "startAmount",
                      "type": "uint256"
                    },
                    {
                      "internalType": "uint256",
                      "name": "endAmount",
                      "type": "uint256"
                    }
                  ],
                  "internalType": "struct OfferItem[]",
                  "name": "offer",
                  "type": "tuple[]"
                },
                {
                  "components": [
                    {
                      "internalType": "enum ItemType",
                      "name": "itemType",
                      "type": "uint8"
                    },
                    {
                      "internalType": "address",
                      "name": "token",
                      "type": "address"
                    },
                    {
                      "internalType": "uint256",
                      "name": "identifierOrCriteria",
                      "type": "uint256"
                    },
                    {
                      "internalType": "uint256",
                      "name": "startAmount",
                      "type": "uint256"
                    },
                    {
                      "internalType": "uint256",
                      "name": "endAmount",
                      "type": "uint256"
                    },
                    {
                      "internalType": "address payable",
                      "name": "recipient",
                      "type": "address"
                    }
                  ],
                  "internalType": "struct ConsiderationItem[]",
                  "name": "consideration",
                  "type": "tuple[]"
                },
                {
                  "internalType": "enum OrderType",
                  "name": "orderType",
                  "type": "uint8"
                },
                {
                  "internalType": "uint256",
                  "name": "startTime",
                  "type": "uint256"
                },
                {
                  "internalType": "uint256",
                  "name": "endTime",
                  "type": "uint256"
                },
                {
                  "internalType": "bytes32",
                  "name": "zoneHash",
                  "type": "bytes32"
                },
                {
                  "internalType": "uint256",
                  "name": "salt",
                  "type": "uint256"
                },
                {
                  "internalType": "bytes32",
                  "name": "conduitKey",
                  "type": "bytes32"
                },
                {
                  "internalType": "uint256",
                  "name": "totalOriginalConsiderationItems",
                  "type": "uint256"
                }
              ],
              "internalType": "struct OrderParameters",
              "name": "parameters",
              "type": "tuple"
            },
            {
              "internalType": "uint120",
              "name": "numerator",
              "type": "uint120"
            },
            {
              "internalType": "uint120",
              "name": "denominator",
              "type": "uint120"
            },
            {
              "internalType": "bytes",
              "name": "signature",
              "type": "bytes"
            },
            {
              "internalType": "bytes",
              "name": "extraData",
              "type": "bytes"
            }
          ],
          "internalType": "struct AdvancedOrder[]",
          "name": "orders",
          "type": "tuple[]"
        },
        {
          "components": [
            {
              "internalType": "uint256",
              "name": "orderIndex",
              "type": "uint256"
            },
            {
              "internalType": "enum Side",
              "name": "side",
              "type": "uint8"
            },
            {
              "internalType": "uint256",
              "name": "index",
              "type": "uint256"
            },
            {
              "internalType": "uint256",
              "name": "identifier",
              "type": "uint256"
            },
            {
              "internalType": "bytes32[]",
              "name": "criteriaProof",
              "type": "bytes32[]"
            }
          ],
          "internalType": "struct CriteriaResolver[]",
          "name": "criteriaResolvers",
          "type": "tuple[]"
        },
        {
          "components": [
            {
              "components": [
                {
                  "internalType": "uint256",
                  "name": "orderIndex",
                  "type": "uint256"
                },
                {
                  "internalType": "uint256",
                  "name": "itemIndex",
                  "type": "uint256"
                }
              ],
              "internalType": "struct FulfillmentComponent[]",
              "name": "offerComponents",
              "type": "tuple[]"
            },
            {
              "components": [
                {
                  "internalType": "uint256",
                  "name": "orderIndex",
                  "type": "uint256"
                },
                {
                  "internalType": "uint256",
                  "name": "itemIndex",
                  "type": "uint256"
                }
              ],
              "internalType": "struct FulfillmentComponent[]",
              "name": "considerationComponents",
              "type": "tuple[]"
            }
          ],
          "internalType": "struct Fulfillment[]",
          "name": "fulfillments",
          "type": "tuple[]"
        }
      ],
      "name": "executeMatchAdvancedOrders",
      "outputs": [
        {
          "components": [
            {
              "components": [
                {
                  "internalType": "enum ItemType",
                  "name": "itemType",
                  "type": "uint8"
                },
                {
                  "internalType": "address",
                  "name": "token",
                  "type": "address"
                },
                {
                  "internalType": "uint256",
                  "name": "identifier",
                  "type": "uint256"
                },
                {
                  "internalType": "uint256",
                  "name": "amount",
                  "type": "uint256"
                },
                {
                  "internalType": "address payable",
                  "name": "recipient",
                  "type": "address"
                }
              ],
              "internalType": "struct ReceivedItem",
              "name": "item",
              "type": "tuple"
            },
            {
              "internalType": "address",
              "name": "offerer",
              "type": "address"
            },
            {
              "internalType": "bytes32",
              "name": "conduitKey",
              "type": "bytes32"
            }
          ],
          "internalType": "struct Execution[]",
          "name": "executions",
          "type": "tuple[]"
        }
      ],
      "stateMutability": "payable",
      "type": "function"
    },
    {
      "inputs": [
        {
          "internalType": "address",
          "name": "pausableZoneAddress",
          "type": "address"
        },
        {
          "internalType": "contract SeaportInterface",
          "name": "seaportAddress",
          "type": "address"
        },
        {
          "components": [
            {
              "components": [
                {
                  "internalType": "address",
                  "name": "offerer",
                  "type": "address"
                },
                {
                  "internalType": "address",
                  "name": "zone",
                  "type": "address"
                },
                {
                  "components": [
                    {
                      "internalType": "enum ItemType",
                      "name": "itemType",
                      "type": "uint8"
                    },
                    {
                      "internalType": "address",
                      "name": "token",
                      "type": "address"
                    },
                    {
                      "internalType": "uint256",
                      "name": "identifierOrCriteria",
                      "type": "uint256"
                    },
                    {
                      "internalType": "uint256",
                      "name": "startAmount",
                      "type": "uint256"
                    },
                    {
                      "internalType": "uint256",
                      "name": "endAmount",
                      "type": "uint256"
                    }
                  ],
                  "internalType": "struct OfferItem[]",
                  "name": "offer",
                  "type": "tuple[]"
                },
                {
                  "components": [
                    {
                      "internalType": "enum ItemType",
                      "name": "itemType",
                      "type": "uint8"
                    },
                    {
                      "internalType": "address",
                      "name": "token",
                      "type": "address"
                    },
                    {
                      "internalType": "uint256",
                      "name": "identifierOrCriteria",
                      "type": "uint256"
                    },
                    {
                      "internalType": "uint256",
                      "name": "startAmount",
                      "type": "uint256"
                    },
                    {
                      "internalType": "uint256",
                      "name": "endAmount",
                      "type": "uint256"
                    },
                    {
                      "internalType": "address payable",
                      "name": "recipient",
                      "type": "address"
                    }
                  ],
                  "internalType": "struct ConsiderationItem[]",
                  "name": "consideration",
                  "type": "tuple[]"
                },
                {
                  "internalType": "enum OrderType",
                  "name": "orderType",
                  "type": "uint8"
                },
                {
                  "internalType": "uint256",
                  "name": "startTime",
                  "type": "uint256"
                },
                {
                  "internalType": "uint256",
                  "name": "endTime",
                  "type": "uint256"
                },
                {
                  "internalType": "bytes32",
                  "name": "zoneHash",
                  "type": "bytes32"
                },
                {
                  "internalType": "uint256",
                  "name": "salt",
                  "type": "uint256"
                },
                {
                  "internalType": "bytes32",
                  "name": "conduitKey",
                  "type": "bytes32"
                },
                {
                  "internalType": "uint256",
                  "name": "totalOriginalConsiderationItems",
                  "type": "uint256"
                }
              ],
              "internalType": "struct OrderParameters",
              "name": "parameters",
              "type": "tuple"
            },
            {
              "internalType": "bytes",
              "name": "signature",
              "type": "bytes"
            }
          ],
          "internalType": "struct Order[]",
          "name": "orders",
          "type": "tuple[]"
        },
        {
          "components": [
            {
              "components": [
                {
                  "internalType": "uint256",
                  "name": "orderIndex",
                  "type": "uint256"
                },
                {
                  "internalType": "uint256",
                  "name": "itemIndex",
                  "type": "uint256"
                }
              ],
              "internalType": "struct FulfillmentComponent[]",
              "name": "offerComponents",
              "type": "tuple[]"
            },
            {
              "components": [
                {
                  "internalType": "uint256",
                  "name": "orderIndex",
                  "type": "uint256"
                },
                {
                  "internalType": "uint256",
                  "name": "itemIndex",
                  "type": "uint256"
                }
              ],
              "internalType": "struct FulfillmentComponent[]",
              "name": "considerationComponents",
              "type": "tuple[]"
            }
          ],
          "internalType": "struct Fulfillment[]",
          "name": "fulfillments",
          "type": "tuple[]"
        }
      ],
      "name": "executeMatchOrders",
      "outputs": [
        {
          "components": [
            {
              "components": [
                {
                  "internalType": "enum ItemType",
                  "name": "itemType",
                  "type": "uint8"
                },
                {
                  "internalType": "address",
                  "name": "token",
                  "type": "address"
                },
                {
                  "internalType": "uint256",
                  "name": "identifier",
                  "type": "uint256"
                },
                {
                  "internalType": "uint256",
                  "name": "amount",
                  "type": "uint256"
                },
                {
                  "internalType": "address payable",
                  "name": "recipient",
                  "type": "address"
                }
              ],
              "internalType": "struct ReceivedItem",
              "name": "item",
              "type": "tuple"
            },
            {
              "internalType": "address",
              "name": "offerer",
              "type": "address"
            },
            {
              "internalType": "bytes32",
              "name": "conduitKey",
              "type": "bytes32"
            }
          ],
          "internalType": "struct Execution[]",
          "name": "executions",
          "type": "tuple[]"
        }
      ],
      "stateMutability": "payable",
      "type": "function"
    },
    {
      "inputs": [],
      "name": "owner",
      "outputs": [
        {
          "internalType": "address",
          "name": "",
          "type": "address"
        }
      ],
      "stateMutability": "view",
      "type": "function"
    },
    {
      "inputs": [
        {
          "internalType": "address",
          "name": "zone",
          "type": "address"
        }
      ],
      "name": "pause",
      "outputs": [
        {
          "internalType": "bool",
          "name": "success",
          "type": "bool"
        }
      ],
      "stateMutability": "nonpayable",
      "type": "function"
    },
    {
      "inputs": [],
      "name": "pauser",
      "outputs": [
        {
          "internalType": "address",
          "name": "",
          "type": "address"
        }
      ],
      "stateMutability": "view",
      "type": "function"
    },
    {
      "inputs": [],
      "name": "potentialOwner",
      "outputs": [
        {
          "internalType": "address",
          "name": "",
          "type": "address"
        }
      ],
      "stateMutability": "view",
      "type": "function"
    },
    {
      "inputs": [
        {
          "internalType": "address",
          "name": "newPotentialOwner",
          "type": "address"
        }
      ],
      "name": "transferOwnership",
      "outputs": [],
      "stateMutability": "nonpayable",
      "type": "function"
    },
    {
      "inputs": [],
      "name": "zoneCreationCode",
      "outputs": [
        {
          "internalType": "bytes32",
          "name": "",
          "type": "bytes32"
        }
      ],
      "stateMutability": "view",
      "type": "function"
    }
  ],
  "bytecode": "0x60a06040523461009457620045506020813803918261001d81610099565b93849283398101031261009457516001600160a01b0381169081900361009457600080546001600160a01b0319169190911790556115b461006060208201610099565b818152602081019162002f9c8339519020608052604051612ec79081620000d58239608051818181610c7d0152610d310152f35b600080fd5b6040519190601f01601f191682016001600160401b038111838210176100be57604052565b634e487b7160e01b600052604160045260246000fdfe608080604052600436101561001357600080fd5b600090813560e01c90816323452b9c146110445750806340ddc78814610e6e57806346b3ce9f14610ca05780637242512f14610c4757806376a67a5114610b3b5780637762df2514610ae957806379ba5097146109e15780638da5cb5b146109905780639fd0506d1461093e578063b44f660814610507578063d6f3b11014610373578063dcd5b13e14610292578063f2fde38b146101b35763f7e4aac6146100bb57600080fd5b346101b05760407ffffffffffffffffffffffffffffffffffffffffffffffffffffffffffffffffc3601126101b0576100f2611110565b6100fa611138565b9073ffffffffffffffffffffffffffffffffffffffff808454163303610186578084921692833b15610182576024908360405195869485937f84385c6f0000000000000000000000000000000000000000000000000000000085521660048401525af180156101775761016b575080f35b6101749061128c565b80f35b6040513d84823e3d90fd5b8280fd5b60046040517f6db2465f000000000000000000000000000000000000000000000000000000008152fd5b80fd5b50346101b05760207ffffffffffffffffffffffffffffffffffffffffffffffffffffffffffffffffc3601126101b0576101eb611110565b73ffffffffffffffffffffffffffffffffffffffff9081835416330361018657168015610268577f11a3cf439fb225bfe74225716b6774765670ec1060e3796802e62139d69974da6020604051838152a17fffffffffffffffffffffffff0000000000000000000000000000000000000000600154161760015580f35b60046040517fda72ecf9000000000000000000000000000000000000000000000000000000008152fd5b50346101b05760207ffffffffffffffffffffffffffffffffffffffffffffffffffffffffffffffffc3601126101b0576102ca611110565b73ffffffffffffffffffffffffffffffffffffffff9081835416330361018657168015610349576020817fa4336c0cb1e245b95ad204faed7e940d6dc999684fd8b5e1ff597a0c4efca8ab927fffffffffffffffffffffffff00000000000000000000000000000000000000006002541617600255604051908152a180f35b60046040517f5384e6f5000000000000000000000000000000000000000000000000000000008152fd5b50346101b05760607ffffffffffffffffffffffffffffffffffffffffffffffffffffffffffffffffc3601126101b0576103ab611110565b6103b3611138565b9060443567ffffffffffffffff8111610503576103d490369060040161117c565b9073ffffffffffffffffffffffffffffffffffffffff918286541633036101865793918486926040519687957fe5c27af10000000000000000000000000000000000000000000000000000000087528460448801911660048801526040602488015252606485019160648160051b870101928286905b8382106104a75787896020818d81858d828e0393165af180156101775761046f575080f35b6020813d821161049f575b81610487602093836112cf565b8101031261049b5751801515036101b05780f35b5080fd5b3d915061047a565b9295976104eb91949750947fffffffffffffffffffffffffffffffffffffffffffffffffffffffffffffff9c6001939682030186526104e68885611526565b611310565b9560208091019401920191899593928997959261044a565b8380fd5b5060a07ffffffffffffffffffffffffffffffffffffffffffffffffffffffffffffffffc3601126101b05761053a611110565b610542611138565b9060443567ffffffffffffffff81116105035761056390369060040161117c565b60643567ffffffffffffffff811161093a5761058390369060040161117c565b91909260843567ffffffffffffffff8111610936576105a690369060040161117c565b93909273ffffffffffffffffffffffffffffffffffffffff895416330361018657969487939189979593604051998a987f65c4eb72000000000000000000000000000000000000000000000000000000008a5273ffffffffffffffffffffffffffffffffffffffff60848b01911660048b0152608060248b01525260a488019560a48160051b8a010196828b905b83821061084b5750505050507ffffffffffffffffffffffffffffffffffffffffffffffffffffffffffffffffc878603016044880152808552602085019060208160051b87010195838a915b8383106107275750505050508584037ffffffffffffffffffffffffffffffffffffffffffffffffffffffffffffffffc01606487015250849283926106c49261182c565b039173ffffffffffffffffffffffffffffffffffffffff3491165af190811561017757826107009392610704575b5050604051918291826111e9565b0390f35b61072092503d8091833e61071881836112cf565b810190611579565b38806106f2565b7fffffffffffffffffffffffffffffffffffffffffffffffffffffffffffffffe0919497999b50888194979993969b500301865261076589846118d4565b8035825260208101356002811015610843576020830152604081013560408301526060808201359083015260808101357fffffffffffffffffffffffffffffffffffffffffffffffffffffffffffffffe18236030181121561084357016020813591019167ffffffffffffffff8211610843578160051b918236038413610847577f07ffffffffffffffffffffffffffffffffffffffffffffffffffffffffffffff9060a060808401528060a084015211610843576001928260209392849360c0938483013701019a01960193018b99979593928b99979592610680565b8d80fd5b8e80fd5b92959a899194989a9c507fffffffffffffffffffffffffffffffffffffffffffffffffffffffffffffff5c9060019396989a0301855261088b88846118d4565b9061091e6108aa61089c8480611526565b60a0845260a0840190611310565b926effffffffffffffffffffffffffffff926109106109056020968688976108d38988016118b8565b16888601526108e4604087016118b8565b16604085015260606108f8818701876116d9565b9186840390870152611729565b9260808101906116d9565b916080818503910152611729565b980194019201918c9a9896979593928c9a9592610634565b8780fd5b8580fd5b50346101b057807ffffffffffffffffffffffffffffffffffffffffffffffffffffffffffffffffc3601126101b057602073ffffffffffffffffffffffffffffffffffffffff60025416604051908152f35b50346101b057807ffffffffffffffffffffffffffffffffffffffffffffffffffffffffffffffffc3601126101b05773ffffffffffffffffffffffffffffffffffffffff6020915416604051908152f35b50346101b057807ffffffffffffffffffffffffffffffffffffffffffffffffffffffffffffffffc3601126101b05760015473ffffffffffffffffffffffffffffffffffffffff908181163303610abf577f11a3cf439fb225bfe74225716b6774765670ec1060e3796802e62139d69974da6020604051858152a17fffffffffffffffffffffffff00000000000000000000000000000000000000008091166001557f8be0079c531659141344cd1fd0a4f28419497f9722a3daafe3b4186f6b6457e0604084549381519085168152336020820152a1163317815580f35b60046040517f1ff958b6000000000000000000000000000000000000000000000000000000008152fd5b50346101b057807ffffffffffffffffffffffffffffffffffffffffffffffffffffffffffffffffc3601126101b057602073ffffffffffffffffffffffffffffffffffffffff60015416604051908152f35b50346101b05760207ffffffffffffffffffffffffffffffffffffffffffffffffffffffffffffffffc3601126101b057610b73611110565b73ffffffffffffffffffffffffffffffffffffffff806002541633141580610c3a575b610c1057829116803b15610c0d5781906024604051809581937f76a67a510000000000000000000000000000000000000000000000000000000083523360048401525af1908115610c015750610bf2575b602060405160018152f35b610bfb9061128c565b38610be7565b604051903d90823e3d90fd5b50fd5b60046040517fc7260843000000000000000000000000000000000000000000000000000000008152fd5b5080835416331415610b96565b50346101b057807ffffffffffffffffffffffffffffffffffffffffffffffffffffffffffffffffc3601126101b05760206040517f00000000000000000000000000000000000000000000000000000000000000008152f35b50346101b05760207ffffffffffffffffffffffffffffffffffffffffffffffffffffffffffffffffc3601126101b0576004359073ffffffffffffffffffffffffffffffffffffffff90818154163303610186576040519160208301907fff0000000000000000000000000000000000000000000000000000000000000082523060601b60218501528460358501527f0000000000000000000000000000000000000000000000000000000000000000605585015260558452608084019067ffffffffffffffff9285831084841117610e415782604052855190201693843b610e14575050604051906115b480830191821183831017610de75791809186936119078339039083f515610c0157507fd1fa916c9f898e9a8dcedb0f78093657d07014799896193f2b219bed6ac7399c604060209381519084825285820152a1604051908152f35b6024847f4e487b710000000000000000000000000000000000000000000000000000000081526041600452fd5b908460846024937e8343850000000000000000000000000000000000000000000000000000000084520152fd5b6024857f4e487b710000000000000000000000000000000000000000000000000000000081526041600452fd5b507ffffffffffffffffffffffffffffffffffffffffffffffffffffffffffffffffc60808136011261049b57610ea2611110565b90610eab611138565b9167ffffffffffffffff60443581811161093a57610ecd90369060040161117c565b93909160643590811161104057610ee890369060040161117c565b9173ffffffffffffffffffffffffffffffffffffffff958689541633036101865796949290918896949288604051998a987f2718034d000000000000000000000000000000000000000000000000000000008a528860648b01911660048b0152606060248b015252608488019060848160051b8a01019580928b915b838310610fad5750505050508684030160448701528593928492610f879261182c565b03923491165af190811561017757826107009392610704575050604051918291826111e9565b92959761101d91949a9c507fffffffffffffffffffffffffffffffffffffffffffffffffffffffffffffff7c60019396989a9c820301855261102a610ff28c86611768565b9161100e6110008480611526565b604083526040830190611310565b906020948486809601906116d9565b9185818503910152611729565b9a01930193018b999795938d9b99979592610f64565b8680fd5b90503461049b57817ffffffffffffffffffffffffffffffffffffffffffffffffffffffffffffffffc36011261049b5773ffffffffffffffffffffffffffffffffffffffff82541633036110e857507f11a3cf439fb225bfe74225716b6774765670ec1060e3796802e62139d69974da6020604051838152a17fffffffffffffffffffffffff00000000000000000000000000000000000000006001541660015580f35b807f6db2465f0000000000000000000000000000000000000000000000000000000060049252fd5b6004359073ffffffffffffffffffffffffffffffffffffffff8216820361113357565b600080fd5b6024359073ffffffffffffffffffffffffffffffffffffffff8216820361113357565b359073ffffffffffffffffffffffffffffffffffffffff8216820361113357565b9181601f840112156111335782359167ffffffffffffffff8311611133576020808501948460051b01011161113357565b9060068210156111ba5752565b7f4e487b7100000000000000000000000000000000000000000000000000000000600052602160045260246000fd5b60208082019080835283518092528060408094019401926000905b83821061121357505050505090565b90919293948360e0600192848951805161122e8482516111ad565b73ffffffffffffffffffffffffffffffffffffffff9081878201511687860152838101518486015260608082015190860152816080809201511690850152858201511660a0840152015160c082015201960192019093929193611204565b67ffffffffffffffff81116112a057604052565b7f4e487b7100000000000000000000000000000000000000000000000000000000600052604160045260246000fd5b90601f7fffffffffffffffffffffffffffffffffffffffffffffffffffffffffffffffe0910116810190811067ffffffffffffffff8211176112a057604052565b610160919073ffffffffffffffffffffffffffffffffffffffff838301816113378461115b565b1684526020918061134984860161115b565b1683860152604080850135937fffffffffffffffffffffffffffffffffffffffffffffffffffffffffffffffe18636030194858112156111335786019481863596019567ffffffffffffffff998a82116111335760a09687830236038913611133578291868c0152526101808901969060005b8181106114d65750505060609081880135908112156111335787019282843594019984116111335760c09687850236038b1361113357898103838b015284815283019994939260009291905b8484106114665750505050505050608083013560058110156111335760808501528083013590840152808201359083015260e081013560e0830152610100808201359083015261012080820135908301526101408091013591015290565b9091929394959a8b3560068110156111335761148e838e611488858c956111ad565b0161115b565b1682820152828c013583820152838c0135848201526080808d013590820152878c013590878216809203611133578881019190915288019a8801959493600101929190611408565b9091978835906006821015611133578881896114fa898e61148886976001996111ad565b16818901528b890135898201526060808d0135908201526080808d0135908201520199019291016113bc565b90357ffffffffffffffffffffffffffffffffffffffffffffffffffffffffffffffea182360301811215611133570190565b519073ffffffffffffffffffffffffffffffffffffffff8216820361113357565b906020808383031261113357825167ffffffffffffffff9384821161113357019082601f83011215611133578151928484116112a0576040948551956115c4848760051b01886112cf565b858752838701928460e080980287010195818711611133578501935b8685106115f257505050505050505090565b848203908882126111335783519060609182810192818410888511176116ab5760a0809512611133576101008201848110898211176116ab578752885160068110156111335784526116458a8a01611558565b9060809182840152878a0151868401528901519060c0918284015289015173ffffffffffffffffffffffffffffffffffffffff81168103611133578c958b95611695928886015284528a01611558565b84830152880151868201528152019401936115e0565b602460007f4e487b710000000000000000000000000000000000000000000000000000000081526041600452fd5b90357fffffffffffffffffffffffffffffffffffffffffffffffffffffffffffffffe18236030181121561113357016020813591019167ffffffffffffffff821161113357813603831361113357565b601f82602094937fffffffffffffffffffffffffffffffffffffffffffffffffffffffffffffffe0938186528686013760008582860101520116010190565b90357fffffffffffffffffffffffffffffffffffffffffffffffffffffffffffffffc182360301811215611133570190565b90357fffffffffffffffffffffffffffffffffffffffffffffffffffffffffffffffe18236030181121561113357016020813591019167ffffffffffffffff8211611133578160061b3603831361113357565b9190808252602080920192916000905b82821061180b575050505090565b833585528381013585820152604094850194909301926001909101906117fd565b90808352602080930192838260051b850194846000925b858410611854575050505050505090565b9091929394959685806118a783856001950388526118728c88611768565b9061189a611890611883848061179a565b60408086528501916117ed565b928581019061179a565b91858185039101526117ed565b990194019401929594939190611843565b35906effffffffffffffffffffffffffffff8216820361113357565b90357fffffffffffffffffffffffffffffffffffffffffffffffffffffffffffffff618236030181121561113357019056fe60a0806040523461006457336080527fa45f47fdea8a1efdd9029a5691c7f759c32b7c698632b563573e155625d16933600080a161154a908161006a8239608051818181610247015281816102bf015281816103e70152818161084d0152610c5d0152f35b600080fdfe608080604052600436101561001357600080fd5b60003560e01c90816317b1f94214610c85575080632718034d14610a965780632e778efc146108c7578063570ca7351461087557806365c4eb721461043557806376a67a511461039757806384385c6f1461026f5763e5c27af11461007757600080fd5b346101a95760407ffffffffffffffffffffffffffffffffffffffffffffffffffffffffffffffffc3601126101a9576100ae610cfc565b60243567ffffffffffffffff81116101a9576100ce903690600401610d1f565b9173ffffffffffffffffffffffffffffffffffffffff806000541633141580610243575b610219576040929192519283917ffd9f1e10000000000000000000000000000000000000000000000000000000008352602483019386602097889687600488015252604485019060448160051b8701019280926000915b8383106101c15750505050508391826000920393165af19081156101b55760009161017a575b506040519015158152f35b90508181813d83116101ae575b6101918183610eca565b810103126101a9575180151581036101a9573861016f565b600080fd5b503d610187565b6040513d6000823e3d90fd5b92959798610206867fffffffffffffffffffffffffffffffffffffffffffffffffffffffffffffffbc8394979a9c60019699030187526102018a87611121565b610f0b565b9701930193018997959389979592610149565b60046040517fccea9e6f000000000000000000000000000000000000000000000000000000008152fd5b50807f0000000000000000000000000000000000000000000000000000000000000000163314156100f2565b346101a95760207ffffffffffffffffffffffffffffffffffffffffffffffffffffffffffffffffc3601126101a9576102a6610cfc565b73ffffffffffffffffffffffffffffffffffffffff90817f000000000000000000000000000000000000000000000000000000000000000016330361036d57168015610343576020817fb3b3f5f64ab192e4b5fefde1f51ce9733bbdcf831951543b325aebd49cc27ec4927fffffffffffffffffffffffff00000000000000000000000000000000000000006000541617600055604051908152a1005b60046040517f5384e6f5000000000000000000000000000000000000000000000000000000008152fd5b60046040517f6d5769be000000000000000000000000000000000000000000000000000000008152fd5b346101a95760207ffffffffffffffffffffffffffffffffffffffffffffffffffffffffffffffffc3601126101a9576103ce610cfc565b73ffffffffffffffffffffffffffffffffffffffff90817f000000000000000000000000000000000000000000000000000000000000000016330361036d577f9e87fac88ff661f02d44f95383c817fece4bce600a3dab7a54406878b965e752600080a116ff5b60807ffffffffffffffffffffffffffffffffffffffffffffffffffffffffffffffffc3601126101a957610467610cfc565b60243567ffffffffffffffff81116101a957610487903690600401610d1f565b919060443567ffffffffffffffff81116101a9576104a9903690600401610d1f565b60649291923567ffffffffffffffff81116101a9576104cc903690600401610d1f565b92909173ffffffffffffffffffffffffffffffffffffffff6000541633141580610835575b6102195795929190936040519687957ff2d12b120000000000000000000000000000000000000000000000000000000087528560848801608060048a01525260a487019560a48160051b89010196826000905b8382106107525750505050507ffffffffffffffffffffffffffffffffffffffffffffffffffffffffffffffffc868603016024870152808552602085019060208160051b87010195836000915b83831061063c57896000818d81806105d48f8f8f7ffffffffffffffffffffffffffffffffffffffffffffffffffffffffffffffffc858403016044860152611427565b336064830152039173ffffffffffffffffffffffffffffffffffffffff3491165af180156101b55761061591600091610619575b5060405191829182610d8c565b0390f35b61063691503d806000833e61062e8183610eca565b810190611174565b82610608565b919395969790929498507fffffffffffffffffffffffffffffffffffffffffffffffffffffffffffffffe082820301865261067789846114cf565b80358252602081013560028110156101a9576020830152604081013560408301526060808201359083015260808101357fffffffffffffffffffffffffffffffffffffffffffffffffffffffffffffffe1823603018112156101a957016020813591019167ffffffffffffffff82116101a9578160051b9182360384136101a957807f07ffffffffffffffffffffffffffffffffffffffffffffffffffffffffffffff9160a0806080860152840152116101a9576001928260209392849360c0938483013701019a019601930190918a989796959492610591565b91939697987fffffffffffffffffffffffffffffffffffffffffffffffffffffffffffffff5c6001929496979b820301855261078e88846114cf565b906108206107ac61079f8480611121565b60a0808552840190610f0b565b926effffffffffffffffffffffffffffff926108126108076020968688976107d58988016114b3565b16888601526107e6604087016114b3565b16604085015260606107fa818701876112d4565b9186840390870152611324565b9260808101906112d4565b916080818503910152611324565b9801940192018b999594929198979698610544565b5073ffffffffffffffffffffffffffffffffffffffff7f0000000000000000000000000000000000000000000000000000000000000000163314156104f1565b346101a95760007ffffffffffffffffffffffffffffffffffffffffffffffffffffffffffffffffc3601126101a957602073ffffffffffffffffffffffffffffffffffffffff60005416604051908152f35b346101a95760007ffffffffffffffffffffffffffffffffffffffffffffffffffffffffffffffffc3601126101a95760405161090281610eae565b600180825260005b6020908181101561097a57604051604081019281841067ffffffffffffffff85111761094b576020936040526000825260608183015282860101520161090a565b7f4e487b7100000000000000000000000000000000000000000000000000000000600052604160045260246000fd5b8284610bbb61098882611501565b51526040519060209182810181811067ffffffffffffffff82111761094b5760409492945260008152826109bb85611501565b510152604051916109cb83610eae565b600c83527f5061757361626c655a6f6e65000000000000000000000000000000000000000081840152610a0960405193604085526040850190610e2f565b90838203818501528451908183528083019281808460051b8301019701936000915b848310610a385787890388f35b9091929394958480610a848b7fffffffffffffffffffffffffffffffffffffffffffffffffffffffffffffffe086869e030187526040838c518051845201519181858201520190610e2f565b9a980196959491909101920190610a2b565b7ffffffffffffffffffffffffffffffffffffffffffffffffffffffffffffffffc6060813601126101a957610ac9610cfc565b67ffffffffffffffff91906024358381116101a957610aec903690600401610d1f565b936044359081116101a957610b05903690600401610d1f565b9073ffffffffffffffffffffffffffffffffffffffff94856000541633141580610c59575b6102195795939291906040519687957fa81744040000000000000000000000000000000000000000000000000000000087528060448801604060048a015252606487019060648160051b8901019580926000915b838310610bc85750896000818d818d81610ba38f8f8f8f858403016024860152611427565b03923491165af180156101b55761061591600091610619575060405191829182610d8c565b91939899887fffffffffffffffffffffffffffffffffffffffffffffffffffffffffffffff9c610c36926001949698999a9b03018552610c43610c0b8c86611363565b91610c27610c198480611121565b604083526040830190610f0b565b906020948486809601906112d4565b9185818503910152611324565b9a019301930190928b9998979695949293610b7e565b50857f000000000000000000000000000000000000000000000000000000000000000016331415610b2a565b346101a9577ffffffffffffffffffffffffffffffffffffffffffffffffffffffffffffffffc6020813601126101a9576004359067ffffffffffffffff82116101a95761014091360301126101a957807f17b1f9420000000000000000000000000000000000000000000000000000000060209252f35b6004359073ffffffffffffffffffffffffffffffffffffffff821682036101a957565b9181601f840112156101a95782359167ffffffffffffffff83116101a9576020808501948460051b0101116101a957565b906006821015610d5d5752565b7f4e487b7100000000000000000000000000000000000000000000000000000000600052602160045260246000fd5b60208082019080835283518092528060408094019401926000905b838210610db657505050505090565b90919293948360e06001928489518051610dd1848251610d50565b73ffffffffffffffffffffffffffffffffffffffff9081878201511687860152838101518486015260608082015190860152816080809201511690850152858201511660a0840152015160c082015201960192019093929193610da7565b919082519283825260005b848110610e795750507fffffffffffffffffffffffffffffffffffffffffffffffffffffffffffffffe0601f8460006020809697860101520116010190565b602081830181015184830182015201610e3a565b359073ffffffffffffffffffffffffffffffffffffffff821682036101a957565b6040810190811067ffffffffffffffff82111761094b57604052565b90601f7fffffffffffffffffffffffffffffffffffffffffffffffffffffffffffffffe0910116810190811067ffffffffffffffff82111761094b57604052565b610160919073ffffffffffffffffffffffffffffffffffffffff83830181610f3284610e8d565b16845260209180610f44848601610e8d565b1683860152604080850135937fffffffffffffffffffffffffffffffffffffffffffffffffffffffffffffffe18636030194858112156101a95786019481863596019567ffffffffffffffff998a82116101a95760a096878302360389136101a9578291868c0152526101808901969060005b8181106110d15750505060609081880135908112156101a95787019282843594019984116101a95760c09687850236038b136101a957898103838b015284815283019994939260009291905b8484106110615750505050505050608083013560058110156101a95760808501528083013590840152808201359083015260e081013560e0830152610100808201359083015261012080820135908301526101408091013591015290565b9091929394959a8b3560068110156101a957611089838e611083858c95610d50565b01610e8d565b1682820152828c013583820152838c0135848201526080808d013590820152878c0135908782168092036101a9578881019190915288019a8801959493600101929190611003565b90919788359060068210156101a9578881896110f5898e6110838697600199610d50565b16818901528b890135898201526060808d0135908201526080808d013590820152019901929101610fb7565b90357ffffffffffffffffffffffffffffffffffffffffffffffffffffffffffffffea1823603018112156101a9570190565b519073ffffffffffffffffffffffffffffffffffffffff821682036101a957565b90602080838303126101a957825167ffffffffffffffff938482116101a957019082601f830112156101a95781519284841161094b576040948551956111bf848760051b0188610eca565b858752838701928460e0809802870101958187116101a9578501935b8685106111ed57505050505050505090565b848203908882126101a95783519060609182810192818410888511176112a65760a08095126101a9576101008201848110898211176112a6578752885160068110156101a95784526112408a8a01611153565b9060809182840152878a0151868401528901519060c0918284015289015173ffffffffffffffffffffffffffffffffffffffff811681036101a9578c958b95611290928886015284528a01611153565b84830152880151868201528152019401936111db565b602460007f4e487b710000000000000000000000000000000000000000000000000000000081526041600452fd5b90357fffffffffffffffffffffffffffffffffffffffffffffffffffffffffffffffe1823603018112156101a957016020813591019167ffffffffffffffff82116101a95781360383136101a957565b601f82602094937fffffffffffffffffffffffffffffffffffffffffffffffffffffffffffffffe0938186528686013760008582860101520116010190565b90357fffffffffffffffffffffffffffffffffffffffffffffffffffffffffffffffc1823603018112156101a9570190565b90357fffffffffffffffffffffffffffffffffffffffffffffffffffffffffffffffe1823603018112156101a957016020813591019167ffffffffffffffff82116101a9578160061b360383136101a957565b9190808252602080920192916000905b828210611406575050505090565b833585528381013585820152604094850194909301926001909101906113f8565b90808352602080930192838260051b850194846000925b85841061144f575050505050505090565b9091929394959685806114a2838560019503885261146d8c88611363565b9061149561148b61147e8480611395565b60408086528501916113e8565b9285810190611395565b91858185039101526113e8565b99019401940192959493919061143e565b35906effffffffffffffffffffffffffffff821682036101a957565b90357fffffffffffffffffffffffffffffffffffffffffffffffffffffffffffffff61823603018112156101a9570190565b80511561150e5760200190565b7f4e487b7100000000000000000000000000000000000000000000000000000000600052603260045260246000fdfea164736f6c6343000811000aa164736f6c6343000811000a60a0806040523461006457336080527fa45f47fdea8a1efdd9029a5691c7f759c32b7c698632b563573e155625d16933600080a161154a908161006a8239608051818181610247015281816102bf015281816103e70152818161084d0152610c5d0152f35b600080fdfe608080604052600436101561001357600080fd5b60003560e01c90816317b1f94214610c85575080632718034d14610a965780632e778efc146108c7578063570ca7351461087557806365c4eb721461043557806376a67a511461039757806384385c6f1461026f5763e5c27af11461007757600080fd5b346101a95760407ffffffffffffffffffffffffffffffffffffffffffffffffffffffffffffffffc3601126101a9576100ae610cfc565b60243567ffffffffffffffff81116101a9576100ce903690600401610d1f565b9173ffffffffffffffffffffffffffffffffffffffff806000541633141580610243575b610219576040929192519283917ffd9f1e10000000000000000000000000000000000000000000000000000000008352602483019386602097889687600488015252604485019060448160051b8701019280926000915b8383106101c15750505050508391826000920393165af19081156101b55760009161017a575b506040519015158152f35b90508181813d83116101ae575b6101918183610eca565b810103126101a9575180151581036101a9573861016f565b600080fd5b503d610187565b6040513d6000823e3d90fd5b92959798610206867fffffffffffffffffffffffffffffffffffffffffffffffffffffffffffffffbc8394979a9c60019699030187526102018a87611121565b610f0b565b9701930193018997959389979592610149565b60046040517fccea9e6f000000000000000000000000000000000000000000000000000000008152fd5b50807f0000000000000000000000000000000000000000000000000000000000000000163314156100f2565b346101a95760207ffffffffffffffffffffffffffffffffffffffffffffffffffffffffffffffffc3601126101a9576102a6610cfc565b73ffffffffffffffffffffffffffffffffffffffff90817f000000000000000000000000000000000000000000000000000000000000000016330361036d57168015610343576020817fb3b3f5f64ab192e4b5fefde1f51ce9733bbdcf831951543b325aebd49cc27ec4927fffffffffffffffffffffffff00000000000000000000000000000000000000006000541617600055604051908152a1005b60046040517f5384e6f5000000000000000000000000000000000000000000000000000000008152fd5b60046040517f6d5769be000000000000000000000000000000000000000000000000000000008152fd5b346101a95760207ffffffffffffffffffffffffffffffffffffffffffffffffffffffffffffffffc3601126101a9576103ce610cfc565b73ffffffffffffffffffffffffffffffffffffffff90817f000000000000000000000000000000000000000000000000000000000000000016330361036d577f9e87fac88ff661f02d44f95383c817fece4bce600a3dab7a54406878b965e752600080a116ff5b60807ffffffffffffffffffffffffffffffffffffffffffffffffffffffffffffffffc3601126101a957610467610cfc565b60243567ffffffffffffffff81116101a957610487903690600401610d1f565b919060443567ffffffffffffffff81116101a9576104a9903690600401610d1f565b60649291923567ffffffffffffffff81116101a9576104cc903690600401610d1f565b92909173ffffffffffffffffffffffffffffffffffffffff6000541633141580610835575b6102195795929190936040519687957ff2d12b120000000000000000000000000000000000000000000000000000000087528560848801608060048a01525260a487019560a48160051b89010196826000905b8382106107525750505050507ffffffffffffffffffffffffffffffffffffffffffffffffffffffffffffffffc868603016024870152808552602085019060208160051b87010195836000915b83831061063c57896000818d81806105d48f8f8f7ffffffffffffffffffffffffffffffffffffffffffffffffffffffffffffffffc858403016044860152611427565b336064830152039173ffffffffffffffffffffffffffffffffffffffff3491165af180156101b55761061591600091610619575b5060405191829182610d8c565b0390f35b61063691503d806000833e61062e8183610eca565b810190611174565b82610608565b919395969790929498507fffffffffffffffffffffffffffffffffffffffffffffffffffffffffffffffe082820301865261067789846114cf565b80358252602081013560028110156101a9576020830152604081013560408301526060808201359083015260808101357fffffffffffffffffffffffffffffffffffffffffffffffffffffffffffffffe1823603018112156101a957016020813591019167ffffffffffffffff82116101a9578160051b9182360384136101a957807f07ffffffffffffffffffffffffffffffffffffffffffffffffffffffffffffff9160a0806080860152840152116101a9576001928260209392849360c0938483013701019a019601930190918a989796959492610591565b91939697987fffffffffffffffffffffffffffffffffffffffffffffffffffffffffffffff5c6001929496979b820301855261078e88846114cf565b906108206107ac61079f8480611121565b60a0808552840190610f0b565b926effffffffffffffffffffffffffffff926108126108076020968688976107d58988016114b3565b16888601526107e6604087016114b3565b16604085015260606107fa818701876112d4565b9186840390870152611324565b9260808101906112d4565b916080818503910152611324565b9801940192018b999594929198979698610544565b5073ffffffffffffffffffffffffffffffffffffffff7f0000000000000000000000000000000000000000000000000000000000000000163314156104f1565b346101a95760007ffffffffffffffffffffffffffffffffffffffffffffffffffffffffffffffffc3601126101a957602073ffffffffffffffffffffffffffffffffffffffff60005416604051908152f35b346101a95760007ffffffffffffffffffffffffffffffffffffffffffffffffffffffffffffffffc3601126101a95760405161090281610eae565b600180825260005b6020908181101561097a57604051604081019281841067ffffffffffffffff85111761094b576020936040526000825260608183015282860101520161090a565b7f4e487b7100000000000000000000000000000000000000000000000000000000600052604160045260246000fd5b8284610bbb61098882611501565b51526040519060209182810181811067ffffffffffffffff82111761094b5760409492945260008152826109bb85611501565b510152604051916109cb83610eae565b600c83527f5061757361626c655a6f6e65000000000000000000000000000000000000000081840152610a0960405193604085526040850190610e2f565b90838203818501528451908183528083019281808460051b8301019701936000915b848310610a385787890388f35b9091929394958480610a848b7fffffffffffffffffffffffffffffffffffffffffffffffffffffffffffffffe086869e030187526040838c518051845201519181858201520190610e2f565b9a980196959491909101920190610a2b565b7ffffffffffffffffffffffffffffffffffffffffffffffffffffffffffffffffc6060813601126101a957610ac9610cfc565b67ffffffffffffffff91906024358381116101a957610aec903690600401610d1f565b936044359081116101a957610b05903690600401610d1f565b9073ffffffffffffffffffffffffffffffffffffffff94856000541633141580610c59575b6102195795939291906040519687957fa81744040000000000000000000000000000000000000000000000000000000087528060448801604060048a015252606487019060648160051b8901019580926000915b838310610bc85750896000818d818d81610ba38f8f8f8f858403016024860152611427565b03923491165af180156101b55761061591600091610619575060405191829182610d8c565b91939899887fffffffffffffffffffffffffffffffffffffffffffffffffffffffffffffff9c610c36926001949698999a9b03018552610c43610c0b8c86611363565b91610c27610c198480611121565b604083526040830190610f0b565b906020948486809601906112d4565b9185818503910152611324565b9a019301930190928b9998979695949293610b7e565b50857f000000000000000000000000000000000000000000000000000000000000000016331415610b2a565b346101a9577ffffffffffffffffffffffffffffffffffffffffffffffffffffffffffffffffc6020813601126101a9576004359067ffffffffffffffff82116101a95761014091360301126101a957807f17b1f9420000000000000000000000000000000000000000000000000000000060209252f35b6004359073ffffffffffffffffffffffffffffffffffffffff821682036101a957565b9181601f840112156101a95782359167ffffffffffffffff83116101a9576020808501948460051b0101116101a957565b906006821015610d5d5752565b7f4e487b7100000000000000000000000000000000000000000000000000000000600052602160045260246000fd5b60208082019080835283518092528060408094019401926000905b838210610db657505050505090565b90919293948360e06001928489518051610dd1848251610d50565b73ffffffffffffffffffffffffffffffffffffffff9081878201511687860152838101518486015260608082015190860152816080809201511690850152858201511660a0840152015160c082015201960192019093929193610da7565b919082519283825260005b848110610e795750507fffffffffffffffffffffffffffffffffffffffffffffffffffffffffffffffe0601f8460006020809697860101520116010190565b602081830181015184830182015201610e3a565b359073ffffffffffffffffffffffffffffffffffffffff821682036101a957565b6040810190811067ffffffffffffffff82111761094b57604052565b90601f7fffffffffffffffffffffffffffffffffffffffffffffffffffffffffffffffe0910116810190811067ffffffffffffffff82111761094b57604052565b610160919073ffffffffffffffffffffffffffffffffffffffff83830181610f3284610e8d565b16845260209180610f44848601610e8d565b1683860152604080850135937fffffffffffffffffffffffffffffffffffffffffffffffffffffffffffffffe18636030194858112156101a95786019481863596019567ffffffffffffffff998a82116101a95760a096878302360389136101a9578291868c0152526101808901969060005b8181106110d15750505060609081880135908112156101a95787019282843594019984116101a95760c09687850236038b136101a957898103838b015284815283019994939260009291905b8484106110615750505050505050608083013560058110156101a95760808501528083013590840152808201359083015260e081013560e0830152610100808201359083015261012080820135908301526101408091013591015290565b9091929394959a8b3560068110156101a957611089838e611083858c95610d50565b01610e8d565b1682820152828c013583820152838c0135848201526080808d013590820152878c0135908782168092036101a9578881019190915288019a8801959493600101929190611003565b90919788359060068210156101a9578881896110f5898e6110838697600199610d50565b16818901528b890135898201526060808d0135908201526080808d013590820152019901929101610fb7565b90357ffffffffffffffffffffffffffffffffffffffffffffffffffffffffffffffea1823603018112156101a9570190565b519073ffffffffffffffffffffffffffffffffffffffff821682036101a957565b90602080838303126101a957825167ffffffffffffffff938482116101a957019082601f830112156101a95781519284841161094b576040948551956111bf848760051b0188610eca565b858752838701928460e0809802870101958187116101a9578501935b8685106111ed57505050505050505090565b848203908882126101a95783519060609182810192818410888511176112a65760a08095126101a9576101008201848110898211176112a6578752885160068110156101a95784526112408a8a01611153565b9060809182840152878a0151868401528901519060c0918284015289015173ffffffffffffffffffffffffffffffffffffffff811681036101a9578c958b95611290928886015284528a01611153565b84830152880151868201528152019401936111db565b602460007f4e487b710000000000000000000000000000000000000000000000000000000081526041600452fd5b90357fffffffffffffffffffffffffffffffffffffffffffffffffffffffffffffffe1823603018112156101a957016020813591019167ffffffffffffffff82116101a95781360383136101a957565b601f82602094937fffffffffffffffffffffffffffffffffffffffffffffffffffffffffffffffe0938186528686013760008582860101520116010190565b90357fffffffffffffffffffffffffffffffffffffffffffffffffffffffffffffffc1823603018112156101a9570190565b90357fffffffffffffffffffffffffffffffffffffffffffffffffffffffffffffffe1823603018112156101a957016020813591019167ffffffffffffffff82116101a9578160061b360383136101a957565b9190808252602080920192916000905b828210611406575050505090565b833585528381013585820152604094850194909301926001909101906113f8565b90808352602080930192838260051b850194846000925b85841061144f575050505050505090565b9091929394959685806114a2838560019503885261146d8c88611363565b9061149561148b61147e8480611395565b60408086528501916113e8565b9285810190611395565b91858185039101526113e8565b99019401940192959493919061143e565b35906effffffffffffffffffffffffffffff821682036101a957565b90357fffffffffffffffffffffffffffffffffffffffffffffffffffffffffffffff61823603018112156101a9570190565b80511561150e5760200190565b7f4e487b7100000000000000000000000000000000000000000000000000000000600052603260045260246000fdfea164736f6c6343000811000a",
  "linkReferences": {},
  "deployedLinkReferences": {}
}