{
  "_format": "hh-sol-artifact-1",
  "contractName": "AccessController",
  "sourceName": "contracts/access/AccessController.sol",
  "abi": [
    {
      "inputs": [],
      "stateMutability": "nonpayable",
      "type": "constructor"
    },
    {
      "anonymous": false,
      "inputs": [
        {
          "indexed": true,
          "internalType": "bytes32",
          "name": "role",
          "type": "bytes32"
        },
        {
          "indexed": true,
          "internalType": "bytes32",
          "name": "previousAdminRole",
          "type": "bytes32"
        },
        {
          "indexed": true,
          "internalType": "bytes32",
          "name": "newAdminRole",
          "type": "bytes32"
        }
      ],
      "name": "RoleAdminChanged",
      "type": "event"
    },
    {
      "anonymous": false,
      "inputs": [
        {
          "indexed": true,
          "internalType": "bytes32",
          "name": "role",
          "type": "bytes32"
        },
        {
          "indexed": true,
          "internalType": "address",
          "name": "account",
          "type": "address"
        },
        {
          "indexed": true,
          "internalType": "address",
          "name": "sender",
          "type": "address"
        }
      ],
      "name": "RoleGranted",
      "type": "event"
    },
    {
      "anonymous": false,
      "inputs": [
        {
          "indexed": true,
          "internalType": "bytes32",
          "name": "role",
          "type": "bytes32"
        },
        {
          "indexed": true,
          "internalType": "address",
          "name": "account",
          "type": "address"
        },
        {
          "indexed": true,
          "internalType": "address",
          "name": "sender",
          "type": "address"
        }
      ],
      "name": "RoleRevoked",
      "type": "event"
    },
    {
      "inputs": [],
      "name": "DEFAULT_ADMIN_ROLE",
      "outputs": [
        {
          "internalType": "bytes32",
          "name": "",
          "type": "bytes32"
        }
      ],
      "stateMutability": "view",
      "type": "function"
    },
    {
      "inputs": [
        {
          "internalType": "bytes32",
          "name": "role",
          "type": "bytes32"
        }
      ],
      "name": "getRoleAdmin",
      "outputs": [
        {
          "internalType": "bytes32",
          "name": "",
          "type": "bytes32"
        }
      ],
      "stateMutability": "view",
      "type": "function"
    },
    {
      "inputs": [
        {
          "internalType": "bytes32",
          "name": "role",
          "type": "bytes32"
        },
        {
          "internalType": "address",
          "name": "account",
          "type": "address"
        }
      ],
      "name": "grantRole",
      "outputs": [],
      "stateMutability": "nonpayable",
      "type": "function"
    },
    {
      "inputs": [
        {
          "internalType": "bytes32",
          "name": "role",
          "type": "bytes32"
        },
        {
          "internalType": "address",
          "name": "account",
          "type": "address"
        }
      ],
      "name": "hasRole",
      "outputs": [
        {
          "internalType": "bool",
          "name": "",
          "type": "bool"
        }
      ],
      "stateMutability": "view",
      "type": "function"
    },
    {
      "inputs": [
        {
          "internalType": "bytes32",
          "name": "role",
          "type": "bytes32"
        },
        {
          "internalType": "address",
          "name": "account",
          "type": "address"
        }
      ],
      "name": "renounceRole",
      "outputs": [],
      "stateMutability": "nonpayable",
      "type": "function"
    },
    {
      "inputs": [
        {
          "internalType": "bytes32",
          "name": "role",
          "type": "bytes32"
        },
        {
          "internalType": "address",
          "name": "account",
          "type": "address"
        }
      ],
      "name": "revokeRole",
      "outputs": [],
      "stateMutability": "nonpayable",
      "type": "function"
    },
    {
      "inputs": [
        {
          "internalType": "bytes4",
          "name": "interfaceId",
          "type": "bytes4"
        }
      ],
      "name": "supportsInterface",
      "outputs": [
        {
          "internalType": "bool",
          "name": "",
          "type": "bool"
        }
      ],
      "stateMutability": "view",
      "type": "function"
    }
  ],
  "bytecode": "0x608060405234801561001057600080fd5b506100296000805160206109a883398151915233610126565b6100416000805160206109a883398151915280610134565b6100797ff87e69cb514f255f3d32f9d90f25160a10d0cdefe6618a6406db334d4450595c6000805160206109a8833981519152610134565b6100b17f43023f179164d629e1d761fb32e2db4dbd5ce417a23159d7da9cc7b5626892856000805160206109a8833981519152610134565b6100e97fa615a8afb6fffcb8c6809ac0997b5c9c12b8cc97651150f14c8f6203168cff4c6000805160206109a8833981519152610134565b6101217f380b61a03d510578eb69abac2609346d7bf838d9f340f7d0c66cfc65790d7f5f6000805160206109a8833981519152610134565b610221565b610130828261017f565b5050565b600082815260656020526040808220600101805490849055905190918391839186917fbd79b86ffe0ab8e8776151514217cd7cacd52c909f66475c3af44e129f0b00ff9190a4505050565b60008281526065602090815260408083206001600160a01b038516845290915290205460ff166101305760008281526065602090815260408083206001600160a01b03851684529091529020805460ff191660011790556101dd3390565b6001600160a01b0316816001600160a01b0316837f2f8788117e7eff1d82e926ec794901d17c78024a50270940304540a733656f0d60405160405180910390a45050565b610778806102306000396000f3fe608060405234801561001057600080fd5b506004361061007d5760003560e01c806336568abe1161005b57806336568abe146100f057806391d1485414610103578063a217fddf14610116578063d547741f1461011e57600080fd5b806301ffc9a714610082578063248a9ca3146100aa5780632f2ff15d146100db575b600080fd5b61009561009036600461055b565b610131565b60405190151581526020015b60405180910390f35b6100cd6100b8366004610585565b60009081526065602052604090206001015490565b6040519081526020016100a1565b6100ee6100e936600461059e565b610168565b005b6100ee6100fe36600461059e565b610193565b61009561011136600461059e565b610216565b6100cd600081565b6100ee61012c36600461059e565b610241565b60006001600160e01b03198216637965db0b60e01b148061016257506301ffc9a760e01b6001600160e01b03198316145b92915050565b6000828152606560205260409020600101546101848133610267565b61018e83836102cb565b505050565b6001600160a01b03811633146102085760405162461bcd60e51b815260206004820152602f60248201527f416363657373436f6e74726f6c3a2063616e206f6e6c792072656e6f756e636560448201526e103937b632b9903337b91039b2b63360891b60648201526084015b60405180910390fd5b6102128282610351565b5050565b60009182526065602090815260408084206001600160a01b0393909316845291905290205460ff1690565b60008281526065602052604090206001015461025d8133610267565b61018e8383610351565b6102718282610216565b61021257610289816001600160a01b031660146103b8565b6102948360206103b8565b6040516020016102a592919061060a565b60408051601f198184030181529082905262461bcd60e51b82526101ff9160040161067f565b6102d58282610216565b6102125760008281526065602090815260408083206001600160a01b03851684529091529020805460ff1916600117905561030d3390565b6001600160a01b0316816001600160a01b0316837f2f8788117e7eff1d82e926ec794901d17c78024a50270940304540a733656f0d60405160405180910390a45050565b61035b8282610216565b156102125760008281526065602090815260408083206001600160a01b0385168085529252808320805460ff1916905551339285917ff6391f5c32d9c69d2a47ea670b442974b53935d1edc7fd64eb21e047a839171b9190a45050565b606060006103c78360026106c8565b6103d29060026106e7565b67ffffffffffffffff8111156103ea576103ea6106ff565b6040519080825280601f01601f191660200182016040528015610414576020820181803683370190505b509050600360fc1b8160008151811061042f5761042f610715565b60200101906001600160f81b031916908160001a905350600f60fb1b8160018151811061045e5761045e610715565b60200101906001600160f81b031916908160001a90535060006104828460026106c8565b61048d9060016106e7565b90505b6001811115610505576f181899199a1a9b1b9c1cb0b131b232b360811b85600f16601081106104c1576104c1610715565b1a60f81b8282815181106104d7576104d7610715565b60200101906001600160f81b031916908160001a90535060049490941c936104fe8161072b565b9050610490565b5083156105545760405162461bcd60e51b815260206004820181905260248201527f537472696e67733a20686578206c656e67746820696e73756666696369656e7460448201526064016101ff565b9392505050565b60006020828403121561056d57600080fd5b81356001600160e01b03198116811461055457600080fd5b60006020828403121561059757600080fd5b5035919050565b600080604083850312156105b157600080fd5b8235915060208301356001600160a01b03811681146105cf57600080fd5b809150509250929050565b60005b838110156105f55781810151838201526020016105dd565b83811115610604576000848401525b50505050565b7f416363657373436f6e74726f6c3a206163636f756e74200000000000000000008152600083516106428160178501602088016105da565b7001034b99036b4b9b9b4b733903937b6329607d1b60179184019182015283516106738160288401602088016105da565b01602801949350505050565b602081526000825180602084015261069e8160408501602087016105da565b601f01601f19169190910160400192915050565b634e487b7160e01b600052601160045260246000fd5b60008160001904831182151516156106e2576106e26106b2565b500290565b600082198211156106fa576106fa6106b2565b500190565b634e487b7160e01b600052604160045260246000fd5b634e487b7160e01b600052603260045260246000fd5b60008161073a5761073a6106b2565b50600019019056fea2646970667358221220858761c32a9be749808ef063edc2fa57ac8aaea548b1bfffedba4168e90ef7cd64736f6c63430008090033df8b4c520ffe197c5343c6f5aec59570151ef9a492f2c624fd45ddde6135ec42",
  "linkReferences": {},
  "deployedLinkReferences": {}
}