{
  "_format": "hh-sol-artifact-1",
  "contractName": "FundsHandlerFacet",
  "sourceName": "contracts/protocol/facets/FundsHandlerFacet.sol",
  "abi": [
    {
      "anonymous": false,
      "inputs": [
        {
          "indexed": true,
          "internalType": "uint256",
          "name": "exchangeId",
          "type": "uint256"
        },
        {
          "indexed": true,
          "internalType": "address",
          "name": "exchangeToken",
          "type": "address"
        },
        {
          "indexed": false,
          "internalType": "uint256",
          "name": "amount",
          "type": "uint256"
        }
      ],
      "name": "ExchangeFee",
      "type": "event"
    },
    {
      "anonymous": false,
      "inputs": [
        {
          "indexed": true,
          "internalType": "uint256",
          "name": "sellerId",
          "type": "uint256"
        },
        {
          "indexed": true,
          "internalType": "address",
          "name": "depositedBy",
          "type": "address"
        },
        {
          "indexed": true,
          "internalType": "address",
          "name": "tokenAddress",
          "type": "address"
        },
        {
          "indexed": false,
          "internalType": "uint256",
          "name": "amount",
          "type": "uint256"
        }
      ],
      "name": "FundsDeposited",
      "type": "event"
    },
    {
      "anonymous": false,
      "inputs": [
        {
          "indexed": true,
          "internalType": "uint256",
          "name": "entityId",
          "type": "uint256"
        },
        {
          "indexed": true,
          "internalType": "address",
          "name": "exchangeToken",
          "type": "address"
        },
        {
          "indexed": false,
          "internalType": "uint256",
          "name": "amount",
          "type": "uint256"
        }
      ],
      "name": "FundsEncumbered",
      "type": "event"
    },
    {
      "anonymous": false,
      "inputs": [
        {
          "indexed": true,
          "internalType": "uint256",
          "name": "exchangeId",
          "type": "uint256"
        },
        {
          "indexed": true,
          "internalType": "uint256",
          "name": "entityId",
          "type": "uint256"
        },
        {
          "indexed": true,
          "internalType": "address",
          "name": "exchangeToken",
          "type": "address"
        },
        {
          "indexed": false,
          "internalType": "uint256",
          "name": "amount",
          "type": "uint256"
        }
      ],
      "name": "FundsReleased",
      "type": "event"
    },
    {
      "anonymous": false,
      "inputs": [
        {
          "indexed": true,
          "internalType": "uint256",
          "name": "sellerId",
          "type": "uint256"
        },
        {
          "indexed": true,
          "internalType": "address",
          "name": "withdrawnTo",
          "type": "address"
        },
        {
          "indexed": true,
          "internalType": "address",
          "name": "tokenAddress",
          "type": "address"
        },
        {
          "indexed": false,
          "internalType": "uint256",
          "name": "amount",
          "type": "uint256"
        }
      ],
      "name": "FundsWithdrawn",
      "type": "event"
    },
    {
      "inputs": [
        {
          "internalType": "uint256",
          "name": "_sellerId",
          "type": "uint256"
        },
        {
          "internalType": "address",
          "name": "_tokenAddress",
          "type": "address"
        },
        {
          "internalType": "uint256",
          "name": "_amount",
          "type": "uint256"
        }
      ],
      "name": "depositFunds",
      "outputs": [],
      "stateMutability": "payable",
      "type": "function"
    },
    {
      "inputs": [
        {
          "internalType": "uint256",
          "name": "_entityId",
          "type": "uint256"
        }
      ],
      "name": "getAvailableFunds",
      "outputs": [
        {
          "components": [
            {
              "internalType": "address",
              "name": "tokenAddress",
              "type": "address"
            },
            {
              "internalType": "string",
              "name": "tokenName",
              "type": "string"
            },
            {
              "internalType": "uint256",
              "name": "availableAmount",
              "type": "uint256"
            }
          ],
          "internalType": "struct BosonTypes.Funds[]",
          "name": "availableFunds",
          "type": "tuple[]"
        }
      ],
      "stateMutability": "view",
      "type": "function"
    },
    {
      "inputs": [],
      "name": "initialize",
      "outputs": [],
      "stateMutability": "nonpayable",
      "type": "function"
    },
    {
      "inputs": [
        {
          "internalType": "uint256",
          "name": "_entityId",
          "type": "uint256"
        },
        {
          "internalType": "address[]",
          "name": "_tokenList",
          "type": "address[]"
        },
        {
          "internalType": "uint256[]",
          "name": "_tokenAmounts",
          "type": "uint256[]"
        }
      ],
      "name": "withdrawFunds",
      "outputs": [],
      "stateMutability": "nonpayable",
      "type": "function"
    },
    {
      "inputs": [
        {
          "internalType": "address[]",
          "name": "_tokenList",
          "type": "address[]"
        },
        {
          "internalType": "uint256[]",
          "name": "_tokenAmounts",
          "type": "uint256[]"
        }
      ],
      "name": "withdrawProtocolFees",
      "outputs": [],
      "stateMutability": "nonpayable",
      "type": "function"
    }
  ],
  "bytecode": "0x608060405234801561001057600080fd5b5061167e806100206000396000f3fe60806040526004361061004a5760003560e01c806311ec86931461004f578063685ef733146100715780638129fc1c14610091578063a07fcc70146100a6578063c14eff97146100b9575b600080fd5b34801561005b57600080fd5b5061006f61006a3660046111d1565b6100ef565b005b34801561007d57600080fd5b5061006f61008c36600461123d565b610212565b34801561009d57600080fd5b5061006f61032b565b61006f6100b43660046112d3565b610452565b3480156100c557600080fd5b506100d96100d4366004611308565b6105b3565b6040516100e6919061137d565b60405180910390f35b7f380b61a03d510578eb69abac2609346d7bf838d9f340f7d0c66cfc65790d7f5f60007fc8fcad8db84d3cc18b4c41d551ea0ee66dd599cde068d998e57d5e09332c131c600481810154604051632474521560e21b81529182018590523360248301529192506001600160a01b03909116906391d148549060440160206040518083038186803b15801561018257600080fd5b505afa158015610196573d6000803e3d6000fd5b505050506040513d601f19601f820116820180604052508101906101ba9190611409565b6040518060600160405280602781526020016115df60279139906101fa5760405162461bcd60e51b81526004016101f19190611432565b60405180910390fd5b5061020a33600088888888610856565b505050505050565b3360009081527f14c87be183d40876b1316e67a92c4469522d68b1be15fad3f5453a003ce0953d6020526040812054801580159190829061025257508781145b1561025f57339250610313565b3360009081527f14c87be183d40876b1316e67a92c4469522d68b1be15fad3f5453a003ce0953c6020526040902054801515925090508180156102a157508781145b156102c85760006102b182610b79565b600401546001600160a01b03169450610313915050565b604080518082018252601a81527f4e6f7420617574686f72697a656420746f2077697468647261770000000000006020820152905162461bcd60e51b81526101f19190600401611432565b610321838989898989610856565b5050505050505050565b631883424760e01b60008190527fe7ad30265b8084c731e610579d091ebe2886115e8a5cacb6b704e4392f48b2c160208181527f902432e7081d58827b82b526d5279e0a50340ea5ae2a378961b9767acd244c4054604080518082019091526013815272105b1c9958591e481a5b9a5d1a585b1a5e9959606a1b9281019290925260ff16156103cd5760405162461bcd60e51b81526004016101f19190611432565b506001600160e01b0319821660009081526020828152604082208054600160ff199182168117909255631883424760e01b9093527fc8fcad8db84d3cc18b4c41d551ea0ee66dd599cde068d998e57d5e09332c131f9091527ff930a4c3308c9a07d51bb34ae48303c8a5806e4f734b003301a8bd741e2276f680549092161790555050565b600061045d84610b79565b509050806040518060400160405280600e81526020016d27379039bab1b41039b2b63632b960911b815250906104a65760405162461bcd60e51b81526004016101f19190611432565b50341561054a5760408051808201909152601e81527f4e617469766520746f6b656e2061646472657373206d7573742062652030000060208201526001600160a01b038416156105095760405162461bcd60e51b81526004016101f19190611432565b5034821460405180606001604052806023815260200161160660239139906105445760405162461bcd60e51b81526004016101f19190611432565b50610554565b6105548383610bbc565b61055f848484610ccf565b826001600160a01b0316336001600160a01b0316857f862dfcd9710943e66ad8f1f01a99cc98ab5612a09e62ecc68f63fe2e0f86cb0e856040516105a591815260200190565b60405180910390a450505050565b60008181527f14c87be183d40876b1316e67a92c4469522d68b1be15fad3f5453a003ce0953f6020908152604080832080548251818502810185019093528083526060949383018282801561063157602002820191906000526020600020905b81546001600160a01b03168152600190910190602001808311610613575b50505050509050805167ffffffffffffffff81111561065257610652611445565b6040519080825280602002602001820160405280156106b057816020015b61069d604051806060016040528060006001600160a01b0316815260200160608152602001600081525090565b8152602001906001900390816106705790505b50915060005b815181101561084f5760008282815181106106d3576106d361145b565b60200260200101519050606060006001600160a01b0316826001600160a01b03161415610726575060408051808201909152600f81526e4e61746976652063757272656e637960881b60208201526107ce565b816001600160a01b03166306fdde036040518163ffffffff1660e01b815260040160006040518083038186803b15801561075f57600080fd5b505afa92505050801561079457506040513d6000823e601f3d908101601f191682016040526107919190810190611471565b60015b6107cb5750604080518082019091526016815275151bdad95b881b985b59481d5b9cdc1958da599a595960521b60208201526107ce565b90505b6000868152600080516020611629833981519152602090815260408083206001600160a01b038616808552908352928190205481516060810183529384529183018490528201819052865190919087908690811061082e5761082e61145b565b6020026020010181905250505050808061084790611534565b9150506106b6565b5050919050565b6040805160608101909152602f80825284831491906115b06020830139906108915760405162461bcd60e51b81526004016101f19190611432565b507f14c87be183d40876b1316e67a92c4469522d68b1be15fad3f5453a003ce0952d5460408051808201909152600f81526e546f6f206d616e7920746f6b656e7360881b6020820152600160f01b90910461ffff1690818511156109085760405162461bcd60e51b81526004016101f19190611432565b5083610aa25760008681527f14c87be183d40876b1316e67a92c4469522d68b1be15fad3f5453a003ce0953f602090815260408083208054825181850281018501909352808352919290919083018282801561098d57602002820191906000526020600020905b81546001600160a01b0316815260019091019060200180831161096f575b50505050509050805160001415604051806040016040528060138152602001724e6f7468696e6720746f20776974686472617760681b815250906109e45760405162461bcd60e51b81526004016101f19190611432565b50600081518311156109f75781516109f9565b825b905060005b81811015610a9a5760008981526000805160206116298339815191526020526040812084518290869085908110610a3757610a3761145b565b60200260200101516001600160a01b03166001600160a01b03168152602001908152602001600020549050610a878a858481518110610a7857610a7861145b565b60200260200101518d84610d9e565b5080610a9281611534565b9150506109fe565b505050610b70565b60005b84811015610321576000848483818110610ac157610ac161145b565b9050602002013511604051806040016040528060138152602001724e6f7468696e6720746f20776974686472617760681b81525090610b135760405162461bcd60e51b81526004016101f19190611432565b50610b5e87878784818110610b2a57610b2a61145b565b9050602002016020810190610b3f919061154f565b8a878786818110610b5257610b5261145b565b90506020020135610d9e565b80610b6881611534565b915050610aa5565b50505050505050565b60008181527f14c87be183d40876b1316e67a92c4469522d68b1be15fad3f5453a003ce09531602052604081208215801590610bb55750805483145b9150915091565b6040516323b872dd60e01b8152336004820152306024820152604481018290526001600160a01b038316906323b872dd90606401602060405180830381600087803b158015610c0a57600080fd5b505af1925050508015610c3a575060408051601f3d908101601f19168201909252610c3791810190611409565b60015b610cca573d808015610c68576040519150601f19603f3d011682016040523d82523d6000602084013e610c6d565b606091505b5060008151600014610c7f5781610cae565b60405180604001604052806015815260200174151bdad95b881d1c985b9cd9995c8819985a5b1959605a1b8152505b90508060405162461bcd60e51b81526004016101f19190611432565b505050565b6000838152600080516020611629833981519152602090815260408083206001600160a01b03861684529091529020547f14c87be183d40876b1316e67a92c4469522d68b1be15fad3f5453a003ce0952b90610d5f57600084815260148201602090815260408220805460018101825590835291200180546001600160a01b0319166001600160a01b0385161790555b600084815260138201602090815260408083206001600160a01b038716845290915281208054849290610d9390849061156a565b909155505050505050565b610da9848483610f51565b6001600160a01b038316610e61576000826001600160a01b03168260405160006040518083038185875af1925050503d8060008114610e04576040519150601f19603f3d011682016040523d82523d6000602084013e610e09565b606091505b505090508060405180604001604052806015815260200174151bdad95b881d1c985b9cd9995c8819985a5b1959605a1b81525090610e5a5760405162461bcd60e51b81526004016101f19190611432565b5050610f0b565b60405163a9059cbb60e01b81526001600160a01b0383811660048301526024820183905284169063a9059cbb90604401602060405180830381600087803b158015610eab57600080fd5b505af1925050508015610edb575060408051601f3d908101601f19168201909252610ed891810190611409565b60015b610f09573d808015610c68576040519150601f19603f3d011682016040523d82523d6000602084013e610c6d565b505b826001600160a01b0316826001600160a01b0316857f9467881c16409d70790ef2aa073424972ede02854453f7ff5036d66e860ee42f846040516105a591815260200190565b6000838152600080516020611629833981519152602090815260408083206001600160a01b0386168452825291829020548251808401909352601c83527f496e73756666696369656e7420617661696c61626c652066756e647300000000918301919091527f14c87be183d40876b1316e67a92c4469522d68b1be15fad3f5453a003ce0952b9183821015610ff95760405162461bcd60e51b81526004016101f19190611432565b506110048382611582565b600086815260138401602090815260408083206001600160a01b03891684529091529020558083141561117e576000858152601483016020526040812054905b81811015610b70576000878152601485016020526040902080546001600160a01b03881691908390811061107a5761107a61145b565b6000918252602090912001546001600160a01b0316141561116c57600087815260148501602052604090206110b0600184611582565b815481106110c0576110c061145b565b600091825260208083209091015489835260148701909152604090912080546001600160a01b0390921691839081106110fb576110fb61145b565b600091825260208083209190910180546001600160a01b0319166001600160a01b039490941693909317909255888152601486019091526040902080548061114557611145611599565b600082815260209020810160001990810180546001600160a01b0319169055019055610b70565b8061117681611534565b915050611044565b5050505050565b60008083601f84011261119757600080fd5b50813567ffffffffffffffff8111156111af57600080fd5b6020830191508360208260051b85010111156111ca57600080fd5b9250929050565b600080600080604085870312156111e757600080fd5b843567ffffffffffffffff808211156111ff57600080fd5b61120b88838901611185565b9096509450602087013591508082111561122457600080fd5b5061123187828801611185565b95989497509550505050565b60008060008060006060868803121561125557600080fd5b85359450602086013567ffffffffffffffff8082111561127457600080fd5b61128089838a01611185565b9096509450604088013591508082111561129957600080fd5b506112a688828901611185565b969995985093965092949392505050565b80356001600160a01b03811681146112ce57600080fd5b919050565b6000806000606084860312156112e857600080fd5b833592506112f8602085016112b7565b9150604084013590509250925092565b60006020828403121561131a57600080fd5b5035919050565b60005b8381101561133c578181015183820152602001611324565b8381111561134b576000848401525b50505050565b60008151808452611369816020860160208601611321565b601f01601f19169290920160200192915050565b60006020808301818452808551808352604092508286019150828160051b87010184880160005b838110156113fb57888303603f19018552815180516001600160a01b03168452878101516060898601819052906113dd82870182611351565b928901519589019590955250948701949250908601906001016113a4565b509098975050505050505050565b60006020828403121561141b57600080fd5b8151801515811461142b57600080fd5b9392505050565b60208152600061142b6020830184611351565b634e487b7160e01b600052604160045260246000fd5b634e487b7160e01b600052603260045260246000fd5b60006020828403121561148357600080fd5b815167ffffffffffffffff8082111561149b57600080fd5b818401915084601f8301126114af57600080fd5b8151818111156114c1576114c1611445565b604051601f8201601f19908116603f011681019083821181831017156114e9576114e9611445565b8160405282815287602084870101111561150257600080fd5b611513836020830160208801611321565b979650505050505050565b634e487b7160e01b600052601160045260246000fd5b60006000198214156115485761154861151e565b5060010190565b60006020828403121561156157600080fd5b61142b826112b7565b6000821982111561157d5761157d61151e565b500190565b6000828210156115945761159461151e565b500390565b634e487b7160e01b600052603160045260246000fdfe4e756d626572206f6620616d6f756e74732073686f756c64206d61746368206e756d626572206f6620746f6b656e734163636573732064656e6965642c2063616c6c657220646f65736e2774206861766520726f6c655472616e736665727265642076616c7565206d757374206d6174636820616d6f756e7414c87be183d40876b1316e67a92c4469522d68b1be15fad3f5453a003ce0953ea26469706673582212200d6fdf4086f7b954f1e8d836716cdeca65ac61d83c238df11cfb7ffcb1f8906764736f6c63430008090033",
  "linkReferences": {},
  "deployedLinkReferences": {}
}