{
  "_format": "hh-sol-artifact-1",
  "contractName": "Foreign1155",
  "sourceName": "contracts/mock/Foreign1155.sol",
  "abi": [
    {
      "anonymous": false,
      "inputs": [
        {
          "indexed": true,
          "internalType": "address",
          "name": "account",
          "type": "address"
        },
        {
          "indexed": true,
          "internalType": "address",
          "name": "operator",
          "type": "address"
        },
        {
          "indexed": false,
          "internalType": "bool",
          "name": "approved",
          "type": "bool"
        }
      ],
      "name": "ApprovalForAll",
      "type": "event"
    },
    {
      "anonymous": false,
      "inputs": [
        {
          "indexed": true,
          "internalType": "address",
          "name": "operator",
          "type": "address"
        },
        {
          "indexed": true,
          "internalType": "address",
          "name": "from",
          "type": "address"
        },
        {
          "indexed": true,
          "internalType": "address",
          "name": "to",
          "type": "address"
        },
        {
          "indexed": false,
          "internalType": "uint256[]",
          "name": "ids",
          "type": "uint256[]"
        },
        {
          "indexed": false,
          "internalType": "uint256[]",
          "name": "values",
          "type": "uint256[]"
        }
      ],
      "name": "TransferBatch",
      "type": "event"
    },
    {
      "anonymous": false,
      "inputs": [
        {
          "indexed": true,
          "internalType": "address",
          "name": "operator",
          "type": "address"
        },
        {
          "indexed": true,
          "internalType": "address",
          "name": "from",
          "type": "address"
        },
        {
          "indexed": true,
          "internalType": "address",
          "name": "to",
          "type": "address"
        },
        {
          "indexed": false,
          "internalType": "uint256",
          "name": "id",
          "type": "uint256"
        },
        {
          "indexed": false,
          "internalType": "uint256",
          "name": "value",
          "type": "uint256"
        }
      ],
      "name": "TransferSingle",
      "type": "event"
    },
    {
      "anonymous": false,
      "inputs": [
        {
          "indexed": false,
          "internalType": "string",
          "name": "value",
          "type": "string"
        },
        {
          "indexed": true,
          "internalType": "uint256",
          "name": "id",
          "type": "uint256"
        }
      ],
      "name": "URI",
      "type": "event"
    },
    {
      "inputs": [
        {
          "internalType": "address",
          "name": "account",
          "type": "address"
        },
        {
          "internalType": "uint256",
          "name": "id",
          "type": "uint256"
        }
      ],
      "name": "balanceOf",
      "outputs": [
        {
          "internalType": "uint256",
          "name": "",
          "type": "uint256"
        }
      ],
      "stateMutability": "view",
      "type": "function"
    },
    {
      "inputs": [
        {
          "internalType": "address[]",
          "name": "accounts",
          "type": "address[]"
        },
        {
          "internalType": "uint256[]",
          "name": "ids",
          "type": "uint256[]"
        }
      ],
      "name": "balanceOfBatch",
      "outputs": [
        {
          "internalType": "uint256[]",
          "name": "",
          "type": "uint256[]"
        }
      ],
      "stateMutability": "view",
      "type": "function"
    },
    {
      "inputs": [
        {
          "internalType": "address",
          "name": "account",
          "type": "address"
        },
        {
          "internalType": "address",
          "name": "operator",
          "type": "address"
        }
      ],
      "name": "isApprovedForAll",
      "outputs": [
        {
          "internalType": "bool",
          "name": "",
          "type": "bool"
        }
      ],
      "stateMutability": "view",
      "type": "function"
    },
    {
      "inputs": [
        {
          "internalType": "uint256",
          "name": "_tokenId",
          "type": "uint256"
        },
        {
          "internalType": "uint256",
          "name": "_supply",
          "type": "uint256"
        }
      ],
      "name": "mint",
      "outputs": [],
      "stateMutability": "nonpayable",
      "type": "function"
    },
    {
      "inputs": [
        {
          "internalType": "address",
          "name": "from",
          "type": "address"
        },
        {
          "internalType": "address",
          "name": "to",
          "type": "address"
        },
        {
          "internalType": "uint256[]",
          "name": "ids",
          "type": "uint256[]"
        },
        {
          "internalType": "uint256[]",
          "name": "amounts",
          "type": "uint256[]"
        },
        {
          "internalType": "bytes",
          "name": "data",
          "type": "bytes"
        }
      ],
      "name": "safeBatchTransferFrom",
      "outputs": [],
      "stateMutability": "nonpayable",
      "type": "function"
    },
    {
      "inputs": [
        {
          "internalType": "address",
          "name": "from",
          "type": "address"
        },
        {
          "internalType": "address",
          "name": "to",
          "type": "address"
        },
        {
          "internalType": "uint256",
          "name": "id",
          "type": "uint256"
        },
        {
          "internalType": "uint256",
          "name": "amount",
          "type": "uint256"
        },
        {
          "internalType": "bytes",
          "name": "data",
          "type": "bytes"
        }
      ],
      "name": "safeTransferFrom",
      "outputs": [],
      "stateMutability": "nonpayable",
      "type": "function"
    },
    {
      "inputs": [
        {
          "internalType": "address",
          "name": "operator",
          "type": "address"
        },
        {
          "internalType": "bool",
          "name": "approved",
          "type": "bool"
        }
      ],
      "name": "setApprovalForAll",
      "outputs": [],
      "stateMutability": "nonpayable",
      "type": "function"
    },
    {
      "inputs": [
        {
          "internalType": "bytes4",
          "name": "interfaceId",
          "type": "bytes4"
        }
      ],
      "name": "supportsInterface",
      "outputs": [
        {
          "internalType": "bool",
          "name": "",
          "type": "bool"
        }
      ],
      "stateMutability": "view",
      "type": "function"
    },
    {
      "inputs": [
        {
          "internalType": "uint256",
          "name": "",
          "type": "uint256"
        }
      ],
      "name": "uri",
      "outputs": [
        {
          "internalType": "string",
          "name": "",
          "type": "string"
        }
      ],
      "stateMutability": "view",
      "type": "function"
    }
  ],
  "bytecode": "0x608060405234801561001057600080fd5b50611545806100206000396000f3fe608060405234801561001057600080fd5b50600436106100925760003560e01c80632eb2c2d6116100665780632eb2c2d6146101155780634e1273f414610128578063a22cb46514610148578063e985e9c51461015b578063f242432a1461019757600080fd5b8062fdd58e1461009757806301ffc9a7146100bd5780630e89341c146100e05780631b2ef1ca14610100575b600080fd5b6100aa6100a5366004610d25565b6101aa565b6040519081526020015b60405180910390f35b6100d06100cb366004610d68565b610243565b60405190151581526020016100b4565b6100f36100ee366004610d8c565b610295565b6040516100b49190610df2565b61011361010e366004610e05565b610329565b005b610113610123366004610f73565b610348565b61013b61013636600461101d565b6103df565b6040516100b49190611123565b610113610156366004611136565b610509565b6100d0610169366004611172565b6001600160a01b03918216600090815260666020908152604080832093909416825291909152205460ff1690565b6101136101a53660046111a5565b610514565b60006001600160a01b03831661021b5760405162461bcd60e51b815260206004820152602b60248201527f455243313135353a2062616c616e636520717565727920666f7220746865207a60448201526a65726f206164647265737360a81b60648201526084015b60405180910390fd5b5060009081526065602090815260408083206001600160a01b03949094168352929052205490565b60006001600160e01b03198216636cdb3d1360e11b148061027457506001600160e01b031982166303a24d0760e21b145b8061028f57506301ffc9a760e01b6001600160e01b03198316145b92915050565b6060606780546102a49061120a565b80601f01602080910402602001604051908101604052809291908181526020018280546102d09061120a565b801561031d5780601f106102f25761010080835404028352916020019161031d565b820191906000526020600020905b81548152906001019060200180831161030057829003601f168201915b50505050509050919050565b6103443383836040518060200160405280600081525061059b565b5050565b6001600160a01b03851633148061036457506103648533610169565b6103cb5760405162461bcd60e51b815260206004820152603260248201527f455243313135353a207472616e736665722063616c6c6572206973206e6f74206044820152711bdddb995c881b9bdc88185c1c1c9bdd995960721b6064820152608401610212565b6103d885858585856106a7565b5050505050565b606081518351146104445760405162461bcd60e51b815260206004820152602960248201527f455243313135353a206163636f756e747320616e6420696473206c656e677468604482015268040dad2e6dac2e8c6d60bb1b6064820152608401610212565b6000835167ffffffffffffffff81111561046057610460610e27565b604051908082528060200260200182016040528015610489578160200160208202803683370190505b50905060005b8451811015610501576104d48582815181106104ad576104ad611245565b60200260200101518583815181106104c7576104c7611245565b60200260200101516101aa565b8282815181106104e6576104e6611245565b60209081029190910101526104fa81611271565b905061048f565b509392505050565b610344338383610887565b6001600160a01b03851633148061053057506105308533610169565b61058e5760405162461bcd60e51b815260206004820152602960248201527f455243313135353a2063616c6c6572206973206e6f74206f776e6572206e6f7260448201526808185c1c1c9bdd995960ba1b6064820152608401610212565b6103d88585858585610968565b6001600160a01b0384166105fb5760405162461bcd60e51b815260206004820152602160248201527f455243313135353a206d696e7420746f20746865207a65726f206164647265736044820152607360f81b6064820152608401610212565b336106158160008761060c88610a89565b6103d888610a89565b60008481526065602090815260408083206001600160a01b03891684529091528120805485929061064790849061128c565b909155505060408051858152602081018590526001600160a01b0380881692600092918516917fc3d58168c5ae7397731d063d5bbf3d657854427343f4c083240f7aacaa2d0f62910160405180910390a46103d881600087878787610ad4565b81518351146107095760405162461bcd60e51b815260206004820152602860248201527f455243313135353a2069647320616e6420616d6f756e7473206c656e677468206044820152670dad2e6dac2e8c6d60c31b6064820152608401610212565b6001600160a01b03841661072f5760405162461bcd60e51b8152600401610212906112a4565b3360005b845181101561081957600085828151811061075057610750611245565b60200260200101519050600085838151811061076e5761076e611245565b60209081029190910181015160008481526065835260408082206001600160a01b038e1683529093529190912054909150818110156107bf5760405162461bcd60e51b8152600401610212906112e9565b60008381526065602090815260408083206001600160a01b038e8116855292528083208585039055908b168252812080548492906107fe90849061128c565b925050819055505050508061081290611271565b9050610733565b50846001600160a01b0316866001600160a01b0316826001600160a01b03167f4a39dc06d4c0dbc64b70af90fd698a233a518aa5d07e595d983b8c0526c8f7fb8787604051610869929190611333565b60405180910390a461087f818787878787610c3f565b505050505050565b816001600160a01b0316836001600160a01b031614156108fb5760405162461bcd60e51b815260206004820152602960248201527f455243313135353a2073657474696e6720617070726f76616c20737461747573604482015268103337b91039b2b63360b91b6064820152608401610212565b6001600160a01b03838116600081815260666020908152604080832094871680845294825291829020805460ff191686151590811790915591519182527f17307eab39ab6107e8899845ad3d59bd9653f200f220920489ca2b5937696c31910160405180910390a3505050565b6001600160a01b03841661098e5760405162461bcd60e51b8152600401610212906112a4565b3361099e81878761060c88610a89565b60008481526065602090815260408083206001600160a01b038a168452909152902054838110156109e15760405162461bcd60e51b8152600401610212906112e9565b60008581526065602090815260408083206001600160a01b038b8116855292528083208785039055908816825281208054869290610a2090849061128c565b909155505060408051868152602081018690526001600160a01b03808916928a821692918616917fc3d58168c5ae7397731d063d5bbf3d657854427343f4c083240f7aacaa2d0f62910160405180910390a4610a80828888888888610ad4565b50505050505050565b60408051600180825281830190925260609160009190602080830190803683370190505090508281600081518110610ac357610ac3611245565b602090810291909101015292915050565b6001600160a01b0384163b1561087f5760405163f23a6e6160e01b81526001600160a01b0385169063f23a6e6190610b189089908990889088908890600401611361565b602060405180830381600087803b158015610b3257600080fd5b505af1925050508015610b62575060408051601f3d908101601f19168201909252610b5f918101906113a6565b60015b610c0f57610b6e6113c3565b806308c379a01415610ba85750610b836113df565b80610b8e5750610baa565b8060405162461bcd60e51b81526004016102129190610df2565b505b60405162461bcd60e51b815260206004820152603460248201527f455243313135353a207472616e7366657220746f206e6f6e20455243313135356044820152732932b1b2b4bb32b91034b6b83632b6b2b73a32b960611b6064820152608401610212565b6001600160e01b0319811663f23a6e6160e01b14610a805760405162461bcd60e51b815260040161021290611469565b6001600160a01b0384163b1561087f5760405163bc197c8160e01b81526001600160a01b0385169063bc197c8190610c8390899089908890889088906004016114b1565b602060405180830381600087803b158015610c9d57600080fd5b505af1925050508015610ccd575060408051601f3d908101601f19168201909252610cca918101906113a6565b60015b610cd957610b6e6113c3565b6001600160e01b0319811663bc197c8160e01b14610a805760405162461bcd60e51b815260040161021290611469565b80356001600160a01b0381168114610d2057600080fd5b919050565b60008060408385031215610d3857600080fd5b610d4183610d09565b946020939093013593505050565b6001600160e01b031981168114610d6557600080fd5b50565b600060208284031215610d7a57600080fd5b8135610d8581610d4f565b9392505050565b600060208284031215610d9e57600080fd5b5035919050565b6000815180845260005b81811015610dcb57602081850181015186830182015201610daf565b81811115610ddd576000602083870101525b50601f01601f19169290920160200192915050565b602081526000610d856020830184610da5565b60008060408385031215610e1857600080fd5b50508035926020909101359150565b634e487b7160e01b600052604160045260246000fd5b601f8201601f1916810167ffffffffffffffff81118282101715610e6357610e63610e27565b6040525050565b600067ffffffffffffffff821115610e8457610e84610e27565b5060051b60200190565b600082601f830112610e9f57600080fd5b81356020610eac82610e6a565b604051610eb98282610e3d565b83815260059390931b8501820192828101915086841115610ed957600080fd5b8286015b84811015610ef45780358352918301918301610edd565b509695505050505050565b600082601f830112610f1057600080fd5b813567ffffffffffffffff811115610f2a57610f2a610e27565b604051610f41601f8301601f191660200182610e3d565b818152846020838601011115610f5657600080fd5b816020850160208301376000918101602001919091529392505050565b600080600080600060a08688031215610f8b57600080fd5b610f9486610d09565b9450610fa260208701610d09565b9350604086013567ffffffffffffffff80821115610fbf57600080fd5b610fcb89838a01610e8e565b94506060880135915080821115610fe157600080fd5b610fed89838a01610e8e565b9350608088013591508082111561100357600080fd5b5061101088828901610eff565b9150509295509295909350565b6000806040838503121561103057600080fd5b823567ffffffffffffffff8082111561104857600080fd5b818501915085601f83011261105c57600080fd5b8135602061106982610e6a565b6040516110768282610e3d565b83815260059390931b850182019282810191508984111561109657600080fd5b948201945b838610156110bb576110ac86610d09565b8252948201949082019061109b565b965050860135925050808211156110d157600080fd5b506110de85828601610e8e565b9150509250929050565b600081518084526020808501945080840160005b83811015611118578151875295820195908201906001016110fc565b509495945050505050565b602081526000610d8560208301846110e8565b6000806040838503121561114957600080fd5b61115283610d09565b91506020830135801515811461116757600080fd5b809150509250929050565b6000806040838503121561118557600080fd5b61118e83610d09565b915061119c60208401610d09565b90509250929050565b600080600080600060a086880312156111bd57600080fd5b6111c686610d09565b94506111d460208701610d09565b93506040860135925060608601359150608086013567ffffffffffffffff8111156111fe57600080fd5b61101088828901610eff565b600181811c9082168061121e57607f821691505b6020821081141561123f57634e487b7160e01b600052602260045260246000fd5b50919050565b634e487b7160e01b600052603260045260246000fd5b634e487b7160e01b600052601160045260246000fd5b60006000198214156112855761128561125b565b5060010190565b6000821982111561129f5761129f61125b565b500190565b60208082526025908201527f455243313135353a207472616e7366657220746f20746865207a65726f206164604082015264647265737360d81b606082015260800190565b6020808252602a908201527f455243313135353a20696e73756666696369656e742062616c616e636520666f60408201526939103a3930b739b332b960b11b606082015260800190565b60408152600061134660408301856110e8565b828103602084015261135881856110e8565b95945050505050565b6001600160a01b03868116825285166020820152604081018490526060810183905260a06080820181905260009061139b90830184610da5565b979650505050505050565b6000602082840312156113b857600080fd5b8151610d8581610d4f565b600060033d11156113dc5760046000803e5060005160e01c5b90565b600060443d10156113ed5790565b6040516003193d81016004833e81513d67ffffffffffffffff816024840111818411171561141d57505050505090565b82850191508151818111156114355750505050505090565b843d870101602082850101111561144f5750505050505090565b61145e60208286010187610e3d565b509095945050505050565b60208082526028908201527f455243313135353a204552433131353552656365697665722072656a656374656040820152676420746f6b656e7360c01b606082015260800190565b6001600160a01b0386811682528516602082015260a0604082018190526000906114dd908301866110e8565b82810360608401526114ef81866110e8565b905082810360808401526115038185610da5565b9897505050505050505056fea26469706673582212200834dde048060d9f09da377eced84a758ce60dd036217c67af705584f3bfe4bd64736f6c63430008090033",
  "linkReferences": {},
  "deployedLinkReferences": {}
}