{
  "_format": "hh-sol-artifact-1",
  "contractName": "Reenterer",
  "sourceName": "contracts/test/Reenterer.sol",
  "abi": [
    {
      "anonymous": false,
      "inputs": [
        {
          "indexed": false,
          "internalType": "bytes",
          "name": "returnData",
          "type": "bytes"
        }
      ],
      "name": "Reentered",
      "type": "event"
    },
    {
      "inputs": [],
      "name": "callData",
      "outputs": [
        {
          "internalType": "bytes",
          "name": "",
          "type": "bytes"
        }
      ],
      "stateMutability": "view",
      "type": "function"
    },
    {
      "inputs": [
        {
          "internalType": "address",
          "name": "to",
          "type": "address"
        },
        {
          "internalType": "uint256",
          "name": "value",
          "type": "uint256"
        },
        {
          "internalType": "bytes",
          "name": "data",
          "type": "bytes"
        }
      ],
      "name": "execute",
      "outputs": [],
      "stateMutability": "nonpayable",
      "type": "function"
    },
    {
      "inputs": [],
      "name": "isPrepared",
      "outputs": [
        {
          "internalType": "bool",
          "name": "",
          "type": "bool"
        }
      ],
      "stateMutability": "view",
      "type": "function"
    },
    {
      "inputs": [],
      "name": "msgValue",
      "outputs": [
        {
          "internalType": "uint256",
          "name": "",
          "type": "uint256"
        }
      ],
      "stateMutability": "view",
      "type": "function"
    },
    {
      "inputs": [
        {
          "internalType": "address",
          "name": "targetToUse",
          "type": "address"
        },
        {
          "internalType": "uint256",
          "name": "msgValueToUse",
          "type": "uint256"
        },
        {
          "internalType": "bytes",
          "name": "callDataToUse",
          "type": "bytes"
        }
      ],
      "name": "prepare",
      "outputs": [],
      "stateMutability": "nonpayable",
      "type": "function"
    },
    {
      "inputs": [],
      "name": "target",
      "outputs": [
        {
          "internalType": "address",
          "name": "",
          "type": "address"
        }
      ],
      "stateMutability": "view",
      "type": "function"
    },
    {
      "stateMutability": "payable",
      "type": "receive"
    }
  ],
  "bytecode": "0x6080806040523461001657610a8a908161001c8239f35b600080fdfe60806040526004361015610023575b361561001957600080fd5b6100216108b1565b005b6000803560e01c9081634e417a981461009e575080635157589b14610095578063939c28e61461008c578063b61d27f614610083578063d4b839921461007a5763ddf363d70361000e576100756107d3565b61000e565b5061007561077d565b506100756106dd565b50610075610652565b50610075610410565b3461020757807ffffffffffffffffffffffffffffffffffffffffffffffffffffffffffffffffc36011261020757806002546100d98161020a565b908160805260019081811690816000146101a75750600114610132575b6101217fffffffffffffffffffffffffffffffffffffffffffffffffffffffffffffff80850161028d565b6040518061012e8161031d565b0390f35b90919250600283527f405787fa12a823e0f2b7631cc41b3ba8828b3321ca811111fa75cd3aa3bb5ace5b8284106101935750505060a0017fffffffffffffffffffffffffffffffffffffffffffffffffffffffffffffff80610121836100f6565b81816020925460a08701520193019261015c565b61012195507fffffffffffffffffffffffffffffffffffffffffffffffffffffffffffffff80945060a09392507fffffffffffffffffffffffffffffffffffffffffffffffffffffffffffffff009150168252151560051b0191836100f6565b80fd5b90600182811c92168015610253575b602083101461022457565b7f4e487b7100000000000000000000000000000000000000000000000000000000600052602260045260246000fd5b91607f1691610219565b507f4e487b7100000000000000000000000000000000000000000000000000000000600052604160045260246000fd5b601f7fffffffffffffffffffffffffffffffffffffffffffffffffffffffffffffffe09101166080016080811067ffffffffffffffff8211176102cf57604052565b6102d761025d565b604052565b90601f7fffffffffffffffffffffffffffffffffffffffffffffffffffffffffffffffe0910116810190811067ffffffffffffffff8211176102cf57604052565b9060209182815260805192838183015260005b84811061036f5750507fffffffffffffffffffffffffffffffffffffffffffffffffffffffffffffffe0601f8460006040809697860101520116010190565b60a0810151838201604001528101610330565b60208082528251818301819052939260005b8581106103d4575050507fffffffffffffffffffffffffffffffffffffffffffffffffffffffffffffffe0601f8460006040809697860101520116010190565b818101830151848201604001528201610394565b6004359073ffffffffffffffffffffffffffffffffffffffff8216820361040b57565b600080fd5b503461040b5760607ffffffffffffffffffffffffffffffffffffffffffffffffffffffffffffffffc36011261040b576104486103e8565b60443567ffffffffffffffff80821161040b573660238301121561040b57816004013590811161040b5760243681838501011161040b576000937fffffffffffffffffffffff0000000000000000000000000000000000000000ff74ffffffffffffffffffffffffffffffffffffffff0086549260081b169116178455600192813584556104e0836104db60025461020a565b610810565b8490601f841160011461058f5791839493929183928794610562575b5050507fffffffffffffffffffffffffffffffffffffffffffffffffffffffffffffffff91921b9260031b1c1916176002555b61055f60017fffffffffffffffffffffffffffffffffffffffffffffffffffffffffffffff006000541617600055565b80f35b01013591507fffffffffffffffffffffffffffffffffffffffffffffffffffffffffffffffff38806104fc565b60026000527f405787fa12a823e0f2b7631cc41b3ba8828b3321ca811111fa75cd3aa3bb5ace929091847fffffffffffffffffffffffffffffffffffffffffffffffffffffffffffffffe08116885b88828210610637575050106105fd575b50505050811b0160025561052f565b7fffffffffffffffffffffffffffffffffffffffffffffffffffffffffffffffff60f88660031b161c1992010135169055388080806105ee565b868501860135885590960195602093840193889350016105de565b503461040b5760007ffffffffffffffffffffffffffffffffffffffffffffffffffffffffffffffffc36011261040b57602060ff600054166040519015158152f35b7fffffffffffffffffffffffffffffffffffffffffffffffffffffffffffffffe0601f60209267ffffffffffffffff81116106d0575b01160190565b6106d861025d565b6106ca565b503461040b5760607ffffffffffffffffffffffffffffffffffffffffffffffffffffffffffffffffc36011261040b576107156103e8565b6044359067ffffffffffffffff821161040b573660238301121561040b5781600401359061074282610694565b9161075060405193846102dc565b808352366024828601011161040b5760208160009260246100219701838701378401015260243590610a3e565b503461040b5760007ffffffffffffffffffffffffffffffffffffffffffffffffffffffffffffffffc36011261040b57602073ffffffffffffffffffffffffffffffffffffffff60005460081c16604051908152f35b503461040b5760007ffffffffffffffffffffffffffffffffffffffffffffffffffffffffffffffffc36011261040b576020600154604051908152f35b601f811161081c575050565b600090600282527f405787fa12a823e0f2b7631cc41b3ba8828b3321ca811111fa75cd3aa3bb5ace906020601f850160051c83019410610877575b601f0160051c01915b82811061086c57505050565b818155600101610860565b9092508290610857565b3d156108ac573d9061089282610694565b916108a060405193846102dc565b82523d6000602084013e565b606090565b6000805460ff81166108c1575050565b816001918254604051908394600254906108da8261020a565b918181169081156109f5575060011461098b575b505073ffffffffffffffffffffffffffffffffffffffff828596039360081c165af190610919610881565b911561098357506109517f52b1b52a16f834754c20ed40ad488c0fc799dea307f9bb9cde6413f0e356703e9160405191829182610382565b0390a16109817fffffffffffffffffffffffffffffffffffffffffffffffffffffffffffffff0060005416600055565b565b3d81803e3d90fd5b6002865290955084907f405787fa12a823e0f2b7631cc41b3ba8828b3321ca811111fa75cd3aa3bb5ace5b8783106109df575050509381019373ffffffffffffffffffffffffffffffffffffffff826108ee565b80548584015288965060209092019181016109b6565b7fffffffffffffffffffffffffffffffffffffffffffffffffffffffffffffff001685525050801515028201945073ffffffffffffffffffffffffffffffffffffffff826108ee565b91600092839273ffffffffffffffffffffffffffffffffffffffff60208451940192165af1610a6b610881565b5015610a7357565b3d6000803e3d6000fdfea164736f6c6343000811000a",
  "linkReferences": {},
  "deployedLinkReferences": {}
}