{
  "_format": "hh-sol-artifact-1",
  "contractName": "OfferHandlerFacet",
  "sourceName": "contracts/protocol/facets/OfferHandlerFacet.sol",
  "abi": [
    {
      "anonymous": false,
      "inputs": [
        {
          "indexed": true,
          "internalType": "uint256",
          "name": "offerId",
          "type": "uint256"
        },
        {
          "indexed": true,
          "internalType": "uint256",
          "name": "sellerId",
          "type": "uint256"
        },
        {
          "components": [
            {
              "internalType": "uint256",
              "name": "id",
              "type": "uint256"
            },
            {
              "internalType": "uint256",
              "name": "sellerId",
              "type": "uint256"
            },
            {
              "internalType": "uint256",
              "name": "price",
              "type": "uint256"
            },
            {
              "internalType": "uint256",
              "name": "sellerDeposit",
              "type": "uint256"
            },
            {
              "internalType": "uint256",
              "name": "protocolFee",
              "type": "uint256"
            },
            {
              "internalType": "uint256",
              "name": "buyerCancelPenalty",
              "type": "uint256"
            },
            {
              "internalType": "uint256",
              "name": "quantityAvailable",
              "type": "uint256"
            },
            {
              "internalType": "uint256",
              "name": "validFromDate",
              "type": "uint256"
            },
            {
              "internalType": "uint256",
              "name": "validUntilDate",
              "type": "uint256"
            },
            {
              "internalType": "uint256",
              "name": "redeemableFromDate",
              "type": "uint256"
            },
            {
              "internalType": "uint256",
              "name": "fulfillmentPeriodDuration",
              "type": "uint256"
            },
            {
              "internalType": "uint256",
              "name": "voucherValidDuration",
              "type": "uint256"
            },
            {
              "internalType": "address",
              "name": "exchangeToken",
              "type": "address"
            },
            {
              "internalType": "string",
              "name": "metadataUri",
              "type": "string"
            },
            {
              "internalType": "string",
              "name": "offerChecksum",
              "type": "string"
            },
            {
              "internalType": "bool",
              "name": "voided",
              "type": "bool"
            }
          ],
          "indexed": false,
          "internalType": "struct BosonTypes.Offer",
          "name": "offer",
          "type": "tuple"
        }
      ],
      "name": "OfferCreated",
      "type": "event"
    },
    {
      "anonymous": false,
      "inputs": [
        {
          "indexed": true,
          "internalType": "uint256",
          "name": "offerId",
          "type": "uint256"
        },
        {
          "indexed": true,
          "internalType": "uint256",
          "name": "sellerId",
          "type": "uint256"
        },
        {
          "indexed": false,
          "internalType": "uint256",
          "name": "validUntilDate",
          "type": "uint256"
        }
      ],
      "name": "OfferExtended",
      "type": "event"
    },
    {
      "anonymous": false,
      "inputs": [
        {
          "indexed": true,
          "internalType": "uint256",
          "name": "offerId",
          "type": "uint256"
        },
        {
          "indexed": true,
          "internalType": "uint256",
          "name": "sellerId",
          "type": "uint256"
        }
      ],
      "name": "OfferVoided",
      "type": "event"
    },
    {
      "inputs": [
        {
          "components": [
            {
              "internalType": "uint256",
              "name": "id",
              "type": "uint256"
            },
            {
              "internalType": "uint256",
              "name": "sellerId",
              "type": "uint256"
            },
            {
              "internalType": "uint256",
              "name": "price",
              "type": "uint256"
            },
            {
              "internalType": "uint256",
              "name": "sellerDeposit",
              "type": "uint256"
            },
            {
              "internalType": "uint256",
              "name": "protocolFee",
              "type": "uint256"
            },
            {
              "internalType": "uint256",
              "name": "buyerCancelPenalty",
              "type": "uint256"
            },
            {
              "internalType": "uint256",
              "name": "quantityAvailable",
              "type": "uint256"
            },
            {
              "internalType": "uint256",
              "name": "validFromDate",
              "type": "uint256"
            },
            {
              "internalType": "uint256",
              "name": "validUntilDate",
              "type": "uint256"
            },
            {
              "internalType": "uint256",
              "name": "redeemableFromDate",
              "type": "uint256"
            },
            {
              "internalType": "uint256",
              "name": "fulfillmentPeriodDuration",
              "type": "uint256"
            },
            {
              "internalType": "uint256",
              "name": "voucherValidDuration",
              "type": "uint256"
            },
            {
              "internalType": "address",
              "name": "exchangeToken",
              "type": "address"
            },
            {
              "internalType": "string",
              "name": "metadataUri",
              "type": "string"
            },
            {
              "internalType": "string",
              "name": "offerChecksum",
              "type": "string"
            },
            {
              "internalType": "bool",
              "name": "voided",
              "type": "bool"
            }
          ],
          "internalType": "struct BosonTypes.Offer",
          "name": "_offer",
          "type": "tuple"
        }
      ],
      "name": "createOffer",
      "outputs": [],
      "stateMutability": "nonpayable",
      "type": "function"
    },
    {
      "inputs": [
        {
          "components": [
            {
              "internalType": "uint256",
              "name": "id",
              "type": "uint256"
            },
            {
              "internalType": "uint256",
              "name": "sellerId",
              "type": "uint256"
            },
            {
              "internalType": "uint256",
              "name": "price",
              "type": "uint256"
            },
            {
              "internalType": "uint256",
              "name": "sellerDeposit",
              "type": "uint256"
            },
            {
              "internalType": "uint256",
              "name": "protocolFee",
              "type": "uint256"
            },
            {
              "internalType": "uint256",
              "name": "buyerCancelPenalty",
              "type": "uint256"
            },
            {
              "internalType": "uint256",
              "name": "quantityAvailable",
              "type": "uint256"
            },
            {
              "internalType": "uint256",
              "name": "validFromDate",
              "type": "uint256"
            },
            {
              "internalType": "uint256",
              "name": "validUntilDate",
              "type": "uint256"
            },
            {
              "internalType": "uint256",
              "name": "redeemableFromDate",
              "type": "uint256"
            },
            {
              "internalType": "uint256",
              "name": "fulfillmentPeriodDuration",
              "type": "uint256"
            },
            {
              "internalType": "uint256",
              "name": "voucherValidDuration",
              "type": "uint256"
            },
            {
              "internalType": "address",
              "name": "exchangeToken",
              "type": "address"
            },
            {
              "internalType": "string",
              "name": "metadataUri",
              "type": "string"
            },
            {
              "internalType": "string",
              "name": "offerChecksum",
              "type": "string"
            },
            {
              "internalType": "bool",
              "name": "voided",
              "type": "bool"
            }
          ],
          "internalType": "struct BosonTypes.Offer[]",
          "name": "_offers",
          "type": "tuple[]"
        }
      ],
      "name": "createOfferBatch",
      "outputs": [],
      "stateMutability": "nonpayable",
      "type": "function"
    },
    {
      "inputs": [
        {
          "internalType": "uint256",
          "name": "_offerId",
          "type": "uint256"
        },
        {
          "internalType": "uint256",
          "name": "_validUntilDate",
          "type": "uint256"
        }
      ],
      "name": "extendOffer",
      "outputs": [],
      "stateMutability": "nonpayable",
      "type": "function"
    },
    {
      "inputs": [
        {
          "internalType": "uint256[]",
          "name": "_offerIds",
          "type": "uint256[]"
        },
        {
          "internalType": "uint256",
          "name": "_validUntilDate",
          "type": "uint256"
        }
      ],
      "name": "extendOfferBatch",
      "outputs": [],
      "stateMutability": "nonpayable",
      "type": "function"
    },
    {
      "inputs": [],
      "name": "getNextOfferId",
      "outputs": [
        {
          "internalType": "uint256",
          "name": "nextOfferId",
          "type": "uint256"
        }
      ],
      "stateMutability": "view",
      "type": "function"
    },
    {
      "inputs": [
        {
          "internalType": "uint256",
          "name": "_offerId",
          "type": "uint256"
        }
      ],
      "name": "getOffer",
      "outputs": [
        {
          "internalType": "bool",
          "name": "exists",
          "type": "bool"
        },
        {
          "components": [
            {
              "internalType": "uint256",
              "name": "id",
              "type": "uint256"
            },
            {
              "internalType": "uint256",
              "name": "sellerId",
              "type": "uint256"
            },
            {
              "internalType": "uint256",
              "name": "price",
              "type": "uint256"
            },
            {
              "internalType": "uint256",
              "name": "sellerDeposit",
              "type": "uint256"
            },
            {
              "internalType": "uint256",
              "name": "protocolFee",
              "type": "uint256"
            },
            {
              "internalType": "uint256",
              "name": "buyerCancelPenalty",
              "type": "uint256"
            },
            {
              "internalType": "uint256",
              "name": "quantityAvailable",
              "type": "uint256"
            },
            {
              "internalType": "uint256",
              "name": "validFromDate",
              "type": "uint256"
            },
            {
              "internalType": "uint256",
              "name": "validUntilDate",
              "type": "uint256"
            },
            {
              "internalType": "uint256",
              "name": "redeemableFromDate",
              "type": "uint256"
            },
            {
              "internalType": "uint256",
              "name": "fulfillmentPeriodDuration",
              "type": "uint256"
            },
            {
              "internalType": "uint256",
              "name": "voucherValidDuration",
              "type": "uint256"
            },
            {
              "internalType": "address",
              "name": "exchangeToken",
              "type": "address"
            },
            {
              "internalType": "string",
              "name": "metadataUri",
              "type": "string"
            },
            {
              "internalType": "string",
              "name": "offerChecksum",
              "type": "string"
            },
            {
              "internalType": "bool",
              "name": "voided",
              "type": "bool"
            }
          ],
          "internalType": "struct BosonTypes.Offer",
          "name": "offer",
          "type": "tuple"
        }
      ],
      "stateMutability": "view",
      "type": "function"
    },
    {
      "inputs": [],
      "name": "initialize",
      "outputs": [],
      "stateMutability": "nonpayable",
      "type": "function"
    },
    {
      "inputs": [
        {
          "internalType": "uint256",
          "name": "_offerId",
          "type": "uint256"
        }
      ],
      "name": "isOfferVoided",
      "outputs": [
        {
          "internalType": "bool",
          "name": "exists",
          "type": "bool"
        },
        {
          "internalType": "bool",
          "name": "offerVoided",
          "type": "bool"
        }
      ],
      "stateMutability": "view",
      "type": "function"
    },
    {
      "inputs": [
        {
          "internalType": "uint256",
          "name": "_offerId",
          "type": "uint256"
        }
      ],
      "name": "voidOffer",
      "outputs": [],
      "stateMutability": "nonpayable",
      "type": "function"
    },
    {
      "inputs": [
        {
          "internalType": "uint256[]",
          "name": "_offerIds",
          "type": "uint256[]"
        }
      ],
      "name": "voidOfferBatch",
      "outputs": [],
      "stateMutability": "nonpayable",
      "type": "function"
    }
  ],
  "bytecode": "0x608060405234801561001057600080fd5b506117ad806100206000396000f3fe608060405234801561001057600080fd5b506004361061009e5760003560e01c80635f93d32d116100665780635f93d32d1461014b5780638129fc1c1461015e578063c00a50d414610166578063cc00c06114610179578063db7af92f1461018c57600080fd5b806312b52cf5146100a35780631d73add8146100b85780634579268a146100ed5780634915907b1461010e5780634bec59f414610121575b600080fd5b6100b66100b13660046110f7565b61019f565b005b7f236215f8ddaf4ac1232d1f2516766788cddc14962c93aafa73278d9e2e4497de546040519081526020015b60405180910390f35b6101006100fb366004611139565b610257565b6040516100e4929190611291565b6100b661011c366004611139565b610449565b61013461012f366004611139565b61049c565b6040805192151583529015156020830152016100e4565b6100b66101593660046114da565b610695565b6100b66106a1565b6100b661017436600461150f565b6107cc565b6100b66101873660046115d2565b610885565b6100b661019a3660046115f4565b61092b565b7f14c87be183d40876b1316e67a92c4469522d68b1be15fad3f5453a003ce0952b600201546040805160608101909152602f808252600160e01b90920461ffff16831115916117496020830139906102135760405162461bcd60e51b815260040161020a9190611640565b60405180910390fd5b5060005b81811015610252576102408383838181106102345761023461165a565b90506020020135610449565b8061024a81611686565b915050610217565b505050565b6000610261610f8a565b61026a836109dc565b604080516102008101825282548152600183015460208201526002830154918101919091526003820154606082015260048201546080820152600582015460a0820152600682015460c0820152600782015460e082015260088201546101008201526009820154610120820152600a820154610140820152600b820154610160820152600c8201546001600160a01b0316610180820152600d8201805483916101a0840191610318906116a1565b80601f0160208091040260200160405190810160405280929190818152602001828054610344906116a1565b80156103915780601f1061036657610100808354040283529160200191610391565b820191906000526020600020905b81548152906001019060200180831161037457829003601f168201915b50505050508152602001600e820180546103aa906116a1565b80601f01602080910402602001604051908101604052809291908181526020018280546103d6906116a1565b80156104235780601f106103f857610100808354040283529160200191610423565b820191906000526020600020905b81548152906001019060200180831161040657829003601f168201915b5050509183525050600f919091015460ff16151560209091015291959194509092505050565b600061045482610a1f565b600f8101805460ff191660019081179091558101546040519192509083907f63f51fcf7e03b1d5c0d9a4022cc0e0c9960334f371d1b9c24b844a2a5b26dccf90600090a35050565b6000806104a7610f8a565b6104b0846109dc565b604080516102008101825282548152600183015460208201526002830154918101919091526003820154606082015260048201546080820152600582015460a0820152600682015460c0820152600782015460e082015260088201546101008201526009820154610120820152600a820154610140820152600b820154610160820152600c8201546001600160a01b0316610180820152600d8201805483916101a084019161055e906116a1565b80601f016020809104026020016040519081016040528092919081815260200182805461058a906116a1565b80156105d75780601f106105ac576101008083540402835291602001916105d7565b820191906000526020600020905b8154815290600101906020018083116105ba57829003601f168201915b50505050508152602001600e820180546105f0906116a1565b80601f016020809104026020016040519081016040528092919081815260200182805461061c906116a1565b80156106695780601f1061063e57610100808354040283529160200191610669565b820191906000526020600020905b81548152906001019060200180831161064c57829003601f168201915b5050509183525050600f919091015460ff1615156020909101526101e001519196919550909350505050565b61069e81610b3e565b50565b63c0a5d49f60e01b60008190527fe7ad30265b8084c731e610579d091ebe2886115e8a5cacb6b704e4392f48b2c160208181527f2a26c9bf3ae45b7bfd1b1a545b62548f79beb122d344cf8e08fab79048b1f02454604080518082019091526013815272105b1c9958591e481a5b9a5d1a585b1a5e9959606a1b9281019290925260ff16156107435760405162461bcd60e51b815260040161020a9190611640565b506001600160e01b0319821660009081526020828152604082208054600160ff19918216811790925563c0a5d49f60e01b9093527fc8fcad8db84d3cc18b4c41d551ea0ee66dd599cde068d998e57d5e09332c131f9091527f5c5f0e4089fc9baf10e6f2cd535912b15f32068b4e8841f74708789d68274dd780549092161790555050565b5050565b7f14c87be183d40876b1316e67a92c4469522d68b1be15fad3f5453a003ce0952b600201601c9054906101000a900461ffff1661ffff16815111156040518060600160405280602f8152602001611749602f91399061083e5760405162461bcd60e51b815260040161020a9190611640565b5060005b81518110156107c857600082828151811061085f5761085f61165a565b6020026020010151905061087281610b3e565b508061087d81611686565b915050610842565b600061089083610a1f565b9050818160080154106040518060400160405280601481526020017313d999995c881c195c9a5bd9081a5b9d985b1a5960621b815250906108e45760405162461bcd60e51b815260040161020a9190611640565b5060088101829055600181015460405183815284907f061dd7b587e5cf5aa34816b4ab30ba1dd3de123a540b6cab18ceba3eb4755a5e9060200160405180910390a3505050565b7f14c87be183d40876b1316e67a92c4469522d68b1be15fad3f5453a003ce0952b600201546040805160608101909152602f808252600160e01b90920461ffff16841115916117496020830139906109965760405162461bcd60e51b815260040161020a9190611640565b5060005b828110156109d6576109c48484838181106109b7576109b761165a565b9050602002013583610885565b806109ce81611686565b91505061099a565b50505050565b60008181527f14c87be183d40876b1316e67a92c4469522d68b1be15fad3f5453a003ce0952e602052604081208215801590610a185750805483145b9150915091565b6000806000610a2d846109dc565b60408051808201909152600d81526c27379039bab1b41037b33332b960991b602082015290945090925082610a755760405162461bcd60e51b815260040161020a9190611640565b50600f83015460408051808201909152601581527413d999995c881a185cc81899595b881d9bda591959605a1b60208201529060ff1615610ac95760405162461bcd60e51b815260040161020a9190611640565b50610ad78360010154610c48565b60018101546040805180820190915260158152742737ba1039b2b63632b913b99037b832b930ba37b960591b60208201529193509091506001600160a01b03163314610b365760405162461bcd60e51b815260040161020a9190611640565b505050919050565b3360009081527f14c87be183d40876b1316e67a92c4469522d68b1be15fad3f5453a003ce0953a602090815260409182902054825180840190935260158352742737ba1039b2b63632b913b99037b832b930ba37b960591b918301919091528015159182610bbf5760405162461bcd60e51b815260040161020a9190611640565b50602083018190527f236215f8ddaf4ac1232d1f2516766788cddc14962c93aafa73278d9e2e4497de805460009182610bf783611686565b909155508085529050610c0984610c8a565b81817f9ad06815b852aa1306640c923d777c61455cbebcdb37df3a10a440031f92bf0486604051610c3a91906116dc565b60405180910390a350505050565b60008181527f14c87be183d40876b1316e67a92c4469522d68b1be15fad3f5453a003ce09531602052604081208215801590610a185750805483149150915091565b8061010001518160e00151106040518060400160405280601481526020017313d999995c881c195c9a5bd9081a5b9d985b1a5960621b81525090610ce15760405162461bcd60e51b815260040161020a9190611640565b5042816101000151116040518060400160405280601481526020017313d999995c881c195c9a5bd9081a5b9d985b1a5960621b81525090610d355760405162461bcd60e51b815260040161020a9190611640565b50806101e0015115604051806040016040528060148152602001734f66666572206d7573742062652061637469766560601b81525090610d885760405162461bcd60e51b815260040161020a9190611640565b50600061271082606001518360400151610da291906116ef565b7f14c87be183d40876b1316e67a92c4469522d68b1be15fad3f5453a003ce0952d54610dd99190600160a01b900461ffff16611707565b610de39190611726565b60808301819052606083015160408051808201909152601581527413d999995c8819195c1bdcda5d081a5b9d985b1a59605a1b6020820152919250821115610e3e5760405162461bcd60e51b815260040161020a9190611640565b508160400151818360a00151610e5491906116ef565b11156040518060400160405280601581526020017413d999995c881c195b985b1d1e481a5b9d985b1a59605a1b81525090610ea25760405162461bcd60e51b815260040161020a9190611640565b506000610eb283600001516109dc565b84518155602080860151600183015560408601516002830155606086015160038301556080860151600483015560a0860151600583015560c0860151600683015560e0860151600783015561010086015160088301556101208601516009830155610140860151600a830155610160860151600b830155610180860151600c830180546001600160a01b0319166001600160a01b039092169190911790556101a08601518051929450610f6d9350600d850192910190611012565b506101c083015180516109d691600e840191602090910190611012565b60405180610200016040528060008152602001600081526020016000815260200160008152602001600081526020016000815260200160008152602001600081526020016000815260200160008152602001600081526020016000815260200160006001600160a01b0316815260200160608152602001606081526020016000151581525090565b82805461101e906116a1565b90600052602060002090601f0160209004810192826110405760008555611086565b82601f1061105957805160ff1916838001178555611086565b82800160010185558215611086579182015b8281111561108657825182559160200191906001019061106b565b50611092929150611096565b5090565b5b808211156110925760008155600101611097565b60008083601f8401126110bd57600080fd5b50813567ffffffffffffffff8111156110d557600080fd5b6020830191508360208260051b85010111156110f057600080fd5b9250929050565b6000806020838503121561110a57600080fd5b823567ffffffffffffffff81111561112157600080fd5b61112d858286016110ab565b90969095509350505050565b60006020828403121561114b57600080fd5b5035919050565b6000815180845260005b818110156111785760208185018101518683018201520161115c565b8181111561118a576000602083870101525b50601f01601f19169290920160200192915050565b6000610200825184526020830151602085015260408301516040850152606083015160608501526080830151608085015260a083015160a085015260c083015160c085015260e083015160e085015261010080840151818601525061012080840151818601525061014080840151818601525061016080840151818601525061018080840151611239828701826001600160a01b03169052565b50506101a080840151828287015261125383870182611152565b925050506101c0808401518583038287015261126f8382611152565b925050506101e0808401516112878287018215159052565b5090949350505050565b82151581526040602082015260006112ac604083018461119f565b949350505050565b634e487b7160e01b600052604160045260246000fd5b604051610200810167ffffffffffffffff811182821017156112ee576112ee6112b4565b60405290565b604051601f8201601f1916810167ffffffffffffffff8111828210171561131d5761131d6112b4565b604052919050565b80356001600160a01b038116811461133c57600080fd5b919050565b600082601f83011261135257600080fd5b813567ffffffffffffffff81111561136c5761136c6112b4565b61137f601f8201601f19166020016112f4565b81815284602083860101111561139457600080fd5b816020850160208301376000918101602001919091529392505050565b8035801515811461133c57600080fd5b600061020082840312156113d457600080fd5b6113dc6112ca565b9050813581526020820135602082015260408201356040820152606082013560608201526080820135608082015260a082013560a082015260c082013560c082015260e082013560e0820152610100808301358183015250610120808301358183015250610140808301358183015250610160808301358183015250610180611466818401611325565b908201526101a08281013567ffffffffffffffff8082111561148757600080fd5b61149386838701611341565b838501526101c09250828501359150808211156114af57600080fd5b506114bc85828601611341565b8284015250506101e06114d08184016113b1565b9082015292915050565b6000602082840312156114ec57600080fd5b813567ffffffffffffffff81111561150357600080fd5b6112ac848285016113c1565b6000602080838503121561152257600080fd5b823567ffffffffffffffff8082111561153a57600080fd5b818501915085601f83011261154e57600080fd5b813581811115611560576115606112b4565b8060051b61156f8582016112f4565b918252838101850191858101908984111561158957600080fd5b86860192505b838310156115c5578235858111156115a75760008081fd5b6115b58b89838a01016113c1565b835250918601919086019061158f565b9998505050505050505050565b600080604083850312156115e557600080fd5b50508035926020909101359150565b60008060006040848603121561160957600080fd5b833567ffffffffffffffff81111561162057600080fd5b61162c868287016110ab565b909790965060209590950135949350505050565b6020815260006116536020830184611152565b9392505050565b634e487b7160e01b600052603260045260246000fd5b634e487b7160e01b600052601160045260246000fd5b600060001982141561169a5761169a611670565b5060010190565b600181811c908216806116b557607f821691505b602082108114156116d657634e487b7160e01b600052602260045260246000fd5b50919050565b602081526000611653602083018461119f565b6000821982111561170257611702611670565b500190565b600081600019048311821515161561172157611721611670565b500290565b60008261174357634e487b7160e01b600052601260045260246000fd5b50049056fe4578636565646564206d6178696d756d206f666665727320696e20612073696e676c65207472616e73616374696f6ea26469706673582212209bd54a04f5c51020c5dd8a19765b17d7ccc4191f05e3ef0cc5b146f8888f8ca464736f6c63430008090033",
  "linkReferences": {},
  "deployedLinkReferences": {}
}