{
  "_format": "hh-sol-artifact-1",
  "contractName": "TwinHandlerFacet",
  "sourceName": "contracts/protocol/facets/TwinHandlerFacet.sol",
  "abi": [
    {
      "anonymous": false,
      "inputs": [
        {
          "indexed": true,
          "internalType": "uint256",
          "name": "twinId",
          "type": "uint256"
        },
        {
          "indexed": true,
          "internalType": "uint256",
          "name": "sellerId",
          "type": "uint256"
        },
        {
          "components": [
            {
              "internalType": "uint256",
              "name": "id",
              "type": "uint256"
            },
            {
              "internalType": "uint256",
              "name": "sellerId",
              "type": "uint256"
            },
            {
              "internalType": "uint256",
              "name": "supplyAvailable",
              "type": "uint256"
            },
            {
              "internalType": "uint256[]",
              "name": "supplyIds",
              "type": "uint256[]"
            },
            {
              "internalType": "uint256",
              "name": "tokenId",
              "type": "uint256"
            },
            {
              "internalType": "address",
              "name": "tokenAddress",
              "type": "address"
            }
          ],
          "indexed": false,
          "internalType": "struct BosonTypes.Twin",
          "name": "twin",
          "type": "tuple"
        }
      ],
      "name": "TwinCreated",
      "type": "event"
    },
    {
      "anonymous": false,
      "inputs": [
        {
          "indexed": true,
          "internalType": "uint256",
          "name": "twinId",
          "type": "uint256"
        },
        {
          "indexed": true,
          "internalType": "uint256",
          "name": "sellerId",
          "type": "uint256"
        }
      ],
      "name": "TwinDeleted",
      "type": "event"
    },
    {
      "inputs": [
        {
          "components": [
            {
              "internalType": "uint256",
              "name": "id",
              "type": "uint256"
            },
            {
              "internalType": "uint256",
              "name": "sellerId",
              "type": "uint256"
            },
            {
              "internalType": "uint256",
              "name": "supplyAvailable",
              "type": "uint256"
            },
            {
              "internalType": "uint256[]",
              "name": "supplyIds",
              "type": "uint256[]"
            },
            {
              "internalType": "uint256",
              "name": "tokenId",
              "type": "uint256"
            },
            {
              "internalType": "address",
              "name": "tokenAddress",
              "type": "address"
            }
          ],
          "internalType": "struct BosonTypes.Twin",
          "name": "_twin",
          "type": "tuple"
        }
      ],
      "name": "createTwin",
      "outputs": [],
      "stateMutability": "nonpayable",
      "type": "function"
    },
    {
      "inputs": [],
      "name": "getNextTwinId",
      "outputs": [
        {
          "internalType": "uint256",
          "name": "nextTwinId",
          "type": "uint256"
        }
      ],
      "stateMutability": "view",
      "type": "function"
    },
    {
      "inputs": [
        {
          "internalType": "uint256",
          "name": "_twinId",
          "type": "uint256"
        }
      ],
      "name": "getTwin",
      "outputs": [
        {
          "internalType": "bool",
          "name": "exists",
          "type": "bool"
        },
        {
          "components": [
            {
              "internalType": "uint256",
              "name": "id",
              "type": "uint256"
            },
            {
              "internalType": "uint256",
              "name": "sellerId",
              "type": "uint256"
            },
            {
              "internalType": "uint256",
              "name": "supplyAvailable",
              "type": "uint256"
            },
            {
              "internalType": "uint256[]",
              "name": "supplyIds",
              "type": "uint256[]"
            },
            {
              "internalType": "uint256",
              "name": "tokenId",
              "type": "uint256"
            },
            {
              "internalType": "address",
              "name": "tokenAddress",
              "type": "address"
            }
          ],
          "internalType": "struct BosonTypes.Twin",
          "name": "twin",
          "type": "tuple"
        }
      ],
      "stateMutability": "view",
      "type": "function"
    },
    {
      "inputs": [],
      "name": "initialize",
      "outputs": [],
      "stateMutability": "nonpayable",
      "type": "function"
    },
    {
      "inputs": [
        {
          "internalType": "uint256",
          "name": "_twinId",
          "type": "uint256"
        }
      ],
      "name": "removeTwin",
      "outputs": [],
      "stateMutability": "nonpayable",
      "type": "function"
    }
  ],
  "bytecode": "0x608060405234801561001057600080fd5b50610e17806100206000396000f3fe608060405234801561001057600080fd5b50600436106100575760003560e01c8063164a82f71461005c5780636574e3ba146100865780638129fc1c1461009b578063900797c6146100a3578063a7c078d6146100b6575b600080fd5b61006f61006a366004610ab4565b6100e6565b60405161007d929190610b5e565b60405180910390f35b610099610094366004610ab4565b6101df565b005b610099610445565b6100996100b1366004610c0d565b61056c565b7f236215f8ddaf4ac1232d1f2516766788cddc14962c93aafa73278d9e2e4497e05460405190815260200161007d565b600061012a6040518060c00160405280600081526020016000815260200160008152602001606081526020016000815260200160006001600160a01b031681525090565b61013383610578565b806040518060c0016040529081600082015481526020016001820154815260200160028201548152602001600382018054806020026020016040519081016040528092919081815260200182805480156101ac57602002820191906000526020600020905b815481526020019060010190808311610198575b5050509183525050600482015460208201526005909101546001600160a01b031660409091015291959194509092505050565b6000806101eb83610578565b6040518060c00160405290816000820154815260200160018201548152602001600282015481526020016003820180548060200260200160405190810160405280929190818152602001828054801561026357602002820191906000526020600020905b81548152602001906001019080831161024f575b505050918352505060048201546020808301919091526005909201546001600160a01b03166040918201528051808201909152600c81526b27379039bab1b4103a3bb4b760a11b918101919091529193509150826102dd5760405162461bcd60e51b81526004016102d49190610d15565b60405180910390fd5b5060006102e86105bb565b905060006102f58261062b565b91505082602001518114604051806040016040528060158152602001742737ba1039b2b63632b913b99037b832b930ba37b960591b8152509061034b5760405162461bcd60e51b81526004016102d49190610d15565b50600061035786610668565b50905080156040518060400160405280601081526020016f5477696e206861732062756e646c657360801b815250906103a35760405162461bcd60e51b81526004016102d49190610d15565b5060008681527f14c87be183d40876b1316e67a92c4469522d68b1be15fad3f5453a003ce09535602052604081208181556001810182905560028101829055906103f06003830182610a3e565b50600060048201819055600590910180546001600160a01b03191690556020850151604051909188917fcd696da94f9002fa27f981a176cbbb8144454df2b9a1f49f547a159399e166349190a3505050505050565b6344f98e5d60e01b60008190527fe7ad30265b8084c731e610579d091ebe2886115e8a5cacb6b704e4392f48b2c160208181527f5cf05a7cc6bb41242dfde02f93d354f238a2f3b30ffaf61c56fbc011c64c8d1d54604080518082019091526013815272105b1c9958591e481a5b9a5d1a585b1a5e9959606a1b9281019290925260ff16156104e75760405162461bcd60e51b81526004016102d49190610d15565b506001600160e01b0319821660009081526020828152604082208054600160ff1991821681179092556344f98e5d60e01b9093527fc8fcad8db84d3cc18b4c41d551ea0ee66dd599cde068d998e57d5e09332c131f9091527f6463f0155ca9dd5fb7c3fb2ca9cc9f550cfbd14add640e71410cb57abc778b5380549092161790555050565b610575816106ee565b50565b60008181527f14c87be183d40876b1316e67a92c4469522d68b1be15fad3f5453a003ce095356020526040812082158015906105b45750805483145b9150915091565b7fe9dcaa2fe5baf791ce4ecec7dd9d0808a23bc6ff23c5765ca852976604bcea8c54600090600160a01b900460ff1680156106205750507fe9dcaa2fe5baf791ce4ecec7dd9d0808a23bc6ff23c5765ca852976604bcea8c546001600160a01b031690565b3391505090565b5090565b6001600160a01b031660009081527f14c87be183d40876b1316e67a92c4469522d68b1be15fad3f5453a003ce0953a602052604090205480151591565b60008181527f14c87be183d40876b1316e67a92c4469522d68b1be15fad3f5453a003ce095386020908152604080832080548251818502810185019093528083526060938301828280156106db57602002820191906000526020600020905b8154815260200190600101908083116106c7575b5050505050905060008151119150915091565b6000806106fa3361062b565b9150915081604051806040016040528060158152602001742737ba1039b2b63632b913b99037b832b930ba37b960591b8152509061074b5760405162461bcd60e51b81526004016102d49190610d15565b5061075b8360a001513330610897565b60405180604001604052806014815260200173139bc81d1c985b9cd9995c88185c1c1c9bdd995960621b815250906107a65760405162461bcd60e51b81526004016102d49190610d15565b507f236215f8ddaf4ac1232d1f2516766788cddc14962c93aafa73278d9e2e4497e08054600091826107d783610d6a565b91905055905060006107e882610578565b838752838155602080880186905260018201869055604088015160028301556060880151805192945061082393506003850192910190610a5c565b506080850151600482015560a08501516005820180546001600160a01b0319166001600160a01b03909216919091179055604051839083907f30ece5f3271c6da0773f682316cb7904f5405dd4dbd8693ce1c0481fc40b1e0390610888908990610d93565b60405180910390a35050505050565b6040805180820190915260118152702ab739bab83837b93a32b2103a37b5b2b760791b60208201526000906001600160a01b0385166108e95760405162461bcd60e51b81526004016102d49190610d15565b50604051636eb1769f60e11b81526001600160a01b038481166004830152838116602483015285169063dd62ed3e9060440160206040518083038186803b15801561093357600080fd5b505afa925050508015610963575060408051601f3d908101601f1916820190925261096091810190610da6565b60015b610a2a5760405163e985e9c560e01b81526001600160a01b038481166004830152838116602483015285169063e985e9c59060440160206040518083038186803b1580156109b057600080fd5b505afa9250505080156109e0575060408051601f3d908101601f191682019092526109dd91810190610dbf565b60015b610a235760408051808201825260118152702ab739bab83837b93a32b2103a37b5b2b760791b6020820152905162461bcd60e51b81526102d49190600401610d15565b9050610a37565b8015610a3557600191505b505b9392505050565b50805460008255906000526020600020908101906105759190610a9f565b828054828255906000526020600020908101928215610a97579160200282015b82811115610a97578251825591602001919060010190610a7c565b506106279291505b5b808211156106275760008155600101610aa0565b600060208284031215610ac657600080fd5b5035919050565b600060c08301825184526020808401518186015260408401516040860152606084015160c0606087015282815180855260e0880191508383019450600092505b80831015610b2d5784518252938301936001929092019190830190610b0d565b506080860151608088015260a08601519350610b5460a08801856001600160a01b03169052565b9695505050505050565b8215158152604060208201526000610b796040830184610acd565b949350505050565b634e487b7160e01b600052604160045260246000fd5b60405160c0810167ffffffffffffffff81118282101715610bba57610bba610b81565b60405290565b604051601f8201601f1916810167ffffffffffffffff81118282101715610be957610be9610b81565b604052919050565b80356001600160a01b0381168114610c0857600080fd5b919050565b60006020808385031215610c2057600080fd5b823567ffffffffffffffff80821115610c3857600080fd5b9084019060c08287031215610c4c57600080fd5b610c54610b97565b82358152838301358482015260408301356040820152606083013582811115610c7c57600080fd5b8301601f81018813610c8d57600080fd5b803583811115610c9f57610c9f610b81565b8060051b9350610cb0868501610bc0565b818152938201860193868101908a861115610cca57600080fd5b928701925b85841015610ce857833582529287019290870190610ccf565b606085015250505060808381013590820152610d0660a08401610bf1565b60a08201529695505050505050565b600060208083528351808285015260005b81811015610d4257858101830151858201604001528201610d26565b81811115610d54576000604083870101525b50601f01601f1916929092016040019392505050565b6000600019821415610d8c57634e487b7160e01b600052601160045260246000fd5b5060010190565b602081526000610a376020830184610acd565b600060208284031215610db857600080fd5b5051919050565b600060208284031215610dd157600080fd5b81518015158114610a3757600080fdfea2646970667358221220224c2c0c2ff7e080e588b671a1bf5b99d6cb104c2dcff028f9b04b151633313c64736f6c63430008090033",
  "linkReferences": {},
  "deployedLinkReferences": {}
}