{
  "_format": "hh-sol-artifact-1",
  "contractName": "DisputeHandlerFacet",
  "sourceName": "contracts/protocol/facets/DisputeHandlerFacet.sol",
  "abi": [
    {
      "anonymous": false,
      "inputs": [
        {
          "indexed": true,
          "internalType": "uint256",
          "name": "exchangeId",
          "type": "uint256"
        },
        {
          "indexed": true,
          "internalType": "uint256",
          "name": "buyerId",
          "type": "uint256"
        },
        {
          "indexed": true,
          "internalType": "uint256",
          "name": "sellerId",
          "type": "uint256"
        },
        {
          "indexed": false,
          "internalType": "string",
          "name": "complaint",
          "type": "string"
        }
      ],
      "name": "DisputeRaised",
      "type": "event"
    },
    {
      "inputs": [],
      "name": "initialize",
      "outputs": [],
      "stateMutability": "nonpayable",
      "type": "function"
    },
    {
      "inputs": [
        {
          "internalType": "uint256",
          "name": "_exchangeId",
          "type": "uint256"
        },
        {
          "internalType": "string",
          "name": "_complaint",
          "type": "string"
        }
      ],
      "name": "raiseDispute",
      "outputs": [],
      "stateMutability": "nonpayable",
      "type": "function"
    }
  ],
  "bytecode": "0x608060405234801561001057600080fd5b506103fb806100206000396000f3fe608060405234801561001057600080fd5b50600436106100365760003560e01c80635aef573c1461003b5780638129fc1c14610050575b600080fd5b61004e6100493660046102c5565b610058565b005b61004e610119565b600080600061006686610240565b60408051808201909152601081526f4e6f20737563682065786368616e676560801b60208201529194509250836100b95760405162461bcd60e51b81526004016100b09190610341565b60405180910390fd5b506100c78260010154610283565b90508091505080600101548260020154877ff79b6dedbaa7fa9fcdf964d0f96db16af2e63c48b39c8f9fb2f90831c54658698888604051610109929190610396565b60405180910390a4505050505050565b6316bbd5cf60e21b60008190527fe7ad30265b8084c731e610579d091ebe2886115e8a5cacb6b704e4392f48b2c160208181527f3a93d2a78b456624384184612056e925ad042f8fe219006e2395a65e43f498b154604080518082019091526013815272105b1c9958591e481a5b9a5d1a585b1a5e9959606a1b9281019290925260ff16156101bb5760405162461bcd60e51b81526004016100b09190610341565b506001600160e01b0319821660009081526020828152604082208054600160ff1991821681179092556316bbd5cf60e21b9093527fc8fcad8db84d3cc18b4c41d551ea0ee66dd599cde068d998e57d5e09332c131f9091527f474e98830c54c81aed7e770772d54617eabefb429458edf22c14527372dc241380549092161790555050565b60008181527f14c87be183d40876b1316e67a92c4469522d68b1be15fad3f5453a003ce0952f60205260408120821580159061027c5750805483145b9150915091565b60008181527f14c87be183d40876b1316e67a92c4469522d68b1be15fad3f5453a003ce0952e60205260408120821580159061027c5750805483149150915091565b6000806000604084860312156102da57600080fd5b83359250602084013567ffffffffffffffff808211156102f957600080fd5b818601915086601f83011261030d57600080fd5b81358181111561031c57600080fd5b87602082850101111561032e57600080fd5b6020830194508093505050509250925092565b600060208083528351808285015260005b8181101561036e57858101830151858201604001528201610352565b81811115610380576000604083870101525b50601f01601f1916929092016040019392505050565b60208152816020820152818360408301376000818301604090810191909152601f909201601f1916010191905056fea2646970667358221220697e0193a1a36ad9a08fb159825c0344cea7e907b183409d7bce8eca3ac530e064736f6c63430008090033",
  "linkReferences": {},
  "deployedLinkReferences": {}
}