{
  "_format": "hh-sol-artifact-1",
  "contractName": "GroupHandlerFacet",
  "sourceName": "contracts/protocol/facets/GroupHandlerFacet.sol",
  "abi": [
    {
      "anonymous": false,
      "inputs": [
        {
          "indexed": true,
          "internalType": "uint256",
          "name": "groupId",
          "type": "uint256"
        },
        {
          "indexed": true,
          "internalType": "uint256",
          "name": "sellerId",
          "type": "uint256"
        },
        {
          "components": [
            {
              "internalType": "uint256",
              "name": "id",
              "type": "uint256"
            },
            {
              "internalType": "uint256",
              "name": "sellerId",
              "type": "uint256"
            },
            {
              "internalType": "uint256[]",
              "name": "offerIds",
              "type": "uint256[]"
            },
            {
              "components": [
                {
                  "internalType": "enum BosonTypes.EvaluationMethod",
                  "name": "method",
                  "type": "uint8"
                },
                {
                  "internalType": "address",
                  "name": "tokenAddress",
                  "type": "address"
                },
                {
                  "internalType": "uint256",
                  "name": "tokenId",
                  "type": "uint256"
                },
                {
                  "internalType": "uint256",
                  "name": "threshold",
                  "type": "uint256"
                }
              ],
              "internalType": "struct BosonTypes.Condition",
              "name": "condition",
              "type": "tuple"
            }
          ],
          "indexed": false,
          "internalType": "struct BosonTypes.Group",
          "name": "group",
          "type": "tuple"
        }
      ],
      "name": "GroupCreated",
      "type": "event"
    },
    {
      "anonymous": false,
      "inputs": [
        {
          "indexed": true,
          "internalType": "uint256",
          "name": "groupId",
          "type": "uint256"
        },
        {
          "indexed": true,
          "internalType": "uint256",
          "name": "sellerId",
          "type": "uint256"
        },
        {
          "components": [
            {
              "internalType": "uint256",
              "name": "id",
              "type": "uint256"
            },
            {
              "internalType": "uint256",
              "name": "sellerId",
              "type": "uint256"
            },
            {
              "internalType": "uint256[]",
              "name": "offerIds",
              "type": "uint256[]"
            },
            {
              "components": [
                {
                  "internalType": "enum BosonTypes.EvaluationMethod",
                  "name": "method",
                  "type": "uint8"
                },
                {
                  "internalType": "address",
                  "name": "tokenAddress",
                  "type": "address"
                },
                {
                  "internalType": "uint256",
                  "name": "tokenId",
                  "type": "uint256"
                },
                {
                  "internalType": "uint256",
                  "name": "threshold",
                  "type": "uint256"
                }
              ],
              "internalType": "struct BosonTypes.Condition",
              "name": "condition",
              "type": "tuple"
            }
          ],
          "indexed": false,
          "internalType": "struct BosonTypes.Group",
          "name": "group",
          "type": "tuple"
        }
      ],
      "name": "GroupUpdated",
      "type": "event"
    },
    {
      "inputs": [
        {
          "internalType": "uint256",
          "name": "_groupId",
          "type": "uint256"
        },
        {
          "internalType": "uint256[]",
          "name": "_offerIds",
          "type": "uint256[]"
        }
      ],
      "name": "addOffersToGroup",
      "outputs": [],
      "stateMutability": "nonpayable",
      "type": "function"
    },
    {
      "inputs": [
        {
          "components": [
            {
              "internalType": "uint256",
              "name": "id",
              "type": "uint256"
            },
            {
              "internalType": "uint256",
              "name": "sellerId",
              "type": "uint256"
            },
            {
              "internalType": "uint256[]",
              "name": "offerIds",
              "type": "uint256[]"
            },
            {
              "components": [
                {
                  "internalType": "enum BosonTypes.EvaluationMethod",
                  "name": "method",
                  "type": "uint8"
                },
                {
                  "internalType": "address",
                  "name": "tokenAddress",
                  "type": "address"
                },
                {
                  "internalType": "uint256",
                  "name": "tokenId",
                  "type": "uint256"
                },
                {
                  "internalType": "uint256",
                  "name": "threshold",
                  "type": "uint256"
                }
              ],
              "internalType": "struct BosonTypes.Condition",
              "name": "condition",
              "type": "tuple"
            }
          ],
          "internalType": "struct BosonTypes.Group",
          "name": "_group",
          "type": "tuple"
        }
      ],
      "name": "createGroup",
      "outputs": [],
      "stateMutability": "nonpayable",
      "type": "function"
    },
    {
      "inputs": [
        {
          "internalType": "uint256",
          "name": "_groupId",
          "type": "uint256"
        }
      ],
      "name": "getGroup",
      "outputs": [
        {
          "internalType": "bool",
          "name": "exists",
          "type": "bool"
        },
        {
          "components": [
            {
              "internalType": "uint256",
              "name": "id",
              "type": "uint256"
            },
            {
              "internalType": "uint256",
              "name": "sellerId",
              "type": "uint256"
            },
            {
              "internalType": "uint256[]",
              "name": "offerIds",
              "type": "uint256[]"
            },
            {
              "components": [
                {
                  "internalType": "enum BosonTypes.EvaluationMethod",
                  "name": "method",
                  "type": "uint8"
                },
                {
                  "internalType": "address",
                  "name": "tokenAddress",
                  "type": "address"
                },
                {
                  "internalType": "uint256",
                  "name": "tokenId",
                  "type": "uint256"
                },
                {
                  "internalType": "uint256",
                  "name": "threshold",
                  "type": "uint256"
                }
              ],
              "internalType": "struct BosonTypes.Condition",
              "name": "condition",
              "type": "tuple"
            }
          ],
          "internalType": "struct BosonTypes.Group",
          "name": "group",
          "type": "tuple"
        }
      ],
      "stateMutability": "view",
      "type": "function"
    },
    {
      "inputs": [],
      "name": "getNextGroupId",
      "outputs": [
        {
          "internalType": "uint256",
          "name": "nextGroupId",
          "type": "uint256"
        }
      ],
      "stateMutability": "view",
      "type": "function"
    },
    {
      "inputs": [],
      "name": "initialize",
      "outputs": [],
      "stateMutability": "nonpayable",
      "type": "function"
    },
    {
      "inputs": [
        {
          "internalType": "uint256",
          "name": "_groupId",
          "type": "uint256"
        },
        {
          "internalType": "uint256[]",
          "name": "_offerIds",
          "type": "uint256[]"
        }
      ],
      "name": "removeOffersFromGroup",
      "outputs": [],
      "stateMutability": "nonpayable",
      "type": "function"
    },
    {
      "inputs": [
        {
          "internalType": "uint256",
          "name": "_groupId",
          "type": "uint256"
        },
        {
          "components": [
            {
              "internalType": "enum BosonTypes.EvaluationMethod",
              "name": "method",
              "type": "uint8"
            },
            {
              "internalType": "address",
              "name": "tokenAddress",
              "type": "address"
            },
            {
              "internalType": "uint256",
              "name": "tokenId",
              "type": "uint256"
            },
            {
              "internalType": "uint256",
              "name": "threshold",
              "type": "uint256"
            }
          ],
          "internalType": "struct BosonTypes.Condition",
          "name": "_condition",
          "type": "tuple"
        }
      ],
      "name": "setGroupCondition",
      "outputs": [],
      "stateMutability": "nonpayable",
      "type": "function"
    }
  ],
  "bytecode": "0x608060405234801561001057600080fd5b50611754806100206000396000f3fe608060405234801561001057600080fd5b506004361061007d5760003560e01c80635446b78a1161005b5780635446b78a146100df5780638129fc1c146100f2578063ceb60654146100fa578063f162b7bf1461011b57600080fd5b806320dead551461008257806349b3cccf146100975780634ff2e056146100cc575b600080fd5b610095610090366004611118565b61012e565b005b7f236215f8ddaf4ac1232d1f2516766788cddc14962c93aafa73278d9e2e4497e1546040519081526020015b60405180910390f35b6100956100da366004611118565b610352565b6100956100ed366004611281565b610394565b6100956103a0565b61010d610108366004611378565b6104c7565b6040516100c3929190611469565b61009561012936600461148c565b6105cb565b60008061016e8585858080602002602001604051908101604052809392919081815260200183836020028082843760009201919091525061073692505050565b9150915060005b83811015610311576000858583818110610191576101916114c4565b90506020020135905060006101a5826108b5565b9150508088146040518060400160405280601b81526020017f4f66666572206e6f742070617274206f66207468652067726f75700000000000815250906102085760405162461bcd60e51b81526004016101ff91906114da565b60405180910390fd5b5060008281527f14c87be183d40876b1316e67a92c4469522d68b1be15fad3f5453a003ce09539602052604081208190556002850154905b818110156102fa578386600201828154811061025e5761025e6114c4565b906000526020600020015414156102e8576002860161027e600184611545565b8154811061028e5761028e6114c4565b90600052602060002001548660020182815481106102ae576102ae6114c4565b600091825260209091200155600286018054806102cd576102cd61155c565b600190038181906000526020600020016000905590556102fa565b806102f281611572565b915050610240565b50505050808061030990611572565b915050610175565b5081857fcc5b9e78914db9bab487bf766b0c58ac9a73deba6d3a319003e0c87e2f415f2e83604051610343919061158d565b60405180910390a35050505050565b61038f838383808060200260200160405190810160405280939291908181526020018383602002808284376000920191909152506108e992505050565b505050565b61039d81610a2b565b50565b634d0d87ad60e01b60008190527fe7ad30265b8084c731e610579d091ebe2886115e8a5cacb6b704e4392f48b2c160208181527fe130ed26c0c155934f0f7e501e7a1b799c8e16691c117d361233a08b009c34b254604080518082019091526013815272105b1c9958591e481a5b9a5d1a585b1a5e9959606a1b9281019290925260ff16156104425760405162461bcd60e51b81526004016101ff91906114da565b506001600160e01b0319821660009081526020828152604082208054600160ff199182168117909255634d0d87ad60e01b9093527fc8fcad8db84d3cc18b4c41d551ea0ee66dd599cde068d998e57d5e09332c131f9091527f057589db20e9986445a47dbe1f43ee1abdbe0ecc08ae27930722dd2f23c0ab8b80549092161790555050565b60006104d161105e565b6104da83610d8e565b8060405180608001604052908160008201548152602001600182015481526020016002820180548060200260200160405190810160405280929190818152602001828054801561054957602002820191906000526020600020905b815481526020019060010190808311610535575b50505091835250506040805160808101909152600383018054602090930192829060ff16600281111561057e5761057e611391565b600281111561058f5761058f611391565b8152815461010090046001600160a01b031660208201526001820154604082015260029091015460609091015290525091959194509092505050565b6105e26105dd36839003830183611636565b610dd1565b6040518060400160405280601c81526020017f496e76616c696420636f6e646974696f6e20706172616d657465727300000000815250906106365760405162461bcd60e51b81526004016101ff91906114da565b5060008061064384610d8e565b91509150816040518060400160405280600d81526020016c27379039bab1b41037b33332b960991b8152509061068c5760405162461bcd60e51b81526004016101ff91906114da565b50600061069833610e7e565b91505081600101548114604051806040016040528060158152602001742737ba1039b2b63632b913b99037b832b930ba37b960591b815250906106ee5760405162461bcd60e51b81526004016101ff91906114da565b5083600383016106fe8282611659565b9050508082600001547fcc5b9e78914db9bab487bf766b0c58ac9a73deba6d3a319003e0c87e2f415f2e84604051610343919061158d565b6000808251600014156040518060400160405280600f81526020016e139bdd1a1a5b99c81d5c19185d1959608a1b815250906107855760405162461bcd60e51b81526004016101ff91906114da565b507f14c87be183d40876b1316e67a92c4469522d68b1be15fad3f5453a003ce0952b60020160169054906101000a900461ffff1661ffff16835111156040518060600160405280602f81526020016116f0602f9139906107f85760405162461bcd60e51b81526004016101ff91906114da565b50600061080485610d8e565b60408051808201909152600d81526c27379039bab1b41037b33332b960991b60208201529093509091508161084c5760405162461bcd60e51b81526004016101ff91906114da565b5061085633610e7e565b60018401546040805180820190915260158152742737ba1039b2b63632b913b99037b832b930ba37b960591b602082015291955090915084146108ac5760405162461bcd60e51b81526004016101ff91906114da565b50509250929050565b60009081527f14c87be183d40876b1316e67a92c4469522d68b1be15fad3f5453a003ce09539602052604090205480151591565b6000806108f68484610736565b9150915060005b83518110156109eb57600084828151811061091a5761091a6114c4565b6020026020010151905061092d81610ebb565b506000610939826108b5565b50905080156040518060400160405280601f81526020017f4f66666572206d75737420626520756e6971756520746f20612067726f757000815250906109925760405162461bcd60e51b81526004016101ff91906114da565b505060008181527f14c87be183d40876b1316e67a92c4469522d68b1be15fad3f5453a003ce0953960209081526040822088905560028501805460018101825590835291200155806109e381611572565b9150506108fd565b5081847fcc5b9e78914db9bab487bf766b0c58ac9a73deba6d3a319003e0c87e2f415f2e83604051610a1d919061158d565b60405180910390a350505050565b600080610a3733610e7e565b9150915081604051806040016040528060158152602001742737ba1039b2b63632b913b99037b832b930ba37b960591b81525090610a885760405162461bcd60e51b81526004016101ff91906114da565b507f14c87be183d40876b1316e67a92c4469522d68b1be15fad3f5453a003ce0952d5460408481015151815160608101909252602f808352600160b01b90930461ffff161015916116f0602083013990610af55760405162461bcd60e51b81526004016101ff91906114da565b50610b038360600151610dd1565b6040518060400160405280601c81526020017f496e76616c696420636f6e646974696f6e20706172616d65746572730000000081525090610b575760405162461bcd60e51b81526004016101ff91906114da565b507f236215f8ddaf4ac1232d1f2516766788cddc14962c93aafa73278d9e2e4497e1805460009182610b8883611572565b91905055905060005b846040015151811015610cb257610bc485604001518281518110610bb757610bb76114c4565b6020026020010151610ebb565b506000610bed86604001518381518110610be057610be06114c4565b60200260200101516108b5565b50905080156040518060400160405280601f81526020017f4f66666572206d75737420626520756e6971756520746f20612067726f75700081525090610c465760405162461bcd60e51b81526004016101ff91906114da565b50827f14c87be183d40876b1316e67a92c4469522d68b1be15fad3f5453a003ce0952b600e01600088604001518581518110610c8457610c846114c4565b6020026020010151815260200190815260200160002081905550508080610caa90611572565b915050610b91565b506000610cbe82610d8e565b83875283815560208088018690526001820186905560408801518051929450610cef935060028501929101906110b8565b5060608501518051600383018054909190829060ff19166001836002811115610d1a57610d1a611391565b0217905550602082015181546001600160a01b0390911661010002610100600160a81b0319909116178155604080830151600183015560609092015160029091015551839083907f7e80ace71457947c82cc37d920210a7ee665a6eeb825965e8d6a76c9b1fa7c9a906103439089906116dc565b60008181527f14c87be183d40876b1316e67a92c4469522d68b1be15fad3f5453a003ce09533602052604081208215801590610dca5750805483145b9150915091565b60008082516002811115610de757610de7611391565b1415610e1e5760208201516001600160a01b0316158015610e0a57506040820151155b8015610e1857506060820151155b92915050565b600182516002811115610e3357610e33611391565b1415610e4c5750602001516001600160a01b0316151590565b600282516002811115610e6157610e61611391565b1415610e79575060208101516001600160a01b031615155b919050565b6001600160a01b031660009081527f14c87be183d40876b1316e67a92c4469522d68b1be15fad3f5453a003ce0953a602052604090205480151591565b6000806000610ec984610fda565b60408051808201909152600d81526c27379039bab1b41037b33332b960991b602082015290945090925082610f115760405162461bcd60e51b81526004016101ff91906114da565b50600f83015460408051808201909152601581527413d999995c881a185cc81899595b881d9bda591959605a1b60208201529060ff1615610f655760405162461bcd60e51b81526004016101ff91906114da565b50610f73836001015461101c565b60018101546040805180820190915260158152742737ba1039b2b63632b913b99037b832b930ba37b960591b60208201529193509091506001600160a01b03163314610fd25760405162461bcd60e51b81526004016101ff91906114da565b505050919050565b60008181527f14c87be183d40876b1316e67a92c4469522d68b1be15fad3f5453a003ce0952e602052604081208215801590610dca5750805483149150915091565b60008181527f14c87be183d40876b1316e67a92c4469522d68b1be15fad3f5453a003ce09531602052604081208215801590610dca5750805483149150915091565b60405180608001604052806000815260200160008152602001606081526020016110b36040805160808101909152806000815260200160006001600160a01b0316815260200160008152602001600081525090565b905290565b8280548282559060005260206000209081019282156110f3579160200282015b828111156110f35782518255916020019190600101906110d8565b506110ff929150611103565b5090565b5b808211156110ff5760008155600101611104565b60008060006040848603121561112d57600080fd5b83359250602084013567ffffffffffffffff8082111561114c57600080fd5b818601915086601f83011261116057600080fd5b81358181111561116f57600080fd5b8760208260051b850101111561118457600080fd5b6020830194508093505050509250925092565b634e487b7160e01b600052604160045260246000fd5b6040516080810167ffffffffffffffff811182821017156111d0576111d0611197565b60405290565b604051601f8201601f1916810167ffffffffffffffff811182821017156111ff576111ff611197565b604052919050565b6003811061039d57600080fd5b6001600160a01b038116811461039d57600080fd5b60006080828403121561123b57600080fd5b6112436111ad565b9050813561125081611207565b8152602082013561126081611214565b80602083015250604082013560408201526060820135606082015292915050565b6000602080838503121561129457600080fd5b823567ffffffffffffffff808211156112ac57600080fd5b9084019060e082870312156112c057600080fd5b6112c86111ad565b8235815283830135848201526040830135828111156112e657600080fd5b8301601f810188136112f757600080fd5b80358381111561130957611309611197565b8060051b935061131a8685016111d6565b818152938201860193868101908a86111561133457600080fd5b928701925b8584101561135257833582529287019290870190611339565b806040860152505050506113698760608501611229565b60608201529695505050505050565b60006020828403121561138a57600080fd5b5035919050565b634e487b7160e01b600052602160045260246000fd5b600381106113c557634e487b7160e01b600052602160045260246000fd5b9052565b600060e083018251845260208084015181860152604084015160e06040870152828151808552610100880191508383019450600092505b808310156114205784518252938301936001929092019190830190611400565b50606086015193506114366060880185516113a7565b918301516001600160a01b0316608087015250604082015160a086015260609091015160c0909401939093525090919050565b821515815260406020820152600061148460408301846113c9565b949350505050565b60008082840360a08112156114a057600080fd5b833592506080601f19820112156114b657600080fd5b506020830190509250929050565b634e487b7160e01b600052603260045260246000fd5b600060208083528351808285015260005b81811015611507578581018301518582016040015282016114eb565b81811115611519576000604083870101525b50601f01601f1916929092016040019392505050565b634e487b7160e01b600052601160045260246000fd5b6000828210156115575761155761152f565b500390565b634e487b7160e01b600052603160045260246000fd5b60006000198214156115865761158661152f565b5060010190565b6020808252825482820152600180840154604084015260e06060840152600284018054610100850181905260009182528382209193929084906101208701905b808310156115ea57845482529383019391830191908501906115cd565b50600388015494506116026080880160ff87166113a7565b60089490941c6001600160a01b031660a0870152505050600484015460c084015260059093015460e0909201919091525090565b60006080828403121561164857600080fd5b6116528383611229565b9392505050565b813561166481611207565b6003811061168257634e487b7160e01b600052602160045260246000fd5b815460ff821691508160ff19821617835560208401356116a181611214565b6001600160a81b03199190911690911760089190911b610100600160a81b031617815560408201356001820155606090910135600290910155565b60208152600061165260208301846113c956fe4578636565646564206d6178696d756d206f666665727320696e20612073696e676c65207472616e73616374696f6ea2646970667358221220de2dc041b9fa28d694a8ebc151dcffa1a59790772f32df046cd385e8a645b36264736f6c63430008090033",
  "linkReferences": {},
  "deployedLinkReferences": {}
}