{
  "_format": "hh-sol-artifact-1",
  "contractName": "MetaTransactionsHandlerFacet",
  "sourceName": "contracts/protocol/facets/MetaTransactionsHandlerFacet.sol",
  "abi": [
    {
      "anonymous": false,
      "inputs": [
        {
          "indexed": true,
          "internalType": "address",
          "name": "userAddress",
          "type": "address"
        },
        {
          "indexed": true,
          "internalType": "address",
          "name": "relayerAddress",
          "type": "address"
        },
        {
          "indexed": true,
          "internalType": "string",
          "name": "functionName",
          "type": "string"
        },
        {
          "indexed": false,
          "internalType": "uint256",
          "name": "nonce",
          "type": "uint256"
        }
      ],
      "name": "MetaTransactionExecuted",
      "type": "event"
    },
    {
      "inputs": [
        {
          "internalType": "address",
          "name": "_userAddress",
          "type": "address"
        },
        {
          "internalType": "string",
          "name": "_functionName",
          "type": "string"
        },
        {
          "internalType": "bytes",
          "name": "_functionSignature",
          "type": "bytes"
        },
        {
          "internalType": "uint256",
          "name": "_nonce",
          "type": "uint256"
        },
        {
          "internalType": "bytes32",
          "name": "_sigR",
          "type": "bytes32"
        },
        {
          "internalType": "bytes32",
          "name": "_sigS",
          "type": "bytes32"
        },
        {
          "internalType": "uint8",
          "name": "_sigV",
          "type": "uint8"
        }
      ],
      "name": "executeMetaTransaction",
      "outputs": [
        {
          "internalType": "bytes",
          "name": "",
          "type": "bytes"
        }
      ],
      "stateMutability": "payable",
      "type": "function"
    },
    {
      "inputs": [
        {
          "internalType": "address",
          "name": "_userAddress",
          "type": "address"
        },
        {
          "components": [
            {
              "internalType": "uint256",
              "name": "exchangeId",
              "type": "uint256"
            }
          ],
          "internalType": "struct BosonTypes.MetaTxExchangeDetails",
          "name": "_exchangeDetails",
          "type": "tuple"
        },
        {
          "internalType": "uint256",
          "name": "_nonce",
          "type": "uint256"
        },
        {
          "internalType": "bytes32",
          "name": "_sigR",
          "type": "bytes32"
        },
        {
          "internalType": "bytes32",
          "name": "_sigS",
          "type": "bytes32"
        },
        {
          "internalType": "uint8",
          "name": "_sigV",
          "type": "uint8"
        }
      ],
      "name": "executeMetaTxCancelVoucher",
      "outputs": [
        {
          "internalType": "bytes",
          "name": "",
          "type": "bytes"
        }
      ],
      "stateMutability": "nonpayable",
      "type": "function"
    },
    {
      "inputs": [
        {
          "internalType": "address",
          "name": "_userAddress",
          "type": "address"
        },
        {
          "components": [
            {
              "internalType": "address",
              "name": "buyer",
              "type": "address"
            },
            {
              "internalType": "uint256",
              "name": "offerId",
              "type": "uint256"
            }
          ],
          "internalType": "struct BosonTypes.MetaTxOfferDetails",
          "name": "_offerDetails",
          "type": "tuple"
        },
        {
          "internalType": "uint256",
          "name": "_nonce",
          "type": "uint256"
        },
        {
          "internalType": "bytes32",
          "name": "_sigR",
          "type": "bytes32"
        },
        {
          "internalType": "bytes32",
          "name": "_sigS",
          "type": "bytes32"
        },
        {
          "internalType": "uint8",
          "name": "_sigV",
          "type": "uint8"
        }
      ],
      "name": "executeMetaTxCommitToOffer",
      "outputs": [
        {
          "internalType": "bytes",
          "name": "",
          "type": "bytes"
        }
      ],
      "stateMutability": "payable",
      "type": "function"
    },
    {
      "inputs": [
        {
          "internalType": "address",
          "name": "_userAddress",
          "type": "address"
        },
        {
          "components": [
            {
              "internalType": "uint256",
              "name": "exchangeId",
              "type": "uint256"
            }
          ],
          "internalType": "struct BosonTypes.MetaTxExchangeDetails",
          "name": "_exchangeDetails",
          "type": "tuple"
        },
        {
          "internalType": "uint256",
          "name": "_nonce",
          "type": "uint256"
        },
        {
          "internalType": "bytes32",
          "name": "_sigR",
          "type": "bytes32"
        },
        {
          "internalType": "bytes32",
          "name": "_sigS",
          "type": "bytes32"
        },
        {
          "internalType": "uint8",
          "name": "_sigV",
          "type": "uint8"
        }
      ],
      "name": "executeMetaTxCompleteExchange",
      "outputs": [
        {
          "internalType": "bytes",
          "name": "",
          "type": "bytes"
        }
      ],
      "stateMutability": "nonpayable",
      "type": "function"
    },
    {
      "inputs": [
        {
          "internalType": "address",
          "name": "_userAddress",
          "type": "address"
        },
        {
          "components": [
            {
              "internalType": "uint256",
              "name": "exchangeId",
              "type": "uint256"
            }
          ],
          "internalType": "struct BosonTypes.MetaTxExchangeDetails",
          "name": "_exchangeDetails",
          "type": "tuple"
        },
        {
          "internalType": "uint256",
          "name": "_nonce",
          "type": "uint256"
        },
        {
          "internalType": "bytes32",
          "name": "_sigR",
          "type": "bytes32"
        },
        {
          "internalType": "bytes32",
          "name": "_sigS",
          "type": "bytes32"
        },
        {
          "internalType": "uint8",
          "name": "_sigV",
          "type": "uint8"
        }
      ],
      "name": "executeMetaTxRedeemVoucher",
      "outputs": [
        {
          "internalType": "bytes",
          "name": "",
          "type": "bytes"
        }
      ],
      "stateMutability": "nonpayable",
      "type": "function"
    },
    {
      "inputs": [],
      "name": "initialize",
      "outputs": [],
      "stateMutability": "nonpayable",
      "type": "function"
    },
    {
      "inputs": [
        {
          "internalType": "uint256",
          "name": "_nonce",
          "type": "uint256"
        }
      ],
      "name": "isUsedNonce",
      "outputs": [
        {
          "internalType": "bool",
          "name": "",
          "type": "bool"
        }
      ],
      "stateMutability": "view",
      "type": "function"
    }
  ],
  "bytecode": "0x608060405234801561001057600080fd5b506114fb806100206000396000f3fe6080604052600436106100705760003560e01c8063bb3748e01161004e578063bb3748e0146100d5578063dcb9c266146100f5578063ea23c38914610108578063fc3f41de1461016757600080fd5b80633532c609146100755780638129fc1c146100ab5780638779cddb146100c2575b600080fd5b34801561008157600080fd5b5061009561009036600461106a565b610187565b6040516100a29190611131565b60405180910390f35b3480156100b757600080fd5b506100c061031b565b005b6100956100d036600461114b565b610442565b3480156100e157600080fd5b506100956100f036600461106a565b6105f8565b610095610103366004611256565b61076d565b34801561011457600080fd5b5061015761012336600461130f565b60009081527fe9dcaa2fe5baf791ce4ecec7dd9d0808a23bc6ff23c5765ca852976604bcea8e602052604090205460ff1690565b60405190151581526020016100a2565b34801561017357600080fd5b5061009561018236600461106a565b610812565b6040805186356024808301919091528251808303909101815260449091018252602080820180516001600160e01b0316630e36b5af60e11b9081179091528351808501909452601684527572656465656d566f75636865722875696e743235362960501b91840191909152606092909190610203908289610990565b60006040518060a001604052808981526020018b6001600160a01b03168152602001306001600160a01b031681526020016040518060400160405280601681526020017572656465656d566f75636865722875696e743235362960501b81525081526020018a8036038101906102799190611328565b905290506102928a61028a83610b01565b898989610ba0565b60405180606001604052806021815260200161143660219139906102d25760405162461bcd60e51b81526004016102c99190611131565b60405180910390fd5b5061030d8a6040518060400160405280601681526020017572656465656d566f75636865722875696e743235362960501b815250848b610c7a565b9a9950505050505050505050565b63c3d9030360e01b60008190527fe7ad30265b8084c731e610579d091ebe2886115e8a5cacb6b704e4392f48b2c160208181527f98e5aa97523b4b2ddbf348b51cd72328bc6166ae777c0530bf1966d53a3d9a5f54604080518082019091526013815272105b1c9958591e481a5b9a5d1a585b1a5e9959606a1b9281019290925260ff16156103bd5760405162461bcd60e51b81526004016102c99190611131565b506001600160e01b0319821660009081526020828152604082208054600160ff19918216811790925563c3d9030360e01b9093527fc8fcad8db84d3cc18b4c41d551ea0ee66dd599cde068d998e57d5e09332c131f9091527f0f8486b36b06b798ea07d09ca3f94a3cdb180b27d54d84b2cdae81337c36bdb480549092161790555050565b60606307cc5f4760e21b60008161045c60208a018a61136a565b6040516001600160a01b03909116602482015260208a01356044820152606401604051602081830303815290604052906001600160e01b0319166020820180516001600160e01b03838183161783525050505090506104f16040518060400160405280601e81526020017f636f6d6d6974546f4f6666657228616464726573732c75696e743235362900008152508289610990565b60006040518060a001604052808981526020018b6001600160a01b03168152602001306001600160a01b031681526020016040518060400160405280601e81526020017f636f6d6d6974546f4f6666657228616464726573732c75696e7432353629000081525081526020018a80360381019061056e9190611385565b9052905061057f8a61028a83610e4d565b60405180606001604052806021815260200161143660219139906105b65760405162461bcd60e51b81526004016102c99190611131565b5061030d8a6040518060400160405280601e81526020017f636f6d6d6974546f4f6666657228616464726573732c75696e74323536290000815250848b610c7a565b6040805186356024808301919091528251808303909101815260449091018252602080820180516001600160e01b0316630bed3ac560e41b9081179091528351808501909452601684527563616e63656c566f75636865722875696e743235362960501b91840191909152606092909190610674908289610990565b60006040518060a001604052808981526020018b6001600160a01b03168152602001306001600160a01b031681526020016040518060400160405280601681526020017563616e63656c566f75636865722875696e743235362960501b81525081526020018a8036038101906106ea9190611328565b905290506106fb8a61028a83610b01565b60405180606001604052806021815260200161143660219139906107325760405162461bcd60e51b81526004016102c99190611131565b5061030d8a6040518060400160405280601681526020017563616e63656c566f75636865722875696e743235362960501b815250848b610c7a565b606061077a878787610990565b6040805160a0810182528681526001600160a01b038a166020820152309181019190915260608101889052608081018790526107c1896107b983610e98565b878787610ba0565b60405180606001604052806021815260200161143660219139906107f85760405162461bcd60e51b81526004016102c99190611131565b5061080589898989610c7a565b9998505050505050505050565b6040805186356024808301919091528251808303909101815260449091018252602080820180516001600160e01b0316630b08efb760e31b90811790915283518085019094526019845278636f6d706c65746545786368616e67652875696e743235362960381b91840191909152606092909190610891908289610990565b60006040518060a001604052808981526020018b6001600160a01b03168152602001306001600160a01b0316815260200160405180604001604052806019815260200178636f6d706c65746545786368616e67652875696e743235362960381b81525081526020018a80360381019061090a9190611328565b9052905061091b8a61028a83610b01565b60405180606001604052806021815260200161143660219139906109525760405162461bcd60e51b81526004016102c99190611131565b5061030d8a60405180604001604052806019815260200178636f6d706c65746545786368616e67652875696e743235362960381b815250848b610c7a565b60008181527fe9dcaa2fe5baf791ce4ecec7dd9d0808a23bc6ff23c5765ca852976604bcea8e602090815260409182902054825180840190935260128352714e6f6e6365207573656420616c726561647960701b9183019190915260ff1615610a0c5760405162461bcd60e51b81526004016102c99190611131565b506000610a1a836020015190565b90506000356001600160e01b0319166001600160e01b031916816001600160e01b03191614156040518060600160405280603d81526020016113f9603d913990610a775760405162461bcd60e51b81526004016102c99190611131565b50600084604051602001610a8b91906113dc565b60408051601f1981840301815282825280516020918201208383019092526015835274496e76616c69642066756e6374696f6e206e616d6560581b9083015291506001600160e01b031983811690831614610af95760405162461bcd60e51b81526004016102c99190611131565b505050505050565b60007f4f930faae9ddef0dc27823bf611e0eb555557fff75f18785a97f0bbb37c48238826000015183602001518460400151856060015180519060200120610b4c8760800151610f1a565b6040805160208101979097528601949094526001600160a01b0392831660608601529116608084015260a083015260c082015260e0015b604051602081830303815290604052805190602001209050919050565b6000806001610bae87610f58565b6040805160008152602081018083529290925260ff861690820152606081018790526080810186905260a0016020604051602081039080840390855afa158015610bfc573d6000803e3d6000fd5b505060408051601f198101518183019092526011815270496e76616c6964207369676e617475726560781b602082015290925090506001600160a01b038216610c585760405162461bcd60e51b81526004016102c99190611131565b50866001600160a01b0316816001600160a01b03161491505095945050505050565b60008181527fe9dcaa2fe5baf791ce4ecec7dd9d0808a23bc6ff23c5765ca852976604bcea8e60205260409020805460ff191660011790556060610cbd85610fa7565b7fe9dcaa2fe5baf791ce4ecec7dd9d0808a23bc6ff23c5765ca852976604bcea8c805460ff60a01b1916600160a01b179055604051600090819030903490610d069088906113dc565b60006040518083038185875af1925050503d8060008114610d43576040519150601f19603f3d011682016040523d82523d6000602084013e610d48565b606091505b509150915060008151600014610d5e5781610d95565b6040518060400160405280601c81526020017f46756e6374696f6e2063616c6c206e6f74207375636365737366756c000000008152505b90508083610db65760405162461bcd60e51b81526004016102c99190611131565b50610dc16000610fa7565b7fe9dcaa2fe5baf791ce4ecec7dd9d0808a23bc6ff23c5765ca852976604bcea8c805460ff60a01b19169055604051610dfb9088906113dc565b6040519081900381208682529033906001600160a01b038b16907f989f9f82718b0efee7f8d2ba230a770e0daffe87aab192cf054c3ac046ac7a269060200160405180910390a4509695505050505050565b60007f29a8d7dd83f6fb30b6243dc34f5cede63313d554f93aa47c0cfc202a450e631e826000015183602001518460400151856060015180519060200120610b4c8760800151610fe8565b60006040518060a00160405280606f8152602001611457606f91398051602091820120835184830151604080870151606088015180519087012060808901518051908801209251610b8397929391920195865260208601949094526001600160a01b03928316604086015291166060840152608083015260a082015260c00190565b8051604080517f49032cfa2932294d65faf78c2a1dc2c2b0a576c97295108c4f71fbbfc893b8b5602082015290810191909152600090606001610b83565b6000610f827fe9dcaa2fe5baf791ce4ecec7dd9d0808a23bc6ff23c5765ca852976604bcea8d5490565b60405161190160f01b6020820152602281019190915260428101839052606201610b83565b7fe9dcaa2fe5baf791ce4ecec7dd9d0808a23bc6ff23c5765ca852976604bcea8c80546001600160a01b0319166001600160a01b0392909216919091179055565b8051602080830151604051600093610b83937ec6a77d83246984f4ff380ad576e182543bd3b2c0cd34aa9494f803a965a11a939192019283526001600160a01b03919091166020830152604082015260600190565b80356001600160a01b038116811461105457600080fd5b919050565b803560ff8116811461105457600080fd5b60008060008060008086880360c081121561108457600080fd5b61108d8861103d565b96506020601f19820112156110a157600080fd5b506020870194506040870135935060608701359250608087013591506110c960a08801611059565b90509295509295509295565b60005b838110156110f05781810151838201526020016110d8565b838111156110ff576000848401525b50505050565b6000815180845261111d8160208601602086016110d5565b601f01601f19169290920160200192915050565b6020815260006111446020830184611105565b9392505050565b60008060008060008086880360e081121561116557600080fd5b61116e8861103d565b96506040601f198201121561118257600080fd5b50602087019450606087013593506080870135925060a087013591506110c960c08801611059565b634e487b7160e01b600052604160045260246000fd5b600067ffffffffffffffff808411156111db576111db6111aa565b604051601f8501601f19908116603f01168101908282118183101715611203576112036111aa565b8160405280935085815286868601111561121c57600080fd5b858560208301376000602087830101525050509392505050565b600082601f83011261124757600080fd5b611144838335602085016111c0565b600080600080600080600060e0888a03121561127157600080fd5b61127a8861103d565b9650602088013567ffffffffffffffff8082111561129757600080fd5b818a0191508a601f8301126112ab57600080fd5b6112ba8b8335602085016111c0565b975060408a01359150808211156112d057600080fd5b506112dd8a828b01611236565b955050606088013593506080880135925060a0880135915061130160c08901611059565b905092959891949750929550565b60006020828403121561132157600080fd5b5035919050565b60006020828403121561133a57600080fd5b6040516020810181811067ffffffffffffffff8211171561135d5761135d6111aa565b6040529135825250919050565b60006020828403121561137c57600080fd5b6111448261103d565b60006040828403121561139757600080fd5b6040516040810181811067ffffffffffffffff821117156113ba576113ba6111aa565b6040526113c68361103d565b8152602083013560208201528091505092915050565b600082516113ee8184602087016110d5565b919091019291505056fe66756e6374696f6e5369676e61747572652063616e206e6f74206265206f6620657865637574654d6574615472616e73616374696f6e206d6574686f645369676e657220616e64207369676e617475726520646f206e6f74206d617463684d6574615472616e73616374696f6e2875696e74323536206e6f6e63652c616464726573732066726f6d2c6164647265737320636f6e7472616374416464726573732c737472696e672066756e6374696f6e4e616d652c62797465732066756e6374696f6e5369676e617475726529a264697066735822122053f6d42e0eb7bbeefe9f7ef2570c96d69a7dc286f8bec1a19dc6f625c01c3dc464736f6c63430008090033",
  "linkReferences": {},
  "deployedLinkReferences": {}
}