{
  "_format": "hh-sol-artifact-1",
  "contractName": "StructCopier",
  "sourceName": "contracts/helpers/sol/lib/StructCopier.sol",
  "abi": [
    {
      "inputs": [
        {
          "components": [
            {
              "internalType": "address",
              "name": "offerer",
              "type": "address"
            },
            {
              "internalType": "address",
              "name": "zone",
              "type": "address"
            },
            {
              "components": [
                {
                  "internalType": "enum ItemType",
                  "name": "itemType",
                  "type": "ItemType"
                },
                {
                  "internalType": "address",
                  "name": "token",
                  "type": "address"
                },
                {
                  "internalType": "uint256",
                  "name": "identifierOrCriteria",
                  "type": "uint256"
                },
                {
                  "internalType": "uint256",
                  "name": "startAmount",
                  "type": "uint256"
                },
                {
                  "internalType": "uint256",
                  "name": "endAmount",
                  "type": "uint256"
                }
              ],
              "internalType": "struct OfferItem[]",
              "name": "offer",
              "type": "tuple[]"
            },
            {
              "components": [
                {
                  "internalType": "enum ItemType",
                  "name": "itemType",
                  "type": "ItemType"
                },
                {
                  "internalType": "address",
                  "name": "token",
                  "type": "address"
                },
                {
                  "internalType": "uint256",
                  "name": "identifierOrCriteria",
                  "type": "uint256"
                },
                {
                  "internalType": "uint256",
                  "name": "startAmount",
                  "type": "uint256"
                },
                {
                  "internalType": "uint256",
                  "name": "endAmount",
                  "type": "uint256"
                },
                {
                  "internalType": "address payable",
                  "name": "recipient",
                  "type": "address"
                }
              ],
              "internalType": "struct ConsiderationItem[]",
              "name": "consideration",
              "type": "tuple[]"
            },
            {
              "internalType": "enum OrderType",
              "name": "orderType",
              "type": "OrderType"
            },
            {
              "internalType": "uint256",
              "name": "startTime",
              "type": "uint256"
            },
            {
              "internalType": "uint256",
              "name": "endTime",
              "type": "uint256"
            },
            {
              "internalType": "bytes32",
              "name": "zoneHash",
              "type": "bytes32"
            },
            {
              "internalType": "uint256",
              "name": "salt",
              "type": "uint256"
            },
            {
              "internalType": "bytes32",
              "name": "conduitKey",
              "type": "bytes32"
            },
            {
              "internalType": "uint256",
              "name": "totalOriginalConsiderationItems",
              "type": "uint256"
            }
          ],
          "internalType": "struct OrderParameters",
          "name": "orderParameters",
          "type": "tuple"
        },
        {
          "internalType": "address payable",
          "name": "offerer",
          "type": "address"
        },
        {
          "internalType": "address",
          "name": "zone",
          "type": "address"
        },
        {
          "internalType": "bytes32",
          "name": "conduitKey",
          "type": "bytes32"
        }
      ],
      "name": "createMirrorOrderParameters",
      "outputs": [
        {
          "components": [
            {
              "internalType": "address",
              "name": "offerer",
              "type": "address"
            },
            {
              "internalType": "address",
              "name": "zone",
              "type": "address"
            },
            {
              "components": [
                {
                  "internalType": "enum ItemType",
                  "name": "itemType",
                  "type": "ItemType"
                },
                {
                  "internalType": "address",
                  "name": "token",
                  "type": "address"
                },
                {
                  "internalType": "uint256",
                  "name": "identifierOrCriteria",
                  "type": "uint256"
                },
                {
                  "internalType": "uint256",
                  "name": "startAmount",
                  "type": "uint256"
                },
                {
                  "internalType": "uint256",
                  "name": "endAmount",
                  "type": "uint256"
                }
              ],
              "internalType": "struct OfferItem[]",
              "name": "offer",
              "type": "tuple[]"
            },
            {
              "components": [
                {
                  "internalType": "enum ItemType",
                  "name": "itemType",
                  "type": "ItemType"
                },
                {
                  "internalType": "address",
                  "name": "token",
                  "type": "address"
                },
                {
                  "internalType": "uint256",
                  "name": "identifierOrCriteria",
                  "type": "uint256"
                },
                {
                  "internalType": "uint256",
                  "name": "startAmount",
                  "type": "uint256"
                },
                {
                  "internalType": "uint256",
                  "name": "endAmount",
                  "type": "uint256"
                },
                {
                  "internalType": "address payable",
                  "name": "recipient",
                  "type": "address"
                }
              ],
              "internalType": "struct ConsiderationItem[]",
              "name": "consideration",
              "type": "tuple[]"
            },
            {
              "internalType": "enum OrderType",
              "name": "orderType",
              "type": "OrderType"
            },
            {
              "internalType": "uint256",
              "name": "startTime",
              "type": "uint256"
            },
            {
              "internalType": "uint256",
              "name": "endTime",
              "type": "uint256"
            },
            {
              "internalType": "bytes32",
              "name": "zoneHash",
              "type": "bytes32"
            },
            {
              "internalType": "uint256",
              "name": "salt",
              "type": "uint256"
            },
            {
              "internalType": "bytes32",
              "name": "conduitKey",
              "type": "bytes32"
            },
            {
              "internalType": "uint256",
              "name": "totalOriginalConsiderationItems",
              "type": "uint256"
            }
          ],
          "internalType": "struct OrderParameters",
          "name": "",
          "type": "tuple"
        }
      ],
      "stateMutability": "pure",
      "type": "function"
    }
  ],
  "bytecode": "0x6080806040523461001a57610a349081610020823930815050f35b600080fdfe6080604052600436101561001257600080fd5b60003560e01c6335ef3c151461002757600080fd5b7ffffffffffffffffffffffffffffffffffffffffffffffffffffffffffffffffc60808136011261077c5767ffffffffffffffff90816004351161077c57610160906004353603011261077c5761007c610855565b9061008b600435600401610929565b825261009b602460043501610929565b60208301526044600435013581811161077c57600435013660238201121561077c5760048101356100d36100ce8261094a565b6108e5565b91602460a06020858581520193028201019036821161077c57602401915b8183106107f65750505060408301526064600435013590811161077c57600435013660238201121561077c5760048101359061012f6100ce8361094a565b91602083828152019136602460c084028301011161077c579160248301925b602460c084028201018410610781578585606082015260846004350135600581101561077c57608082015260043560a481013560a083015260c481013560c083015260e481013560e0830152610104810135610100830152610124810135610120830152610144013561014082015260243573ffffffffffffffffffffffffffffffffffffffff8116900361077c576044359073ffffffffffffffffffffffffffffffffffffffff8216820361077c57600061014061020b610855565b828152826020820152606060408201526060808201528260808201528260a08201528260c08201528260e0820152826101008201528261012082015201526060810151918251907fffffffffffffffffffffffffffffffffffffffffffffffffffffffffffffffe061028b6102826100ce8561094a565b9380855261094a565b0160005b81811061074657505060005b825181101561035557806102bb6102b561035093886109cb565b51610a0e565b73ffffffffffffffffffffffffffffffffffffffff60206102dc848a6109cb565b5101511660406102ec848a6109cb565b51015160606102fb858b6109cb565b51015190608061030b868c6109cb565b5101519261032161031a6108a5565b9586610a1b565b602085015260408401526060830152608082015261033f82866109cb565b5261034a81856109cb565b5061096f565b61029b565b5092506040820151928351917fffffffffffffffffffffffffffffffffffffffffffffffffffffffffffffffe061039a6103916100ce8661094a565b9480865261094a565b0160005b81811061070957505060005b855181101561046f57806103c46102b561046a93896109cb565b73ffffffffffffffffffffffffffffffffffffffff60206103e5848b6109cb565b5101511660406103f5848b6109cb565b5101516060610404858c6109cb565b510151906080610414868d6109cb565b5101519261042361031a6108c5565b602085015260408401526060830152608082015273ffffffffffffffffffffffffffffffffffffffff6024351660a082015261045f82876109cb565b5261034a81866109cb565b6103aa565b508284608081015160058110156106105760a082015160c08301519161010060e08501519401519480519673ffffffffffffffffffffffffffffffffffffffff6104b7610855565b9981602435168b521660208a015260408901526060880152608087015260a086015260c085015260e08401526101008301526064356101208301526101408201526040519060208252610180820173ffffffffffffffffffffffffffffffffffffffff825116602084015273ffffffffffffffffffffffffffffffffffffffff60208301511660408401526040820151906101606060850152815180915260206101a0850192019060005b8181106106aa575050506060820151907fffffffffffffffffffffffffffffffffffffffffffffffffffffffffffffffe08482030160808501526020808351928381520192019060005b81811061063f57505050608082015160058110156106105783926101409160a085015260a081015160c085015260c081015160e085015260e08101516101008501526101008101516101208501526101208101518285015201516101608301520390f35b7f4e487b7100000000000000000000000000000000000000000000000000000000600052602160045260246000fd5b909192602060c060019273ffffffffffffffffffffffffffffffffffffffff60a0885161066d848251610962565b8286820151168685015260408101516040850152606081015160608501526080810151608085015201511660a082015201940191019190916105ac565b909192602060a0600192608087516106c3838251610962565b73ffffffffffffffffffffffffffffffffffffffff8582015116858401526040810151604084015260608101516060840152015160808201520194019101919091610562565b6020906107146108c5565b60008152600083820152600060408201526000606082015260006080820152600060a08201528282880101520161039e565b6020906107516108a5565b600081526000838201526000604082015260006060820152600060808201528282870101520161028f565b600080fd5b60c08436031261077c576107936108c5565b60068535101561077c5760c060206024948293883581526107b5838a01610929565b83820152604089013560408201526060808a013590820152608089013560808201526107e360a08a01610929565b60a082015281520195019492505061014e565b60a08336031261077c576108086108a5565b90833590600682101561077c578260209260a09452610828838701610929565b838201526040860135604082015260608087013590820152608086013560808201528152019201916100f1565b60405190610160820182811067ffffffffffffffff82111761087657604052565b7f4e487b7100000000000000000000000000000000000000000000000000000000600052604160045260246000fd5b6040519060a0820182811067ffffffffffffffff82111761087657604052565b6040519060c0820182811067ffffffffffffffff82111761087657604052565b907fffffffffffffffffffffffffffffffffffffffffffffffffffffffffffffffe0601f604051930116820182811067ffffffffffffffff82111761087657604052565b359073ffffffffffffffffffffffffffffffffffffffff8216820361077c57565b67ffffffffffffffff81116108765760051b60200190565b9060068210156106105752565b7fffffffffffffffffffffffffffffffffffffffffffffffffffffffffffffffff811461099c5760010190565b7f4e487b7100000000000000000000000000000000000000000000000000000000600052601160045260246000fd5b80518210156109df5760209160051b010190565b7f4e487b7100000000000000000000000000000000000000000000000000000000600052603260045260246000fd5b5160068110156106105790565b6006821015610610575256fea164736f6c6343000811000a",
  "linkReferences": {},
  "deployedLinkReferences": {}
}