{
  "_format": "hh-sol-artifact-1",
  "contractName": "ExcessReturnDataRecipient",
  "sourceName": "contracts/test/ExcessReturnDataRecipient.sol",
  "abi": [
    {
      "inputs": [
        {
          "internalType": "address",
          "name": "",
          "type": "address"
        },
        {
          "internalType": "address",
          "name": "",
          "type": "address"
        },
        {
          "internalType": "uint256",
          "name": "",
          "type": "uint256"
        },
        {
          "internalType": "uint256",
          "name": "",
          "type": "uint256"
        },
        {
          "internalType": "bytes",
          "name": "",
          "type": "bytes"
        }
      ],
      "name": "onERC1155Received",
      "outputs": [
        {
          "internalType": "bytes4",
          "name": "magic",
          "type": "bytes4"
        }
      ],
      "stateMutability": "view",
      "type": "function"
    },
    {
      "inputs": [
        {
          "internalType": "uint256",
          "name": "size",
          "type": "uint256"
        }
      ],
      "name": "setRevertDataSize",
      "outputs": [],
      "stateMutability": "nonpayable",
      "type": "function"
    },
    {
      "stateMutability": "payable",
      "type": "receive"
    }
  ],
  "bytecode": "0x6080806040523461001657610757908161001c8239f35b600080fdfe60806040526004361015610023575b361561001957600080fd5b61002161053b565b005b6000803560e01c8063e998da54146101045763f23a6e6114610045575061000e565b346100fd5760a07ffffffffffffffffffffffffffffffffffffffffffffffffffffffffffffffffc3601126100fd5761007c61013c565b50610085610164565b5060843567ffffffffffffffff808211610100573660238301121561010057816004013590811161010057369101602401116100fd576100f96100c66101fe565b6040517fffffffff0000000000000000000000000000000000000000000000000000000090911681529081906020820190565b0390f35b80fd5b8280fd5b50346100fd5760207ffffffffffffffffffffffffffffffffffffffffffffffffffffffffffffffffc3601126100fd57600435815580f35b6004359073ffffffffffffffffffffffffffffffffffffffff8216820361015f57565b600080fd5b6024359073ffffffffffffffffffffffffffffffffffffffff8216820361015f57565b507f4e487b7100000000000000000000000000000000000000000000000000000000600052601160045260246000fd5b90628fe80082018092116101c757565b6101cf610187565b565b907ffffffffffffffffffffffffffffffffffffffffffffffffffffffffffffff40082019182116101c757565b7ff23a6e61000000000000000000000000000000000000000000000000000000009060005461022957565b6104b36104ad6104a86104a36104295a662386f26fc100006633413c26506520917f80000000000000000000000000000000000000000000000000000000000000007fffffffffffffffffffffffffffffffffffffffffffffffffffffffffffffffff82018060011c178060021c178060041c178060081c178060101c178060201c178060401c177e818283848586878898a8b8c8d8e8f929395969799a9b9d9e9faaeb6bedeeff6001604051927ff8f9cbfae6cc78fbefe7cdc3a1793dfcf4f0e8bbd8cec470b6a28a7a5a3e1efd84527ff5ecf1b3e9debc68e1d9cfabc5997135bfb7a7a3938b7b606b5b4b3f2f1f0ffe60208501527ff6e4ed9ff2d6b458eadcdf97bd91692de2d4da8fd2d0ac50c6ae9a827252361660408501527fc8c0b887b0a8a4489c948c7f847c6125746c645c544c444038302820181008ff60608501527ff7cae577eec2a03cf3bad76fb589591debb2dd67e0aa9834bea6925f6a4a2e0e60808501527fe39ed557db96902cd38ed14fad815115c786af479b7e8324736353433727170760a08501527fc976c13bb96e881cb166a933a55e490d9d56952b8d4e801485467d236242260660c08501527f753a6d1b65325d0c552a4d1345224105391a310b29122104190a11030902010060e085015261010084016040528060801c17010260f81c60ff03015160f81c911160081b01020490565b806036029060368204036104e6575b6104b0810181116104d9575b7ffffffffffffffffffffffffffffffffffffffffffffffffffffffffffffffb505a918203019081116104cc575b7e1fffffffffffffffffffffffffffffffffffffffffffffffffffffffffffff811681036104bf575b600b1b6101b7565b6104f3565b6101d1565b60021c90565b60051b80600080376000fd5b6104c7610187565b61049b565b6104d4610187565b610472565b6104e1610187565b610444565b6104ee610187565b610438565b9060009160038111908160011461051257501561050c57565b60019150565b925050816001808201811c915b84831061052b57505050565b9193508382048401811c9161051f565b60005461054457565b6104b36107446104a86104a36104295a662386f26fc100006633413c26506520917f80000000000000000000000000000000000000000000000000000000000000007fffffffffffffffffffffffffffffffffffffffffffffffffffffffffffffffff82018060011c178060021c178060041c178060081c178060101c178060201c178060401c177e818283848586878898a8b8c8d8e8f929395969799a9b9d9e9faaeb6bedeeff6001604051927ff8f9cbfae6cc78fbefe7cdc3a1793dfcf4f0e8bbd8cec470b6a28a7a5a3e1efd84527ff5ecf1b3e9debc68e1d9cfabc5997135bfb7a7a3938b7b606b5b4b3f2f1f0ffe60208501527ff6e4ed9ff2d6b458eadcdf97bd91692de2d4da8fd2d0ac50c6ae9a827252361660408501527fc8c0b887b0a8a4489c948c7f847c6125746c645c544c444038302820181008ff60608501527ff7cae577eec2a03cf3bad76fb589591debb2dd67e0aa9834bea6925f6a4a2e0e60808501527fe39ed557db96902cd38ed14fad815115c786af479b7e8324736353433727170760a08501527fc976c13bb96e881cb166a933a55e490d9d56952b8d4e801485467d236242260660c08501527f753a6d1b65325d0c552a4d1345224105391a310b29122104190a11030902010060e085015261010084016040528060801c17010260f81c60ff03015160f81c911160081b01020490565b60011c9056fea164736f6c6343000811000a",
  "linkReferences": {},
  "deployedLinkReferences": {}
}