{"contracts/conduit/Conduit.sol":{"Conduit":{"abi":[{"inputs":[],"stateMutability":"nonpayable","type":"constructor"},{"inputs":[{"internalType":"address","name":"token","type":"address"},{"internalType":"address","name":"from","type":"address"},{"internalType":"address","name":"to","type":"address"},{"internalType":"uint256","name":"amount","type":"uint256"}],"name":"BadReturnValueFromERC20OnTransfer","type":"error"},{"inputs":[{"internalType":"address","name":"channel","type":"address"}],"name":"ChannelClosed","type":"error"},{"inputs":[{"internalType":"address","name":"channel","type":"address"},{"internalType":"bool","name":"isOpen","type":"bool"}],"name":"ChannelStatusAlreadySet","type":"error"},{"inputs":[{"internalType":"address","name":"token","type":"address"},{"internalType":"address","name":"from","type":"address"},{"internalType":"address","name":"to","type":"address"},{"internalType":"uint256[]","name":"identifiers","type":"uint256[]"},{"internalType":"uint256[]","name":"amounts","type":"uint256[]"}],"name":"ERC1155BatchTransferGenericFailure","type":"error"},{"inputs":[],"name":"Invalid1155BatchTransferEncoding","type":"error"},{"inputs":[],"name":"InvalidController","type":"error"},{"inputs":[{"internalType":"uint256","name":"amount","type":"uint256"}],"name":"InvalidERC721TransferAmount","type":"error"},{"inputs":[],"name":"InvalidItemType","type":"error"},{"inputs":[],"name":"MissingItemAmount","type":"error"},{"inputs":[{"internalType":"address","name":"account","type":"address"}],"name":"NoContract","type":"error"},{"inputs":[{"internalType":"address","name":"token","type":"address"},{"internalType":"address","name":"from","type":"address"},{"internalType":"address","name":"to","type":"address"},{"internalType":"uint256","name":"identifier","type":"uint256"},{"internalType":"uint256","name":"amount","type":"uint256"}],"name":"TokenTransferGenericFailure","type":"error"},{"inputs":[],"name":"UnusedItemParameters","type":"error"},{"anonymous":false,"inputs":[{"indexed":true,"internalType":"address","name":"channel","type":"address"},{"indexed":false,"internalType":"bool","name":"open","type":"bool"}],"name":"ChannelUpdated","type":"event"},{"inputs":[{"components":[{"internalType":"enum ConduitItemType","name":"itemType","type":"uint8"},{"internalType":"address","name":"token","type":"address"},{"internalType":"address","name":"from","type":"address"},{"internalType":"address","name":"to","type":"address"},{"internalType":"uint256","name":"identifier","type":"uint256"},{"internalType":"uint256","name":"amount","type":"uint256"}],"internalType":"struct ConduitTransfer[]","name":"transfers","type":"tuple[]"}],"name":"execute","outputs":[{"internalType":"bytes4","name":"magicValue","type":"bytes4"}],"stateMutability":"nonpayable","type":"function"},{"inputs":[{"components":[{"internalType":"address","name":"token","type":"address"},{"internalType":"address","name":"from","type":"address"},{"internalType":"address","name":"to","type":"address"},{"internalType":"uint256[]","name":"ids","type":"uint256[]"},{"internalType":"uint256[]","name":"amounts","type":"uint256[]"}],"internalType":"struct ConduitBatch1155Transfer[]","name":"batchTransfers","type":"tuple[]"}],"name":"executeBatch1155","outputs":[{"internalType":"bytes4","name":"magicValue","type":"bytes4"}],"stateMutability":"nonpayable","type":"function"},{"inputs":[{"components":[{"internalType":"enum ConduitItemType","name":"itemType","type":"uint8"},{"internalType":"address","name":"token","type":"address"},{"internalType":"address","name":"from","type":"address"},{"internalType":"address","name":"to","type":"address"},{"internalType":"uint256","name":"identifier","type":"uint256"},{"internalType":"uint256","name":"amount","type":"uint256"}],"internalType":"struct ConduitTransfer[]","name":"standardTransfers","type":"tuple[]"},{"components":[{"internalType":"address","name":"token","type":"address"},{"internalType":"address","name":"from","type":"address"},{"internalType":"address","name":"to","type":"address"},{"internalType":"uint256[]","name":"ids","type":"uint256[]"},{"internalType":"uint256[]","name":"amounts","type":"uint256[]"}],"internalType":"struct ConduitBatch1155Transfer[]","name":"batchTransfers","type":"tuple[]"}],"name":"executeWithBatch1155","outputs":[{"internalType":"bytes4","name":"magicValue","type":"bytes4"}],"stateMutability":"nonpayable","type":"function"},{"inputs":[{"internalType":"address","name":"channel","type":"address"},{"internalType":"bool","name":"isOpen","type":"bool"}],"name":"updateChannel","outputs":[],"stateMutability":"nonpayable","type":"function"}],"evm":{"bytecode":{"linkReferences":{},"object":"60a080604052346100235733608052610bd690816100298239608051816103c50152f35b600080fdfe60806040526004361015610013575b600080fd5b6000803560e01c9081634ce34aa21461006657508063899e104c1461005d5780638df25d92146100545763c4e8fcb51461004c57600080fd5b61000e610362565b5061000e61027f565b5061000e6101ab565b346101465760207ffffffffffffffffffffffffffffffffffffffffffffffffffffffffffffffffc3601126101465760043567ffffffffffffffff8111610142576100b5903690600401610149565b9133815280602052604081205415610116575b8281106100fa576040517f4ce34aa2000000000000000000000000000000000000000000000000000000008152602090f35b8061011061010b6001938686610532565b6105c4565b016100c8565b807f93daadf2000000000000000000000000000000000000000000000000000000006024925233600452fd5b5080fd5b80fd5b9181601f8401121561000e5782359167ffffffffffffffff831161000e5760208085019460c0850201011161000e57565b9181601f8401121561000e5782359167ffffffffffffffff831161000e576020808501948460051b01011161000e57565b503461000e5760407ffffffffffffffffffffffffffffffffffffffffffffffffffffffffffffffffc36011261000e5767ffffffffffffffff60043581811161000e576101fc903690600401610149565b9160243590811161000e5761021590369060040161017a565b919092600033815280602052604081205415610116575b8181106102685761023d8486610a1a565b6040517f899e104c000000000000000000000000000000000000000000000000000000008152602090f35b8061027961010b6001938587610532565b0161022c565b503461000e5760207ffffffffffffffffffffffffffffffffffffffffffffffffffffffffffffffffc36011261000e5760043567ffffffffffffffff811161000e576102cf90369060040161017a565b33600052600060205260406000205415610316576102ec91610a1a565b60206040517f8df25d92000000000000000000000000000000000000000000000000000000008152f35b7f93daadf2000000000000000000000000000000000000000000000000000000006000523360045260246000fd5b73ffffffffffffffffffffffffffffffffffffffff81160361000e57565b503461000e5760407ffffffffffffffffffffffffffffffffffffffffffffffffffffffffffffffffc36011261000e5760043561039e81610344565b6024359081151580830361000e5773ffffffffffffffffffffffffffffffffffffffff90817f00000000000000000000000000000000000000000000000000000000000000001633036105085761041f6104188473ffffffffffffffffffffffffffffffffffffffff166000526000602052604060002090565b5460ff1690565b1515146104b657816104a6846104767fae63067d43ac07563b7eb8db6595635fc77f1578a2a5ea06ba91b63e2afa37e29573ffffffffffffffffffffffffffffffffffffffff166000526000602052604060002090565b9060ff7fffffffffffffffffffffffffffffffffffffffffffffffffffffffffffffff0083541691151516179055565b60405193151584521691602090a2005b506040517f924e341e00000000000000000000000000000000000000000000000000000000815273ffffffffffffffffffffffffffffffffffffffff9190911660048201529015156024820152604490fd5b60046040517f6d5769be000000000000000000000000000000000000000000000000000000008152fd5b91908110156105425760c0020190565b7f4e487b7100000000000000000000000000000000000000000000000000000000600052603260045260246000fd5b6004111561057b57565b7f4e487b7100000000000000000000000000000000000000000000000000000000600052602160045260246000fd5b35600481101561000e5790565b356105c181610344565b90565b60016105cf826105aa565b6105d881610571565b0361061357806105ed602061061193016105b7565b906105fa604082016105b7565b60a0610608606084016105b7565b9201359261071d565b565b600261061e826105aa565b61062781610571565b036106a15760a08101356001810361066e57508061064a602061061193016105b7565b90610657604082016105b7565b6080610665606084016105b7565b92013592610841565b6040517f69f958270000000000000000000000000000000000000000000000000000000081526004810191909152602490fd5b60036106ac826105aa565b6106b581610571565b036106f357806106ca602061061193016105b7565b6106d6604083016105b7565b6106e2606084016105b7565b90608060a085013594013592610920565b60046040517f7932f1fc000000000000000000000000000000000000000000000000000000008152fd5b9092604051926000947f23b872dd00000000000000000000000000000000000000000000000000000000865280600452816024528260445260208660648180885af1803d15601f3d1160018a51141617163d1515811615610787575b505050505050604052606052565b80863b151516610779579087959691156107ac5786635f15d67287526020526024601cfd5b9591929395156107d1575063988919238594526020526040526060526080526084601cfd5b3d6107f4575b5063f486bc87845260205260405260605260805260a05260a4601cfd5b601f3d0160051c9060051c908060030291808211610828575b505060205a91011061081f57856107d7565b833d81803e3d90fd5b8080600392028380020360091c9203020101868061080d565b929091833b1561090e57604051926000947f23b872dd000000000000000000000000000000000000000000000000000000008652816004528260245283604452858060648180855af11561089b5750505050604052606052565b85853d6108c2575b5063f486bc879052602052604052606052608052600160a05260a4601cfd5b601f3d0160051c9060051c9080600302918082116108f5575b505060205a9101106108ed57856108a3565b3d81803e3d90fd5b8080600392028380020360091c920302010186806108db565b83635f15d6726000526020526024601cfd5b9392919091843b15610a0857604051936080519160a0519360c051956000987ff242432a000000000000000000000000000000000000000000000000000000008a528160045282602452836044528460645260a06084528960a452898060c48180855af11561099f57505050505060805260a05260c052604052606052565b89893d6109c4575b5063f486bc87905260205260405260605260805260a05260a4601cfd5b601f3d0160051c9060051c9080600302918082116109ef575b505060205a9101106108ed57866109a7565b8080600392028380020360091c920302010187806109dd565b84635f15d6726000526020526024601cfd5b90816020907f2eb2c2d600000000000000000000000000000000000000000000000000000000825260005b838110610a585750505050506080604052565b8435820194853590813b15610b8f5760a09182880192833560059181831b948b60c08097608094818301868501351490606085013514169201013584141615610b655789019a890160243760061b9360e0850160a452610104850194600086526040019060c437600080858982865af115610ad95750505050600101610a45565b869394503d610b1a575b507fafc445e20000000000000000000000000000000000000000000000000000000060005260045260645260849081510190526000fd5b84601f3d01821c911c90600381810292808311610b4e575b505050835a910110610b445784610ae3565b3d6000803e3d6000fd5b8080028380020360091c9203020101858080610b32565b7feba2084c0000000000000000000000000000000000000000000000000000000060005260046000fd5b5083635f15d672600052526024601cfdfea2646970667358221220e514b38880d1381473fc1908ed8212c52817f2a4653c56934878b20bd42befe364736f6c634300080e0033","opcodes":"PUSH1 0xA0 DUP1 PUSH1 0x40 MSTORE CALLVALUE PUSH2 0x23 JUMPI CALLER PUSH1 0x80 MSTORE PUSH2 0xBD6 SWAP1 DUP2 PUSH2 0x29 DUP3 CODECOPY PUSH1 0x80 MLOAD DUP2 PUSH2 0x3C5 ADD MSTORE RETURN JUMPDEST PUSH1 0x0 DUP1 REVERT INVALID PUSH1 0x80 PUSH1 0x40 MSTORE PUSH1 0x4 CALLDATASIZE LT ISZERO PUSH2 0x13 JUMPI JUMPDEST PUSH1 0x0 DUP1 REVERT JUMPDEST PUSH1 0x0 DUP1 CALLDATALOAD PUSH1 0xE0 SHR SWAP1 DUP2 PUSH4 0x4CE34AA2 EQ PUSH2 0x66 JUMPI POP DUP1 PUSH4 0x899E104C EQ PUSH2 0x5D JUMPI DUP1 PUSH4 0x8DF25D92 EQ PUSH2 0x54 JUMPI PUSH4 0xC4E8FCB5 EQ PUSH2 0x4C JUMPI PUSH1 0x0 DUP1 REVERT JUMPDEST PUSH2 0xE PUSH2 0x362 JUMP JUMPDEST POP PUSH2 0xE PUSH2 0x27F JUMP JUMPDEST POP PUSH2 0xE PUSH2 0x1AB JUMP JUMPDEST CALLVALUE PUSH2 0x146 JUMPI PUSH1 0x20 PUSH32 0xFFFFFFFFFFFFFFFFFFFFFFFFFFFFFFFFFFFFFFFFFFFFFFFFFFFFFFFFFFFFFFFC CALLDATASIZE ADD SLT PUSH2 0x146 JUMPI PUSH1 0x4 CALLDATALOAD PUSH8 0xFFFFFFFFFFFFFFFF DUP2 GT PUSH2 0x142 JUMPI PUSH2 0xB5 SWAP1 CALLDATASIZE SWAP1 PUSH1 0x4 ADD PUSH2 0x149 JUMP JUMPDEST SWAP2 CALLER DUP2 MSTORE DUP1 PUSH1 0x20 MSTORE PUSH1 0x40 DUP2 KECCAK256 SLOAD ISZERO PUSH2 0x116 JUMPI JUMPDEST DUP3 DUP2 LT PUSH2 0xFA JUMPI PUSH1 0x40 MLOAD PUSH32 0x4CE34AA200000000000000000000000000000000000000000000000000000000 DUP2 MSTORE PUSH1 0x20 SWAP1 RETURN JUMPDEST DUP1 PUSH2 0x110 PUSH2 0x10B PUSH1 0x1 SWAP4 DUP7 DUP7 PUSH2 0x532 JUMP JUMPDEST PUSH2 0x5C4 JUMP JUMPDEST ADD PUSH2 0xC8 JUMP JUMPDEST DUP1 PUSH32 0x93DAADF200000000000000000000000000000000000000000000000000000000 PUSH1 0x24 SWAP3 MSTORE CALLER PUSH1 0x4 MSTORE REVERT JUMPDEST POP DUP1 REVERT JUMPDEST DUP1 REVERT JUMPDEST SWAP2 DUP2 PUSH1 0x1F DUP5 ADD SLT ISZERO PUSH2 0xE JUMPI DUP3 CALLDATALOAD SWAP2 PUSH8 0xFFFFFFFFFFFFFFFF DUP4 GT PUSH2 0xE JUMPI PUSH1 0x20 DUP1 DUP6 ADD SWAP5 PUSH1 0xC0 DUP6 MUL ADD ADD GT PUSH2 0xE JUMPI JUMP JUMPDEST SWAP2 DUP2 PUSH1 0x1F DUP5 ADD SLT ISZERO PUSH2 0xE JUMPI DUP3 CALLDATALOAD SWAP2 PUSH8 0xFFFFFFFFFFFFFFFF DUP4 GT PUSH2 0xE JUMPI PUSH1 0x20 DUP1 DUP6 ADD SWAP5 DUP5 PUSH1 0x5 SHL ADD ADD GT PUSH2 0xE JUMPI JUMP JUMPDEST POP CALLVALUE PUSH2 0xE JUMPI PUSH1 0x40 PUSH32 0xFFFFFFFFFFFFFFFFFFFFFFFFFFFFFFFFFFFFFFFFFFFFFFFFFFFFFFFFFFFFFFFC CALLDATASIZE ADD SLT PUSH2 0xE JUMPI PUSH8 0xFFFFFFFFFFFFFFFF PUSH1 0x4 CALLDATALOAD DUP2 DUP2 GT PUSH2 0xE JUMPI PUSH2 0x1FC SWAP1 CALLDATASIZE SWAP1 PUSH1 0x4 ADD PUSH2 0x149 JUMP JUMPDEST SWAP2 PUSH1 0x24 CALLDATALOAD SWAP1 DUP2 GT PUSH2 0xE JUMPI PUSH2 0x215 SWAP1 CALLDATASIZE SWAP1 PUSH1 0x4 ADD PUSH2 0x17A JUMP JUMPDEST SWAP2 SWAP1 SWAP3 PUSH1 0x0 CALLER DUP2 MSTORE DUP1 PUSH1 0x20 MSTORE PUSH1 0x40 DUP2 KECCAK256 SLOAD ISZERO PUSH2 0x116 JUMPI JUMPDEST DUP2 DUP2 LT PUSH2 0x268 JUMPI PUSH2 0x23D DUP5 DUP7 PUSH2 0xA1A JUMP JUMPDEST PUSH1 0x40 MLOAD PUSH32 0x899E104C00000000000000000000000000000000000000000000000000000000 DUP2 MSTORE PUSH1 0x20 SWAP1 RETURN JUMPDEST DUP1 PUSH2 0x279 PUSH2 0x10B PUSH1 0x1 SWAP4 DUP6 DUP8 PUSH2 0x532 JUMP JUMPDEST ADD PUSH2 0x22C JUMP JUMPDEST POP CALLVALUE PUSH2 0xE JUMPI PUSH1 0x20 PUSH32 0xFFFFFFFFFFFFFFFFFFFFFFFFFFFFFFFFFFFFFFFFFFFFFFFFFFFFFFFFFFFFFFFC CALLDATASIZE ADD SLT PUSH2 0xE JUMPI PUSH1 0x4 CALLDATALOAD PUSH8 0xFFFFFFFFFFFFFFFF DUP2 GT PUSH2 0xE JUMPI PUSH2 0x2CF SWAP1 CALLDATASIZE SWAP1 PUSH1 0x4 ADD PUSH2 0x17A JUMP JUMPDEST CALLER PUSH1 0x0 MSTORE PUSH1 0x0 PUSH1 0x20 MSTORE PUSH1 0x40 PUSH1 0x0 KECCAK256 SLOAD ISZERO PUSH2 0x316 JUMPI PUSH2 0x2EC SWAP2 PUSH2 0xA1A JUMP JUMPDEST PUSH1 0x20 PUSH1 0x40 MLOAD PUSH32 0x8DF25D9200000000000000000000000000000000000000000000000000000000 DUP2 MSTORE RETURN JUMPDEST PUSH32 0x93DAADF200000000000000000000000000000000000000000000000000000000 PUSH1 0x0 MSTORE CALLER PUSH1 0x4 MSTORE PUSH1 0x24 PUSH1 0x0 REVERT JUMPDEST PUSH20 0xFFFFFFFFFFFFFFFFFFFFFFFFFFFFFFFFFFFFFFFF DUP2 AND SUB PUSH2 0xE JUMPI JUMP JUMPDEST POP CALLVALUE PUSH2 0xE JUMPI PUSH1 0x40 PUSH32 0xFFFFFFFFFFFFFFFFFFFFFFFFFFFFFFFFFFFFFFFFFFFFFFFFFFFFFFFFFFFFFFFC CALLDATASIZE ADD SLT PUSH2 0xE JUMPI PUSH1 0x4 CALLDATALOAD PUSH2 0x39E DUP2 PUSH2 0x344 JUMP JUMPDEST PUSH1 0x24 CALLDATALOAD SWAP1 DUP2 ISZERO ISZERO DUP1 DUP4 SUB PUSH2 0xE JUMPI PUSH20 0xFFFFFFFFFFFFFFFFFFFFFFFFFFFFFFFFFFFFFFFF SWAP1 DUP2 PUSH32 0x0 AND CALLER SUB PUSH2 0x508 JUMPI PUSH2 0x41F PUSH2 0x418 DUP5 PUSH20 0xFFFFFFFFFFFFFFFFFFFFFFFFFFFFFFFFFFFFFFFF AND PUSH1 0x0 MSTORE PUSH1 0x0 PUSH1 0x20 MSTORE PUSH1 0x40 PUSH1 0x0 KECCAK256 SWAP1 JUMP JUMPDEST SLOAD PUSH1 0xFF AND SWAP1 JUMP JUMPDEST ISZERO ISZERO EQ PUSH2 0x4B6 JUMPI DUP2 PUSH2 0x4A6 DUP5 PUSH2 0x476 PUSH32 0xAE63067D43AC07563B7EB8DB6595635FC77F1578A2A5EA06BA91B63E2AFA37E2 SWAP6 PUSH20 0xFFFFFFFFFFFFFFFFFFFFFFFFFFFFFFFFFFFFFFFF AND PUSH1 0x0 MSTORE PUSH1 0x0 PUSH1 0x20 MSTORE PUSH1 0x40 PUSH1 0x0 KECCAK256 SWAP1 JUMP JUMPDEST SWAP1 PUSH1 0xFF PUSH32 0xFFFFFFFFFFFFFFFFFFFFFFFFFFFFFFFFFFFFFFFFFFFFFFFFFFFFFFFFFFFFFF00 DUP4 SLOAD AND SWAP2 ISZERO ISZERO AND OR SWAP1 SSTORE JUMP JUMPDEST PUSH1 0x40 MLOAD SWAP4 ISZERO ISZERO DUP5 MSTORE AND SWAP2 PUSH1 0x20 SWAP1 LOG2 STOP JUMPDEST POP PUSH1 0x40 MLOAD PUSH32 0x924E341E00000000000000000000000000000000000000000000000000000000 DUP2 MSTORE PUSH20 0xFFFFFFFFFFFFFFFFFFFFFFFFFFFFFFFFFFFFFFFF SWAP2 SWAP1 SWAP2 AND PUSH1 0x4 DUP3 ADD MSTORE SWAP1 ISZERO ISZERO PUSH1 0x24 DUP3 ADD MSTORE PUSH1 0x44 SWAP1 REVERT JUMPDEST PUSH1 0x4 PUSH1 0x40 MLOAD PUSH32 0x6D5769BE00000000000000000000000000000000000000000000000000000000 DUP2 MSTORE REVERT JUMPDEST SWAP2 SWAP1 DUP2 LT ISZERO PUSH2 0x542 JUMPI PUSH1 0xC0 MUL ADD SWAP1 JUMP JUMPDEST PUSH32 0x4E487B7100000000000000000000000000000000000000000000000000000000 PUSH1 0x0 MSTORE PUSH1 0x32 PUSH1 0x4 MSTORE PUSH1 0x24 PUSH1 0x0 REVERT JUMPDEST PUSH1 0x4 GT ISZERO PUSH2 0x57B JUMPI JUMP JUMPDEST PUSH32 0x4E487B7100000000000000000000000000000000000000000000000000000000 PUSH1 0x0 MSTORE PUSH1 0x21 PUSH1 0x4 MSTORE PUSH1 0x24 PUSH1 0x0 REVERT JUMPDEST CALLDATALOAD PUSH1 0x4 DUP2 LT ISZERO PUSH2 0xE JUMPI SWAP1 JUMP JUMPDEST CALLDATALOAD PUSH2 0x5C1 DUP2 PUSH2 0x344 JUMP JUMPDEST SWAP1 JUMP JUMPDEST PUSH1 0x1 PUSH2 0x5CF DUP3 PUSH2 0x5AA JUMP JUMPDEST PUSH2 0x5D8 DUP2 PUSH2 0x571 JUMP JUMPDEST SUB PUSH2 0x613 JUMPI DUP1 PUSH2 0x5ED PUSH1 0x20 PUSH2 0x611 SWAP4 ADD PUSH2 0x5B7 JUMP JUMPDEST SWAP1 PUSH2 0x5FA PUSH1 0x40 DUP3 ADD PUSH2 0x5B7 JUMP JUMPDEST PUSH1 0xA0 PUSH2 0x608 PUSH1 0x60 DUP5 ADD PUSH2 0x5B7 JUMP JUMPDEST SWAP3 ADD CALLDATALOAD SWAP3 PUSH2 0x71D JUMP JUMPDEST JUMP JUMPDEST PUSH1 0x2 PUSH2 0x61E DUP3 PUSH2 0x5AA JUMP JUMPDEST PUSH2 0x627 DUP2 PUSH2 0x571 JUMP JUMPDEST SUB PUSH2 0x6A1 JUMPI PUSH1 0xA0 DUP2 ADD CALLDATALOAD PUSH1 0x1 DUP2 SUB PUSH2 0x66E JUMPI POP DUP1 PUSH2 0x64A PUSH1 0x20 PUSH2 0x611 SWAP4 ADD PUSH2 0x5B7 JUMP JUMPDEST SWAP1 PUSH2 0x657 PUSH1 0x40 DUP3 ADD PUSH2 0x5B7 JUMP JUMPDEST PUSH1 0x80 PUSH2 0x665 PUSH1 0x60 DUP5 ADD PUSH2 0x5B7 JUMP JUMPDEST SWAP3 ADD CALLDATALOAD SWAP3 PUSH2 0x841 JUMP JUMPDEST PUSH1 0x40 MLOAD PUSH32 0x69F9582700000000000000000000000000000000000000000000000000000000 DUP2 MSTORE PUSH1 0x4 DUP2 ADD SWAP2 SWAP1 SWAP2 MSTORE PUSH1 0x24 SWAP1 REVERT JUMPDEST PUSH1 0x3 PUSH2 0x6AC DUP3 PUSH2 0x5AA JUMP JUMPDEST PUSH2 0x6B5 DUP2 PUSH2 0x571 JUMP JUMPDEST SUB PUSH2 0x6F3 JUMPI DUP1 PUSH2 0x6CA PUSH1 0x20 PUSH2 0x611 SWAP4 ADD PUSH2 0x5B7 JUMP JUMPDEST PUSH2 0x6D6 PUSH1 0x40 DUP4 ADD PUSH2 0x5B7 JUMP JUMPDEST PUSH2 0x6E2 PUSH1 0x60 DUP5 ADD PUSH2 0x5B7 JUMP JUMPDEST SWAP1 PUSH1 0x80 PUSH1 0xA0 DUP6 ADD CALLDATALOAD SWAP5 ADD CALLDATALOAD SWAP3 PUSH2 0x920 JUMP JUMPDEST PUSH1 0x4 PUSH1 0x40 MLOAD PUSH32 0x7932F1FC00000000000000000000000000000000000000000000000000000000 DUP2 MSTORE REVERT JUMPDEST SWAP1 SWAP3 PUSH1 0x40 MLOAD SWAP3 PUSH1 0x0 SWAP5 PUSH32 0x23B872DD00000000000000000000000000000000000000000000000000000000 DUP7 MSTORE DUP1 PUSH1 0x4 MSTORE DUP2 PUSH1 0x24 MSTORE DUP3 PUSH1 0x44 MSTORE PUSH1 0x20 DUP7 PUSH1 0x64 DUP2 DUP1 DUP9 GAS CALL DUP1 RETURNDATASIZE ISZERO PUSH1 0x1F RETURNDATASIZE GT PUSH1 0x1 DUP11 MLOAD EQ AND OR AND RETURNDATASIZE ISZERO ISZERO DUP2 AND ISZERO PUSH2 0x787 JUMPI JUMPDEST POP POP POP POP POP POP PUSH1 0x40 MSTORE PUSH1 0x60 MSTORE JUMP JUMPDEST DUP1 DUP7 EXTCODESIZE ISZERO ISZERO AND PUSH2 0x779 JUMPI SWAP1 DUP8 SWAP6 SWAP7 SWAP2 ISZERO PUSH2 0x7AC JUMPI DUP7 PUSH4 0x5F15D672 DUP8 MSTORE PUSH1 0x20 MSTORE PUSH1 0x24 PUSH1 0x1C REVERT JUMPDEST SWAP6 SWAP2 SWAP3 SWAP4 SWAP6 ISZERO PUSH2 0x7D1 JUMPI POP PUSH4 0x98891923 DUP6 SWAP5 MSTORE PUSH1 0x20 MSTORE PUSH1 0x40 MSTORE PUSH1 0x60 MSTORE PUSH1 0x80 MSTORE PUSH1 0x84 PUSH1 0x1C REVERT JUMPDEST RETURNDATASIZE PUSH2 0x7F4 JUMPI JUMPDEST POP PUSH4 0xF486BC87 DUP5 MSTORE PUSH1 0x20 MSTORE PUSH1 0x40 MSTORE PUSH1 0x60 MSTORE PUSH1 0x80 MSTORE PUSH1 0xA0 MSTORE PUSH1 0xA4 PUSH1 0x1C REVERT JUMPDEST PUSH1 0x1F RETURNDATASIZE ADD PUSH1 0x5 SHR SWAP1 PUSH1 0x5 SHR SWAP1 DUP1 PUSH1 0x3 MUL SWAP2 DUP1 DUP3 GT PUSH2 0x828 JUMPI JUMPDEST POP POP PUSH1 0x20 GAS SWAP2 ADD LT PUSH2 0x81F JUMPI DUP6 PUSH2 0x7D7 JUMP JUMPDEST DUP4 RETURNDATASIZE DUP2 DUP1 RETURNDATACOPY RETURNDATASIZE SWAP1 REVERT JUMPDEST DUP1 DUP1 PUSH1 0x3 SWAP3 MUL DUP4 DUP1 MUL SUB PUSH1 0x9 SHR SWAP3 SUB MUL ADD ADD DUP7 DUP1 PUSH2 0x80D JUMP JUMPDEST SWAP3 SWAP1 SWAP2 DUP4 EXTCODESIZE ISZERO PUSH2 0x90E JUMPI PUSH1 0x40 MLOAD SWAP3 PUSH1 0x0 SWAP5 PUSH32 0x23B872DD00000000000000000000000000000000000000000000000000000000 DUP7 MSTORE DUP2 PUSH1 0x4 MSTORE DUP3 PUSH1 0x24 MSTORE DUP4 PUSH1 0x44 MSTORE DUP6 DUP1 PUSH1 0x64 DUP2 DUP1 DUP6 GAS CALL ISZERO PUSH2 0x89B JUMPI POP POP POP POP PUSH1 0x40 MSTORE PUSH1 0x60 MSTORE JUMP JUMPDEST DUP6 DUP6 RETURNDATASIZE PUSH2 0x8C2 JUMPI JUMPDEST POP PUSH4 0xF486BC87 SWAP1 MSTORE PUSH1 0x20 MSTORE PUSH1 0x40 MSTORE PUSH1 0x60 MSTORE PUSH1 0x80 MSTORE PUSH1 0x1 PUSH1 0xA0 MSTORE PUSH1 0xA4 PUSH1 0x1C REVERT JUMPDEST PUSH1 0x1F RETURNDATASIZE ADD PUSH1 0x5 SHR SWAP1 PUSH1 0x5 SHR SWAP1 DUP1 PUSH1 0x3 MUL SWAP2 DUP1 DUP3 GT PUSH2 0x8F5 JUMPI JUMPDEST POP POP PUSH1 0x20 GAS SWAP2 ADD LT PUSH2 0x8ED JUMPI DUP6 PUSH2 0x8A3 JUMP JUMPDEST RETURNDATASIZE DUP2 DUP1 RETURNDATACOPY RETURNDATASIZE SWAP1 REVERT JUMPDEST DUP1 DUP1 PUSH1 0x3 SWAP3 MUL DUP4 DUP1 MUL SUB PUSH1 0x9 SHR SWAP3 SUB MUL ADD ADD DUP7 DUP1 PUSH2 0x8DB JUMP JUMPDEST DUP4 PUSH4 0x5F15D672 PUSH1 0x0 MSTORE PUSH1 0x20 MSTORE PUSH1 0x24 PUSH1 0x1C REVERT JUMPDEST SWAP4 SWAP3 SWAP2 SWAP1 SWAP2 DUP5 EXTCODESIZE ISZERO PUSH2 0xA08 JUMPI PUSH1 0x40 MLOAD SWAP4 PUSH1 0x80 MLOAD SWAP2 PUSH1 0xA0 MLOAD SWAP4 PUSH1 0xC0 MLOAD SWAP6 PUSH1 0x0 SWAP9 PUSH32 0xF242432A00000000000000000000000000000000000000000000000000000000 DUP11 MSTORE DUP2 PUSH1 0x4 MSTORE DUP3 PUSH1 0x24 MSTORE DUP4 PUSH1 0x44 MSTORE DUP5 PUSH1 0x64 MSTORE PUSH1 0xA0 PUSH1 0x84 MSTORE DUP10 PUSH1 0xA4 MSTORE DUP10 DUP1 PUSH1 0xC4 DUP2 DUP1 DUP6 GAS CALL ISZERO PUSH2 0x99F JUMPI POP POP POP POP POP PUSH1 0x80 MSTORE PUSH1 0xA0 MSTORE PUSH1 0xC0 MSTORE PUSH1 0x40 MSTORE PUSH1 0x60 MSTORE JUMP JUMPDEST DUP10 DUP10 RETURNDATASIZE PUSH2 0x9C4 JUMPI JUMPDEST POP PUSH4 0xF486BC87 SWAP1 MSTORE PUSH1 0x20 MSTORE PUSH1 0x40 MSTORE PUSH1 0x60 MSTORE PUSH1 0x80 MSTORE PUSH1 0xA0 MSTORE PUSH1 0xA4 PUSH1 0x1C REVERT JUMPDEST PUSH1 0x1F RETURNDATASIZE ADD PUSH1 0x5 SHR SWAP1 PUSH1 0x5 SHR SWAP1 DUP1 PUSH1 0x3 MUL SWAP2 DUP1 DUP3 GT PUSH2 0x9EF JUMPI JUMPDEST POP POP PUSH1 0x20 GAS SWAP2 ADD LT PUSH2 0x8ED JUMPI DUP7 PUSH2 0x9A7 JUMP JUMPDEST DUP1 DUP1 PUSH1 0x3 SWAP3 MUL DUP4 DUP1 MUL SUB PUSH1 0x9 SHR SWAP3 SUB MUL ADD ADD DUP8 DUP1 PUSH2 0x9DD JUMP JUMPDEST DUP5 PUSH4 0x5F15D672 PUSH1 0x0 MSTORE PUSH1 0x20 MSTORE PUSH1 0x24 PUSH1 0x1C REVERT JUMPDEST SWAP1 DUP2 PUSH1 0x20 SWAP1 PUSH32 0x2EB2C2D600000000000000000000000000000000000000000000000000000000 DUP3 MSTORE PUSH1 0x0 JUMPDEST DUP4 DUP2 LT PUSH2 0xA58 JUMPI POP POP POP POP POP PUSH1 0x80 PUSH1 0x40 MSTORE JUMP JUMPDEST DUP5 CALLDATALOAD DUP3 ADD SWAP5 DUP6 CALLDATALOAD SWAP1 DUP2 EXTCODESIZE ISZERO PUSH2 0xB8F JUMPI PUSH1 0xA0 SWAP2 DUP3 DUP9 ADD SWAP3 DUP4 CALLDATALOAD PUSH1 0x5 SWAP2 DUP2 DUP4 SHL SWAP5 DUP12 PUSH1 0xC0 DUP1 SWAP8 PUSH1 0x80 SWAP5 DUP2 DUP4 ADD DUP7 DUP6 ADD CALLDATALOAD EQ SWAP1 PUSH1 0x60 DUP6 ADD CALLDATALOAD EQ AND SWAP3 ADD ADD CALLDATALOAD DUP5 EQ AND ISZERO PUSH2 0xB65 JUMPI DUP10 ADD SWAP11 DUP10 ADD PUSH1 0x24 CALLDATACOPY PUSH1 0x6 SHL SWAP4 PUSH1 0xE0 DUP6 ADD PUSH1 0xA4 MSTORE PUSH2 0x104 DUP6 ADD SWAP5 PUSH1 0x0 DUP7 MSTORE PUSH1 0x40 ADD SWAP1 PUSH1 0xC4 CALLDATACOPY PUSH1 0x0 DUP1 DUP6 DUP10 DUP3 DUP7 GAS CALL ISZERO PUSH2 0xAD9 JUMPI POP POP POP POP PUSH1 0x1 ADD PUSH2 0xA45 JUMP JUMPDEST DUP7 SWAP4 SWAP5 POP RETURNDATASIZE PUSH2 0xB1A JUMPI JUMPDEST POP PUSH32 0xAFC445E200000000000000000000000000000000000000000000000000000000 PUSH1 0x0 MSTORE PUSH1 0x4 MSTORE PUSH1 0x64 MSTORE PUSH1 0x84 SWAP1 DUP2 MLOAD ADD SWAP1 MSTORE PUSH1 0x0 REVERT JUMPDEST DUP5 PUSH1 0x1F RETURNDATASIZE ADD DUP3 SHR SWAP2 SHR SWAP1 PUSH1 0x3 DUP2 DUP2 MUL SWAP3 DUP1 DUP4 GT PUSH2 0xB4E JUMPI JUMPDEST POP POP POP DUP4 GAS SWAP2 ADD LT PUSH2 0xB44 JUMPI DUP5 PUSH2 0xAE3 JUMP JUMPDEST RETURNDATASIZE PUSH1 0x0 DUP1 RETURNDATACOPY RETURNDATASIZE PUSH1 0x0 REVERT JUMPDEST DUP1 DUP1 MUL DUP4 DUP1 MUL SUB PUSH1 0x9 SHR SWAP3 SUB MUL ADD ADD DUP6 DUP1 DUP1 PUSH2 0xB32 JUMP JUMPDEST PUSH32 0xEBA2084C00000000000000000000000000000000000000000000000000000000 PUSH1 0x0 MSTORE PUSH1 0x4 PUSH1 0x0 REVERT JUMPDEST POP DUP4 PUSH4 0x5F15D672 PUSH1 0x0 MSTORE MSTORE PUSH1 0x24 PUSH1 0x1C REVERT INVALID LOG2 PUSH5 0x6970667358 0x22 SLT KECCAK256 0xE5 EQ 0xB3 DUP9 DUP1 0xD1 CODESIZE EQ PUSH20 0xFC1908ED8212C52817F2A4653C56934878B20BD4 0x2B 0xEF 0xE3 PUSH5 0x736F6C6343 STOP ADDMOD 0xE STOP CALLER "},"methodIdentifiers":{"execute((uint8,address,address,address,uint256,uint256)[])":"4ce34aa2","executeBatch1155((address,address,address,uint256[],uint256[])[])":"8df25d92","executeWithBatch1155((uint8,address,address,address,uint256,uint256)[],(address,address,address,uint256[],uint256[])[])":"899e104c","updateChannel(address,bool)":"c4e8fcb5"}}}}}