{
  "_format": "hh-sol-artifact-1",
  "contractName": "TestContractOfferer",
  "sourceName": "contracts/test/TestContractOfferer.sol",
  "abi": [
    {
      "inputs": [
        {
          "internalType": "address",
          "name": "seaport",
          "type": "address"
        }
      ],
      "stateMutability": "nonpayable",
      "type": "constructor"
    },
    {
      "inputs": [],
      "name": "OrderUnavailable",
      "type": "error"
    },
    {
      "inputs": [
        {
          "components": [
            {
              "internalType": "enum ItemType",
              "name": "itemType",
              "type": "uint8"
            },
            {
              "internalType": "address",
              "name": "token",
              "type": "address"
            },
            {
              "internalType": "uint256",
              "name": "identifier",
              "type": "uint256"
            },
            {
              "internalType": "uint256",
              "name": "amount",
              "type": "uint256"
            }
          ],
          "internalType": "struct SpentItem",
          "name": "available",
          "type": "tuple"
        },
        {
          "components": [
            {
              "internalType": "enum ItemType",
              "name": "itemType",
              "type": "uint8"
            },
            {
              "internalType": "address",
              "name": "token",
              "type": "address"
            },
            {
              "internalType": "uint256",
              "name": "identifier",
              "type": "uint256"
            },
            {
              "internalType": "uint256",
              "name": "amount",
              "type": "uint256"
            }
          ],
          "internalType": "struct SpentItem",
          "name": "required",
          "type": "tuple"
        }
      ],
      "name": "activate",
      "outputs": [],
      "stateMutability": "payable",
      "type": "function"
    },
    {
      "inputs": [
        {
          "components": [
            {
              "internalType": "enum ItemType",
              "name": "itemType",
              "type": "uint8"
            },
            {
              "internalType": "address",
              "name": "token",
              "type": "address"
            },
            {
              "internalType": "uint256",
              "name": "identifier",
              "type": "uint256"
            },
            {
              "internalType": "uint256",
              "name": "amount",
              "type": "uint256"
            }
          ],
          "internalType": "struct SpentItem",
          "name": "available",
          "type": "tuple"
        },
        {
          "components": [
            {
              "internalType": "enum ItemType",
              "name": "itemType",
              "type": "uint8"
            },
            {
              "internalType": "address",
              "name": "token",
              "type": "address"
            },
            {
              "internalType": "uint256",
              "name": "identifier",
              "type": "uint256"
            },
            {
              "internalType": "uint256",
              "name": "amount",
              "type": "uint256"
            }
          ],
          "internalType": "struct SpentItem",
          "name": "required",
          "type": "tuple"
        },
        {
          "internalType": "uint256",
          "name": "identifier",
          "type": "uint256"
        }
      ],
      "name": "activateWithCriteria",
      "outputs": [],
      "stateMutability": "nonpayable",
      "type": "function"
    },
    {
      "inputs": [],
      "name": "extendAvailable",
      "outputs": [],
      "stateMutability": "nonpayable",
      "type": "function"
    },
    {
      "inputs": [],
      "name": "extendRequired",
      "outputs": [],
      "stateMutability": "nonpayable",
      "type": "function"
    },
    {
      "inputs": [],
      "name": "extraAvailable",
      "outputs": [
        {
          "internalType": "uint256",
          "name": "",
          "type": "uint256"
        }
      ],
      "stateMutability": "view",
      "type": "function"
    },
    {
      "inputs": [],
      "name": "extraRequired",
      "outputs": [
        {
          "internalType": "uint256",
          "name": "",
          "type": "uint256"
        }
      ],
      "stateMutability": "view",
      "type": "function"
    },
    {
      "inputs": [],
      "name": "fulfilled",
      "outputs": [
        {
          "internalType": "bool",
          "name": "",
          "type": "bool"
        }
      ],
      "stateMutability": "view",
      "type": "function"
    },
    {
      "inputs": [
        {
          "internalType": "address",
          "name": "",
          "type": "address"
        },
        {
          "components": [
            {
              "internalType": "enum ItemType",
              "name": "itemType",
              "type": "uint8"
            },
            {
              "internalType": "address",
              "name": "token",
              "type": "address"
            },
            {
              "internalType": "uint256",
              "name": "identifier",
              "type": "uint256"
            },
            {
              "internalType": "uint256",
              "name": "amount",
              "type": "uint256"
            }
          ],
          "internalType": "struct SpentItem[]",
          "name": "",
          "type": "tuple[]"
        },
        {
          "components": [
            {
              "internalType": "enum ItemType",
              "name": "itemType",
              "type": "uint8"
            },
            {
              "internalType": "address",
              "name": "token",
              "type": "address"
            },
            {
              "internalType": "uint256",
              "name": "identifier",
              "type": "uint256"
            },
            {
              "internalType": "uint256",
              "name": "amount",
              "type": "uint256"
            }
          ],
          "internalType": "struct SpentItem[]",
          "name": "",
          "type": "tuple[]"
        },
        {
          "internalType": "bytes",
          "name": "context",
          "type": "bytes"
        }
      ],
      "name": "generateOrder",
      "outputs": [
        {
          "components": [
            {
              "internalType": "enum ItemType",
              "name": "itemType",
              "type": "uint8"
            },
            {
              "internalType": "address",
              "name": "token",
              "type": "address"
            },
            {
              "internalType": "uint256",
              "name": "identifier",
              "type": "uint256"
            },
            {
              "internalType": "uint256",
              "name": "amount",
              "type": "uint256"
            }
          ],
          "internalType": "struct SpentItem[]",
          "name": "offer",
          "type": "tuple[]"
        },
        {
          "components": [
            {
              "internalType": "enum ItemType",
              "name": "itemType",
              "type": "uint8"
            },
            {
              "internalType": "address",
              "name": "token",
              "type": "address"
            },
            {
              "internalType": "uint256",
              "name": "identifier",
              "type": "uint256"
            },
            {
              "internalType": "uint256",
              "name": "amount",
              "type": "uint256"
            },
            {
              "internalType": "address payable",
              "name": "recipient",
              "type": "address"
            }
          ],
          "internalType": "struct ReceivedItem[]",
          "name": "consideration",
          "type": "tuple[]"
        }
      ],
      "stateMutability": "nonpayable",
      "type": "function"
    },
    {
      "inputs": [],
      "name": "getInventory",
      "outputs": [
        {
          "components": [
            {
              "internalType": "enum ItemType",
              "name": "itemType",
              "type": "uint8"
            },
            {
              "internalType": "address",
              "name": "token",
              "type": "address"
            },
            {
              "internalType": "uint256",
              "name": "identifier",
              "type": "uint256"
            },
            {
              "internalType": "uint256",
              "name": "amount",
              "type": "uint256"
            }
          ],
          "internalType": "struct SpentItem[]",
          "name": "offerable",
          "type": "tuple[]"
        },
        {
          "components": [
            {
              "internalType": "enum ItemType",
              "name": "itemType",
              "type": "uint8"
            },
            {
              "internalType": "address",
              "name": "token",
              "type": "address"
            },
            {
              "internalType": "uint256",
              "name": "identifier",
              "type": "uint256"
            },
            {
              "internalType": "uint256",
              "name": "amount",
              "type": "uint256"
            }
          ],
          "internalType": "struct SpentItem[]",
          "name": "receivable",
          "type": "tuple[]"
        }
      ],
      "stateMutability": "view",
      "type": "function"
    },
    {
      "inputs": [],
      "name": "getSeaportMetadata",
      "outputs": [
        {
          "internalType": "string",
          "name": "name",
          "type": "string"
        },
        {
          "components": [
            {
              "internalType": "uint256",
              "name": "id",
              "type": "uint256"
            },
            {
              "internalType": "bytes",
              "name": "metadata",
              "type": "bytes"
            }
          ],
          "internalType": "struct Schema[]",
          "name": "schemas",
          "type": "tuple[]"
        }
      ],
      "stateMutability": "pure",
      "type": "function"
    },
    {
      "inputs": [
        {
          "internalType": "address",
          "name": "",
          "type": "address"
        },
        {
          "internalType": "address",
          "name": "",
          "type": "address"
        },
        {
          "internalType": "uint256",
          "name": "",
          "type": "uint256"
        },
        {
          "internalType": "uint256",
          "name": "",
          "type": "uint256"
        },
        {
          "internalType": "bytes",
          "name": "",
          "type": "bytes"
        }
      ],
      "name": "onERC1155Received",
      "outputs": [
        {
          "internalType": "bytes4",
          "name": "",
          "type": "bytes4"
        }
      ],
      "stateMutability": "pure",
      "type": "function"
    },
    {
      "inputs": [
        {
          "internalType": "address",
          "name": "caller",
          "type": "address"
        },
        {
          "internalType": "address",
          "name": "",
          "type": "address"
        },
        {
          "components": [
            {
              "internalType": "enum ItemType",
              "name": "itemType",
              "type": "uint8"
            },
            {
              "internalType": "address",
              "name": "token",
              "type": "address"
            },
            {
              "internalType": "uint256",
              "name": "identifier",
              "type": "uint256"
            },
            {
              "internalType": "uint256",
              "name": "amount",
              "type": "uint256"
            }
          ],
          "internalType": "struct SpentItem[]",
          "name": "",
          "type": "tuple[]"
        },
        {
          "components": [
            {
              "internalType": "enum ItemType",
              "name": "itemType",
              "type": "uint8"
            },
            {
              "internalType": "address",
              "name": "token",
              "type": "address"
            },
            {
              "internalType": "uint256",
              "name": "identifier",
              "type": "uint256"
            },
            {
              "internalType": "uint256",
              "name": "amount",
              "type": "uint256"
            }
          ],
          "internalType": "struct SpentItem[]",
          "name": "",
          "type": "tuple[]"
        },
        {
          "internalType": "bytes",
          "name": "context",
          "type": "bytes"
        }
      ],
      "name": "previewOrder",
      "outputs": [
        {
          "components": [
            {
              "internalType": "enum ItemType",
              "name": "itemType",
              "type": "uint8"
            },
            {
              "internalType": "address",
              "name": "token",
              "type": "address"
            },
            {
              "internalType": "uint256",
              "name": "identifier",
              "type": "uint256"
            },
            {
              "internalType": "uint256",
              "name": "amount",
              "type": "uint256"
            }
          ],
          "internalType": "struct SpentItem[]",
          "name": "offer",
          "type": "tuple[]"
        },
        {
          "components": [
            {
              "internalType": "enum ItemType",
              "name": "itemType",
              "type": "uint8"
            },
            {
              "internalType": "address",
              "name": "token",
              "type": "address"
            },
            {
              "internalType": "uint256",
              "name": "identifier",
              "type": "uint256"
            },
            {
              "internalType": "uint256",
              "name": "amount",
              "type": "uint256"
            },
            {
              "internalType": "address payable",
              "name": "recipient",
              "type": "address"
            }
          ],
          "internalType": "struct ReceivedItem[]",
          "name": "consideration",
          "type": "tuple[]"
        }
      ],
      "stateMutability": "view",
      "type": "function"
    },
    {
      "inputs": [
        {
          "components": [
            {
              "internalType": "enum ItemType",
              "name": "itemType",
              "type": "uint8"
            },
            {
              "internalType": "address",
              "name": "token",
              "type": "address"
            },
            {
              "internalType": "uint256",
              "name": "identifier",
              "type": "uint256"
            },
            {
              "internalType": "uint256",
              "name": "amount",
              "type": "uint256"
            }
          ],
          "internalType": "struct SpentItem[]",
          "name": "",
          "type": "tuple[]"
        },
        {
          "components": [
            {
              "internalType": "enum ItemType",
              "name": "itemType",
              "type": "uint8"
            },
            {
              "internalType": "address",
              "name": "token",
              "type": "address"
            },
            {
              "internalType": "uint256",
              "name": "identifier",
              "type": "uint256"
            },
            {
              "internalType": "uint256",
              "name": "amount",
              "type": "uint256"
            },
            {
              "internalType": "address payable",
              "name": "recipient",
              "type": "address"
            }
          ],
          "internalType": "struct ReceivedItem[]",
          "name": "",
          "type": "tuple[]"
        },
        {
          "internalType": "bytes",
          "name": "context",
          "type": "bytes"
        },
        {
          "internalType": "bytes32[]",
          "name": "orderHashes",
          "type": "bytes32[]"
        },
        {
          "internalType": "uint256",
          "name": "",
          "type": "uint256"
        }
      ],
      "name": "ratifyOrder",
      "outputs": [
        {
          "internalType": "bytes4",
          "name": "",
          "type": "bytes4"
        }
      ],
      "stateMutability": "pure",
      "type": "function"
    },
    {
      "inputs": [],
      "name": "ready",
      "outputs": [
        {
          "internalType": "bool",
          "name": "",
          "type": "bool"
        }
      ],
      "stateMutability": "view",
      "type": "function"
    },
    {
      "stateMutability": "payable",
      "type": "receive"
    }
  ],
  "bytecode": "0x60a0346100a957601f61210e38819003918201601f19168301916001600160401b038311848410176100ae578084926020946040528339810103126100a957516001600160a01b03811681036100a95760805261ffff19600654166006556000600755600060085560405161204990816100c5823960805181818161077a015281816108e301528181610a4b01528181610de4015281816110090152818161121f01526117830152f35b600080fd5b634e487b7160e01b600052604160045260246000fdfe6080604081815260049081361015610022575b505050361561002057600080fd5b005b600092833560e01c9081632e778efc146117f9575080634a29bec2146117bc578063582d4241146114f65780635d7f850c146112bc57806366ff49c514610ee05780636defbf8014610e9e57806375f9ef5214610e315780639891976514610adb578063a69ea25c14610a9e578063b6f2634314610529578063b968b3991461049f578063e2d46f981461045a578063f23a6e61146103c95763f4dd92ce0361001257346103c55760a07ffffffffffffffffffffffffffffffffffffffffffffffffffffffffffffffffc3601126103c55767ffffffffffffffff82358181116103bd576101139036908501611a4f565b505060249283358281116103c157366023820112156103c15780820135908382116103b957859060a03693020101116103bd57604480358381116103b95761015e9036908401611a80565b9560649485358181116103b557366023820112156103b55780860135918083116103b157600590368585841b850101116103ad5760209a8b8111806103a2575b6101cb575b8b8b517ff4dd92ce000000000000000000000000000000000000000000000000000000008152f35b8601958b8188031261039e57803591821161039e57019a858c96601f809801121561039a578b8d8c9d9e9c9b9c359161020f61020684611e5f565b9d519d8e611cb0565b828d52808d0192861b82010192831161039657908e809201905b8382106103875750505050885198848a0361030657815b8a811061025157508c9b9a506101a3565b61025b8183611fce565b51868210156102db578782861b870101350361027f5761027a90611e03565b610240565b5050505050507f526576657274206f6e20756e6578706563746564206f72646572206861736800939450878751957f08c379a0000000000000000000000000000000000000000000000000000000008752860152840152820152fd5b878460328d7f4e487b7100000000000000000000000000000000000000000000000000000000835252fd5b508a517f08c379a00000000000000000000000000000000000000000000000000000000081528089018d90526028818701527f526576657274206f6e20756e6578706563746564206f72646572206861736865818901527f73206c656e677468000000000000000000000000000000000000000000000000818c0152608490fd5b81358152908201908201610229565b8380fd5b5080fd5b8c80fd5b50601f81161561019e565b8b80fd5b8a80fd5b8980fd5b8680fd5b8480fd5b8580fd5b8280fd5b5082346104575760a07ffffffffffffffffffffffffffffffffffffffffffffffffffffffffffffffffc36011261045757610402611a04565b5061040b611a2c565b506084359067ffffffffffffffff8211610457575060209261042f91369101611a80565b5050517ff23a6e61000000000000000000000000000000000000000000000000000000008152f35b80fd5b83823461039a57817ffffffffffffffffffffffffffffffffffffffffffffffffffffffffffffffffc36011261039a5760209060ff60065460081c1690519015158152f35b50346103c557827ffffffffffffffffffffffffffffffffffffffffffffffffffffffffffffffffc3601126103c55760065460ff81161590811561051b575b506104f557826104ef600854611e03565b60085580f35b517f84b5ef6b000000000000000000000000000000000000000000000000000000008152fd5b60ff915060081c16386104de565b5082906101007ffffffffffffffffffffffffffffffffffffffffffffffffffffffffffffffffc36011261039a5761056036611cf1565b9261056a36611d6e565b90600692835460ff8116908115610a90575b506104f55785518481101561068c576106b8574760608701525b8551958487101561068c57606086549174ffffffffffffffffffffffffffffffffffffffff00988993602083015160ff7fffffffffffffffffffffff0000000000000000000000000000000000000000009c8d9260081b1693169116171788558381015160015501516002558351908582101561066057606095969760ff60035492602088015160081b169316911617176003558201519055015160055560017fffffffffffffffffffffffffffffffffffffffffffffffffffffffffffffff0082541617905580f35b6024876021867f4e487b7100000000000000000000000000000000000000000000000000000000835252fd5b6024866021857f4e487b7100000000000000000000000000000000000000000000000000000000835252fd5b85518481101561068c57600103610817576020868101516060808901805185517f23b872dd000000000000000000000000000000000000000000000000000000008152338882019081523081880152604081019290925273ffffffffffffffffffffffffffffffffffffffff948516949390918691839182910103818d885af1801561080d57916044918694936107f0575b5051918a875195869485937f095ea7b30000000000000000000000000000000000000000000000000000000085527f0000000000000000000000000000000000000000000000000000000000000000168b85015260248401525af180156107e6576107b8575b50505b610596565b816107d792903d106107df575b6107cf8183611cb0565b810190611deb565b5086806107b0565b503d6107c5565b83513d89823e3d90fd5b61080690853d87116107df576107cf8183611cb0565b508c61074a565b86513d8c823e3d90fd5b85518481101561068c576002036109645773ffffffffffffffffffffffffffffffffffffffff806020880151169082880151823b156109605783517f23b872dd00000000000000000000000000000000000000000000000000000000815233868201908152306020820152604081019290925290889082908190606001038183875af1801561095657908891610942575b5050813b156103b957869160448392855194859384927fa22cb4650000000000000000000000000000000000000000000000000000000084527f00000000000000000000000000000000000000000000000000000000000000001689840152600160248401525af1801561093857908691610924575050610596565b61092d90611c48565b6103bd5784876107b0565b82513d88823e3d90fd5b61094b90611c48565b6103b95786896108a8565b84513d8a823e3d90fd5b8780fd5b85518481101561068c576003036107b35773ffffffffffffffffffffffffffffffffffffffff806020880151169082880151606089015190833b15610a8c5784517ff242432a000000000000000000000000000000000000000000000000000000008152338782019081523060208201526040810192909252606082019290925260a06080820181905260009082015288908290819060c001038183875af1801561095657908891610942575050813b156103b957869160448392855194859384927fa22cb4650000000000000000000000000000000000000000000000000000000084527f00000000000000000000000000000000000000000000000000000000000000001689840152600160248401525af1801561093857908691610924575050610596565b8880fd5b60ff915060081c168761057c565b83823461039a57817ffffffffffffffffffffffffffffffffffffffffffffffffffffffffffffffffc36011261039a576020906008549051908152f35b50346103c557608092837ffffffffffffffffffffffffffffffffffffffffffffffffffffffffffffffffc36011261045757610b15611a04565b50602467ffffffffffffffff813581811161039657610b379036908701611a4f565b505060443581811161039657610b509036908701611a4f565b50506064359081116103c557610b699036908601611a80565b60065493915060ff841615908115610e22575b8115610de1575b8115610dd4575b50610dab57600754956001968701968781119788610d7f57610bab81611e77565b9760085483018084119283610d5457610bc8829397959892611f01565b9b85895b610cdd575b505050908392918794936003549773ffffffffffffffffffffffffffffffffffffffff60ff8a169960081c1694815496600554985b610c4b575b508e8e610c478f8f7fffffffffffffffffffffffffffffffffffffffffffffffffffffffffffff00ff6101009116176006555192839283611b5f565b0390f35b81610cb2578f86821015610cac5790610ca08f610ca6938e8e8e8e858f610c7e8a985196610c7888611bfd565b87611fe2565b602086015284015260608301523090820152610c9a8383611fce565b52611fce565b50611e03565b8b610c06565b50610c0b565b50506011907f4e487b7100000000000000000000000000000000000000000000000000000000835252fd5b81999698949399610d2957908c82848995941015610d1c57610ca081610d0f93610d05611fee565b610c9a8383611fce565b9091929993949896610bcc565b5050989293979598610bd1565b89896011877f4e487b7100000000000000000000000000000000000000000000000000000000835252fd5b87876011857f4e487b7100000000000000000000000000000000000000000000000000000000835252fd5b5050506011857f4e487b7100000000000000000000000000000000000000000000000000000000835252fd5b505050517f84b5ef6b000000000000000000000000000000000000000000000000000000008152fd5b601f915016151538610b8a565b337f000000000000000000000000000000000000000000000000000000000000000073ffffffffffffffffffffffffffffffffffffffff1614159150610b83565b905060ff8460081c1690610b7c565b50346103c557827ffffffffffffffffffffffffffffffffffffffffffffffffffffffffffffffffc3601126103c55760065460ff811615908115610e90575b506104f55782610e81600754611e03565b60075560025460011c60025580f35b60ff915060081c1638610e70565b83823461039a57817ffffffffffffffffffffffffffffffffffffffffffffffffffffffffffffffffc36011261039a5760209060ff6006541690519015158152f35b5082903461039a576101207ffffffffffffffffffffffffffffffffffffffffffffffffffffffffffffffffc36011261039a57610f1c36611cf1565b92610f2636611d6e565b906101043592600693845460ff81169081156112ae575b50611287578651858110156106605783036111385773ffffffffffffffffffffffffffffffffffffffff8060208901511691823b156109605783517f23b872dd00000000000000000000000000000000000000000000000000000000815233868201908152306020820152604081019290925290889082908190606001038183875af1801561095657908891611124575b5050813b156103b957869160448392855194859384927fa22cb4650000000000000000000000000000000000000000000000000000000084527f00000000000000000000000000000000000000000000000000000000000000001689840152600160248401525af1801561093857908691611110575b50508551958487101561068c57606086549174ffffffffffffffffffffffffffffffffffffffff00988993602083015160ff7fffffffffffffffffffffff0000000000000000000000000000000000000000009c8d9260081b1693169116171788558381015160015501516002558351908582101561066057606095969760ff60035492602088015160081b169316911617176003558201519055015160055560017fffffffffffffffffffffffffffffffffffffffffffffffffffffffffffffff0082541617905580f35b61111990611c48565b6103bd578487611044565b61112d90611c48565b6103b9578689610fce565b86518581101561066057600514611150575b50610596565b73ffffffffffffffffffffffffffffffffffffffff8060208901511691606089015190833b15610a8c5784517ff242432a000000000000000000000000000000000000000000000000000000008152338782019081523060208201526040810192909252606082019290925260a06080820181905260009082015288908290819060c001038183875af1801561095657611274575b50813b156103b957869160448392855194859384927fa22cb4650000000000000000000000000000000000000000000000000000000084527f00000000000000000000000000000000000000000000000000000000000000001689840152600160248401525af1801561093857908691611260575b5061114a565b61126990611c48565b6103bd57848761125a565b61128090979197611c48565b95886111e5565b50517f84b5ef6b000000000000000000000000000000000000000000000000000000008152fd5b60ff915060081c1688610f3d565b5090346103c557827ffffffffffffffffffffffffffffffffffffffffffffffffffffffffffffffffc3601126103c55760065460ff8116159081156114e8575b50156113455750610c47815161131181611c94565b8381529282519061132182611c94565b81525b6113378351948486958652850190611aea565b908382036020850152611aea565b906007549160019283019384841194856114bc5761136281611e77565b9582865b61147e575b50505090919260085481019081811180611452579282949361138d8394611e77565b95826003549673ffffffffffffffffffffffffffffffffffffffff60ff89169860081c1693815495600554975b6113d2575b50505050505050505050610c4790611324565b81611426578b8582101561142057908a61140f828e8b866113fb61141a985196610c7888611c5c565b8c60208701528501528c6060850152611fce565b52610ca0818d611fce565b886113ba565b506113bf565b6024846011857f4e487b7100000000000000000000000000000000000000000000000000000000835252fd5b6024846011877f4e487b7100000000000000000000000000000000000000000000000000000000835252fd5b8161145257828110156114b757906114af87939261149a611fee565b6114a4828c611fce565b52610ca0818b611fce565b909192611366565b61136b565b5060116024927f4e487b7100000000000000000000000000000000000000000000000000000000835252fd5b60ff915060081c16386112fc565b5082903461039a5760a07ffffffffffffffffffffffffffffffffffffffffffffffffffffffffffffffffc36011261039a57611530611a04565b611538611a2c565b5067ffffffffffffffff6044358181116103bd576115599036908701611a4f565b50506064358181116103bd576115729036908701611a4f565b50506084359081116103965761158b9036908601611a80565b90506006549160ff8316159283156117ae575b508215611768575b50811561175b575b50611733576007549260019384019283851194856114bc576115cf85611e77565b946008548201938483119182611707576115ec8692959496611f01565b9884875b611697575b5050509082918593926003549573ffffffffffffffffffffffffffffffffffffffff60ff88169760081c1693815495600554975b61163c575b8a5180610c478f8f83611b5f565b81611426578c858210156116915790610ca08161168b938c8f8061166c8e92519361166685611bfd565b84611fe2565b8c60208401528201528c6060820152306080820152610c9a8383611fce565b89611629565b5061162e565b8197959693976116db5790818387949310156116d057808b61140f6116c4936116be611fee565b92611fce565b909192979396956115f0565b5096929594966115f5565b6024876011867f4e487b7100000000000000000000000000000000000000000000000000000000835252fd5b6024856011847f4e487b7100000000000000000000000000000000000000000000000000000000835252fd5b9050517f84b5ef6b000000000000000000000000000000000000000000000000000000008152fd5b601f9150161515846115ae565b90915073ffffffffffffffffffffffffffffffffffffffff807f0000000000000000000000000000000000000000000000000000000000000000169116141590856115a6565b60081c60ff1692508661159e565b83823461039a57817ffffffffffffffffffffffffffffffffffffffffffffffffffffffffffffffffc36011261039a576020906007549051908152f35b84929150346103c557827ffffffffffffffffffffffffffffffffffffffffffffffffffffffffffffffffc3601126103c55761183481611c78565b600190818152835b6020808210156118a35784519085820182811067ffffffffffffffff821117611877578652868252606082820152838301015260200161183c565b60248860418b7f4e487b7100000000000000000000000000000000000000000000000000000000835252fd5b828585886105396118b385611f92565b51528251926118c184611c94565b818452602093846118d187611f92565b5101528051936118e085611c78565b601385527f54657374436f6e74726163744f666665726572000000000000000000000000008186015261191b825195838752838701906119a6565b858103828701528651928382528282019083808660051b850101990195925b85841061194757888a0389f35b9091929394959685806119938c7fffffffffffffffffffffffffffffffffffffffffffffffffffffffffffffffe086869f0301885286838d5180518452015191818582015201906119a6565b9b9901979695919091019301919061193a565b919082519283825260005b8481106119f05750507fffffffffffffffffffffffffffffffffffffffffffffffffffffffffffffffe0601f8460006020809697860101520116010190565b6020818301810151848301820152016119b1565b6004359073ffffffffffffffffffffffffffffffffffffffff82168203611a2757565b600080fd5b6024359073ffffffffffffffffffffffffffffffffffffffff82168203611a2757565b9181601f84011215611a275782359167ffffffffffffffff8311611a27576020808501948460071b010111611a2757565b9181601f84011215611a275782359167ffffffffffffffff8311611a275760208381860195010111611a2757565b906006821015611abb5752565b7f4e487b7100000000000000000000000000000000000000000000000000000000600052602160045260246000fd5b90815180825260208080930193019160005b828110611b0a575050505090565b909192938260806001928751611b21828251611aae565b8084015173ffffffffffffffffffffffffffffffffffffffff1682850152604080820151908301526060908101519082015201950193929101611afc565b611b7160409283835283830190611aea565b90602090818184039101528080855193848152019401926000905b838210611b9b57505050505090565b90919293948360a06001928851611bb3828251611aae565b8084015173ffffffffffffffffffffffffffffffffffffffff9081168386015286820151878401526060808301519084015260809182015116908201520196019493920190611b8c565b60a0810190811067ffffffffffffffff821117611c1957604052565b7f4e487b7100000000000000000000000000000000000000000000000000000000600052604160045260246000fd5b67ffffffffffffffff8111611c1957604052565b6080810190811067ffffffffffffffff821117611c1957604052565b6040810190811067ffffffffffffffff821117611c1957604052565b6020810190811067ffffffffffffffff821117611c1957604052565b90601f7fffffffffffffffffffffffffffffffffffffffffffffffffffffffffffffffe0910116810190811067ffffffffffffffff821117611c1957604052565b7ffffffffffffffffffffffffffffffffffffffffffffffffffffffffffffffffc6080910112611a275760405190611d2882611c5c565b816004356006811015611a2757815260243573ffffffffffffffffffffffffffffffffffffffff81168103611a2757602082015260443560408201526060606435910152565b7fffffffffffffffffffffffffffffffffffffffffffffffffffffffffffffff7c6080910112611a275760405190611da582611c5c565b816084356006811015611a2757815260a43573ffffffffffffffffffffffffffffffffffffffff81168103611a2757602082015260c4356040820152606060e435910152565b90816020910312611a2757518015158103611a275790565b7fffffffffffffffffffffffffffffffffffffffffffffffffffffffffffffffff8114611e305760010190565b7f4e487b7100000000000000000000000000000000000000000000000000000000600052601160045260246000fd5b67ffffffffffffffff8111611c195760051b60200190565b90611e8182611e5f565b604090611e9082519182611cb0565b8381527fffffffffffffffffffffffffffffffffffffffffffffffffffffffffffffffe0611ebe8295611e5f565b019160005b838110611ed05750505050565b6020908251611ede81611c5c565b600081528260008183015260008583015260006060830152828601015201611ec3565b90611f0b82611e5f565b604090611f1a82519182611cb0565b8381527fffffffffffffffffffffffffffffffffffffffffffffffffffffffffffffffe0611f488295611e5f565b019160005b838110611f5a5750505050565b6020908251611f6881611bfd565b60008152826000818301526000858301526000606083015260006080830152828601015201611f4d565b805115611f9f5760200190565b7f4e487b7100000000000000000000000000000000000000000000000000000000600052603260045260246000fd5b8051821015611f9f5760209160051b010190565b6006821015611abb5752565b60405190611ffb82611c5c565b8173ffffffffffffffffffffffffffffffffffffffff60005461202160ff821684611fe2565b60081c1660208201526001546040820152606060025491015256fea164736f6c6343000811000a",
  "linkReferences": {},
  "deployedLinkReferences": {}
}