{
  "_format": "hh-sol-artifact-1",
  "contractName": "TestPostExecution",
  "sourceName": "contracts/test/TestPostExecution.sol",
  "abi": [
    {
      "inputs": [],
      "name": "getSeaportMetadata",
      "outputs": [
        {
          "internalType": "string",
          "name": "name",
          "type": "string"
        },
        {
          "components": [
            {
              "internalType": "uint256",
              "name": "id",
              "type": "uint256"
            },
            {
              "internalType": "bytes",
              "name": "metadata",
              "type": "bytes"
            }
          ],
          "internalType": "struct Schema[]",
          "name": "schemas",
          "type": "tuple[]"
        }
      ],
      "stateMutability": "pure",
      "type": "function"
    },
    {
      "inputs": [
        {
          "components": [
            {
              "internalType": "bytes32",
              "name": "orderHash",
              "type": "bytes32"
            },
            {
              "internalType": "address",
              "name": "fulfiller",
              "type": "address"
            },
            {
              "internalType": "address",
              "name": "offerer",
              "type": "address"
            },
            {
              "components": [
                {
                  "internalType": "enum ItemType",
                  "name": "itemType",
                  "type": "uint8"
                },
                {
                  "internalType": "address",
                  "name": "token",
                  "type": "address"
                },
                {
                  "internalType": "uint256",
                  "name": "identifier",
                  "type": "uint256"
                },
                {
                  "internalType": "uint256",
                  "name": "amount",
                  "type": "uint256"
                }
              ],
              "internalType": "struct SpentItem[]",
              "name": "offer",
              "type": "tuple[]"
            },
            {
              "components": [
                {
                  "internalType": "enum ItemType",
                  "name": "itemType",
                  "type": "uint8"
                },
                {
                  "internalType": "address",
                  "name": "token",
                  "type": "address"
                },
                {
                  "internalType": "uint256",
                  "name": "identifier",
                  "type": "uint256"
                },
                {
                  "internalType": "uint256",
                  "name": "amount",
                  "type": "uint256"
                },
                {
                  "internalType": "address payable",
                  "name": "recipient",
                  "type": "address"
                }
              ],
              "internalType": "struct ReceivedItem[]",
              "name": "consideration",
              "type": "tuple[]"
            },
            {
              "internalType": "bytes",
              "name": "extraData",
              "type": "bytes"
            },
            {
              "internalType": "bytes32[]",
              "name": "orderHashes",
              "type": "bytes32[]"
            },
            {
              "internalType": "uint256",
              "name": "startTime",
              "type": "uint256"
            },
            {
              "internalType": "uint256",
              "name": "endTime",
              "type": "uint256"
            },
            {
              "internalType": "bytes32",
              "name": "zoneHash",
              "type": "bytes32"
            }
          ],
          "internalType": "struct ZoneParameters",
          "name": "zoneParameters",
          "type": "tuple"
        }
      ],
      "name": "validateOrder",
      "outputs": [
        {
          "internalType": "bytes4",
          "name": "validOrderMagicValue",
          "type": "bytes4"
        }
      ],
      "stateMutability": "view",
      "type": "function"
    }
  ],
  "bytecode": "0x60808060405234610016576108b1908161001c8239f35b600080fdfe60806040908082526004918236101561001757600080fd5b600091823560e01c90816317b1f9421461022d5750632e778efc1461003b57600080fd5b3461022957817ffffffffffffffffffffffffffffffffffffffffffffffffffffffffffffffffc3601126102295780516100748161081d565b600190818152835b6020808210156100e35784519085820182811067ffffffffffffffff8211176100b7578652868252606082820152838301015260200161007c565b60248860418b7f4e487b7100000000000000000000000000000000000000000000000000000000835252fd5b5050919093610bbb6100f484610868565b515281516020918282019082821067ffffffffffffffff8311176101fd575083929593969496528281528461012887610868565b5101528051936101378561081d565b601185527f54657374506f7374457865637574696f6e0000000000000000000000000000008186015261017282519583875283870190610766565b858103828701528651928382528282019083808660051b850101990195925b85841061019e57888a0389f35b9091929394959685806101ea8c7fffffffffffffffffffffffffffffffffffffffffffffffffffffffffffffffe086869f0301885286838d518051845201519181858201520190610766565b9b99019796959190910193019190610191565b8660416024927f4e487b7100000000000000000000000000000000000000000000000000000000835252fd5b5080fd5b84848434610229576020937ffffffffffffffffffffffffffffffffffffffffffffffffffffffffffffffffc9085823601126107625767ffffffffffffffff91853583811161075e5761014081880192823603011261075e576084019161029483836107c4565b9050156107045750906102a6916107c4565b939093156106d85760a0843603126106d55782519160a08301838110828211176106a957845284356006811015610672578352868501359473ffffffffffffffffffffffffffffffffffffffff928387169687810361022957898601528582013580878701526080606087019360608101358552013593858516850361067257608087019485528a8851809a81947f6352211e0000000000000000000000000000000000000000000000000000000083528d83015260249b8c915afa9182918493610611575b50506103f35760848960398a8d8b51937f08c379a00000000000000000000000000000000000000000000000000000000085528401528201527f556e737570706f7274656420636f6e73696465726174696f6e20746f6b656e2060448201527f7479706520286d75737420696d706c656d656e742037323129000000000000006064820152fd5b9796959794519060068210156105e6575060020361056557517fffffffffffffffffffffffffffffffffffffffffffffffffffffffffffffffff016104e457518116911603610464575050517f17b1f942000000000000000000000000000000000000000000000000000000008152f35b608493602b929351937f08c379a00000000000000000000000000000000000000000000000000000000085528401528201527f56616c696469747920636865636b20706572666f726d6564207072696f72207460448201527f6f20657865637574696f6e0000000000000000000000000000000000000000006064820152fd5b6084856029868a8a51937f08c379a00000000000000000000000000000000000000000000000000000000085528401528201527f52657475726e6564206974656d20616d6f756e7420696e636f72726563746c7960448201527f206d6f64696669656400000000000000000000000000000000000000000000006064820152fd5b6084866033878b8b51937f08c379a00000000000000000000000000000000000000000000000000000000085528401528201527f56616c696469747920636865636b20706572666f726d6564207769746820756e60448201527f737570706f72746564206974656d2074797065000000000000000000000000006064820152fd5b806021897f4e487b71000000000000000000000000000000000000000000000000000000008a945252fd5b909192508b903d8d116106a1575b601f82017fffffffffffffffffffffffffffffffffffffffffffffffffffffffffffffffe016830190811183821017610676578c9183918b52810103126106725751858116810361067257908b8061036c565b8280fd5b8a8560418e7f4e487b7100000000000000000000000000000000000000000000000000000000835252fd5b3d915061061f565b6024836041897f4e487b7100000000000000000000000000000000000000000000000000000000835252fd5b80fd5b806032867f4e487b71000000000000000000000000000000000000000000000000000000006024945252fd5b8088887f08c379a00000000000000000000000000000000000000000000000000000000060649452820152601f60248201527f4e6f20636f6e73696465726174696f6e206974656d7320737570706c696564006044820152fd5b8580fd5b8380fd5b919082519283825260005b8481106107b05750507fffffffffffffffffffffffffffffffffffffffffffffffffffffffffffffffe0601f8460006020809697860101520116010190565b602081830181015184830182015201610771565b9035907fffffffffffffffffffffffffffffffffffffffffffffffffffffffffffffffe181360301821215610818570180359067ffffffffffffffff8211610818576020019160a082023603831361081857565b600080fd5b6040810190811067ffffffffffffffff82111761083957604052565b7f4e487b7100000000000000000000000000000000000000000000000000000000600052604160045260246000fd5b8051156108755760200190565b7f4e487b7100000000000000000000000000000000000000000000000000000000600052603260045260246000fdfea164736f6c6343000811000a",
  "linkReferences": {},
  "deployedLinkReferences": {}
}