{
  "_format": "hh-sol-artifact-1",
  "contractName": "TestERC1155Revert",
  "sourceName": "contracts/test/TestERC1155Revert.sol",
  "abi": [
    {
      "inputs": [],
      "name": "getRevertData",
      "outputs": [
        {
          "internalType": "bytes",
          "name": "",
          "type": "bytes"
        }
      ],
      "stateMutability": "pure",
      "type": "function"
    },
    {
      "inputs": [
        {
          "internalType": "address",
          "name": "",
          "type": "address"
        },
        {
          "internalType": "address",
          "name": "",
          "type": "address"
        },
        {
          "internalType": "uint256[]",
          "name": "",
          "type": "uint256[]"
        },
        {
          "internalType": "uint256[]",
          "name": "",
          "type": "uint256[]"
        },
        {
          "internalType": "bytes",
          "name": "",
          "type": "bytes"
        }
      ],
      "name": "safeBatchTransferFrom",
      "outputs": [],
      "stateMutability": "pure",
      "type": "function"
    },
    {
      "inputs": [
        {
          "internalType": "address",
          "name": "",
          "type": "address"
        },
        {
          "internalType": "address",
          "name": "",
          "type": "address"
        },
        {
          "internalType": "uint256",
          "name": "",
          "type": "uint256"
        },
        {
          "internalType": "uint256",
          "name": "",
          "type": "uint256"
        },
        {
          "internalType": "bytes",
          "name": "",
          "type": "bytes"
        }
      ],
      "name": "safeTransferFrom",
      "outputs": [],
      "stateMutability": "pure",
      "type": "function"
    }
  ],
  "bytecode": "0x6080806040523461001657610463908161001c8239f35b600080fdfe60806040526004361015610013575b600080fd5b6000803560e01c9081631f6e5539146101585781632eb2c2d614610049575063f242432a1461004157600080fd5b61000e6102ce565b9050346101555760a07ffffffffffffffffffffffffffffffffffffffffffffffffffffffffffffffffc36011261015557610082610197565b5061008b6101ba565b5067ffffffffffffffff604435818111610151576100ad90369060040161025e565b50606435818111610151576100c690369060040161025e565b50608435908082116101515736602383011215610151578160040135908111610144575b61011b60207fffffffffffffffffffffffffffffffffffffffffffffffffffffffffffffffe0601f8401160161020d565b818152366024838501011161014057816024602094018483013701015261000e6103d1565b8380fd5b61014c6101dd565b6100ea565b8280fd5b80fd5b3461015557807ffffffffffffffffffffffffffffffffffffffffffffffffffffffffffffffffc36011261015557806210002091604052621000008152f35b6004359073ffffffffffffffffffffffffffffffffffffffff8216820361000e57565b6024359073ffffffffffffffffffffffffffffffffffffffff8216820361000e57565b507f4e487b7100000000000000000000000000000000000000000000000000000000600052604160045260246000fd5b907fffffffffffffffffffffffffffffffffffffffffffffffffffffffffffffffe0601f604051930116820182811067ffffffffffffffff82111761025157604052565b6102596101dd565b604052565b81601f8201121561000e5780359167ffffffffffffffff83116102c1575b8260051b602092838061029081850161020d565b80978152019282010192831161000e578301905b8282106102b2575050505090565b813581529083019083016102a4565b6102c96101dd565b61027c565b503461000e5760a07ffffffffffffffffffffffffffffffffffffffffffffffffffffffffffffffffc36011261000e57610306610197565b5061030f6101ba565b5060843567ffffffffffffffff80821161000e573660238301121561000e57816004013590811161000e573691016024011161000e576101446040517f08c379a00000000000000000000000000000000000000000000000000000000081526020600482015261010060248201527f61616161616161616161616161616161616161616161616161616161616161618060448301528060648301528060848301528060a48301528060c48301528060e483015280610104830152610124820152fd5b5060846040517f08c379a000000000000000000000000000000000000000000000000000000000815260206004820152602f60248201527f536f6d65204552433131353520726576657274206d65737361676520666f722060448201527f6261746368207472616e736665727300000000000000000000000000000000006064820152fdfea164736f6c6343000811000a",
  "linkReferences": {},
  "deployedLinkReferences": {}
}