{
  "_format": "hh-sol-artifact-1",
  "contractName": "TestTransferValidationZoneOfferer",
  "sourceName": "contracts/test/TestTransferValidationZoneOfferer.sol",
  "abi": [
    {
      "inputs": [
        {
          "internalType": "address",
          "name": "expectedOfferRecipient",
          "type": "address"
        }
      ],
      "stateMutability": "nonpayable",
      "type": "constructor"
    },
    {
      "inputs": [
        {
          "internalType": "uint256",
          "name": "expectedBalance",
          "type": "uint256"
        },
        {
          "internalType": "uint256",
          "name": "actualBalance",
          "type": "uint256"
        }
      ],
      "name": "IncorrectSeaportBalance",
      "type": "error"
    },
    {
      "inputs": [
        {
          "internalType": "uint256",
          "name": "expectedBalance",
          "type": "uint256"
        },
        {
          "internalType": "uint256",
          "name": "actualBalance",
          "type": "uint256"
        },
        {
          "internalType": "address",
          "name": "checkedAddress",
          "type": "address"
        },
        {
          "internalType": "address",
          "name": "checkedToken",
          "type": "address"
        }
      ],
      "name": "InvalidERC1155Balance",
      "type": "error"
    },
    {
      "inputs": [
        {
          "internalType": "uint256",
          "name": "expectedBalance",
          "type": "uint256"
        },
        {
          "internalType": "uint256",
          "name": "actualBalance",
          "type": "uint256"
        },
        {
          "internalType": "address",
          "name": "checkedAddress",
          "type": "address"
        },
        {
          "internalType": "address",
          "name": "checkedToken",
          "type": "address"
        }
      ],
      "name": "InvalidERC20Balance",
      "type": "error"
    },
    {
      "inputs": [
        {
          "internalType": "uint256",
          "name": "expectedBalance",
          "type": "uint256"
        },
        {
          "internalType": "uint256",
          "name": "actualBalance",
          "type": "uint256"
        },
        {
          "internalType": "address",
          "name": "checkedAddress",
          "type": "address"
        }
      ],
      "name": "InvalidNativeTokenBalance",
      "type": "error"
    },
    {
      "inputs": [
        {
          "internalType": "address",
          "name": "expectedOwner",
          "type": "address"
        },
        {
          "internalType": "address",
          "name": "actualOwner",
          "type": "address"
        },
        {
          "internalType": "address",
          "name": "checkedToken",
          "type": "address"
        },
        {
          "internalType": "uint256",
          "name": "checkedTokenId",
          "type": "uint256"
        }
      ],
      "name": "InvalidOwner",
      "type": "error"
    },
    {
      "inputs": [],
      "name": "callCount",
      "outputs": [
        {
          "internalType": "uint256",
          "name": "",
          "type": "uint256"
        }
      ],
      "stateMutability": "view",
      "type": "function"
    },
    {
      "inputs": [],
      "name": "called",
      "outputs": [
        {
          "internalType": "bool",
          "name": "",
          "type": "bool"
        }
      ],
      "stateMutability": "view",
      "type": "function"
    },
    {
      "inputs": [
        {
          "internalType": "address",
          "name": "",
          "type": "address"
        },
        {
          "components": [
            {
              "internalType": "enum ItemType",
              "name": "itemType",
              "type": "uint8"
            },
            {
              "internalType": "address",
              "name": "token",
              "type": "address"
            },
            {
              "internalType": "uint256",
              "name": "identifier",
              "type": "uint256"
            },
            {
              "internalType": "uint256",
              "name": "amount",
              "type": "uint256"
            }
          ],
          "internalType": "struct SpentItem[]",
          "name": "a",
          "type": "tuple[]"
        },
        {
          "components": [
            {
              "internalType": "enum ItemType",
              "name": "itemType",
              "type": "uint8"
            },
            {
              "internalType": "address",
              "name": "token",
              "type": "address"
            },
            {
              "internalType": "uint256",
              "name": "identifier",
              "type": "uint256"
            },
            {
              "internalType": "uint256",
              "name": "amount",
              "type": "uint256"
            }
          ],
          "internalType": "struct SpentItem[]",
          "name": "b",
          "type": "tuple[]"
        },
        {
          "internalType": "bytes",
          "name": "c",
          "type": "bytes"
        }
      ],
      "name": "generateOrder",
      "outputs": [
        {
          "components": [
            {
              "internalType": "enum ItemType",
              "name": "itemType",
              "type": "uint8"
            },
            {
              "internalType": "address",
              "name": "token",
              "type": "address"
            },
            {
              "internalType": "uint256",
              "name": "identifier",
              "type": "uint256"
            },
            {
              "internalType": "uint256",
              "name": "amount",
              "type": "uint256"
            }
          ],
          "internalType": "struct SpentItem[]",
          "name": "offer",
          "type": "tuple[]"
        },
        {
          "components": [
            {
              "internalType": "enum ItemType",
              "name": "itemType",
              "type": "uint8"
            },
            {
              "internalType": "address",
              "name": "token",
              "type": "address"
            },
            {
              "internalType": "uint256",
              "name": "identifier",
              "type": "uint256"
            },
            {
              "internalType": "uint256",
              "name": "amount",
              "type": "uint256"
            },
            {
              "internalType": "address payable",
              "name": "recipient",
              "type": "address"
            }
          ],
          "internalType": "struct ReceivedItem[]",
          "name": "consideration",
          "type": "tuple[]"
        }
      ],
      "stateMutability": "nonpayable",
      "type": "function"
    },
    {
      "inputs": [],
      "name": "getSeaportMetadata",
      "outputs": [
        {
          "internalType": "string",
          "name": "name",
          "type": "string"
        },
        {
          "components": [
            {
              "internalType": "uint256",
              "name": "id",
              "type": "uint256"
            },
            {
              "internalType": "bytes",
              "name": "metadata",
              "type": "bytes"
            }
          ],
          "internalType": "struct Schema[]",
          "name": "schemas",
          "type": "tuple[]"
        }
      ],
      "stateMutability": "pure",
      "type": "function"
    },
    {
      "inputs": [
        {
          "internalType": "address",
          "name": "",
          "type": "address"
        },
        {
          "internalType": "address",
          "name": "",
          "type": "address"
        },
        {
          "components": [
            {
              "internalType": "enum ItemType",
              "name": "itemType",
              "type": "uint8"
            },
            {
              "internalType": "address",
              "name": "token",
              "type": "address"
            },
            {
              "internalType": "uint256",
              "name": "identifier",
              "type": "uint256"
            },
            {
              "internalType": "uint256",
              "name": "amount",
              "type": "uint256"
            }
          ],
          "internalType": "struct SpentItem[]",
          "name": "a",
          "type": "tuple[]"
        },
        {
          "components": [
            {
              "internalType": "enum ItemType",
              "name": "itemType",
              "type": "uint8"
            },
            {
              "internalType": "address",
              "name": "token",
              "type": "address"
            },
            {
              "internalType": "uint256",
              "name": "identifier",
              "type": "uint256"
            },
            {
              "internalType": "uint256",
              "name": "amount",
              "type": "uint256"
            }
          ],
          "internalType": "struct SpentItem[]",
          "name": "b",
          "type": "tuple[]"
        },
        {
          "internalType": "bytes",
          "name": "",
          "type": "bytes"
        }
      ],
      "name": "previewOrder",
      "outputs": [
        {
          "components": [
            {
              "internalType": "enum ItemType",
              "name": "itemType",
              "type": "uint8"
            },
            {
              "internalType": "address",
              "name": "token",
              "type": "address"
            },
            {
              "internalType": "uint256",
              "name": "identifier",
              "type": "uint256"
            },
            {
              "internalType": "uint256",
              "name": "amount",
              "type": "uint256"
            }
          ],
          "internalType": "struct SpentItem[]",
          "name": "offer",
          "type": "tuple[]"
        },
        {
          "components": [
            {
              "internalType": "enum ItemType",
              "name": "itemType",
              "type": "uint8"
            },
            {
              "internalType": "address",
              "name": "token",
              "type": "address"
            },
            {
              "internalType": "uint256",
              "name": "identifier",
              "type": "uint256"
            },
            {
              "internalType": "uint256",
              "name": "amount",
              "type": "uint256"
            },
            {
              "internalType": "address payable",
              "name": "recipient",
              "type": "address"
            }
          ],
          "internalType": "struct ReceivedItem[]",
          "name": "consideration",
          "type": "tuple[]"
        }
      ],
      "stateMutability": "view",
      "type": "function"
    },
    {
      "inputs": [
        {
          "components": [
            {
              "internalType": "enum ItemType",
              "name": "itemType",
              "type": "uint8"
            },
            {
              "internalType": "address",
              "name": "token",
              "type": "address"
            },
            {
              "internalType": "uint256",
              "name": "identifier",
              "type": "uint256"
            },
            {
              "internalType": "uint256",
              "name": "amount",
              "type": "uint256"
            }
          ],
          "internalType": "struct SpentItem[]",
          "name": "minimumReceived",
          "type": "tuple[]"
        },
        {
          "components": [
            {
              "internalType": "enum ItemType",
              "name": "itemType",
              "type": "uint8"
            },
            {
              "internalType": "address",
              "name": "token",
              "type": "address"
            },
            {
              "internalType": "uint256",
              "name": "identifier",
              "type": "uint256"
            },
            {
              "internalType": "uint256",
              "name": "amount",
              "type": "uint256"
            },
            {
              "internalType": "address payable",
              "name": "recipient",
              "type": "address"
            }
          ],
          "internalType": "struct ReceivedItem[]",
          "name": "maximumSpent",
          "type": "tuple[]"
        },
        {
          "internalType": "bytes",
          "name": "context",
          "type": "bytes"
        },
        {
          "internalType": "bytes32[]",
          "name": "",
          "type": "bytes32[]"
        },
        {
          "internalType": "uint256",
          "name": "",
          "type": "uint256"
        }
      ],
      "name": "ratifyOrder",
      "outputs": [
        {
          "internalType": "bytes4",
          "name": "",
          "type": "bytes4"
        }
      ],
      "stateMutability": "nonpayable",
      "type": "function"
    },
    {
      "inputs": [
        {
          "components": [
            {
              "internalType": "bytes32",
              "name": "orderHash",
              "type": "bytes32"
            },
            {
              "internalType": "address",
              "name": "fulfiller",
              "type": "address"
            },
            {
              "internalType": "address",
              "name": "offerer",
              "type": "address"
            },
            {
              "components": [
                {
                  "internalType": "enum ItemType",
                  "name": "itemType",
                  "type": "uint8"
                },
                {
                  "internalType": "address",
                  "name": "token",
                  "type": "address"
                },
                {
                  "internalType": "uint256",
                  "name": "identifier",
                  "type": "uint256"
                },
                {
                  "internalType": "uint256",
                  "name": "amount",
                  "type": "uint256"
                }
              ],
              "internalType": "struct SpentItem[]",
              "name": "offer",
              "type": "tuple[]"
            },
            {
              "components": [
                {
                  "internalType": "enum ItemType",
                  "name": "itemType",
                  "type": "uint8"
                },
                {
                  "internalType": "address",
                  "name": "token",
                  "type": "address"
                },
                {
                  "internalType": "uint256",
                  "name": "identifier",
                  "type": "uint256"
                },
                {
                  "internalType": "uint256",
                  "name": "amount",
                  "type": "uint256"
                },
                {
                  "internalType": "address payable",
                  "name": "recipient",
                  "type": "address"
                }
              ],
              "internalType": "struct ReceivedItem[]",
              "name": "consideration",
              "type": "tuple[]"
            },
            {
              "internalType": "bytes",
              "name": "extraData",
              "type": "bytes"
            },
            {
              "internalType": "bytes32[]",
              "name": "orderHashes",
              "type": "bytes32[]"
            },
            {
              "internalType": "uint256",
              "name": "startTime",
              "type": "uint256"
            },
            {
              "internalType": "uint256",
              "name": "endTime",
              "type": "uint256"
            },
            {
              "internalType": "bytes32",
              "name": "zoneHash",
              "type": "bytes32"
            }
          ],
          "internalType": "struct ZoneParameters",
          "name": "zoneParameters",
          "type": "tuple"
        }
      ],
      "name": "validateOrder",
      "outputs": [
        {
          "internalType": "bytes4",
          "name": "validOrderMagicValue",
          "type": "bytes4"
        }
      ],
      "stateMutability": "nonpayable",
      "type": "function"
    }
  ],
  "bytecode": "0x60803461007557601f6116c838819003918201601f19168301916001600160401b0383118484101761007a5780849260209460405283398101031261007557516001600160a01b0381169081900361007557600054600060015560018060a81b0319161760005560405161163790816100918239f35b600080fd5b634e487b7160e01b600052604160045260246000fdfe6080604081815260048036101561001557600080fd5b600092833560e01c90816317b1f94214610933575080632e778efc146106c05780634b28f9a21461068357806350f9b6cd14610640578063582d42411461044b578063989197651461024b5763f4dd92ce1461007057600080fd5b346102475760a07ffffffffffffffffffffffffffffffffffffffffffffffffffffffffffffffffc3601126102475767ffffffffffffffff9080358281116101fe576100bf9036908301610b9c565b91602435848111610243573660238201121561024357808201359085821161023f5736602460a084028301011161023f57604435868111610237576101079036908501610bcd565b93909660643581811161023b573660238201121561023b578083013591821161023b57602490369260051b0101116102375733318061020257505090602461014f9201610f4b565b6014116101fe5784546020959374010000000000000000000000000000000000000000937fffffffffffffffffffffff00ffffffffffffffffffffffffffffffffffffffff936101bf9273ffffffffffffffffffffffffffffffffffffffff8516806101f757503560601c61107b565b161790556101ce600154610d61565b600155517ff4dd92ce000000000000000000000000000000000000000000000000000000008152f35b905061107b565b8480fd5b60449250898951927f4d3b8ba30000000000000000000000000000000000000000000000000000000084528301526024820152fd5b8880fd5b8a80fd5b8780fd5b8680fd5b8280fd5b50919034610447576080807ffffffffffffffffffffffffffffffffffffffffffffffffffffffffffffffffc36011261024757610286610b53565b5067ffffffffffffffff92602435848111610447576102a89036908701610b9c565b94604435818111610443576102c09036908901610b9c565b9790916064359081116101fe576102d991369101610bcd565b50506102e487610e49565b966102f186519889610e08565b8088527fffffffffffffffffffffffffffffffffffffffffffffffffffffffffffffffe061031e82610e49565b01845b81811061042c575050835b81811061039a5750505061033f85610e49565b9461034c85519687610e08565b8086526020918287019160071b8101933685116103975750905b83821061037f5785518061037b8a8a83610c37565b0390f35b82859161038c3685610e61565b815201910190610366565b80fd5b6103a5818385610f3b565b6103ad610f10565b50803590600682101561024357906104279291602073ffffffffffffffffffffffffffffffffffffffff6103e2828401610d40565b8c51946103ee86610dbd565b85521690830152898101358a830152606080910135908201523088820152610416828c610efc565b52610421818b610efc565b50610d61565b61032c565b602090610437610f10565b82828d01015201610321565b8380fd5b5080fd5b509190346104475760a07ffffffffffffffffffffffffffffffffffffffffffffffffffffffffffffffffc36011261044757610485610b53565b5073ffffffffffffffffffffffffffffffffffffffff91602435838116036103975767ffffffffffffffff92604435848111610247576104c89036908701610b9c565b9490916064358281116101fe576104e29036908901610b9c565b97909260843590811161063c576104fb91369101610bcd565b505061050687610e49565b9661051386519889610e08565b8088527fffffffffffffffffffffffffffffffffffffffffffffffffffffffffffffffe061054082610e49565b01855b818110610625575050845b8181106105b7575050505061056284610e49565b9361056f84519586610e08565b8085526020918286019160071b8101933685116103975750905b83821061059e5784518061037b898983610c37565b826080916105ac3685610e61565b815201910190610589565b6105c2818386610f3b565b6105ca610f10565b50803590600682101561023f579061062092916020866105eb828401610d40565b8c51946105f786610dbd565b85521690830152898101358a83015260608091013590820152306080820152610416828c610efc565b61054e565b602090610630610f10565b82828d01015201610543565b8580fd5b50503461044757817ffffffffffffffffffffffffffffffffffffffffffffffffffffffffffffffffc3601126104475760ff6020925460a01c1690519015158152f35b50503461044757817ffffffffffffffffffffffffffffffffffffffffffffffffffffffffffffffffc360112610447576020906001549051908152f35b50913461039757807ffffffffffffffffffffffffffffffffffffffffffffffffffffffffffffffffc360112610397578151916060938484019267ffffffffffffffff9385811085821117610907578352602185526020917f546573745472616e7366657256616c69646174696f6e5a6f6e654f6666657265838701527f720000000000000000000000000000000000000000000000000000000000000084870152835194848601868110828211176108db578552600197888752835b85811061088757505061053961079287610ec0565b51528451918483019182118383101761085b57508493929497959752838152816107bb88610ec0565b5101526107d082519583875283870190610af5565b858103828701528651928382528282019083808660051b850101990195925b8584106107fc57888a0389f35b9091929394959685806108488c7fffffffffffffffffffffffffffffffffffffffffffffffffffffffffffffffe086869f0301885286838d518051845201519181858201520190610af5565b9b990197969591909101930191906107ef565b8360416024927f4e487b7100000000000000000000000000000000000000000000000000000000835252fd5b8651878101818110858211176108af578852858152868101839052888201870152850161077d565b6024876041887f4e487b7100000000000000000000000000000000000000000000000000000000835252fd5b6024846041857f4e487b7100000000000000000000000000000000000000000000000000000000835252fd5b5060416024927f4e487b7100000000000000000000000000000000000000000000000000000000835252fd5b905034610443577ffffffffffffffffffffffffffffffffffffffffffffffffffffffffffffffffc916020833601126101fe5780359067ffffffffffffffff92838311610243576101408336039586011261024357333180610ac45750507fffffffffffffffffffffffffffffffffffffffffffffffffffffffffffffffdd608483013594019384811215610243578201818101359084821161023f576024019060a081023603821361023f576109e991610f4b565b85549373ffffffffffffffffffffffffffffffffffffffff851680610abe5750610a1560248401610d40565b925b60648101359182121561023f57019081013592831161063c57602401908260071b3603821361063c5792610a8674010000000000000000000000000000000000000000937fffffffffffffffffffffff00ffffffffffffffffffffffffffffffffffffffff936020989661107b565b16179055610a95600154610d61565b600155517f17b1f942000000000000000000000000000000000000000000000000000000008152f35b92610a17565b876044937f4d3b8ba30000000000000000000000000000000000000000000000000000000084528301526024820152fd5b919082519283825260005b848110610b3f5750507fffffffffffffffffffffffffffffffffffffffffffffffffffffffffffffffe0601f8460006020809697860101520116010190565b602081830181015184830182015201610b00565b6004359073ffffffffffffffffffffffffffffffffffffffff82168203610b7657565b600080fd5b359073ffffffffffffffffffffffffffffffffffffffff82168203610b7657565b9181601f84011215610b765782359167ffffffffffffffff8311610b76576020808501948460071b010111610b7657565b9181601f84011215610b765782359167ffffffffffffffff8311610b765760208381860195010111610b7657565b906006821015610c085752565b7f4e487b7100000000000000000000000000000000000000000000000000000000600052602160045260246000fd5b906040908183019180845281518093526060938481019360208094019060005b818110610cea57505050828185039101528180865194858152019501936000915b848310610c885750505050505090565b9091929394958460a06001928951610ca1828251610bfb565b8084015173ffffffffffffffffffffffffffffffffffffffff90811683860152868201518784015287820151888401526080918201511690820152019701959493019190610c78565b909196939495866080600192878b51610d04838251610bfb565b8085015173ffffffffffffffffffffffffffffffffffffffff16838601528a8101518b8401520151888201529699960197969501929101610c57565b3573ffffffffffffffffffffffffffffffffffffffff81168103610b765790565b7fffffffffffffffffffffffffffffffffffffffffffffffffffffffffffffffff8114610d8e5760010190565b7f4e487b7100000000000000000000000000000000000000000000000000000000600052601160045260246000fd5b60a0810190811067ffffffffffffffff821117610dd957604052565b7f4e487b7100000000000000000000000000000000000000000000000000000000600052604160045260246000fd5b90601f7fffffffffffffffffffffffffffffffffffffffffffffffffffffffffffffffe0910116810190811067ffffffffffffffff821117610dd957604052565b67ffffffffffffffff8111610dd95760051b60200190565b9190826080910312610b76576040516080810181811067ffffffffffffffff821117610dd957604052809280356006811015610b765760609182918452610eaa60208201610b7b565b6020850152604081013560408501520135910152565b805115610ecd5760200190565b7f4e487b7100000000000000000000000000000000000000000000000000000000600052603260045260246000fd5b8051821015610ecd5760209160051b010190565b60405190610f1d82610dbd565b60006080838281528260208201528260408201528260608201520152565b9190811015610ecd5760071b0190565b90610f54610f10565b5060005b818110610f6457505050565b60a09081810284019182360312610b76576040805192610f8384610dbd565b8035916006831015610b7657828552602092610fa0848401610b7b565b9386019084825282840135928701838152606080860135908901948186526080809701359373ffffffffffffffffffffffffffffffffffffffff9485811698898203610b765761100b9c01528015600014611010575050505050506110069250516111dd565b610d61565b610f58565b949593946001810361102f57505050506110069450519151169061123e565b92935090916002810361104e57505050611006945051915116906113b2565b919450929150600314611066575b5050505050610d61565b6110719416916114a3565b388080808061105c565b919060409283516080810181811067ffffffffffffffff821117610dd95785526000948582526020938685840152868284015286606080940152865b8681106110c8575050505050505050565b6110dc366110d7838a86610f3b565b610e61565b805160068110156111b0579086868361110495941560001461110957506110069201516111dd565b6110b7565b90506001810361113c57508173ffffffffffffffffffffffffffffffffffffffff8a89611006950151920151169061123e565b6002810361116d57508173ffffffffffffffffffffffffffffffffffffffff8a8861100695015192015116906113b2565b60031461117c575b5050610d61565b81876111a99301519073ffffffffffffffffffffffffffffffffffffffff8b8983015192015116916114a3565b3886611175565b60248a7f4e487b710000000000000000000000000000000000000000000000000000000081526021600452fd5b90803182116111ea575050565b9073ffffffffffffffffffffffffffffffffffffffff8260649331604051937f1190a13400000000000000000000000000000000000000000000000000000000855260048501526024840152166044820152fd5b9092919273ffffffffffffffffffffffffffffffffffffffff93848216604051957f70a0823100000000000000000000000000000000000000000000000000000000908188528316908160048901526020978881602481875afa90811561137957600091611385575b5086116112b8575050505050509050565b87965090602487926040519485938492835260048301525afa94851561137957600095611346575b50506040517fee075b4a0000000000000000000000000000000000000000000000000000000081526004810193909352602483019390935273ffffffffffffffffffffffffffffffffffffffff92831660448301529091166064820152608490fd5b0390fd5b8181969293963d8311611372575b61135e8183610e08565b8101031261039757505192611342856112e0565b503d611354565b6040513d6000823e3d90fd5b908982813d83116113ab575b61139b8183610e08565b81010312610397575051386112a7565b503d611391565b9073ffffffffffffffffffffffffffffffffffffffff809116906040517f6352211e000000000000000000000000000000000000000000000000000000008152836004820152602081602481865afa8015611379578291600091611464575b50169316928084036114235750505050565b60849450604051937f38fb386a0000000000000000000000000000000000000000000000000000000085526004850152602484015260448301526064820152fd5b9091506020813d821161149b575b8161147f60209383610e08565b8101031261044757519082821682036103975750819038611411565b3d9150611472565b6040517efdd58e0000000000000000000000000000000000000000000000000000000080825273ffffffffffffffffffffffffffffffffffffffff8681166004840152602483018590529096956020959394909290918416908681604481855afa908115611379576000916115fd575b508511611524575050505050509050565b60405188815273ffffffffffffffffffffffffffffffffffffffff8416600482015260248101929092528590829060449082905afa948515611379576000956115ca575b50506040517f17720d600000000000000000000000000000000000000000000000000000000081526004810193909352602483019390935273ffffffffffffffffffffffffffffffffffffffff92831660448301529091166064820152608490fd5b8181969293963d83116115f6575b6115e28183610e08565b810103126103975750519261134285611568565b503d6115d8565b908782813d8311611623575b6116138183610e08565b8101031261039757505138611513565b503d61160956fea164736f6c6343000811000a",
  "linkReferences": {},
  "deployedLinkReferences": {}
}