{
  "_format": "hh-sol-artifact-1",
  "contractName": "ExchangeHandlerFacet",
  "sourceName": "contracts/protocol/facets/ExchangeHandlerFacet.sol",
  "abi": [
    {
      "anonymous": false,
      "inputs": [
        {
          "indexed": true,
          "internalType": "uint256",
          "name": "offerId",
          "type": "uint256"
        },
        {
          "indexed": true,
          "internalType": "uint256",
          "name": "buyerId",
          "type": "uint256"
        },
        {
          "indexed": true,
          "internalType": "uint256",
          "name": "exchangeId",
          "type": "uint256"
        },
        {
          "components": [
            {
              "internalType": "uint256",
              "name": "id",
              "type": "uint256"
            },
            {
              "internalType": "uint256",
              "name": "offerId",
              "type": "uint256"
            },
            {
              "internalType": "uint256",
              "name": "buyerId",
              "type": "uint256"
            },
            {
              "internalType": "uint256",
              "name": "finalizedDate",
              "type": "uint256"
            },
            {
              "components": [
                {
                  "internalType": "uint256",
                  "name": "committedDate",
                  "type": "uint256"
                },
                {
                  "internalType": "uint256",
                  "name": "validUntilDate",
                  "type": "uint256"
                },
                {
                  "internalType": "uint256",
                  "name": "redeemedDate",
                  "type": "uint256"
                },
                {
                  "internalType": "bool",
                  "name": "expired",
                  "type": "bool"
                }
              ],
              "internalType": "struct BosonTypes.Voucher",
              "name": "voucher",
              "type": "tuple"
            },
            {
              "internalType": "enum BosonTypes.ExchangeState",
              "name": "state",
              "type": "uint8"
            }
          ],
          "indexed": false,
          "internalType": "struct BosonTypes.Exchange",
          "name": "exchange",
          "type": "tuple"
        }
      ],
      "name": "BuyerCommitted",
      "type": "event"
    },
    {
      "anonymous": false,
      "inputs": [
        {
          "indexed": true,
          "internalType": "uint256",
          "name": "offerId",
          "type": "uint256"
        },
        {
          "indexed": true,
          "internalType": "uint256",
          "name": "buyerId",
          "type": "uint256"
        },
        {
          "indexed": true,
          "internalType": "uint256",
          "name": "exchangeId",
          "type": "uint256"
        }
      ],
      "name": "ExchangeCompleted",
      "type": "event"
    },
    {
      "anonymous": false,
      "inputs": [
        {
          "indexed": true,
          "internalType": "uint256",
          "name": "exchangeId",
          "type": "uint256"
        },
        {
          "indexed": true,
          "internalType": "address",
          "name": "exchangeToken",
          "type": "address"
        },
        {
          "indexed": false,
          "internalType": "uint256",
          "name": "amount",
          "type": "uint256"
        }
      ],
      "name": "ExchangeFee",
      "type": "event"
    },
    {
      "anonymous": false,
      "inputs": [
        {
          "indexed": true,
          "internalType": "uint256",
          "name": "entityId",
          "type": "uint256"
        },
        {
          "indexed": true,
          "internalType": "address",
          "name": "exchangeToken",
          "type": "address"
        },
        {
          "indexed": false,
          "internalType": "uint256",
          "name": "amount",
          "type": "uint256"
        }
      ],
      "name": "FundsEncumbered",
      "type": "event"
    },
    {
      "anonymous": false,
      "inputs": [
        {
          "indexed": true,
          "internalType": "uint256",
          "name": "exchangeId",
          "type": "uint256"
        },
        {
          "indexed": true,
          "internalType": "uint256",
          "name": "entityId",
          "type": "uint256"
        },
        {
          "indexed": true,
          "internalType": "address",
          "name": "exchangeToken",
          "type": "address"
        },
        {
          "indexed": false,
          "internalType": "uint256",
          "name": "amount",
          "type": "uint256"
        }
      ],
      "name": "FundsReleased",
      "type": "event"
    },
    {
      "anonymous": false,
      "inputs": [
        {
          "indexed": true,
          "internalType": "uint256",
          "name": "sellerId",
          "type": "uint256"
        },
        {
          "indexed": true,
          "internalType": "address",
          "name": "withdrawnTo",
          "type": "address"
        },
        {
          "indexed": true,
          "internalType": "address",
          "name": "tokenAddress",
          "type": "address"
        },
        {
          "indexed": false,
          "internalType": "uint256",
          "name": "amount",
          "type": "uint256"
        }
      ],
      "name": "FundsWithdrawn",
      "type": "event"
    },
    {
      "anonymous": false,
      "inputs": [
        {
          "indexed": true,
          "internalType": "uint256",
          "name": "offerId",
          "type": "uint256"
        },
        {
          "indexed": true,
          "internalType": "uint256",
          "name": "exchangeId",
          "type": "uint256"
        },
        {
          "indexed": true,
          "internalType": "address",
          "name": "canceledBy",
          "type": "address"
        }
      ],
      "name": "VoucherCanceled",
      "type": "event"
    },
    {
      "anonymous": false,
      "inputs": [
        {
          "indexed": true,
          "internalType": "uint256",
          "name": "offerId",
          "type": "uint256"
        },
        {
          "indexed": true,
          "internalType": "uint256",
          "name": "exchangeId",
          "type": "uint256"
        },
        {
          "indexed": true,
          "internalType": "address",
          "name": "expiredBy",
          "type": "address"
        }
      ],
      "name": "VoucherExpired",
      "type": "event"
    },
    {
      "anonymous": false,
      "inputs": [
        {
          "indexed": true,
          "internalType": "uint256",
          "name": "offerId",
          "type": "uint256"
        },
        {
          "indexed": true,
          "internalType": "uint256",
          "name": "exchangeId",
          "type": "uint256"
        },
        {
          "indexed": true,
          "internalType": "address",
          "name": "redeemedBy",
          "type": "address"
        }
      ],
      "name": "VoucherRedeemed",
      "type": "event"
    },
    {
      "anonymous": false,
      "inputs": [
        {
          "indexed": true,
          "internalType": "uint256",
          "name": "offerId",
          "type": "uint256"
        },
        {
          "indexed": true,
          "internalType": "uint256",
          "name": "exchangeId",
          "type": "uint256"
        },
        {
          "indexed": true,
          "internalType": "address",
          "name": "revokedBy",
          "type": "address"
        }
      ],
      "name": "VoucherRevoked",
      "type": "event"
    },
    {
      "anonymous": false,
      "inputs": [
        {
          "indexed": true,
          "internalType": "uint256",
          "name": "offerId",
          "type": "uint256"
        },
        {
          "indexed": true,
          "internalType": "uint256",
          "name": "exchangeId",
          "type": "uint256"
        },
        {
          "indexed": true,
          "internalType": "uint256",
          "name": "newBuyerId",
          "type": "uint256"
        }
      ],
      "name": "VoucherTransferred",
      "type": "event"
    },
    {
      "inputs": [
        {
          "internalType": "uint256",
          "name": "_exchangeId",
          "type": "uint256"
        }
      ],
      "name": "cancelVoucher",
      "outputs": [],
      "stateMutability": "nonpayable",
      "type": "function"
    },
    {
      "inputs": [
        {
          "internalType": "address payable",
          "name": "_buyer",
          "type": "address"
        },
        {
          "internalType": "uint256",
          "name": "_offerId",
          "type": "uint256"
        }
      ],
      "name": "commitToOffer",
      "outputs": [],
      "stateMutability": "payable",
      "type": "function"
    },
    {
      "inputs": [
        {
          "internalType": "uint256",
          "name": "_exchangeId",
          "type": "uint256"
        }
      ],
      "name": "completeExchange",
      "outputs": [],
      "stateMutability": "nonpayable",
      "type": "function"
    },
    {
      "inputs": [
        {
          "internalType": "uint256",
          "name": "_exchangeId",
          "type": "uint256"
        }
      ],
      "name": "expireVoucher",
      "outputs": [],
      "stateMutability": "nonpayable",
      "type": "function"
    },
    {
      "inputs": [
        {
          "internalType": "uint256",
          "name": "_exchangeId",
          "type": "uint256"
        }
      ],
      "name": "getExchange",
      "outputs": [
        {
          "internalType": "bool",
          "name": "exists",
          "type": "bool"
        },
        {
          "components": [
            {
              "internalType": "uint256",
              "name": "id",
              "type": "uint256"
            },
            {
              "internalType": "uint256",
              "name": "offerId",
              "type": "uint256"
            },
            {
              "internalType": "uint256",
              "name": "buyerId",
              "type": "uint256"
            },
            {
              "internalType": "uint256",
              "name": "finalizedDate",
              "type": "uint256"
            },
            {
              "components": [
                {
                  "internalType": "uint256",
                  "name": "committedDate",
                  "type": "uint256"
                },
                {
                  "internalType": "uint256",
                  "name": "validUntilDate",
                  "type": "uint256"
                },
                {
                  "internalType": "uint256",
                  "name": "redeemedDate",
                  "type": "uint256"
                },
                {
                  "internalType": "bool",
                  "name": "expired",
                  "type": "bool"
                }
              ],
              "internalType": "struct BosonTypes.Voucher",
              "name": "voucher",
              "type": "tuple"
            },
            {
              "internalType": "enum BosonTypes.ExchangeState",
              "name": "state",
              "type": "uint8"
            }
          ],
          "internalType": "struct BosonTypes.Exchange",
          "name": "exchange",
          "type": "tuple"
        }
      ],
      "stateMutability": "view",
      "type": "function"
    },
    {
      "inputs": [
        {
          "internalType": "uint256",
          "name": "_exchangeId",
          "type": "uint256"
        }
      ],
      "name": "getExchangeState",
      "outputs": [
        {
          "internalType": "bool",
          "name": "exists",
          "type": "bool"
        },
        {
          "internalType": "enum BosonTypes.ExchangeState",
          "name": "state",
          "type": "uint8"
        }
      ],
      "stateMutability": "view",
      "type": "function"
    },
    {
      "inputs": [],
      "name": "getNextExchangeId",
      "outputs": [
        {
          "internalType": "uint256",
          "name": "nextExchangeId",
          "type": "uint256"
        }
      ],
      "stateMutability": "view",
      "type": "function"
    },
    {
      "inputs": [],
      "name": "initialize",
      "outputs": [],
      "stateMutability": "nonpayable",
      "type": "function"
    },
    {
      "inputs": [
        {
          "internalType": "uint256",
          "name": "_exchangeId",
          "type": "uint256"
        }
      ],
      "name": "isExchangeFinalized",
      "outputs": [
        {
          "internalType": "bool",
          "name": "exists",
          "type": "bool"
        },
        {
          "internalType": "bool",
          "name": "isFinalized",
          "type": "bool"
        }
      ],
      "stateMutability": "view",
      "type": "function"
    },
    {
      "inputs": [
        {
          "internalType": "uint256",
          "name": "_exchangeId",
          "type": "uint256"
        },
        {
          "internalType": "address payable",
          "name": "_newBuyer",
          "type": "address"
        }
      ],
      "name": "onVoucherTransferred",
      "outputs": [],
      "stateMutability": "nonpayable",
      "type": "function"
    },
    {
      "inputs": [
        {
          "internalType": "uint256",
          "name": "_exchangeId",
          "type": "uint256"
        }
      ],
      "name": "redeemVoucher",
      "outputs": [],
      "stateMutability": "nonpayable",
      "type": "function"
    },
    {
      "inputs": [
        {
          "internalType": "uint256",
          "name": "_exchangeId",
          "type": "uint256"
        }
      ],
      "name": "revokeVoucher",
      "outputs": [],
      "stateMutability": "nonpayable",
      "type": "function"
    }
  ],
  "bytecode": "0x608060405234801561001057600080fd5b5061239f806100206000396000f3fe6080604052600436106100a75760003560e01c806358477db81161006457806358477db8146101ac57806379a5fea9146101cc5780637b02365d146101ec5780638129fc1c1461020c578063bed3ac5014610221578063e0cdab471461024157600080fd5b80630b9d5847146100ac57806318170b73146100e35780631c6d6b5e146101055780631f317d1c14610125578063309bb76214610138578063452ddd661461016f575b600080fd5b3480156100b857600080fd5b506100cc6100c7366004611f84565b61026f565b6040516100da929190611fd5565b60405180910390f35b3480156100ef57600080fd5b506101036100fe366004611f84565b610347565b005b34801561011157600080fd5b50610103610120366004611f84565b610401565b61010361013336600461206d565b6104d5565b34801561014457600080fd5b50610158610153366004611f84565b610967565b6040805192151583529015156020830152016100da565b34801561017b57600080fd5b507f236215f8ddaf4ac1232d1f2516766788cddc14962c93aafa73278d9e2e4497df546040519081526020016100da565b3480156101b857600080fd5b506101036101c7366004611f84565b610a8f565b3480156101d857600080fd5b506101036101e7366004611f84565b610bf4565b3480156101f857600080fd5b50610103610207366004612097565b610cc5565b34801561021857600080fd5b50610103610eff565b34801561022d57600080fd5b5061010361023c366004611f84565b61102a565b34801561024d57600080fd5b5061026161025c366004611f84565b611087565b6040516100da9291906120c3565b6000610279611f24565b6102828361116d565b806040518060c001604052908160008201548152602001600182015481526020016002820154815260200160038201548152602001600482016040518060800160405290816000820154815260200160018201548152602001600282015481526020016003820160009054906101000a900460ff16151515158152505081526020016008820160009054906101000a900460ff16600581111561032757610327611f9d565b600581111561033857610338611f9d565b81525050905091509150915091565b60006103548260006111b0565b6005810154604080518082019091526013815272159bdd58da195c881cdd1a5b1b081d985b1a59606a1b60208201529192504210156103af5760405162461bcd60e51b81526004016103a691906120e0565b60405180910390fd5b506103bb816002611280565b60078101805460ff19166001908117909155810154604051339184917ffc1d87d872a0fd52937f4d7f49dbb6a68ff196974fe4f74243005091935201ba90600090a45050565b600061040e8260006111b0565b905061041d8160020154611331565b600061042c82600101546113a7565b6009810154909250421080159150610448575060058201544211155b604051806060016040528060288152602001612342602891399061047f5760405162461bcd60e51b81526004016103a691906120e0565b5042600683015560088201805460ff1916600317905561049e836113e9565b6001820154604051339185917f34cd4b0d30098edaf14317aa89d9ce2d2a91b309b7d9b0aeb8cfa07aee4da5f290600090a4505050565b60408051808201909152600f81526e496e76616c6964206164647265737360881b60208201526001600160a01b0383166105225760405162461bcd60e51b81526004016103a691906120e0565b5060008061052f836113a7565b60408051808201909152600d81526c27379039bab1b41037b33332b960991b60208201529193509150826105765760405162461bcd60e51b81526004016103a691906120e0565b5080600701544210156040518060400160405280601a81526020017f4f66666572206973206e6f742079657420617661696c61626c65000000000000815250906105d35760405162461bcd60e51b81526004016103a691906120e0565b50600f81015460408051808201909152601581527413d999995c881a185cc81899595b881d9bda591959605a1b60208201529060ff16156106275760405162461bcd60e51b81526004016103a691906120e0565b50806008015442106040518060400160405280601181526020017013d999995c881a185cc8195e1c1a5c9959607a1b815250906106775760405162461bcd60e51b81526004016103a691906120e0565b5060008160060154116040518060400160405280601281526020017113d999995c881a185cc81cdbdb19081bdd5d60721b815250906106c95760405162461bcd60e51b81526004016103a691906120e0565b506000806106d686611460565b9094509150831561074f576106ea8261149d565b60018101546040805180820190915260168152754163636f756e74206d7573742062652061637469766560501b6020820152919350909150600160a01b900460ff166107495760405162461bcd60e51b81526004016103a691906120e0565b5061075e565b610758866114df565b90925090505b61076885836115a1565b7f236215f8ddaf4ac1232d1f2516766788cddc14962c93aafa73278d9e2e4497df8054600091826107988361214b565b9091555060008181527f14c87be183d40876b1316e67a92c4469522d68b1be15fad3f5453a003ce0952f60205260408120828155600181018990556002810186905560088101805460ff19169055426004820181905560098801549394509092111561080857856009015461080a565b425b905085600b01548161081c9190612166565b600583015560008881527f14c87be183d40876b1316e67a92c4469522d68b1be15fad3f5453a003ce09536602090815260408220805460018101825590835290822001849055600687018054916108728361217e565b9190505550600061088e6000805160206122d483398151915290565b6002015460405163b9be35a360e01b81526001600160a01b039091169150819063b9be35a3906108ef908790899060040191825280546020830152600101546001600160a01b038116604083015260a01c60ff161515606082015260800190565b600060405180830381600087803b15801561090957600080fd5b505af115801561091d573d6000803e3d6000fd5b5050505083868a7f12757a6b071aad31aab1ff2777b4093931cfd9c3d68496d8f120a8d3d7827a42866040516109539190612195565b60405180910390a450505050505050505050565b60008060006109758461116d565b90935090508261098b5750600093849350915050565b6005600882015460ff1660058111156109a6576109a6611f9d565b1415610a245760006109b78561173f565b915060019050600282015460ff1660048111156109d6576109d6611f9d565b14806109f9575060028082015460ff1660048111156109f7576109f7611f9d565b145b80610a1c57506004600282015460ff166004811115610a1a57610a1a611f9d565b145b925050610a89565b6001600882015460ff166005811115610a3f57610a3f611f9d565b1480610a6357506002600882015460ff166005811115610a6157610a61611f9d565b145b80610a8657506004600882015460ff166005811115610a8457610a84611f9d565b145b91505b50915091565b6000610a9c8260036111b0565b90506000610aad82600101546113a7565b915060009050610abb611781565b9050600080610ac9836117ed565b9092509050818015610ade5750808460010154145b15610b3d576006850154600090610af59042612207565b905084600a01548110156040518060600160405280602681526020016122ae6026913990610b365760405162461bcd60e51b81526004016103a691906120e0565b5050610bac565b600080610b4985611460565b9092509050818015610b5e5750866002015481145b604051806040016040528060138152602001722737ba10313abcb2b91037b91039b2b63632b960691b81525090610ba85760405162461bcd60e51b81526004016103a691906120e0565b5050505b610bb7856004611280565b8454600286015460018701546040517f02ed327deaf2a2cf4fce11e9f7770dd4961b8fa2c6b9c4e894850e7b9980f1e990600090a4505050505050565b6000610c018260006111b0565b90506000610c1282600101546113a7565b91506000905080610c22336117ed565b9092509050818015610c375750808360010154145b604051806040016040528060158152602001742737ba1039b2b63632b913b99037b832b930ba37b960591b81525090610c835760405162461bcd60e51b81526004016103a691906120e0565b50610c8f846001611280565b8254604051339187917ffb09d1805109373db23ec048b8a1437b982698a6b404677fdd56de67296c969390600090a45050505050565b7f43023f179164d629e1d761fb32e2db4dbd5ce417a23159d7da9cc7b56268928560007fc8fcad8db84d3cc18b4c41d551ea0ee66dd599cde068d998e57d5e09332c131c600481810154604051632474521560e21b81529182018590523360248301529192506001600160a01b03909116906391d148549060440160206040518083038186803b158015610d5857600080fd5b505afa158015610d6c573d6000803e3d6000fd5b505050506040513d601f19601f82011682018060405250810190610d90919061221e565b6040518060600160405280602781526020016122f46027913990610dc75760405162461bcd60e51b81526004016103a691906120e0565b506000610dd58560006111b0565b6005810154604080518082019091526013815272159bdd58da195c881a185cc8195e1c1a5c9959606a1b6020820152919250421115610e275760405162461bcd60e51b81526004016103a691906120e0565b506000806000610e3687611460565b90935091508215610eaf57610e4a8261149d565b60018101546040805180820190915260168152754163636f756e74206d7573742062652061637469766560501b6020820152919350909150600160a01b900460ff16610ea95760405162461bcd60e51b81526004016103a691906120e0565b50610ebc565b610eb8876114df565b5091505b60028401829055600184015460405183918a917f57d6bb236e827901491540f6116d1cbf79969f05f95dfe80547dcac74bf2068590600090a45050505050505050565b63619e9d2960e01b60008190527fe7ad30265b8084c731e610579d091ebe2886115e8a5cacb6b704e4392f48b2c160208181527fe82dff09db294c8fca0f6b1146d251a8ada5fb37e94741706c5210178a63bcaa54604080518082019091526013815272105b1c9958591e481a5b9a5d1a585b1a5e9959606a1b9281019290925260ff1615610fa15760405162461bcd60e51b81526004016103a691906120e0565b506001600160e01b0319821660009081526020828152604082208054600160ff19918216811790925563619e9d2960e01b9093527fc8fcad8db84d3cc18b4c41d551ea0ee66dd599cde068d998e57d5e09332c131f9091527f9dec5a0f98de37557a6848573700d135da45e1841bfb886cb14c86d1f616d0e380549092161790555050565b5050565b60006110378260006111b0565b90506110468160020154611331565b611051816002611280565b6001810154604051339184917f2e7d53ce2cb82535d2247e2f5359756f03654f806b81ad731ce0a276e80a65a090600090a45050565b600080611092611f24565b61109b8461116d565b806040518060c001604052908160008201548152602001600182015481526020016002820154815260200160038201548152602001600482016040518060800160405290816000820154815260200160018201548152602001600282015481526020016003820160009054906101000a900460ff16151515158152505081526020016008820160009054906101000a900460ff16600581111561114057611140611f9d565b600581111561115157611151611f9d565b905250919450909150508215610a895760a00151919391925050565b60008181527f14c87be183d40876b1316e67a92c4469522d68b1be15fad3f5453a003ce0952f6020526040812082158015906111a95750805483145b9150915091565b6000806111bc8461116d565b60408051808201909152601081526f4e6f20737563682065786368616e676560801b6020820152909350909150816112075760405162461bcd60e51b81526004016103a691906120e0565b5082600581111561121a5761121a611f9d565b600883015460ff16600581111561123357611233611f9d565b146040518060400160405280600d81526020016c496e76616c696420737461746560981b815250906112785760405162461bcd60e51b81526004016103a691906120e0565b505092915050565b600481600581111561129457611294611f9d565b14806112b1575060018160058111156112af576112af611f9d565b145b806112cd575060028160058111156112cb576112cb611f9d565b145b6112d657600080fd5b60088201805482919060ff191660018360058111156112f7576112f7611f9d565b0217905550426003830155600481600581111561131657611316611f9d565b14611326578154611326906113e9565b81546110269061182a565b600061133b611781565b9050600061134882611460565b60408051808201909152601a81527f4e6f742063757272656e7420766f756368657220686f6c646572000000000000602082015290925090508382146113a15760405162461bcd60e51b81526004016103a691906120e0565b50505050565b60008181527f14c87be183d40876b1316e67a92c4469522d68b1be15fad3f5453a003ce0952e6020526040812082158015906111a95750805483149150915091565b60006000805160206122d4833981519152600201546040516315cf966160e31b8152600481018490526001600160a01b039091169150819063ae7cb30890602401600060405180830381600087803b15801561144457600080fd5b505af1158015611458573d6000803e3d6000fd5b505050505050565b6001600160a01b031660009081527f14c87be183d40876b1316e67a92c4469522d68b1be15fad3f5453a003ce0953d602052604090205480151591565b60008181527f14c87be183d40876b1316e67a92c4469522d68b1be15fad3f5453a003ce095326020526040812082158015906111a95750805483149150915091565b6000807f236215f8ddaf4ac1232d1f2516766788cddc14962c93aafa73278d9e2e4497dd5460408051606081018252600081526001600160a01b038681166020830190815260018385019081529351631ab6c36760e21b815292516004840152511660248201529051151560448201529092503090636adb0d9c90606401600060405180830381600087803b15801561157757600080fd5b505af115801561158b573d6000803e3d6000fd5b505050506115988261149d565b92949293505050565b60008281527f14c87be183d40876b1316e67a92c4469522d68b1be15fad3f5453a003ce0952e60205260409020600c81015460028201546000805160206122d483398151915292916001600160a01b031690816116525760408051808201909152601781527f496e73756666696369656e742076616c75652073656e74000000000000000000602082015234821461164c5760405162461bcd60e51b81526004016103a691906120e0565b50611698565b3460001460405180606001604052806027815260200161231b602791399061168d5760405162461bcd60e51b81526004016103a691906120e0565b506116988282611b0b565b600183015460038401546116ad828583611c1e565b836001600160a01b0316877f35342c341fa2af23e0efb1fd2ea252143c7e0a1291e0b2f9f4831bb05e83c3e2856040516116e991815260200190565b60405180910390a3836001600160a01b0316827f35342c341fa2af23e0efb1fd2ea252143c7e0a1291e0b2f9f4831bb05e83c3e28360405161172d91815260200190565b60405180910390a35050505050505050565b60008181527f14c87be183d40876b1316e67a92c4469522d68b1be15fad3f5453a003ce095306020526040812082158015906111a95750805483149150915091565b7fe9dcaa2fe5baf791ce4ecec7dd9d0808a23bc6ff23c5765ca852976604bcea8c54600090600160a01b900460ff1680156117e65750507fe9dcaa2fe5baf791ce4ecec7dd9d0808a23bc6ff23c5765ca852976604bcea8c546001600160a01b031690565b3391505090565b6001600160a01b031660009081527f14c87be183d40876b1316e67a92c4469522d68b1be15fad3f5453a003ce0953a602052604090205480151591565b60008181527f14c87be183d40876b1316e67a92c4469522d68b1be15fad3f5453a003ce0952f602090815260408083206008810154600182015485527f14c87be183d40876b1316e67a92c4469522d68b1be15fad3f5453a003ce0952e909352908320600381015460028201546000805160206122d483398151915295939460ff16936118b78383612166565b60048086015491925060009081908860058111156118d7576118d7611f9d565b14156118ee576118e78385612207565b91506119de565b600188600581111561190257611902611f9d565b1415611919576119128385612207565b90506119de565b600288600581111561192d5761192d611f9d565b14156119615760058701546119428188612166565b92508361194f8288612207565b6119599190612207565b9150506119de565b60008b815260058b0160205260409020600281015460ff16600181600481111561198d5761198d611f9d565b14156119a45761199d8587612207565b93506119db565b60038201546127106119b68289612240565b6119c0919061225f565b9350856119cd8589612207565b6119d79190612207565b9450505b50505b600c870154600188015460028b01546001600160a01b03909216918415611a0a57611a0a828487611e55565b8315611a1b57611a1b818486611e55565b8515611a2d57611a2d60008488611e55565b826001600160a01b0316828f7fd5eb304362ffe48045a3ae2ed7e0d2cfed08eb62f44dc87c694d42606e8205d988604051611a6a91815260200190565b60405180910390a4826001600160a01b0316818f7fd5eb304362ffe48045a3ae2ed7e0d2cfed08eb62f44dc87c694d42606e8205d987604051611aaf91815260200190565b60405180910390a4826001600160a01b03168e7fc7aa611a29b3ec17de7ff0553e589175e79ce6ea668064fed40e5459ffd88b4488604051611af391815260200190565b60405180910390a35050505050505050505050505050565b6040516323b872dd60e01b8152336004820152306024820152604481018290526001600160a01b038316906323b872dd90606401602060405180830381600087803b158015611b5957600080fd5b505af1925050508015611b89575060408051601f3d908101601f19168201909252611b869181019061221e565b60015b611c19573d808015611bb7576040519150601f19603f3d011682016040523d82523d6000602084013e611bbc565b606091505b5060008151600014611bce5781611bfd565b60405180604001604052806015815260200174151bdad95b881d1c985b9cd9995c8819985a5b1959605a1b8152505b90508060405162461bcd60e51b81526004016103a691906120e0565b505050565b60008381527f14c87be183d40876b1316e67a92c4469522d68b1be15fad3f5453a003ce0953e602090815260408083206001600160a01b0386168452825291829020548251808401909352601c83527f496e73756666696369656e7420617661696c61626c652066756e647300000000918301919091526000805160206122d48339815191529183821015611cc65760405162461bcd60e51b81526004016103a691906120e0565b50611cd18382612207565b600086815260138401602090815260408083206001600160a01b038916845290915290205580831415611e4e576000858152601483016020526040812054905b81811015611e4b576000878152601485016020526040902080546001600160a01b038816919083908110611d4757611d47612281565b6000918252602090912001546001600160a01b03161415611e395760008781526014850160205260409020611d7d600184612207565b81548110611d8d57611d8d612281565b600091825260208083209091015489835260148701909152604090912080546001600160a01b039092169183908110611dc857611dc8612281565b600091825260208083209190910180546001600160a01b0319166001600160a01b0394909416939093179092558881526014860190915260409020805480611e1257611e12612297565b600082815260209020810160001990810180546001600160a01b0319169055019055611e4b565b80611e438161214b565b915050611d11565b50505b5050505050565b60008381527f14c87be183d40876b1316e67a92c4469522d68b1be15fad3f5453a003ce0953e602090815260408083206001600160a01b03861684529091529020546000805160206122d483398151915290611ee557600084815260148201602090815260408220805460018101825590835291200180546001600160a01b0319166001600160a01b0385161790555b600084815260138201602090815260408083206001600160a01b038716845290915281208054849290611f19908490612166565b909155505050505050565b6040518060c0016040528060008152602001600081526020016000815260200160008152602001611f7860405180608001604052806000815260200160008152602001600081526020016000151581525090565b81526020016000905290565b600060208284031215611f9657600080fd5b5035919050565b634e487b7160e01b600052602160045260246000fd5b60068110611fd157634e487b7160e01b600052602160045260246000fd5b9052565b6000610140820190508315158252825160208301526020830151604083015260408301516060830152606083015160808301526080830151805160a0840152602081015160c0840152604081015160e0840152606081015115156101008401525060a0830151612049610120840182611fb3565b509392505050565b80356001600160a01b038116811461206857600080fd5b919050565b6000806040838503121561208057600080fd5b61208983612051565b946020939093013593505050565b600080604083850312156120aa57600080fd5b823591506120ba60208401612051565b90509250929050565b8215158152604081016120d96020830184611fb3565b9392505050565b600060208083528351808285015260005b8181101561210d578581018301518582016040015282016120f1565b8181111561211f576000604083870101525b50601f01601f1916929092016040019392505050565b634e487b7160e01b600052601160045260246000fd5b600060001982141561215f5761215f612135565b5060010190565b6000821982111561217957612179612135565b500190565b60008161218d5761218d612135565b506000190190565b8154815260018201546020820152600282015460408201526003820154606082015260048201546080820152600582015460a0820152600682015460c0820152600782015460ff908116151560e0830152600883015461012083019116612200610100840182611fb3565b5092915050565b60008282101561221957612219612135565b500390565b60006020828403121561223057600080fd5b815180151581146120d957600080fd5b600081600019048311821515161561225a5761225a612135565b500290565b60008261227c57634e487b7160e01b600052601260045260246000fd5b500490565b634e487b7160e01b600052603260045260246000fd5b634e487b7160e01b600052603160045260246000fdfe46756c66696c6c6d656e7420706572696f6420686173206e6f742079657420656c617073656414c87be183d40876b1316e67a92c4469522d68b1be15fad3f5453a003ce0952b4163636573732064656e6965642c2063616c6c657220646f65736e2774206861766520726f6c655472616e73666572206f66206e61746976652063757272656e6379206e6f7420616c6c6f776564566f7563686572206e6f74207965742076616c6964206f7220616c72656164792065787069726564a26469706673582212208ce397b5405c9e50a794df46eaa2d7bc20c575188bcf2d17d9c0fc169fafd2c164736f6c63430008090033",
  "linkReferences": {},
  "deployedLinkReferences": {}
}