{
  "_format": "hh-sol-artifact-1",
  "contractName": "Test2FacetUpgrade",
  "sourceName": "contracts/mock/Test2FacetUpgrade.sol",
  "abi": [
    {
      "inputs": [],
      "name": "test2Func13",
      "outputs": [
        {
          "internalType": "string",
          "name": "",
          "type": "string"
        }
      ],
      "stateMutability": "pure",
      "type": "function"
    }
  ],
  "bytecode": "0x608060405234801561001057600080fd5b5060e28061001f6000396000f3fe6080604052348015600f57600080fd5b506004361060285760003560e01c80636dc16b0114602d575b600080fd5b60408051808201825260048152633539b7b760e11b6020820152905160519190605a565b60405180910390f35b600060208083528351808285015260005b81811015608557858101830151858201604001528201606b565b818111156096576000604083870101525b50601f01601f191692909201604001939250505056fea2646970667358221220e604105942fc7090b4acae065cd0da74a7ee00fb57b655c5a890f45b39e0958264736f6c63430008090033",
  "linkReferences": {},
  "deployedLinkReferences": {}
}