{
  "_format": "hh-sol-artifact-1",
  "contractName": "ClientProxy",
  "sourceName": "contracts/protocol/clients/proxy/ClientProxy.sol",
  "abi": [
    {
      "inputs": [
        {
          "internalType": "address",
          "name": "_accessController",
          "type": "address"
        },
        {
          "internalType": "address",
          "name": "_protocolAddress",
          "type": "address"
        },
        {
          "internalType": "address",
          "name": "_impl",
          "type": "address"
        }
      ],
      "stateMutability": "payable",
      "type": "constructor"
    },
    {
      "anonymous": false,
      "inputs": [
        {
          "indexed": true,
          "internalType": "address",
          "name": "accessController",
          "type": "address"
        }
      ],
      "name": "AccessControllerAddressChanged",
      "type": "event"
    },
    {
      "anonymous": false,
      "inputs": [
        {
          "indexed": true,
          "internalType": "address",
          "name": "protocol",
          "type": "address"
        }
      ],
      "name": "ProtocolAddressChanged",
      "type": "event"
    },
    {
      "anonymous": false,
      "inputs": [
        {
          "indexed": true,
          "internalType": "address",
          "name": "implementation",
          "type": "address"
        }
      ],
      "name": "Upgraded",
      "type": "event"
    },
    {
      "stateMutability": "payable",
      "type": "fallback"
    },
    {
      "inputs": [],
      "name": "getAccessController",
      "outputs": [
        {
          "internalType": "contract IAccessControlUpgradeable",
          "name": "",
          "type": "address"
        }
      ],
      "stateMutability": "view",
      "type": "function"
    },
    {
      "inputs": [],
      "name": "getImplementation",
      "outputs": [
        {
          "internalType": "address",
          "name": "",
          "type": "address"
        }
      ],
      "stateMutability": "view",
      "type": "function"
    },
    {
      "inputs": [],
      "name": "getProtocolAddress",
      "outputs": [
        {
          "internalType": "address",
          "name": "",
          "type": "address"
        }
      ],
      "stateMutability": "view",
      "type": "function"
    },
    {
      "inputs": [
        {
          "internalType": "address",
          "name": "_accessController",
          "type": "address"
        }
      ],
      "name": "setAccessController",
      "outputs": [],
      "stateMutability": "nonpayable",
      "type": "function"
    },
    {
      "inputs": [
        {
          "internalType": "address",
          "name": "_impl",
          "type": "address"
        }
      ],
      "name": "setImplementation",
      "outputs": [],
      "stateMutability": "nonpayable",
      "type": "function"
    },
    {
      "inputs": [
        {
          "internalType": "address",
          "name": "_protocolAddress",
          "type": "address"
        }
      ],
      "name": "setProtocolAddress",
      "outputs": [],
      "stateMutability": "nonpayable",
      "type": "function"
    },
    {
      "stateMutability": "payable",
      "type": "receive"
    }
  ],
  "bytecode": "0x608060405260405161063c38038061063c833981016040819052610022916100b9565b600061003661007960201b61036f1760201c565b80546001600160a01b03199081166001600160a01b03968716178255600182018054821695871695909517909455600201805490931691909316179055506100fc565b7f4ee902756e0fbbf751d7c038b700663c66663f4a2ac20663563b7be1539d086790565b80516001600160a01b03811681146100b457600080fd5b919050565b6000806000606084860312156100ce57600080fd5b6100d78461009d565b92506100e56020850161009d565b91506100f36040850161009d565b90509250925092565b6105318061010b6000396000f3fe6080604052600436106100595760003560e01c806307024c251461007057806316d6b5f6146100a157806358e47004146100b6578063aaf10f42146100d6578063d784d426146100eb578063f08391d81461010b57610068565b366100685761006661012b565b005b61006661012b565b34801561007c57600080fd5b5061008561013d565b6040516001600160a01b03909116815260200160405180910390f35b3480156100ad57600080fd5b5061008561015b565b3480156100c257600080fd5b506100666100d1366004610469565b610176565b3480156100e257600080fd5b50610085610221565b3480156100f757600080fd5b50610066610106366004610469565b610230565b34801561011757600080fd5b50610066610126366004610469565b6102d2565b61013b610136610393565b6103b1565b565b60008061014861036f565b600101546001600160a01b031692915050565b60008061016661036f565b546001600160a01b031692915050565b7fa615a8afb6fffcb8c6809ac0997b5c9c12b8cc97651150f14c8f6203168cff4c6101a0816103d5565b6101c55760405162461bcd60e51b81526004016101bc90610492565b60405180910390fd5b60006101cf61036f565b6001810180546001600160a01b0319166001600160a01b038616908117909155604051919250907f0410172bb445051e265a270ef7d96b9de8995003db692836c7d7bc39bff49a3e90600090a2505050565b600061022b610393565b905090565b7fa615a8afb6fffcb8c6809ac0997b5c9c12b8cc97651150f14c8f6203168cff4c61025a816103d5565b6102765760405162461bcd60e51b81526004016101bc90610492565b600061028061036f565b6002810180546001600160a01b0319166001600160a01b038616908117909155604051919250907fbc7cd75a20ee27fd9adebab32041f755214dbc6bffa90cc0225b39da2e5c2d3b90600090a2505050565b7fa615a8afb6fffcb8c6809ac0997b5c9c12b8cc97651150f14c8f6203168cff4c6102fc816103d5565b6103185760405162461bcd60e51b81526004016101bc90610492565b600061032261036f565b80546001600160a01b0319166001600160a01b0385169081178255604051919250907fd5076bfc25781c2cf803de09a872fcb20251466717413328ed5fa29875652f2690600090a2505050565b7f4ee902756e0fbbf751d7c038b700663c66663f4a2ac20663563b7be1539d086790565b60008061039e61036f565b600201546001600160a01b031692915050565b3660008037600080366000845af43d6000803e8080156103d0573d6000f35b3d6000fd5b6000806103e061036f565b8054604051632474521560e21b8152600481018690523360248201529192506001600160a01b0316906391d148549060440160206040518083038186803b15801561042a57600080fd5b505afa15801561043e573d6000803e3d6000fd5b505050506040513d601f19601f8201168201806040525081019061046291906104d9565b9392505050565b60006020828403121561047b57600080fd5b81356001600160a01b038116811461046257600080fd5b60208082526027908201527f4163636573732064656e6965642c2063616c6c657220646f65736e2774206861604082015266766520726f6c6560c81b606082015260800190565b6000602082840312156104eb57600080fd5b8151801515811461046257600080fdfea26469706673582212208abea17f8caa8a5a2a90367b83d249df8b3a33a252d3d8dd8b21e98356e673bc64736f6c63430008090033",
  "linkReferences": {},
  "deployedLinkReferences": {}
}