{
  "_format": "hh-sol-artifact-1",
  "contractName": "Test3Facet",
  "sourceName": "contracts/mock/Test3Facet.sol",
  "abi": [
    {
      "inputs": [],
      "name": "getTestAddress",
      "outputs": [
        {
          "internalType": "address",
          "name": "",
          "type": "address"
        }
      ],
      "stateMutability": "view",
      "type": "function"
    },
    {
      "inputs": [
        {
          "internalType": "address",
          "name": "_testAddress",
          "type": "address"
        }
      ],
      "name": "initialize",
      "outputs": [],
      "stateMutability": "nonpayable",
      "type": "function"
    },
    {
      "inputs": [],
      "name": "isInitialized",
      "outputs": [
        {
          "internalType": "bool",
          "name": "",
          "type": "bool"
        }
      ],
      "stateMutability": "view",
      "type": "function"
    }
  ],
  "bytecode": "0x608060405234801561001057600080fd5b506102b2806100206000396000f3fe608060405234801561001057600080fd5b50600436106100415760003560e01c8063392e53cd14610046578063c4d66de814610075578063d61478141461008a575b600080fd5b60008051602061025d83398151915254600160a01b900460ff1660405190151581526020015b60405180910390f35b6100886100833660046101d7565b6100b2565b005b60008051602061025d833981519152546040516001600160a01b03909116815260200161006c565b60008051602061025d8339815191528054604080518082019091526013815272105b1c9958591e481a5b9a5d1a585b1a5e9959606a1b602082015290600160a01b900460ff161561011f5760405162461bcd60e51b81526004016101169190610207565b60405180910390fd5b50805460ff60a01b1916600160a01b178155610144826001600160a01b03163b151590565b156101915760405162461bcd60e51b815260206004820152601c60248201527f416464726573732063616e6e6f74206265206120636f6e7472616374000000006044820152606401610116565b6001600160a01b0382163314156101a757600080fd5b5060008051602061025d83398151915280546001600160a01b0319166001600160a01b0392909216919091179055565b6000602082840312156101e957600080fd5b81356001600160a01b038116811461020057600080fd5b9392505050565b600060208083528351808285015260005b8181101561023457858101830151858201604001528201610218565b81811115610246576000604083870101525b50601f01601f191692909201604001939250505056fe1ee8f1df09e726d96ec0b4756ed47e47ee58af146edab904d23fba285ddb543da2646970667358221220c588d9dbd6f332b185eeac4c55cf12acf05a60b98a0ee6ffa918da6bbb53d39364736f6c63430008090033",
  "linkReferences": {},
  "deployedLinkReferences": {}
}