{
  "_format": "hh-sol-artifact-1",
  "contractName": "TestZone",
  "sourceName": "contracts/test/TestZone.sol",
  "abi": [
    {
      "inputs": [],
      "name": "getSeaportMetadata",
      "outputs": [
        {
          "internalType": "string",
          "name": "name",
          "type": "string"
        },
        {
          "components": [
            {
              "internalType": "uint256",
              "name": "id",
              "type": "uint256"
            },
            {
              "internalType": "bytes",
              "name": "metadata",
              "type": "bytes"
            }
          ],
          "internalType": "struct Schema[]",
          "name": "schemas",
          "type": "tuple[]"
        }
      ],
      "stateMutability": "pure",
      "type": "function"
    },
    {
      "inputs": [
        {
          "components": [
            {
              "internalType": "bytes32",
              "name": "orderHash",
              "type": "bytes32"
            },
            {
              "internalType": "address",
              "name": "fulfiller",
              "type": "address"
            },
            {
              "internalType": "address",
              "name": "offerer",
              "type": "address"
            },
            {
              "components": [
                {
                  "internalType": "enum ItemType",
                  "name": "itemType",
                  "type": "uint8"
                },
                {
                  "internalType": "address",
                  "name": "token",
                  "type": "address"
                },
                {
                  "internalType": "uint256",
                  "name": "identifier",
                  "type": "uint256"
                },
                {
                  "internalType": "uint256",
                  "name": "amount",
                  "type": "uint256"
                }
              ],
              "internalType": "struct SpentItem[]",
              "name": "offer",
              "type": "tuple[]"
            },
            {
              "components": [
                {
                  "internalType": "enum ItemType",
                  "name": "itemType",
                  "type": "uint8"
                },
                {
                  "internalType": "address",
                  "name": "token",
                  "type": "address"
                },
                {
                  "internalType": "uint256",
                  "name": "identifier",
                  "type": "uint256"
                },
                {
                  "internalType": "uint256",
                  "name": "amount",
                  "type": "uint256"
                },
                {
                  "internalType": "address payable",
                  "name": "recipient",
                  "type": "address"
                }
              ],
              "internalType": "struct ReceivedItem[]",
              "name": "consideration",
              "type": "tuple[]"
            },
            {
              "internalType": "bytes",
              "name": "extraData",
              "type": "bytes"
            },
            {
              "internalType": "bytes32[]",
              "name": "orderHashes",
              "type": "bytes32[]"
            },
            {
              "internalType": "uint256",
              "name": "startTime",
              "type": "uint256"
            },
            {
              "internalType": "uint256",
              "name": "endTime",
              "type": "uint256"
            },
            {
              "internalType": "bytes32",
              "name": "zoneHash",
              "type": "bytes32"
            }
          ],
          "internalType": "struct ZoneParameters",
          "name": "zoneParameters",
          "type": "tuple"
        }
      ],
      "name": "validateOrder",
      "outputs": [
        {
          "internalType": "bytes4",
          "name": "validOrderMagicValue",
          "type": "bytes4"
        }
      ],
      "stateMutability": "pure",
      "type": "function"
    }
  ],
  "bytecode": "0x608080604052346100165761090b908161001c8239f35b600080fdfe60406080815260048036101561001457600080fd5b600090813560e01c92836317b1f9421461004357505050632e778efc1461003b575b600080fd5b610036610516565b346101c2577ffffffffffffffffffffffffffffffffffffffffffffffffffffffffffffffffc60208136011261040f57823567ffffffffffffffff811161040b5761014081850192823603011261040b5760a481016100a281846105d0565b151590506101c65750905061012481013560018103610125576101218484519182917f08c379a0000000000000000000000000000000000000000000000000000000008352820160609060208152601560208201527f526576657274206f6e207a6f6e6520686173682031000000000000000000000060408201520190565b0390fd5b600291929350146101c257610124600391610197945b5001351461019b577f17b1f94200000000000000000000000000000000000000000000000000000000905b517fffffffff0000000000000000000000000000000000000000000000000000000090911681529081906020820190565b0390f35b7fffffffff0000000000000000000000000000000000000000000000000000000090610166565b8280fd5b846101d182856105d0565b905014600014610241576101218585519182917f08c379a0000000000000000000000000000000000000000000000000000000008352820160609060208152601c60208201527f526576657274206f6e20657874726144617461206c656e67746820340000000060408201520190565b600561025082859794956105d0565b90501460001461025e578580fd5b602061026e8287989596976105d0565b905011806103f5575b61028f575b505061019793506003916101249161013b565b61029c6102a491876105d0565b8101906106e9565b9485519560c48501906102b7828461075e565b9050880361036957845b8881106102d05750505061027c565b6102da8183610858565b516102ef826102e9868861075e565b9061087a565b3503610303576102fe906107b2565b6102c1565b6101218589519182917f08c379a0000000000000000000000000000000000000000000000000000000008352820160609060208152601f60208201527f526576657274206f6e20756e6578706563746564206f7264657220686173680060408201520190565b6101218488519182917f08c379a0000000000000000000000000000000000000000000000000000000008352820160809060208152602860208201527f526576657274206f6e20756e6578706563746564206f7264657220686173686560408201527f73206c656e67746800000000000000000000000000000000000000000000000060608201520190565b50601f61040282886105d0565b90501615610277565b8480fd5b8380fd5b919082519283825260005b84811061045d5750507fffffffffffffffffffffffffffffffffffffffffffffffffffffffffffffffe0601f8460006020809697860101520116010190565b60208183018101518483018201520161041e565b61048360409283835283830190610413565b906020908181840391015283519182815281810182808560051b8401019601946000925b8584106104b8575050505050505090565b909192939495968580610505837fffffffffffffffffffffffffffffffffffffffffffffffffffffffffffffffe0866001960301885286838d518051845201519181858201520190610413565b9901940194019295949391906104a7565b5034610036576000807ffffffffffffffffffffffffffffffffffffffffffffffffffffffffffffffffc3601126105cd5761054f610651565b9060018252805b602090818110156105815760209161056c610651565b90848252606081830152828601015201610556565b838051156105c0575b610bbb60208201515261059b610892565b60206105a68361083e565b5101526105b16108c9565b61019760405192839283610471565b6105c861080e565b61058a565b80fd5b9035907fffffffffffffffffffffffffffffffffffffffffffffffffffffffffffffffe181360301821215610036570180359067ffffffffffffffff82116100365760200191813603831361003657565b507f4e487b7100000000000000000000000000000000000000000000000000000000600052604160045260246000fd5b604051906040820182811067ffffffffffffffff82111761067157604052565b610679610621565b604052565b907fffffffffffffffffffffffffffffffffffffffffffffffffffffffffffffffe0601f604051930116820182811067ffffffffffffffff82111761067157604052565b60209067ffffffffffffffff81116106dc575b60051b0190565b6106e4610621565b6106d5565b60209081818403126100365780359067ffffffffffffffff821161003657019180601f84011215610036578235610727610722826106c2565b61067e565b93838086848152019260051b820101928311610036578301905b82821061074f575050505090565b81358152908301908301610741565b9035907fffffffffffffffffffffffffffffffffffffffffffffffffffffffffffffffe181360301821215610036570180359067ffffffffffffffff821161003657602001918160051b3603831361003657565b7fffffffffffffffffffffffffffffffffffffffffffffffffffffffffffffffff81146107df5760010190565b7f4e487b7100000000000000000000000000000000000000000000000000000000600052601160045260246000fd5b507f4e487b7100000000000000000000000000000000000000000000000000000000600052603260045260246000fd5b60209080511561084c570190565b61085461080e565b0190565b602091815181101561086d575b60051b010190565b61087561080e565b610865565b919081101561088a5760051b0190565b6106e461080e565b6040516020810181811067ffffffffffffffff8211176108bc575b60405260008152906000368137565b6108c4610621565b6108ad565b6108d1610651565b90600882527f546573745a6f6e65000000000000000000000000000000000000000000000000602083015256fea164736f6c6343000811000a",
  "linkReferences": {},
  "deployedLinkReferences": {}
}