{
  "_format": "hh-sol-artifact-1",
  "contractName": "BosonVoucher",
  "sourceName": "contracts/protocol/clients/voucher/BosonVoucher.sol",
  "abi": [
    {
      "anonymous": false,
      "inputs": [
        {
          "indexed": true,
          "internalType": "address",
          "name": "owner",
          "type": "address"
        },
        {
          "indexed": true,
          "internalType": "address",
          "name": "approved",
          "type": "address"
        },
        {
          "indexed": true,
          "internalType": "uint256",
          "name": "tokenId",
          "type": "uint256"
        }
      ],
      "name": "Approval",
      "type": "event"
    },
    {
      "anonymous": false,
      "inputs": [
        {
          "indexed": true,
          "internalType": "address",
          "name": "owner",
          "type": "address"
        },
        {
          "indexed": true,
          "internalType": "address",
          "name": "operator",
          "type": "address"
        },
        {
          "indexed": false,
          "internalType": "bool",
          "name": "approved",
          "type": "bool"
        }
      ],
      "name": "ApprovalForAll",
      "type": "event"
    },
    {
      "anonymous": false,
      "inputs": [
        {
          "indexed": true,
          "internalType": "address",
          "name": "from",
          "type": "address"
        },
        {
          "indexed": true,
          "internalType": "address",
          "name": "to",
          "type": "address"
        },
        {
          "indexed": true,
          "internalType": "uint256",
          "name": "tokenId",
          "type": "uint256"
        }
      ],
      "name": "Transfer",
      "type": "event"
    },
    {
      "inputs": [
        {
          "internalType": "address",
          "name": "to",
          "type": "address"
        },
        {
          "internalType": "uint256",
          "name": "tokenId",
          "type": "uint256"
        }
      ],
      "name": "approve",
      "outputs": [],
      "stateMutability": "nonpayable",
      "type": "function"
    },
    {
      "inputs": [
        {
          "internalType": "address",
          "name": "owner",
          "type": "address"
        }
      ],
      "name": "balanceOf",
      "outputs": [
        {
          "internalType": "uint256",
          "name": "",
          "type": "uint256"
        }
      ],
      "stateMutability": "view",
      "type": "function"
    },
    {
      "inputs": [
        {
          "internalType": "uint256",
          "name": "_exchangeId",
          "type": "uint256"
        }
      ],
      "name": "burnVoucher",
      "outputs": [],
      "stateMutability": "nonpayable",
      "type": "function"
    },
    {
      "inputs": [
        {
          "internalType": "uint256",
          "name": "tokenId",
          "type": "uint256"
        }
      ],
      "name": "getApproved",
      "outputs": [
        {
          "internalType": "address",
          "name": "",
          "type": "address"
        }
      ],
      "stateMutability": "view",
      "type": "function"
    },
    {
      "inputs": [],
      "name": "initialize",
      "outputs": [],
      "stateMutability": "nonpayable",
      "type": "function"
    },
    {
      "inputs": [
        {
          "internalType": "address",
          "name": "owner",
          "type": "address"
        },
        {
          "internalType": "address",
          "name": "operator",
          "type": "address"
        }
      ],
      "name": "isApprovedForAll",
      "outputs": [
        {
          "internalType": "bool",
          "name": "",
          "type": "bool"
        }
      ],
      "stateMutability": "view",
      "type": "function"
    },
    {
      "inputs": [
        {
          "internalType": "uint256",
          "name": "_exchangeId",
          "type": "uint256"
        },
        {
          "components": [
            {
              "internalType": "uint256",
              "name": "id",
              "type": "uint256"
            },
            {
              "internalType": "address payable",
              "name": "wallet",
              "type": "address"
            },
            {
              "internalType": "bool",
              "name": "active",
              "type": "bool"
            }
          ],
          "internalType": "struct BosonTypes.Buyer",
          "name": "_buyer",
          "type": "tuple"
        }
      ],
      "name": "issueVoucher",
      "outputs": [],
      "stateMutability": "nonpayable",
      "type": "function"
    },
    {
      "inputs": [],
      "name": "name",
      "outputs": [
        {
          "internalType": "string",
          "name": "",
          "type": "string"
        }
      ],
      "stateMutability": "view",
      "type": "function"
    },
    {
      "inputs": [
        {
          "internalType": "uint256",
          "name": "tokenId",
          "type": "uint256"
        }
      ],
      "name": "ownerOf",
      "outputs": [
        {
          "internalType": "address",
          "name": "",
          "type": "address"
        }
      ],
      "stateMutability": "view",
      "type": "function"
    },
    {
      "inputs": [
        {
          "internalType": "address",
          "name": "from",
          "type": "address"
        },
        {
          "internalType": "address",
          "name": "to",
          "type": "address"
        },
        {
          "internalType": "uint256",
          "name": "tokenId",
          "type": "uint256"
        }
      ],
      "name": "safeTransferFrom",
      "outputs": [],
      "stateMutability": "nonpayable",
      "type": "function"
    },
    {
      "inputs": [
        {
          "internalType": "address",
          "name": "from",
          "type": "address"
        },
        {
          "internalType": "address",
          "name": "to",
          "type": "address"
        },
        {
          "internalType": "uint256",
          "name": "tokenId",
          "type": "uint256"
        },
        {
          "internalType": "bytes",
          "name": "_data",
          "type": "bytes"
        }
      ],
      "name": "safeTransferFrom",
      "outputs": [],
      "stateMutability": "nonpayable",
      "type": "function"
    },
    {
      "inputs": [
        {
          "internalType": "address",
          "name": "operator",
          "type": "address"
        },
        {
          "internalType": "bool",
          "name": "approved",
          "type": "bool"
        }
      ],
      "name": "setApprovalForAll",
      "outputs": [],
      "stateMutability": "nonpayable",
      "type": "function"
    },
    {
      "inputs": [
        {
          "internalType": "bytes4",
          "name": "interfaceId",
          "type": "bytes4"
        }
      ],
      "name": "supportsInterface",
      "outputs": [
        {
          "internalType": "bool",
          "name": "",
          "type": "bool"
        }
      ],
      "stateMutability": "view",
      "type": "function"
    },
    {
      "inputs": [],
      "name": "symbol",
      "outputs": [
        {
          "internalType": "string",
          "name": "",
          "type": "string"
        }
      ],
      "stateMutability": "view",
      "type": "function"
    },
    {
      "inputs": [
        {
          "internalType": "uint256",
          "name": "_exchangeId",
          "type": "uint256"
        }
      ],
      "name": "tokenURI",
      "outputs": [
        {
          "internalType": "string",
          "name": "",
          "type": "string"
        }
      ],
      "stateMutability": "view",
      "type": "function"
    },
    {
      "inputs": [
        {
          "internalType": "address",
          "name": "from",
          "type": "address"
        },
        {
          "internalType": "address",
          "name": "to",
          "type": "address"
        },
        {
          "internalType": "uint256",
          "name": "tokenId",
          "type": "uint256"
        }
      ],
      "name": "transferFrom",
      "outputs": [],
      "stateMutability": "nonpayable",
      "type": "function"
    }
  ],
  "bytecode": "0x608060405234801561001057600080fd5b50611c48806100206000396000f3fe608060405234801561001057600080fd5b50600436106101005760003560e01c80638129fc1c11610097578063b88d4fde11610066578063b88d4fde14610212578063b9be35a314610225578063c87b56dd14610238578063e985e9c51461024b57600080fd5b80638129fc1c146101dc57806395d89b41146101e4578063a22cb465146101ec578063ae7cb308146101ff57600080fd5b806323b872dd116100d357806323b872dd1461018257806342842e0e146101955780636352211e146101a857806370a08231146101bb57600080fd5b806301ffc9a71461010557806306fdde031461012d578063081812fc14610142578063095ea7b31461016d575b600080fd5b610118610113366004611443565b610287565b60405190151581526020015b60405180910390f35b6101356102cd565b60405161012491906114b8565b6101556101503660046114cb565b61035f565b6040516001600160a01b039091168152602001610124565b61018061017b3660046114f9565b6103f9565b005b610180610190366004611525565b61050f565b6101806101a3366004611525565b610540565b6101556101b63660046114cb565b61055b565b6101ce6101c9366004611566565b6105d2565b604051908152602001610124565b610180610659565b6101356106af565b6101806101fa366004611591565b6106be565b61018061020d3660046114cb565b6106cd565b6101806102203660046116a9565b610738565b610180610233366004611758565b610770565b6101356102463660046114cb565b6107eb565b610118610259366004611790565b6001600160a01b039182166000908152606a6020908152604080832093909416825291909152205460ff1690565b60006001600160e01b031982166317c286ab60e01b14806102b857506001600160e01b0319821663c4c6c36b60e01b145b806102c757506102c782610826565b92915050565b6060606580546102dc906117be565b80601f0160208091040260200160405190810160405280929190818152602001828054610308906117be565b80156103555780601f1061032a57610100808354040283529160200191610355565b820191906000526020600020905b81548152906001019060200180831161033857829003601f168201915b5050505050905090565b6000818152606760205260408120546001600160a01b03166103dd5760405162461bcd60e51b815260206004820152602c60248201527f4552433732313a20617070726f76656420717565727920666f72206e6f6e657860448201526b34b9ba32b73a103a37b5b2b760a11b60648201526084015b60405180910390fd5b506000908152606960205260409020546001600160a01b031690565b60006104048261055b565b9050806001600160a01b0316836001600160a01b031614156104725760405162461bcd60e51b815260206004820152602160248201527f4552433732313a20617070726f76616c20746f2063757272656e74206f776e656044820152603960f91b60648201526084016103d4565b336001600160a01b038216148061048e575061048e8133610259565b6105005760405162461bcd60e51b815260206004820152603860248201527f4552433732313a20617070726f76652063616c6c6572206973206e6f74206f7760448201527f6e6572206e6f7220617070726f76656420666f7220616c6c000000000000000060648201526084016103d4565b61050a8383610876565b505050565b61051933826108e4565b6105355760405162461bcd60e51b81526004016103d4906117f9565b61050a8383836109d7565b61050a83838360405180602001604052806000815250610738565b6000818152606760205260408120546001600160a01b0316806102c75760405162461bcd60e51b815260206004820152602960248201527f4552433732313a206f776e657220717565727920666f72206e6f6e657869737460448201526832b73a103a37b5b2b760b91b60648201526084016103d4565b60006001600160a01b03821661063d5760405162461bcd60e51b815260206004820152602a60248201527f4552433732313a2062616c616e636520717565727920666f7220746865207a65604482015269726f206164647265737360b01b60648201526084016103d4565b506001600160a01b031660009081526068602052604090205490565b6106ad6040518060400160405280600d81526020016c2137b9b7b7102b37bab1b432b960991b8152506040518060400160405280600d81526020016c2127a9a7a72fab27aaa1a422a960991b815250610b7e565b565b6060606680546102dc906117be565b6106c9338383610c10565b5050565b7ff87e69cb514f255f3d32f9d90f25160a10d0cdefe6618a6406db334d4450595c6106f781610cdf565b604051806060016040528060278152602001611bec602791399061072e5760405162461bcd60e51b81526004016103d491906114b8565b506106c982610d8c565b61074233836108e4565b61075e5760405162461bcd60e51b81526004016103d4906117f9565b61076a84848484610e33565b50505050565b7ff87e69cb514f255f3d32f9d90f25160a10d0cdefe6618a6406db334d4450595c61079a81610cdf565b604051806060016040528060278152602001611bec60279139906107d15760405162461bcd60e51b81526004016103d491906114b8565b5061050a6107e56040840160208501611566565b84610e66565b60606000806107f984610fb4565b9150915081610817576040518060200160405280600081525061081e565b806101a001515b949350505050565b60006001600160e01b031982166380ac58cd60e01b148061085757506001600160e01b03198216635b5e139f60e01b145b806102c757506301ffc9a760e01b6001600160e01b03198316146102c7565b600081815260696020526040902080546001600160a01b0319166001600160a01b03841690811790915581906108ab8261055b565b6001600160a01b03167f8c5be1e5ebec7d5bd14f71427d1e84f3dd0314c0f7b2291e5b200ac8c7c3b92560405160405180910390a45050565b6000818152606760205260408120546001600160a01b031661095d5760405162461bcd60e51b815260206004820152602c60248201527f4552433732313a206f70657261746f7220717565727920666f72206e6f6e657860448201526b34b9ba32b73a103a37b5b2b760a11b60648201526084016103d4565b60006109688361055b565b9050806001600160a01b0316846001600160a01b031614806109a35750836001600160a01b03166109988461035f565b6001600160a01b0316145b8061081e57506001600160a01b038082166000908152606a602090815260408083209388168352929052205460ff1661081e565b826001600160a01b03166109ea8261055b565b6001600160a01b031614610a4e5760405162461bcd60e51b815260206004820152602560248201527f4552433732313a207472616e736665722066726f6d20696e636f72726563742060448201526437bbb732b960d91b60648201526084016103d4565b6001600160a01b038216610ab05760405162461bcd60e51b8152602060048201526024808201527f4552433732313a207472616e7366657220746f20746865207a65726f206164646044820152637265737360e01b60648201526084016103d4565b610abb8383836111a2565b610ac6600082610876565b6001600160a01b0383166000908152606860205260408120805460019290610aef908490611860565b90915550506001600160a01b0382166000908152606860205260408120805460019290610b1d908490611877565b909155505060008181526067602052604080822080546001600160a01b0319166001600160a01b0386811691821790925591518493918716917fddf252ad1be2c89b69c2b068fc378daa952ba7f163c4a11628f55a4df523b3ef91a4505050565b600054610100900460ff16610be95760405162461bcd60e51b815260206004820152602b60248201527f496e697469616c697a61626c653a20636f6e7472616374206973206e6f74206960448201526a6e697469616c697a696e6760a81b60648201526084016103d4565b8151610bfc906065906020850190611391565b50805161050a906066906020840190611391565b816001600160a01b0316836001600160a01b03161415610c725760405162461bcd60e51b815260206004820152601960248201527f4552433732313a20617070726f766520746f2063616c6c65720000000000000060448201526064016103d4565b6001600160a01b038381166000818152606a6020908152604080832094871680845294825291829020805460ff191686151590811790915591519182527f17307eab39ab6107e8899845ad3d59bd9653f200f220920489ca2b5937696c31910160405180910390a3505050565b6000807f4ee902756e0fbbf751d7c038b700663c66663f4a2ac20663563b7be1539d08678054604051632474521560e21b8152600481018690523360248201529192506001600160a01b0316906391d148549060440160206040518083038186803b158015610d4d57600080fd5b505afa158015610d61573d6000803e3d6000fd5b505050506040513d601f19601f82011682018060405250810190610d85919061189f565b9392505050565b6000610d978261055b565b9050610da5816000846111a2565b610db0600083610876565b6001600160a01b0381166000908152606860205260408120805460019290610dd9908490611860565b909155505060008281526067602052604080822080546001600160a01b0319169055518391906001600160a01b038416907fddf252ad1be2c89b69c2b068fc378daa952ba7f163c4a11628f55a4df523b3ef908390a45050565b610e3e8484846109d7565b610e4a848484846111d1565b61076a5760405162461bcd60e51b81526004016103d4906118bc565b6001600160a01b038216610ebc5760405162461bcd60e51b815260206004820181905260248201527f4552433732313a206d696e7420746f20746865207a65726f206164647265737360448201526064016103d4565b6000818152606760205260409020546001600160a01b031615610f215760405162461bcd60e51b815260206004820152601c60248201527f4552433732313a20746f6b656e20616c7265616479206d696e7465640000000060448201526064016103d4565b610f2d600083836111a2565b6001600160a01b0382166000908152606860205260408120805460019290610f56908490611877565b909155505060008181526067602052604080822080546001600160a01b0319166001600160a01b03861690811790915590518392907fddf252ad1be2c89b69c2b068fc378daa952ba7f163c4a11628f55a4df523b3ef908290a45050565b600061104160405180610200016040528060008152602001600081526020016000815260200160008152602001600081526020016000815260200160008152602001600081526020016000815260200160008152602001600081526020016000815260200160006001600160a01b0316815260200160608152602001606081526020016000151581525090565b60007f4ee902756e0fbbf751d7c038b700663c66663f4a2ac20663563b7be1539d08676040805160608101825282546001600160a01b039081168252600184015481166020830181905260029094015416818301529051630b9d584760e01b81526004810187905290925060009190630b9d5847906024016101406040518083038186803b1580156110d257600080fd5b505afa1580156110e6573d6000803e3d6000fd5b505050506040513d601f19601f8201168201806040525081019061110a919061191d565b91505081602001516001600160a01b0316634579268a82602001516040518263ffffffff1660e01b815260040161114391815260200190565b60006040518083038186803b15801561115b57600080fd5b505afa15801561116f573d6000803e3d6000fd5b505050506040513d6000823e601f3d908101601f191682016040526111979190810190611a3f565b935093505050915091565b6001600160a01b038316158015906111c257506001600160a01b03821615155b1561050a5761050a81836112de565b60006001600160a01b0384163b156112d357604051630a85bd0160e11b81526001600160a01b0385169063150b7a0290611215903390899088908890600401611b91565b602060405180830381600087803b15801561122f57600080fd5b505af192505050801561125f575060408051601f3d908101601f1916820190925261125c91810190611bce565b60015b6112b9573d80801561128d576040519150601f19603f3d011682016040523d82523d6000602084013e611292565b606091505b5080516112b15760405162461bcd60e51b81526004016103d4906118bc565b805181602001fd5b6001600160e01b031916630a85bd0160e11b14905061081e565b506001949350505050565b60007f4ee902756e0fbbf751d7c038b700663c66663f4a2ac20663563b7be1539d08676040805160608101825282546001600160a01b03908116825260018401548116602083018190526002909401548116828401529151637b02365d60e01b81526004810187905291851660248301529250637b02365d90604401600060405180830381600087803b15801561137457600080fd5b505af1158015611388573d6000803e3d6000fd5b50505050505050565b82805461139d906117be565b90600052602060002090601f0160209004810192826113bf5760008555611405565b82601f106113d857805160ff1916838001178555611405565b82800160010185558215611405579182015b828111156114055782518255916020019190600101906113ea565b50611411929150611415565b5090565b5b808211156114115760008155600101611416565b6001600160e01b03198116811461144057600080fd5b50565b60006020828403121561145557600080fd5b8135610d858161142a565b60005b8381101561147b578181015183820152602001611463565b8381111561076a5750506000910152565b600081518084526114a4816020860160208601611460565b601f01601f19169290920160200192915050565b602081526000610d85602083018461148c565b6000602082840312156114dd57600080fd5b5035919050565b6001600160a01b038116811461144057600080fd5b6000806040838503121561150c57600080fd5b8235611517816114e4565b946020939093013593505050565b60008060006060848603121561153a57600080fd5b8335611545816114e4565b92506020840135611555816114e4565b929592945050506040919091013590565b60006020828403121561157857600080fd5b8135610d85816114e4565b801515811461144057600080fd5b600080604083850312156115a457600080fd5b82356115af816114e4565b915060208301356115bf81611583565b809150509250929050565b634e487b7160e01b600052604160045260246000fd5b60405160c0810167ffffffffffffffff81118282101715611603576116036115ca565b60405290565b6040516080810167ffffffffffffffff81118282101715611603576116036115ca565b604051610200810167ffffffffffffffff81118282101715611603576116036115ca565b604051601f8201601f1916810167ffffffffffffffff81118282101715611679576116796115ca565b604052919050565b600067ffffffffffffffff82111561169b5761169b6115ca565b50601f01601f191660200190565b600080600080608085870312156116bf57600080fd5b84356116ca816114e4565b935060208501356116da816114e4565b925060408501359150606085013567ffffffffffffffff8111156116fd57600080fd5b8501601f8101871361170e57600080fd5b803561172161171c82611681565b611650565b81815288602083850101111561173657600080fd5b8160208401602083013760006020838301015280935050505092959194509250565b600080828403608081121561176c57600080fd5b833592506060601f198201121561178257600080fd5b506020830190509250929050565b600080604083850312156117a357600080fd5b82356117ae816114e4565b915060208301356115bf816114e4565b600181811c908216806117d257607f821691505b602082108114156117f357634e487b7160e01b600052602260045260246000fd5b50919050565b60208082526031908201527f4552433732313a207472616e736665722063616c6c6572206973206e6f74206f6040820152701ddb995c881b9bdc88185c1c1c9bdd9959607a1b606082015260800190565b634e487b7160e01b600052601160045260246000fd5b6000828210156118725761187261184a565b500390565b6000821982111561188a5761188a61184a565b500190565b805161189a81611583565b919050565b6000602082840312156118b157600080fd5b8151610d8581611583565b60208082526032908201527f4552433732313a207472616e7366657220746f206e6f6e20455243373231526560408201527131b2b4bb32b91034b6b83632b6b2b73a32b960711b606082015260800190565b80516006811061189a57600080fd5b60008082840361014081121561193257600080fd5b835161193d81611583565b9250610120601f19820181131561195357600080fd5b61195b6115e0565b602086015181526040860151602082015260608601516040820152608086015160608201526080609f198401121561199257600080fd5b61199a611609565b925060a0860151835260c0860151602084015260e086015160408401526101008601516119c681611583565b6060840152608081018390526119dd86830161190e565b60a08201528093505050509250929050565b805161189a816114e4565b600082601f830112611a0b57600080fd5b8151611a1961171c82611681565b818152846020838601011115611a2e57600080fd5b61081e826020830160208701611460565b60008060408385031215611a5257600080fd5b8251611a5d81611583565b602084015190925067ffffffffffffffff80821115611a7b57600080fd5b908401906102008287031215611a9057600080fd5b611a9861162c565b825181526020830151602082015260408301516040820152606083015160608201526080830151608082015260a083015160a082015260c083015160c082015260e083015160e0820152610100808401518183015250610120808401518183015250610140808401518183015250610160808401518183015250610180611b208185016119ef565b908201526101a08381015183811115611b3857600080fd5b611b44898287016119fa565b8284015250506101c08084015183811115611b5e57600080fd5b611b6a898287016119fa565b8284015250506101e09150611b8082840161188f565b828201528093505050509250929050565b6001600160a01b0385811682528416602082015260408101839052608060608201819052600090611bc49083018461148c565b9695505050505050565b600060208284031215611be057600080fd5b8151610d858161142a56fe4163636573732064656e6965642c2063616c6c657220646f65736e2774206861766520726f6c65a26469706673582212206ee87d4cb0e59b4f504674f4f8649147fe21a3cc8c5922784aa45d868cf26cb664736f6c63430008090033",
  "linkReferences": {},
  "deployedLinkReferences": {}
}