{
  "_format": "hh-sol-artifact-1",
  "contractName": "SupportedInterfaces",
  "sourceName": "contracts/interfaces/SupportedInterfaces.sol",
  "abi": [
    {
      "inputs": [],
      "name": "getIBosonAccountHandler",
      "outputs": [
        {
          "internalType": "bytes4",
          "name": "id",
          "type": "bytes4"
        }
      ],
      "stateMutability": "pure",
      "type": "function"
    },
    {
      "inputs": [],
      "name": "getIBosonBundleHandler",
      "outputs": [
        {
          "internalType": "bytes4",
          "name": "id",
          "type": "bytes4"
        }
      ],
      "stateMutability": "pure",
      "type": "function"
    },
    {
      "inputs": [],
      "name": "getIBosonConfigHandler",
      "outputs": [
        {
          "internalType": "bytes4",
          "name": "id",
          "type": "bytes4"
        }
      ],
      "stateMutability": "pure",
      "type": "function"
    },
    {
      "inputs": [],
      "name": "getIBosonDisputeHandler",
      "outputs": [
        {
          "internalType": "bytes4",
          "name": "id",
          "type": "bytes4"
        }
      ],
      "stateMutability": "pure",
      "type": "function"
    },
    {
      "inputs": [],
      "name": "getIBosonExchangeHandler",
      "outputs": [
        {
          "internalType": "bytes4",
          "name": "id",
          "type": "bytes4"
        }
      ],
      "stateMutability": "pure",
      "type": "function"
    },
    {
      "inputs": [],
      "name": "getIBosonFundsHandler",
      "outputs": [
        {
          "internalType": "bytes4",
          "name": "id",
          "type": "bytes4"
        }
      ],
      "stateMutability": "pure",
      "type": "function"
    },
    {
      "inputs": [],
      "name": "getIBosonGroupHandler",
      "outputs": [
        {
          "internalType": "bytes4",
          "name": "id",
          "type": "bytes4"
        }
      ],
      "stateMutability": "pure",
      "type": "function"
    },
    {
      "inputs": [],
      "name": "getIBosonMetaTransactionsHandler",
      "outputs": [
        {
          "internalType": "bytes4",
          "name": "id",
          "type": "bytes4"
        }
      ],
      "stateMutability": "pure",
      "type": "function"
    },
    {
      "inputs": [],
      "name": "getIBosonOfferHandler",
      "outputs": [
        {
          "internalType": "bytes4",
          "name": "id",
          "type": "bytes4"
        }
      ],
      "stateMutability": "pure",
      "type": "function"
    },
    {
      "inputs": [],
      "name": "getIBosonOrchestrationHandler",
      "outputs": [
        {
          "internalType": "bytes4",
          "name": "id",
          "type": "bytes4"
        }
      ],
      "stateMutability": "pure",
      "type": "function"
    },
    {
      "inputs": [],
      "name": "getIBosonTwinHandler",
      "outputs": [
        {
          "internalType": "bytes4",
          "name": "id",
          "type": "bytes4"
        }
      ],
      "stateMutability": "pure",
      "type": "function"
    },
    {
      "inputs": [],
      "name": "getIBosonVoucher",
      "outputs": [
        {
          "internalType": "bytes4",
          "name": "id",
          "type": "bytes4"
        }
      ],
      "stateMutability": "pure",
      "type": "function"
    },
    {
      "inputs": [],
      "name": "getIClientExternalAddresses",
      "outputs": [
        {
          "internalType": "bytes4",
          "name": "id",
          "type": "bytes4"
        }
      ],
      "stateMutability": "pure",
      "type": "function"
    }
  ],
  "bytecode": "0x608060405234801561001057600080fd5b506101cf806100206000396000f3fe608060405234801561001057600080fd5b50600436106100cf5760003560e01c806371674d661161008c578063ac552d3911610066578063ac552d3914610165578063afcc298d14610172578063bdd188331461017f578063db32de431461018c57600080fd5b806371674d661461013e5780638dee522d1461014b57806392d454521461015857600080fd5b80631ad807a3146100d45780633a53d164146100fa5780634cd9cbfe146101075780634dd7e43914610114578063639df738146101215780636cc6eee21461012e575b600080fd5b635718745960e01b5b6040516001600160e01b0319909116815260200160405180910390f35b6326c4b36560e01b6100dd565b63078ef95960e11b6100dd565b639fa213fd60e01b6100dd565b634f09466f60e11b6100dd565b600162942b1160e01b03196100dd565b63701befef60e01b6100dd565b63369a01ef60e01b6100dd565b63060b30e760e41b6100dd565b63619e9d2960e01b6100dd565b63c4c6c36b60e01b6100dd565b631883424760e01b6100dd565b632522cce160e11b6100dd56fea2646970667358221220121a55c135caa4a361f8dac0e2e6d096d67ace0912a8de33361de391a08cfb9f64736f6c63430008090033",
  "linkReferences": {},
  "deployedLinkReferences": {}
}