{
  "_format": "hh-sol-artifact-1",
  "contractName": "SupportedInterfaces",
  "sourceName": "contracts/interfaces/SupportedInterfaces.sol",
  "abi": [
    {
      "inputs": [],
      "name": "getIBosonAccountHandler",
      "outputs": [
        {
          "internalType": "bytes4",
          "name": "id",
          "type": "bytes4"
        }
      ],
      "stateMutability": "pure",
      "type": "function"
    },
    {
      "inputs": [],
      "name": "getIBosonBundleHandler",
      "outputs": [
        {
          "internalType": "bytes4",
          "name": "id",
          "type": "bytes4"
        }
      ],
      "stateMutability": "pure",
      "type": "function"
    },
    {
      "inputs": [],
      "name": "getIBosonConfigHandler",
      "outputs": [
        {
          "internalType": "bytes4",
          "name": "id",
          "type": "bytes4"
        }
      ],
      "stateMutability": "pure",
      "type": "function"
    },
    {
      "inputs": [],
      "name": "getIBosonDisputeHandler",
      "outputs": [
        {
          "internalType": "bytes4",
          "name": "id",
          "type": "bytes4"
        }
      ],
      "stateMutability": "pure",
      "type": "function"
    },
    {
      "inputs": [],
      "name": "getIBosonExchangeHandler",
      "outputs": [
        {
          "internalType": "bytes4",
          "name": "id",
          "type": "bytes4"
        }
      ],
      "stateMutability": "pure",
      "type": "function"
    },
    {
      "inputs": [],
      "name": "getIBosonFundsHandler",
      "outputs": [
        {
          "internalType": "bytes4",
          "name": "id",
          "type": "bytes4"
        }
      ],
      "stateMutability": "pure",
      "type": "function"
    },
    {
      "inputs": [],
      "name": "getIBosonGroupHandler",
      "outputs": [
        {
          "internalType": "bytes4",
          "name": "id",
          "type": "bytes4"
        }
      ],
      "stateMutability": "pure",
      "type": "function"
    },
    {
      "inputs": [],
      "name": "getIBosonMetaTransactionsHandler",
      "outputs": [
        {
          "internalType": "bytes4",
          "name": "id",
          "type": "bytes4"
        }
      ],
      "stateMutability": "pure",
      "type": "function"
    },
    {
      "inputs": [],
      "name": "getIBosonOfferHandler",
      "outputs": [
        {
          "internalType": "bytes4",
          "name": "id",
          "type": "bytes4"
        }
      ],
      "stateMutability": "pure",
      "type": "function"
    },
    {
      "inputs": [],
      "name": "getIBosonOrchestrationHandler",
      "outputs": [
        {
          "internalType": "bytes4",
          "name": "id",
          "type": "bytes4"
        }
      ],
      "stateMutability": "pure",
      "type": "function"
    },
    {
      "inputs": [],
      "name": "getIBosonTwinHandler",
      "outputs": [
        {
          "internalType": "bytes4",
          "name": "id",
          "type": "bytes4"
        }
      ],
      "stateMutability": "pure",
      "type": "function"
    },
    {
      "inputs": [],
      "name": "getIBosonVoucher",
      "outputs": [
        {
          "internalType": "bytes4",
          "name": "id",
          "type": "bytes4"
        }
      ],
      "stateMutability": "pure",
      "type": "function"
    },
    {
      "inputs": [],
      "name": "getIClientExternalAddresses",
      "outputs": [
        {
          "internalType": "bytes4",
          "name": "id",
          "type": "bytes4"
        }
      ],
      "stateMutability": "pure",
      "type": "function"
    }
  ],
  "bytecode": "0x608060405234801561001057600080fd5b506101cc806100206000396000f3fe608060405234801561001057600080fd5b50600436106100cf5760003560e01c806371674d661161008c578063ac552d3911610066578063ac552d3914610162578063afcc298d1461016f578063bdd188331461017c578063db32de431461018957600080fd5b806371674d661461013b5780638dee522d1461014857806392d454521461015557600080fd5b80631ad807a3146100d45780633a53d164146100fa5780634cd9cbfe146101075780634dd7e43914610114578063639df738146101215780636cc6eee21461012e575b600080fd5b636208f3e360e11b5b6040516001600160e01b0319909116815260200160405180910390f35b63d9ea831760e01b6100dd565b63715f912b60e11b6100dd565b633da9ef6760e11b6100dd565b63343caf7960e11b6100dd565b6307d41fcd60e31b6100dd565b63378147cd60e21b6100dd565b63369a01ef60e01b6100dd565b63060b30e760e41b6100dd565b63bc11438160e01b6100dd565b63c4c6c36b60e01b6100dd565b631883424760e01b6100dd565b6337887c3560e21b6100dd56fea2646970667358221220e62eefa4aa71e57fe0ca2dad49d378bec153735c9a778377296becd0465cc06b64736f6c63430008090033",
  "linkReferences": {},
  "deployedLinkReferences": {}
}