{
  "_format": "hh-sol-artifact-1",
  "contractName": "ConfigHandlerFacet",
  "sourceName": "contracts/protocol/facets/ConfigHandlerFacet.sol",
  "abi": [
    {
      "anonymous": false,
      "inputs": [
        {
          "indexed": false,
          "internalType": "uint16",
          "name": "maxOffersPerBatch",
          "type": "uint16"
        },
        {
          "indexed": true,
          "internalType": "address",
          "name": "changedBy",
          "type": "address"
        }
      ],
      "name": "MaxOffersPerBatchChanged",
      "type": "event"
    },
    {
      "anonymous": false,
      "inputs": [
        {
          "indexed": false,
          "internalType": "uint16",
          "name": "maxOffersPerBundle",
          "type": "uint16"
        },
        {
          "indexed": true,
          "internalType": "address",
          "name": "changedBy",
          "type": "address"
        }
      ],
      "name": "MaxOffersPerBundleChanged",
      "type": "event"
    },
    {
      "anonymous": false,
      "inputs": [
        {
          "indexed": false,
          "internalType": "uint16",
          "name": "maxOffersPerGroup",
          "type": "uint16"
        },
        {
          "indexed": true,
          "internalType": "address",
          "name": "changedBy",
          "type": "address"
        }
      ],
      "name": "MaxOffersPerGroupChanged",
      "type": "event"
    },
    {
      "anonymous": false,
      "inputs": [
        {
          "indexed": false,
          "internalType": "uint16",
          "name": "maxOffersPerBundle",
          "type": "uint16"
        },
        {
          "indexed": true,
          "internalType": "address",
          "name": "changedBy",
          "type": "address"
        }
      ],
      "name": "MaxTokensPerWithdrawalChanged",
      "type": "event"
    },
    {
      "anonymous": false,
      "inputs": [
        {
          "indexed": false,
          "internalType": "uint16",
          "name": "maxTwinsPerBundle",
          "type": "uint16"
        },
        {
          "indexed": true,
          "internalType": "address",
          "name": "changedBy",
          "type": "address"
        }
      ],
      "name": "MaxTwinsPerBundleChanged",
      "type": "event"
    },
    {
      "anonymous": false,
      "inputs": [
        {
          "indexed": false,
          "internalType": "uint16",
          "name": "feePercentage",
          "type": "uint16"
        },
        {
          "indexed": true,
          "internalType": "address",
          "name": "changedBy",
          "type": "address"
        }
      ],
      "name": "ProtocolFeePercentageChanged",
      "type": "event"
    },
    {
      "anonymous": false,
      "inputs": [
        {
          "indexed": true,
          "internalType": "address",
          "name": "tokenAddress",
          "type": "address"
        },
        {
          "indexed": true,
          "internalType": "address",
          "name": "changedBy",
          "type": "address"
        }
      ],
      "name": "TokenAddressChanged",
      "type": "event"
    },
    {
      "anonymous": false,
      "inputs": [
        {
          "indexed": true,
          "internalType": "address",
          "name": "treasuryAddress",
          "type": "address"
        },
        {
          "indexed": true,
          "internalType": "address",
          "name": "changedBy",
          "type": "address"
        }
      ],
      "name": "TreasuryAddressChanged",
      "type": "event"
    },
    {
      "anonymous": false,
      "inputs": [
        {
          "indexed": true,
          "internalType": "address",
          "name": "voucher",
          "type": "address"
        },
        {
          "indexed": true,
          "internalType": "address",
          "name": "changedBy",
          "type": "address"
        }
      ],
      "name": "VoucherAddressChanged",
      "type": "event"
    },
    {
      "inputs": [],
      "name": "getMaxOffersPerBatch",
      "outputs": [
        {
          "internalType": "uint16",
          "name": "",
          "type": "uint16"
        }
      ],
      "stateMutability": "view",
      "type": "function"
    },
    {
      "inputs": [],
      "name": "getMaxOffersPerBundle",
      "outputs": [
        {
          "internalType": "uint16",
          "name": "",
          "type": "uint16"
        }
      ],
      "stateMutability": "view",
      "type": "function"
    },
    {
      "inputs": [],
      "name": "getMaxOffersPerGroup",
      "outputs": [
        {
          "internalType": "uint16",
          "name": "",
          "type": "uint16"
        }
      ],
      "stateMutability": "view",
      "type": "function"
    },
    {
      "inputs": [],
      "name": "getMaxTokensPerWithdrawal",
      "outputs": [
        {
          "internalType": "uint16",
          "name": "",
          "type": "uint16"
        }
      ],
      "stateMutability": "view",
      "type": "function"
    },
    {
      "inputs": [],
      "name": "getMaxTwinsPerBundle",
      "outputs": [
        {
          "internalType": "uint16",
          "name": "",
          "type": "uint16"
        }
      ],
      "stateMutability": "view",
      "type": "function"
    },
    {
      "inputs": [],
      "name": "getProtocolFeePercentage",
      "outputs": [
        {
          "internalType": "uint16",
          "name": "",
          "type": "uint16"
        }
      ],
      "stateMutability": "view",
      "type": "function"
    },
    {
      "inputs": [],
      "name": "getTokenAddress",
      "outputs": [
        {
          "internalType": "address payable",
          "name": "",
          "type": "address"
        }
      ],
      "stateMutability": "view",
      "type": "function"
    },
    {
      "inputs": [],
      "name": "getTreasuryAddress",
      "outputs": [
        {
          "internalType": "address payable",
          "name": "",
          "type": "address"
        }
      ],
      "stateMutability": "view",
      "type": "function"
    },
    {
      "inputs": [],
      "name": "getVoucherAddress",
      "outputs": [
        {
          "internalType": "address",
          "name": "",
          "type": "address"
        }
      ],
      "stateMutability": "view",
      "type": "function"
    },
    {
      "inputs": [
        {
          "internalType": "address payable",
          "name": "_tokenAddress",
          "type": "address"
        },
        {
          "internalType": "address payable",
          "name": "_treasuryAddress",
          "type": "address"
        },
        {
          "internalType": "address",
          "name": "_voucherAddress",
          "type": "address"
        },
        {
          "internalType": "uint16",
          "name": "_protocolFeePercentage",
          "type": "uint16"
        },
        {
          "internalType": "uint16",
          "name": "_maxOffersPerGroup",
          "type": "uint16"
        },
        {
          "internalType": "uint16",
          "name": "_maxTwinsPerBundle",
          "type": "uint16"
        },
        {
          "internalType": "uint16",
          "name": "_maxOffersPerBundle",
          "type": "uint16"
        },
        {
          "internalType": "uint16",
          "name": "_maxOffersPerBatch",
          "type": "uint16"
        },
        {
          "internalType": "uint16",
          "name": "_maxTokensPerWithdrawal",
          "type": "uint16"
        }
      ],
      "name": "initialize",
      "outputs": [],
      "stateMutability": "nonpayable",
      "type": "function"
    },
    {
      "inputs": [
        {
          "internalType": "uint16",
          "name": "_maxOffersPerBatch",
          "type": "uint16"
        }
      ],
      "name": "setMaxOffersPerBatch",
      "outputs": [],
      "stateMutability": "nonpayable",
      "type": "function"
    },
    {
      "inputs": [
        {
          "internalType": "uint16",
          "name": "_maxOffersPerBundle",
          "type": "uint16"
        }
      ],
      "name": "setMaxOffersPerBundle",
      "outputs": [],
      "stateMutability": "nonpayable",
      "type": "function"
    },
    {
      "inputs": [
        {
          "internalType": "uint16",
          "name": "_maxOffersPerGroup",
          "type": "uint16"
        }
      ],
      "name": "setMaxOffersPerGroup",
      "outputs": [],
      "stateMutability": "nonpayable",
      "type": "function"
    },
    {
      "inputs": [
        {
          "internalType": "uint16",
          "name": "_maxTokensPerWithdrawal",
          "type": "uint16"
        }
      ],
      "name": "setMaxTokensPerWithdrawal",
      "outputs": [],
      "stateMutability": "nonpayable",
      "type": "function"
    },
    {
      "inputs": [
        {
          "internalType": "uint16",
          "name": "_maxTwinsPerBundle",
          "type": "uint16"
        }
      ],
      "name": "setMaxTwinsPerBundle",
      "outputs": [],
      "stateMutability": "nonpayable",
      "type": "function"
    },
    {
      "inputs": [
        {
          "internalType": "uint16",
          "name": "_protocolFeePercentage",
          "type": "uint16"
        }
      ],
      "name": "setProtocolFeePercentage",
      "outputs": [],
      "stateMutability": "nonpayable",
      "type": "function"
    },
    {
      "inputs": [
        {
          "internalType": "address payable",
          "name": "_tokenAddress",
          "type": "address"
        }
      ],
      "name": "setTokenAddress",
      "outputs": [],
      "stateMutability": "nonpayable",
      "type": "function"
    },
    {
      "inputs": [
        {
          "internalType": "address payable",
          "name": "_treasuryAddress",
          "type": "address"
        }
      ],
      "name": "setTreasuryAddress",
      "outputs": [],
      "stateMutability": "nonpayable",
      "type": "function"
    },
    {
      "inputs": [
        {
          "internalType": "address",
          "name": "_voucherAddress",
          "type": "address"
        }
      ],
      "name": "setVoucherAddress",
      "outputs": [],
      "stateMutability": "nonpayable",
      "type": "function"
    }
  ],
  "bytecode": "0x608060405234801561001057600080fd5b5061154b806100206000396000f3fe608060405234801561001057600080fd5b50600436106101205760003560e01c80638cfc4975116100ad578063cd9de17211610071578063cd9de1721461021f578063d619f04414610232578063d7ac2c471461023a578063e00246041461024d578063ff44a1181461025557600080fd5b80638cfc4975146101d6578063942a61b4146101de57806394413c54146101e6578063a70fdde1146101f9578063b54767f61461020c57600080fd5b80632ada8223116100f45780632ada82231461018557806359c75653146101985780636605bfda146101b3578063706d9f78146101c6578063863b80fa146101ce57600080fd5b806296aa981461012557806310fe9ae81461013a578063144966091461015f57806326a4e8d214610172575b600080fd5b6101386101333660046112e0565b61025d565b005b6101426103a8565b6040516001600160a01b0390911681526020015b60405180910390f35b61013861016d3660046112e0565b6103c4565b61013861018036600461131a565b610580565b61013861019336600461131a565b6106b8565b6101a06107f0565b60405161ffff9091168152602001610156565b6101386101c136600461131a565b61080e565b6101a0610943565b6101a0610961565b6101a061097f565b6101a061099d565b6101386101f43660046112e0565b6109bb565b6101386102073660046112e0565b610af3565b61013861021a3660046112e0565b610c2b565b61013861022d366004611337565b610d63565b6101a061109e565b6101386102483660046112e0565b6110bc565b6101426111f4565b61014261120d565b6000805160206114f6833981519152600060008051602061145d833981519152600481810154604051632474521560e21b81529182018590523360248301529192506001600160a01b03909116906391d148549060440160206040518083038186803b1580156102cc57600080fd5b505afa1580156102e0573d6000803e3d6000fd5b505050506040513d601f19601f8201168201806040525081019061030491906113e5565b60405180606001604052806027815260200161147d60279139906103445760405162461bcd60e51b815260040161033b9190611407565b60405180910390fd5b508261034e611229565b60020180546001600160f01b0316600160f01b61ffff93841602179055604051908416815233907f56bf5a74b955b19750f7b4c8da25b3dc7547f90a23a635a0df47a37d6261ccf5906020015b60405180910390a2505050565b60006103b2611229565b600101546001600160a01b0316919050565b6000805160206114f6833981519152600060008051602061145d833981519152600481810154604051632474521560e21b81529182018590523360248301529192506001600160a01b03909116906391d148549060440160206040518083038186803b15801561043357600080fd5b505afa158015610447573d6000803e3d6000fd5b505050506040513d601f19601f8201168201806040525081019061046b91906113e5565b60405180606001604052806027815260200161147d60279139906104a25760405162461bcd60e51b815260040161033b9190611407565b5060008361ffff161180156104bd57506127108361ffff1611155b6105275760405162461bcd60e51b815260206004820152603560248201527f50657263656e7461676520726570726573656e746174696f6e206d7573742062604482015274065206265747765656e203120616e6420313030303605c1b606482015260840161033b565b82610530611229565b600201805461ffff60a01b1916600160a01b61ffff93841602179055604051908416815233907f1ea5c649ac1371bf632b976a11d4cc64e4e510e2a409e0e94e0b624dd1b17e939060200161039b565b6000805160206114f6833981519152600060008051602061145d833981519152600481810154604051632474521560e21b81529182018590523360248301529192506001600160a01b03909116906391d148549060440160206040518083038186803b1580156105ef57600080fd5b505afa158015610603573d6000803e3d6000fd5b505050506040513d601f19601f8201168201806040525081019061062791906113e5565b60405180606001604052806027815260200161147d602791399061065e5760405162461bcd60e51b815260040161033b9190611407565b5082610668611229565b60010180546001600160a01b0319166001600160a01b0392831617905560405133918516907f5527f14e7199c63a0d6caffa1fd8eab9a6e595207bc2b23ae26a028acde7eefa90600090a3505050565b6000805160206114f6833981519152600060008051602061145d833981519152600481810154604051632474521560e21b81529182018590523360248301529192506001600160a01b03909116906391d148549060440160206040518083038186803b15801561072757600080fd5b505afa15801561073b573d6000803e3d6000fd5b505050506040513d601f19601f8201168201806040525081019061075f91906113e5565b60405180606001604052806027815260200161147d60279139906107965760405162461bcd60e51b815260040161033b9190611407565b50826107a0611229565b60020180546001600160a01b0319166001600160a01b0392831617905560405133918516907fd01c02fab74d8eab8a303988f6477f8aa3ec07cc42ce18f53c41dbb6e3283e7e90600090a3505050565b60006107fa611229565b60020154600160f01b900461ffff16919050565b6000805160206114f6833981519152600060008051602061145d833981519152600481810154604051632474521560e21b81529182018590523360248301529192506001600160a01b03909116906391d148549060440160206040518083038186803b15801561087d57600080fd5b505afa158015610891573d6000803e3d6000fd5b505050506040513d601f19601f820116820180604052508101906108b591906113e5565b60405180606001604052806027815260200161147d60279139906108ec5760405162461bcd60e51b815260040161033b9190611407565b50826108f6611229565b80546001600160a01b0319166001600160a01b0392831617905560405133918516907f4fc6e7a37aea21888550b60360992adb6a9b3b4da644d63e9f3a420c2d86e28290600090a3505050565b600061094d611229565b60020154600160a01b900461ffff16919050565b600061096b611229565b60020154600160b01b900461ffff16919050565b6000610989611229565b60020154600160d01b900461ffff16919050565b60006109a7611229565b60020154600160c01b900461ffff16919050565b6000805160206114f6833981519152600060008051602061145d833981519152600481810154604051632474521560e21b81529182018590523360248301529192506001600160a01b03909116906391d148549060440160206040518083038186803b158015610a2a57600080fd5b505afa158015610a3e573d6000803e3d6000fd5b505050506040513d601f19601f82011682018060405250810190610a6291906113e5565b60405180606001604052806027815260200161147d6027913990610a995760405162461bcd60e51b815260040161033b9190611407565b5082610aa3611229565b600201805461ffff60b01b1916600160b01b61ffff93841602179055604051908416815233907f56dd59acde8c72b995d07ea5a7f7956915fdc0853c0fbdaceceacb3f2a902a8d9060200161039b565b6000805160206114f6833981519152600060008051602061145d833981519152600481810154604051632474521560e21b81529182018590523360248301529192506001600160a01b03909116906391d148549060440160206040518083038186803b158015610b6257600080fd5b505afa158015610b76573d6000803e3d6000fd5b505050506040513d601f19601f82011682018060405250810190610b9a91906113e5565b60405180606001604052806027815260200161147d6027913990610bd15760405162461bcd60e51b815260040161033b9190611407565b5082610bdb611229565b600201805461ffff60d01b1916600160d01b61ffff93841602179055604051908416815233907fad73daa6e27b48d6f958f23d3b5679ba35c33954d167128ae8c26a7faf4bd2ff9060200161039b565b6000805160206114f6833981519152600060008051602061145d833981519152600481810154604051632474521560e21b81529182018590523360248301529192506001600160a01b03909116906391d148549060440160206040518083038186803b158015610c9a57600080fd5b505afa158015610cae573d6000803e3d6000fd5b505050506040513d601f19601f82011682018060405250810190610cd291906113e5565b60405180606001604052806027815260200161147d6027913990610d095760405162461bcd60e51b815260040161033b9190611407565b5082610d13611229565b600201805461ffff60c01b1916600160c01b61ffff93841602179055604051908416815233907f97aa7a9a8e579823cce21c56b290634eb2d60351681a878ae8220c387e20b2d69060200161039b565b6320f3af8f60e11b60008190527fe7ad30265b8084c731e610579d091ebe2886115e8a5cacb6b704e4392f48b2c160208181527f97694a48a26eff69fc69e1944f434986001bb6ce65cb8405fc27e19747dd530654604080518082019091526013815272105b1c9958591e481a5b9a5d1a585b1a5e9959606a1b9281019290925260ff1615610e055760405162461bcd60e51b815260040161033b9190611407565b506001600160e01b0319821660009081526020828152604082208054600160ff1991821681179092556320f3af8f60e11b84527fc8fcad8db84d3cc18b4c41d551ea0ee66dd599cde068d998e57d5e09332c131f9092527feb30e1efeebf0748c197c8e00ef7c7f9a7e7d44db539720d16c6c126dcaebd8d8054909216179055610e8d611229565b90508b8160010160006101000a8154816001600160a01b0302191690836001600160a01b031602179055508a8160000160006101000a8154816001600160a01b0302191690836001600160a01b03160217905550898160020160006101000a8154816001600160a01b0302191690836001600160a01b03160217905550888160020160146101000a81548161ffff021916908361ffff160217905550878160020160166101000a81548161ffff021916908361ffff1602179055508681600201601a6101000a81548161ffff021916908361ffff160217905550858160020160186101000a81548161ffff021916908361ffff1602179055508481600201601c6101000a81548161ffff021916908361ffff1602179055508381600201601e6101000a81548161ffff021916908361ffff1602179055506000610fed7f236215f8ddaf4ac1232d1f2516766788cddc14962c93aafa73278d9e2e4497dd90565b60018082556005820181905560028201819055600482018190558181018190556003820155905060007fe9dcaa2fe5baf791ce4ecec7dd9d0808a23bc6ff23c5765ca852976604bcea8c905061108960405180604001604052806014815260200173109bdcdbdb941c9bdd1bd8dbdb111a585b5bdb9960621b81525060405180604001604052806002815260200161563160f01b81525061124d565b60019091015550505050505050505050505050565b60006110a8611229565b60020154600160e01b900461ffff16919050565b6000805160206114f6833981519152600060008051602061145d833981519152600481810154604051632474521560e21b81529182018590523360248301529192506001600160a01b03909116906391d148549060440160206040518083038186803b15801561112b57600080fd5b505afa15801561113f573d6000803e3d6000fd5b505050506040513d601f19601f8201168201806040525081019061116391906113e5565b60405180606001604052806027815260200161147d602791399061119a5760405162461bcd60e51b815260040161033b9190611407565b50826111a4611229565b600201805461ffff60e01b1916600160e01b61ffff93841602179055604051908416815233907f6535a19ee3e02236f5a7e2ec84e19fa037f35ee9177e2a0ba369c8f80e3de4f89060200161039b565b60006111fe611229565b546001600160a01b0316919050565b6000611217611229565b600201546001600160a01b0316919050565b7f14c87be183d40876b1316e67a92c4469522d68b1be15fad3f5453a003ce0952b90565b60006040518060800160405280605281526020016114a46052913980519060200120838051906020012083805190602001206112864690565b604080516020810195909552840192909252606083015260808201523060a082015260c00160405160208183030381529060405280519060200120905092915050565b803561ffff811681146112db57600080fd5b919050565b6000602082840312156112f257600080fd5b6112fb826112c9565b9392505050565b6001600160a01b038116811461131757600080fd5b50565b60006020828403121561132c57600080fd5b81356112fb81611302565b60008060008060008060008060006101208a8c03121561135657600080fd5b893561136181611302565b985060208a013561137181611302565b975060408a013561138181611302565b965061138f60608b016112c9565b955061139d60808b016112c9565b94506113ab60a08b016112c9565b93506113b960c08b016112c9565b92506113c760e08b016112c9565b91506113d66101008b016112c9565b90509295985092959850929598565b6000602082840312156113f757600080fd5b815180151581146112fb57600080fd5b600060208083528351808285015260005b8181101561143457858101830151858201604001528201611418565b81811115611446576000604083870101525b50601f01601f191692909201604001939250505056fec8fcad8db84d3cc18b4c41d551ea0ee66dd599cde068d998e57d5e09332c131c4163636573732064656e6965642c2063616c6c657220646f65736e2774206861766520726f6c65454950373132446f6d61696e28737472696e67206e616d652c737472696e672076657273696f6e2c75696e7432353620636861696e49642c6164647265737320766572696679696e67436f6e747261637429df8b4c520ffe197c5343c6f5aec59570151ef9a492f2c624fd45ddde6135ec42a2646970667358221220c1751cdd51b0ca112311a52e2c12620b08a4b59e82b8758b2cf0cb771a030a6e64736f6c63430008090033",
  "linkReferences": {},
  "deployedLinkReferences": {}
}