{
  "_format": "hh-sol-artifact-1",
  "contractName": "PausableZone",
  "sourceName": "contracts/zones/PausableZone.sol",
  "abi": [
    {
      "inputs": [],
      "stateMutability": "nonpayable",
      "type": "constructor"
    },
    {
      "inputs": [],
      "name": "CallerIsNotOperator",
      "type": "error"
    },
    {
      "inputs": [],
      "name": "CallerIsNotOwner",
      "type": "error"
    },
    {
      "inputs": [],
      "name": "CallerIsNotPotentialOwner",
      "type": "error"
    },
    {
      "inputs": [],
      "name": "InvalidController",
      "type": "error"
    },
    {
      "inputs": [],
      "name": "InvalidOperator",
      "type": "error"
    },
    {
      "inputs": [],
      "name": "InvalidPauser",
      "type": "error"
    },
    {
      "inputs": [],
      "name": "OwnerCanNotBeSetAsZero",
      "type": "error"
    },
    {
      "inputs": [],
      "name": "PauserCanNotBeSetAsZero",
      "type": "error"
    },
    {
      "inputs": [
        {
          "internalType": "address",
          "name": "zone",
          "type": "address"
        }
      ],
      "name": "ZoneAlreadyExists",
      "type": "error"
    },
    {
      "anonymous": false,
      "inputs": [
        {
          "indexed": false,
          "internalType": "address",
          "name": "newOperator",
          "type": "address"
        }
      ],
      "name": "OperatorUpdated",
      "type": "event"
    },
    {
      "anonymous": false,
      "inputs": [
        {
          "indexed": false,
          "internalType": "address",
          "name": "previousOwner",
          "type": "address"
        },
        {
          "indexed": false,
          "internalType": "address",
          "name": "newOwner",
          "type": "address"
        }
      ],
      "name": "OwnershipTransferred",
      "type": "event"
    },
    {
      "anonymous": false,
      "inputs": [],
      "name": "Paused",
      "type": "event"
    },
    {
      "anonymous": false,
      "inputs": [
        {
          "indexed": false,
          "internalType": "address",
          "name": "newPauser",
          "type": "address"
        }
      ],
      "name": "PauserUpdated",
      "type": "event"
    },
    {
      "anonymous": false,
      "inputs": [
        {
          "indexed": false,
          "internalType": "address",
          "name": "newPotentialOwner",
          "type": "address"
        }
      ],
      "name": "PotentialOwnerUpdated",
      "type": "event"
    },
    {
      "anonymous": false,
      "inputs": [],
      "name": "Unpaused",
      "type": "event"
    },
    {
      "anonymous": false,
      "inputs": [
        {
          "indexed": false,
          "internalType": "address",
          "name": "zone",
          "type": "address"
        },
        {
          "indexed": false,
          "internalType": "bytes32",
          "name": "salt",
          "type": "bytes32"
        }
      ],
      "name": "ZoneCreated",
      "type": "event"
    },
    {
      "inputs": [
        {
          "internalType": "address",
          "name": "operatorToAssign",
          "type": "address"
        }
      ],
      "name": "assignOperator",
      "outputs": [],
      "stateMutability": "nonpayable",
      "type": "function"
    },
    {
      "inputs": [
        {
          "internalType": "contract SeaportInterface",
          "name": "seaport",
          "type": "address"
        },
        {
          "components": [
            {
              "internalType": "address",
              "name": "offerer",
              "type": "address"
            },
            {
              "internalType": "address",
              "name": "zone",
              "type": "address"
            },
            {
              "components": [
                {
                  "internalType": "enum ItemType",
                  "name": "itemType",
                  "type": "uint8"
                },
                {
                  "internalType": "address",
                  "name": "token",
                  "type": "address"
                },
                {
                  "internalType": "uint256",
                  "name": "identifierOrCriteria",
                  "type": "uint256"
                },
                {
                  "internalType": "uint256",
                  "name": "startAmount",
                  "type": "uint256"
                },
                {
                  "internalType": "uint256",
                  "name": "endAmount",
                  "type": "uint256"
                }
              ],
              "internalType": "struct OfferItem[]",
              "name": "offer",
              "type": "tuple[]"
            },
            {
              "components": [
                {
                  "internalType": "enum ItemType",
                  "name": "itemType",
                  "type": "uint8"
                },
                {
                  "internalType": "address",
                  "name": "token",
                  "type": "address"
                },
                {
                  "internalType": "uint256",
                  "name": "identifierOrCriteria",
                  "type": "uint256"
                },
                {
                  "internalType": "uint256",
                  "name": "startAmount",
                  "type": "uint256"
                },
                {
                  "internalType": "uint256",
                  "name": "endAmount",
                  "type": "uint256"
                },
                {
                  "internalType": "address payable",
                  "name": "recipient",
                  "type": "address"
                }
              ],
              "internalType": "struct ConsiderationItem[]",
              "name": "consideration",
              "type": "tuple[]"
            },
            {
              "internalType": "enum OrderType",
              "name": "orderType",
              "type": "uint8"
            },
            {
              "internalType": "uint256",
              "name": "startTime",
              "type": "uint256"
            },
            {
              "internalType": "uint256",
              "name": "endTime",
              "type": "uint256"
            },
            {
              "internalType": "bytes32",
              "name": "zoneHash",
              "type": "bytes32"
            },
            {
              "internalType": "uint256",
              "name": "salt",
              "type": "uint256"
            },
            {
              "internalType": "bytes32",
              "name": "conduitKey",
              "type": "bytes32"
            },
            {
              "internalType": "uint256",
              "name": "counter",
              "type": "uint256"
            }
          ],
          "internalType": "struct OrderComponents[]",
          "name": "orders",
          "type": "tuple[]"
        }
      ],
      "name": "cancelOrders",
      "outputs": [
        {
          "internalType": "bool",
          "name": "cancelled",
          "type": "bool"
        }
      ],
      "stateMutability": "nonpayable",
      "type": "function"
    },
    {
      "inputs": [
        {
          "internalType": "contract SeaportInterface",
          "name": "seaport",
          "type": "address"
        },
        {
          "components": [
            {
              "components": [
                {
                  "internalType": "address",
                  "name": "offerer",
                  "type": "address"
                },
                {
                  "internalType": "address",
                  "name": "zone",
                  "type": "address"
                },
                {
                  "components": [
                    {
                      "internalType": "enum ItemType",
                      "name": "itemType",
                      "type": "uint8"
                    },
                    {
                      "internalType": "address",
                      "name": "token",
                      "type": "address"
                    },
                    {
                      "internalType": "uint256",
                      "name": "identifierOrCriteria",
                      "type": "uint256"
                    },
                    {
                      "internalType": "uint256",
                      "name": "startAmount",
                      "type": "uint256"
                    },
                    {
                      "internalType": "uint256",
                      "name": "endAmount",
                      "type": "uint256"
                    }
                  ],
                  "internalType": "struct OfferItem[]",
                  "name": "offer",
                  "type": "tuple[]"
                },
                {
                  "components": [
                    {
                      "internalType": "enum ItemType",
                      "name": "itemType",
                      "type": "uint8"
                    },
                    {
                      "internalType": "address",
                      "name": "token",
                      "type": "address"
                    },
                    {
                      "internalType": "uint256",
                      "name": "identifierOrCriteria",
                      "type": "uint256"
                    },
                    {
                      "internalType": "uint256",
                      "name": "startAmount",
                      "type": "uint256"
                    },
                    {
                      "internalType": "uint256",
                      "name": "endAmount",
                      "type": "uint256"
                    },
                    {
                      "internalType": "address payable",
                      "name": "recipient",
                      "type": "address"
                    }
                  ],
                  "internalType": "struct ConsiderationItem[]",
                  "name": "consideration",
                  "type": "tuple[]"
                },
                {
                  "internalType": "enum OrderType",
                  "name": "orderType",
                  "type": "uint8"
                },
                {
                  "internalType": "uint256",
                  "name": "startTime",
                  "type": "uint256"
                },
                {
                  "internalType": "uint256",
                  "name": "endTime",
                  "type": "uint256"
                },
                {
                  "internalType": "bytes32",
                  "name": "zoneHash",
                  "type": "bytes32"
                },
                {
                  "internalType": "uint256",
                  "name": "salt",
                  "type": "uint256"
                },
                {
                  "internalType": "bytes32",
                  "name": "conduitKey",
                  "type": "bytes32"
                },
                {
                  "internalType": "uint256",
                  "name": "totalOriginalConsiderationItems",
                  "type": "uint256"
                }
              ],
              "internalType": "struct OrderParameters",
              "name": "parameters",
              "type": "tuple"
            },
            {
              "internalType": "uint120",
              "name": "numerator",
              "type": "uint120"
            },
            {
              "internalType": "uint120",
              "name": "denominator",
              "type": "uint120"
            },
            {
              "internalType": "bytes",
              "name": "signature",
              "type": "bytes"
            },
            {
              "internalType": "bytes",
              "name": "extraData",
              "type": "bytes"
            }
          ],
          "internalType": "struct AdvancedOrder[]",
          "name": "orders",
          "type": "tuple[]"
        },
        {
          "components": [
            {
              "internalType": "uint256",
              "name": "orderIndex",
              "type": "uint256"
            },
            {
              "internalType": "enum Side",
              "name": "side",
              "type": "uint8"
            },
            {
              "internalType": "uint256",
              "name": "index",
              "type": "uint256"
            },
            {
              "internalType": "uint256",
              "name": "identifier",
              "type": "uint256"
            },
            {
              "internalType": "bytes32[]",
              "name": "criteriaProof",
              "type": "bytes32[]"
            }
          ],
          "internalType": "struct CriteriaResolver[]",
          "name": "criteriaResolvers",
          "type": "tuple[]"
        },
        {
          "components": [
            {
              "components": [
                {
                  "internalType": "uint256",
                  "name": "orderIndex",
                  "type": "uint256"
                },
                {
                  "internalType": "uint256",
                  "name": "itemIndex",
                  "type": "uint256"
                }
              ],
              "internalType": "struct FulfillmentComponent[]",
              "name": "offerComponents",
              "type": "tuple[]"
            },
            {
              "components": [
                {
                  "internalType": "uint256",
                  "name": "orderIndex",
                  "type": "uint256"
                },
                {
                  "internalType": "uint256",
                  "name": "itemIndex",
                  "type": "uint256"
                }
              ],
              "internalType": "struct FulfillmentComponent[]",
              "name": "considerationComponents",
              "type": "tuple[]"
            }
          ],
          "internalType": "struct Fulfillment[]",
          "name": "fulfillments",
          "type": "tuple[]"
        }
      ],
      "name": "executeMatchAdvancedOrders",
      "outputs": [
        {
          "components": [
            {
              "components": [
                {
                  "internalType": "enum ItemType",
                  "name": "itemType",
                  "type": "uint8"
                },
                {
                  "internalType": "address",
                  "name": "token",
                  "type": "address"
                },
                {
                  "internalType": "uint256",
                  "name": "identifier",
                  "type": "uint256"
                },
                {
                  "internalType": "uint256",
                  "name": "amount",
                  "type": "uint256"
                },
                {
                  "internalType": "address payable",
                  "name": "recipient",
                  "type": "address"
                }
              ],
              "internalType": "struct ReceivedItem",
              "name": "item",
              "type": "tuple"
            },
            {
              "internalType": "address",
              "name": "offerer",
              "type": "address"
            },
            {
              "internalType": "bytes32",
              "name": "conduitKey",
              "type": "bytes32"
            }
          ],
          "internalType": "struct Execution[]",
          "name": "executions",
          "type": "tuple[]"
        }
      ],
      "stateMutability": "payable",
      "type": "function"
    },
    {
      "inputs": [
        {
          "internalType": "contract SeaportInterface",
          "name": "seaport",
          "type": "address"
        },
        {
          "components": [
            {
              "components": [
                {
                  "internalType": "address",
                  "name": "offerer",
                  "type": "address"
                },
                {
                  "internalType": "address",
                  "name": "zone",
                  "type": "address"
                },
                {
                  "components": [
                    {
                      "internalType": "enum ItemType",
                      "name": "itemType",
                      "type": "uint8"
                    },
                    {
                      "internalType": "address",
                      "name": "token",
                      "type": "address"
                    },
                    {
                      "internalType": "uint256",
                      "name": "identifierOrCriteria",
                      "type": "uint256"
                    },
                    {
                      "internalType": "uint256",
                      "name": "startAmount",
                      "type": "uint256"
                    },
                    {
                      "internalType": "uint256",
                      "name": "endAmount",
                      "type": "uint256"
                    }
                  ],
                  "internalType": "struct OfferItem[]",
                  "name": "offer",
                  "type": "tuple[]"
                },
                {
                  "components": [
                    {
                      "internalType": "enum ItemType",
                      "name": "itemType",
                      "type": "uint8"
                    },
                    {
                      "internalType": "address",
                      "name": "token",
                      "type": "address"
                    },
                    {
                      "internalType": "uint256",
                      "name": "identifierOrCriteria",
                      "type": "uint256"
                    },
                    {
                      "internalType": "uint256",
                      "name": "startAmount",
                      "type": "uint256"
                    },
                    {
                      "internalType": "uint256",
                      "name": "endAmount",
                      "type": "uint256"
                    },
                    {
                      "internalType": "address payable",
                      "name": "recipient",
                      "type": "address"
                    }
                  ],
                  "internalType": "struct ConsiderationItem[]",
                  "name": "consideration",
                  "type": "tuple[]"
                },
                {
                  "internalType": "enum OrderType",
                  "name": "orderType",
                  "type": "uint8"
                },
                {
                  "internalType": "uint256",
                  "name": "startTime",
                  "type": "uint256"
                },
                {
                  "internalType": "uint256",
                  "name": "endTime",
                  "type": "uint256"
                },
                {
                  "internalType": "bytes32",
                  "name": "zoneHash",
                  "type": "bytes32"
                },
                {
                  "internalType": "uint256",
                  "name": "salt",
                  "type": "uint256"
                },
                {
                  "internalType": "bytes32",
                  "name": "conduitKey",
                  "type": "bytes32"
                },
                {
                  "internalType": "uint256",
                  "name": "totalOriginalConsiderationItems",
                  "type": "uint256"
                }
              ],
              "internalType": "struct OrderParameters",
              "name": "parameters",
              "type": "tuple"
            },
            {
              "internalType": "bytes",
              "name": "signature",
              "type": "bytes"
            }
          ],
          "internalType": "struct Order[]",
          "name": "orders",
          "type": "tuple[]"
        },
        {
          "components": [
            {
              "components": [
                {
                  "internalType": "uint256",
                  "name": "orderIndex",
                  "type": "uint256"
                },
                {
                  "internalType": "uint256",
                  "name": "itemIndex",
                  "type": "uint256"
                }
              ],
              "internalType": "struct FulfillmentComponent[]",
              "name": "offerComponents",
              "type": "tuple[]"
            },
            {
              "components": [
                {
                  "internalType": "uint256",
                  "name": "orderIndex",
                  "type": "uint256"
                },
                {
                  "internalType": "uint256",
                  "name": "itemIndex",
                  "type": "uint256"
                }
              ],
              "internalType": "struct FulfillmentComponent[]",
              "name": "considerationComponents",
              "type": "tuple[]"
            }
          ],
          "internalType": "struct Fulfillment[]",
          "name": "fulfillments",
          "type": "tuple[]"
        }
      ],
      "name": "executeMatchOrders",
      "outputs": [
        {
          "components": [
            {
              "components": [
                {
                  "internalType": "enum ItemType",
                  "name": "itemType",
                  "type": "uint8"
                },
                {
                  "internalType": "address",
                  "name": "token",
                  "type": "address"
                },
                {
                  "internalType": "uint256",
                  "name": "identifier",
                  "type": "uint256"
                },
                {
                  "internalType": "uint256",
                  "name": "amount",
                  "type": "uint256"
                },
                {
                  "internalType": "address payable",
                  "name": "recipient",
                  "type": "address"
                }
              ],
              "internalType": "struct ReceivedItem",
              "name": "item",
              "type": "tuple"
            },
            {
              "internalType": "address",
              "name": "offerer",
              "type": "address"
            },
            {
              "internalType": "bytes32",
              "name": "conduitKey",
              "type": "bytes32"
            }
          ],
          "internalType": "struct Execution[]",
          "name": "executions",
          "type": "tuple[]"
        }
      ],
      "stateMutability": "payable",
      "type": "function"
    },
    {
      "inputs": [],
      "name": "getSeaportMetadata",
      "outputs": [
        {
          "internalType": "string",
          "name": "name",
          "type": "string"
        },
        {
          "components": [
            {
              "internalType": "uint256",
              "name": "id",
              "type": "uint256"
            },
            {
              "internalType": "bytes",
              "name": "metadata",
              "type": "bytes"
            }
          ],
          "internalType": "struct Schema[]",
          "name": "schemas",
          "type": "tuple[]"
        }
      ],
      "stateMutability": "pure",
      "type": "function"
    },
    {
      "inputs": [],
      "name": "operator",
      "outputs": [
        {
          "internalType": "address",
          "name": "",
          "type": "address"
        }
      ],
      "stateMutability": "view",
      "type": "function"
    },
    {
      "inputs": [
        {
          "internalType": "address",
          "name": "payee",
          "type": "address"
        }
      ],
      "name": "pause",
      "outputs": [],
      "stateMutability": "nonpayable",
      "type": "function"
    },
    {
      "inputs": [
        {
          "components": [
            {
              "internalType": "bytes32",
              "name": "orderHash",
              "type": "bytes32"
            },
            {
              "internalType": "address",
              "name": "fulfiller",
              "type": "address"
            },
            {
              "internalType": "address",
              "name": "offerer",
              "type": "address"
            },
            {
              "components": [
                {
                  "internalType": "enum ItemType",
                  "name": "itemType",
                  "type": "uint8"
                },
                {
                  "internalType": "address",
                  "name": "token",
                  "type": "address"
                },
                {
                  "internalType": "uint256",
                  "name": "identifier",
                  "type": "uint256"
                },
                {
                  "internalType": "uint256",
                  "name": "amount",
                  "type": "uint256"
                }
              ],
              "internalType": "struct SpentItem[]",
              "name": "offer",
              "type": "tuple[]"
            },
            {
              "components": [
                {
                  "internalType": "enum ItemType",
                  "name": "itemType",
                  "type": "uint8"
                },
                {
                  "internalType": "address",
                  "name": "token",
                  "type": "address"
                },
                {
                  "internalType": "uint256",
                  "name": "identifier",
                  "type": "uint256"
                },
                {
                  "internalType": "uint256",
                  "name": "amount",
                  "type": "uint256"
                },
                {
                  "internalType": "address payable",
                  "name": "recipient",
                  "type": "address"
                }
              ],
              "internalType": "struct ReceivedItem[]",
              "name": "consideration",
              "type": "tuple[]"
            },
            {
              "internalType": "bytes",
              "name": "extraData",
              "type": "bytes"
            },
            {
              "internalType": "bytes32[]",
              "name": "orderHashes",
              "type": "bytes32[]"
            },
            {
              "internalType": "uint256",
              "name": "startTime",
              "type": "uint256"
            },
            {
              "internalType": "uint256",
              "name": "endTime",
              "type": "uint256"
            },
            {
              "internalType": "bytes32",
              "name": "zoneHash",
              "type": "bytes32"
            }
          ],
          "internalType": "struct ZoneParameters",
          "name": "",
          "type": "tuple"
        }
      ],
      "name": "validateOrder",
      "outputs": [
        {
          "internalType": "bytes4",
          "name": "validOrderMagicValue",
          "type": "bytes4"
        }
      ],
      "stateMutability": "pure",
      "type": "function"
    }
  ],
  "bytecode": "0x60a0806040523461006457336080527fa45f47fdea8a1efdd9029a5691c7f759c32b7c698632b563573e155625d16933600080a161154a908161006a8239608051818181610247015281816102bf015281816103e70152818161084d0152610c5d0152f35b600080fdfe608080604052600436101561001357600080fd5b60003560e01c90816317b1f94214610c85575080632718034d14610a965780632e778efc146108c7578063570ca7351461087557806365c4eb721461043557806376a67a511461039757806384385c6f1461026f5763e5c27af11461007757600080fd5b346101a95760407ffffffffffffffffffffffffffffffffffffffffffffffffffffffffffffffffc3601126101a9576100ae610cfc565b60243567ffffffffffffffff81116101a9576100ce903690600401610d1f565b9173ffffffffffffffffffffffffffffffffffffffff806000541633141580610243575b610219576040929192519283917ffd9f1e10000000000000000000000000000000000000000000000000000000008352602483019386602097889687600488015252604485019060448160051b8701019280926000915b8383106101c15750505050508391826000920393165af19081156101b55760009161017a575b506040519015158152f35b90508181813d83116101ae575b6101918183610eca565b810103126101a9575180151581036101a9573861016f565b600080fd5b503d610187565b6040513d6000823e3d90fd5b92959798610206867fffffffffffffffffffffffffffffffffffffffffffffffffffffffffffffffbc8394979a9c60019699030187526102018a87611121565b610f0b565b9701930193018997959389979592610149565b60046040517fccea9e6f000000000000000000000000000000000000000000000000000000008152fd5b50807f0000000000000000000000000000000000000000000000000000000000000000163314156100f2565b346101a95760207ffffffffffffffffffffffffffffffffffffffffffffffffffffffffffffffffc3601126101a9576102a6610cfc565b73ffffffffffffffffffffffffffffffffffffffff90817f000000000000000000000000000000000000000000000000000000000000000016330361036d57168015610343576020817fb3b3f5f64ab192e4b5fefde1f51ce9733bbdcf831951543b325aebd49cc27ec4927fffffffffffffffffffffffff00000000000000000000000000000000000000006000541617600055604051908152a1005b60046040517f5384e6f5000000000000000000000000000000000000000000000000000000008152fd5b60046040517f6d5769be000000000000000000000000000000000000000000000000000000008152fd5b346101a95760207ffffffffffffffffffffffffffffffffffffffffffffffffffffffffffffffffc3601126101a9576103ce610cfc565b73ffffffffffffffffffffffffffffffffffffffff90817f000000000000000000000000000000000000000000000000000000000000000016330361036d577f9e87fac88ff661f02d44f95383c817fece4bce600a3dab7a54406878b965e752600080a116ff5b60807ffffffffffffffffffffffffffffffffffffffffffffffffffffffffffffffffc3601126101a957610467610cfc565b60243567ffffffffffffffff81116101a957610487903690600401610d1f565b919060443567ffffffffffffffff81116101a9576104a9903690600401610d1f565b60649291923567ffffffffffffffff81116101a9576104cc903690600401610d1f565b92909173ffffffffffffffffffffffffffffffffffffffff6000541633141580610835575b6102195795929190936040519687957ff2d12b120000000000000000000000000000000000000000000000000000000087528560848801608060048a01525260a487019560a48160051b89010196826000905b8382106107525750505050507ffffffffffffffffffffffffffffffffffffffffffffffffffffffffffffffffc868603016024870152808552602085019060208160051b87010195836000915b83831061063c57896000818d81806105d48f8f8f7ffffffffffffffffffffffffffffffffffffffffffffffffffffffffffffffffc858403016044860152611427565b336064830152039173ffffffffffffffffffffffffffffffffffffffff3491165af180156101b55761061591600091610619575b5060405191829182610d8c565b0390f35b61063691503d806000833e61062e8183610eca565b810190611174565b82610608565b919395969790929498507fffffffffffffffffffffffffffffffffffffffffffffffffffffffffffffffe082820301865261067789846114cf565b80358252602081013560028110156101a9576020830152604081013560408301526060808201359083015260808101357fffffffffffffffffffffffffffffffffffffffffffffffffffffffffffffffe1823603018112156101a957016020813591019167ffffffffffffffff82116101a9578160051b9182360384136101a957807f07ffffffffffffffffffffffffffffffffffffffffffffffffffffffffffffff9160a0806080860152840152116101a9576001928260209392849360c0938483013701019a019601930190918a989796959492610591565b91939697987fffffffffffffffffffffffffffffffffffffffffffffffffffffffffffffff5c6001929496979b820301855261078e88846114cf565b906108206107ac61079f8480611121565b60a0808552840190610f0b565b926effffffffffffffffffffffffffffff926108126108076020968688976107d58988016114b3565b16888601526107e6604087016114b3565b16604085015260606107fa818701876112d4565b9186840390870152611324565b9260808101906112d4565b916080818503910152611324565b9801940192018b999594929198979698610544565b5073ffffffffffffffffffffffffffffffffffffffff7f0000000000000000000000000000000000000000000000000000000000000000163314156104f1565b346101a95760007ffffffffffffffffffffffffffffffffffffffffffffffffffffffffffffffffc3601126101a957602073ffffffffffffffffffffffffffffffffffffffff60005416604051908152f35b346101a95760007ffffffffffffffffffffffffffffffffffffffffffffffffffffffffffffffffc3601126101a95760405161090281610eae565b600180825260005b6020908181101561097a57604051604081019281841067ffffffffffffffff85111761094b576020936040526000825260608183015282860101520161090a565b7f4e487b7100000000000000000000000000000000000000000000000000000000600052604160045260246000fd5b8284610bbb61098882611501565b51526040519060209182810181811067ffffffffffffffff82111761094b5760409492945260008152826109bb85611501565b510152604051916109cb83610eae565b600c83527f5061757361626c655a6f6e65000000000000000000000000000000000000000081840152610a0960405193604085526040850190610e2f565b90838203818501528451908183528083019281808460051b8301019701936000915b848310610a385787890388f35b9091929394958480610a848b7fffffffffffffffffffffffffffffffffffffffffffffffffffffffffffffffe086869e030187526040838c518051845201519181858201520190610e2f565b9a980196959491909101920190610a2b565b7ffffffffffffffffffffffffffffffffffffffffffffffffffffffffffffffffc6060813601126101a957610ac9610cfc565b67ffffffffffffffff91906024358381116101a957610aec903690600401610d1f565b936044359081116101a957610b05903690600401610d1f565b9073ffffffffffffffffffffffffffffffffffffffff94856000541633141580610c59575b6102195795939291906040519687957fa81744040000000000000000000000000000000000000000000000000000000087528060448801604060048a015252606487019060648160051b8901019580926000915b838310610bc85750896000818d818d81610ba38f8f8f8f858403016024860152611427565b03923491165af180156101b55761061591600091610619575060405191829182610d8c565b91939899887fffffffffffffffffffffffffffffffffffffffffffffffffffffffffffffff9c610c36926001949698999a9b03018552610c43610c0b8c86611363565b91610c27610c198480611121565b604083526040830190610f0b565b906020948486809601906112d4565b9185818503910152611324565b9a019301930190928b9998979695949293610b7e565b50857f000000000000000000000000000000000000000000000000000000000000000016331415610b2a565b346101a9577ffffffffffffffffffffffffffffffffffffffffffffffffffffffffffffffffc6020813601126101a9576004359067ffffffffffffffff82116101a95761014091360301126101a957807f17b1f9420000000000000000000000000000000000000000000000000000000060209252f35b6004359073ffffffffffffffffffffffffffffffffffffffff821682036101a957565b9181601f840112156101a95782359167ffffffffffffffff83116101a9576020808501948460051b0101116101a957565b906006821015610d5d5752565b7f4e487b7100000000000000000000000000000000000000000000000000000000600052602160045260246000fd5b60208082019080835283518092528060408094019401926000905b838210610db657505050505090565b90919293948360e06001928489518051610dd1848251610d50565b73ffffffffffffffffffffffffffffffffffffffff9081878201511687860152838101518486015260608082015190860152816080809201511690850152858201511660a0840152015160c082015201960192019093929193610da7565b919082519283825260005b848110610e795750507fffffffffffffffffffffffffffffffffffffffffffffffffffffffffffffffe0601f8460006020809697860101520116010190565b602081830181015184830182015201610e3a565b359073ffffffffffffffffffffffffffffffffffffffff821682036101a957565b6040810190811067ffffffffffffffff82111761094b57604052565b90601f7fffffffffffffffffffffffffffffffffffffffffffffffffffffffffffffffe0910116810190811067ffffffffffffffff82111761094b57604052565b610160919073ffffffffffffffffffffffffffffffffffffffff83830181610f3284610e8d565b16845260209180610f44848601610e8d565b1683860152604080850135937fffffffffffffffffffffffffffffffffffffffffffffffffffffffffffffffe18636030194858112156101a95786019481863596019567ffffffffffffffff998a82116101a95760a096878302360389136101a9578291868c0152526101808901969060005b8181106110d15750505060609081880135908112156101a95787019282843594019984116101a95760c09687850236038b136101a957898103838b015284815283019994939260009291905b8484106110615750505050505050608083013560058110156101a95760808501528083013590840152808201359083015260e081013560e0830152610100808201359083015261012080820135908301526101408091013591015290565b9091929394959a8b3560068110156101a957611089838e611083858c95610d50565b01610e8d565b1682820152828c013583820152838c0135848201526080808d013590820152878c0135908782168092036101a9578881019190915288019a8801959493600101929190611003565b90919788359060068210156101a9578881896110f5898e6110838697600199610d50565b16818901528b890135898201526060808d0135908201526080808d013590820152019901929101610fb7565b90357ffffffffffffffffffffffffffffffffffffffffffffffffffffffffffffffea1823603018112156101a9570190565b519073ffffffffffffffffffffffffffffffffffffffff821682036101a957565b90602080838303126101a957825167ffffffffffffffff938482116101a957019082601f830112156101a95781519284841161094b576040948551956111bf848760051b0188610eca565b858752838701928460e0809802870101958187116101a9578501935b8685106111ed57505050505050505090565b848203908882126101a95783519060609182810192818410888511176112a65760a08095126101a9576101008201848110898211176112a6578752885160068110156101a95784526112408a8a01611153565b9060809182840152878a0151868401528901519060c0918284015289015173ffffffffffffffffffffffffffffffffffffffff811681036101a9578c958b95611290928886015284528a01611153565b84830152880151868201528152019401936111db565b602460007f4e487b710000000000000000000000000000000000000000000000000000000081526041600452fd5b90357fffffffffffffffffffffffffffffffffffffffffffffffffffffffffffffffe1823603018112156101a957016020813591019167ffffffffffffffff82116101a95781360383136101a957565b601f82602094937fffffffffffffffffffffffffffffffffffffffffffffffffffffffffffffffe0938186528686013760008582860101520116010190565b90357fffffffffffffffffffffffffffffffffffffffffffffffffffffffffffffffc1823603018112156101a9570190565b90357fffffffffffffffffffffffffffffffffffffffffffffffffffffffffffffffe1823603018112156101a957016020813591019167ffffffffffffffff82116101a9578160061b360383136101a957565b9190808252602080920192916000905b828210611406575050505090565b833585528381013585820152604094850194909301926001909101906113f8565b90808352602080930192838260051b850194846000925b85841061144f575050505050505090565b9091929394959685806114a2838560019503885261146d8c88611363565b9061149561148b61147e8480611395565b60408086528501916113e8565b9285810190611395565b91858185039101526113e8565b99019401940192959493919061143e565b35906effffffffffffffffffffffffffffff821682036101a957565b90357fffffffffffffffffffffffffffffffffffffffffffffffffffffffffffffff61823603018112156101a9570190565b80511561150e5760200190565b7f4e487b7100000000000000000000000000000000000000000000000000000000600052603260045260246000fdfea164736f6c6343000811000a",
  "linkReferences": {},
  "deployedLinkReferences": {}
}