{
  "_format": "hh-sol-artifact-1",
  "contractName": "DiamondLoupeFacet",
  "sourceName": "contracts/diamond/facets/DiamondLoupeFacet.sol",
  "abi": [
    {
      "inputs": [
        {
          "internalType": "bytes4",
          "name": "_functionSelector",
          "type": "bytes4"
        }
      ],
      "name": "facetAddress",
      "outputs": [
        {
          "internalType": "address",
          "name": "facetAddress_",
          "type": "address"
        }
      ],
      "stateMutability": "view",
      "type": "function"
    },
    {
      "inputs": [],
      "name": "facetAddresses",
      "outputs": [
        {
          "internalType": "address[]",
          "name": "facetAddresses_",
          "type": "address[]"
        }
      ],
      "stateMutability": "view",
      "type": "function"
    },
    {
      "inputs": [
        {
          "internalType": "address",
          "name": "_facet",
          "type": "address"
        }
      ],
      "name": "facetFunctionSelectors",
      "outputs": [
        {
          "internalType": "bytes4[]",
          "name": "facetFunctionSelectors_",
          "type": "bytes4[]"
        }
      ],
      "stateMutability": "view",
      "type": "function"
    },
    {
      "inputs": [],
      "name": "facets",
      "outputs": [
        {
          "components": [
            {
              "internalType": "address",
              "name": "facetAddress",
              "type": "address"
            },
            {
              "internalType": "bytes4[]",
              "name": "functionSelectors",
              "type": "bytes4[]"
            }
          ],
          "internalType": "struct IDiamondLoupe.Facet[]",
          "name": "facets_",
          "type": "tuple[]"
        }
      ],
      "stateMutability": "view",
      "type": "function"
    }
  ],
  "bytecode": "0x608060405234801561001057600080fd5b50610b84806100206000396000f3fe608060405234801561001057600080fd5b506004361061004c5760003560e01c806352ef6b2c146100515780637a0ed6271461006f578063adfca15e14610084578063cdffacc6146100a4575b600080fd5b6100596100f6565b60405161006691906108e0565b60405180910390f35b6100776102c2565b6040516100669190610972565b6100976100923660046109ef565b610768565b6040516100669190610a1f565b6100de6100b2366004610a32565b6001600160e01b0319166000908152600080516020610b2f833981519152602052604090205460601c90565b6040516001600160a01b039091168152602001610066565b7fc8fcad8db84d3cc18b4c41d551ea0ee66dd599cde068d998e57d5e09332c131e54606090600080516020610b2f8339815191529061ffff1667ffffffffffffffff81111561014757610147610a5c565b604051908082528060200260200182016040528015610170578160200160208202803683370190505b50915060008060005b600284015461ffff168210156102ba576000818152600185016020526040812054905b60088110156102a557836101af81610a88565b600288015490955061ffff1685111590506101c9576102a5565b600581901b82901b6001600160e01b0319811660009081526020889052604081205460601c90805b88811015610247578a818151811061020b5761020b610aa3565b60200260200101516001600160a01b0316836001600160a01b031614156102355760019150610247565b8061023f81610a88565b9150506101f1565b5080156102575750610293915050565b818a898151811061026a5761026a610aa3565b6001600160a01b03909216602092830291909101909101528761028c81610a88565b9850505050505b8061029d81610a88565b91505061019c565b505080806102b290610a88565b915050610179565b505082525090565b7fc8fcad8db84d3cc18b4c41d551ea0ee66dd599cde068d998e57d5e09332c131e54606090600080516020610b2f8339815191529061ffff1667ffffffffffffffff81111561031357610313610a5c565b60405190808252806020026020018201604052801561035957816020015b6040805180820190915260008152606060208201528152602001906001900390816103315790505b50600282015490925060009061ffff1667ffffffffffffffff81111561038157610381610a5c565b6040519080825280602002602001820160405280156103aa578160200160208202803683370190505b50905060008060005b600285015461ffff168210156106f6576000818152600186016020526040812054905b60088110156106e157836103e981610a88565b600289015490955061ffff168511159050610403576106e1565b600581901b82901b6001600160e01b0319811660009081526020899052604081205460601c90805b8881101561059e57826001600160a01b03168c828151811061044f5761044f610aa3565b6020026020010151600001516001600160a01b0316141561058c57838c828151811061047d5761047d610aa3565b6020026020010151602001518b838151811061049b5761049b610aa3565b602002602001015160ff16815181106104b6576104b6610aa3565b60200260200101906001600160e01b03191690816001600160e01b0319168152505060ff8a82815181106104ec576104ec610aa3565b602002602001015160ff16106040518060400160405280601c81526020017f546f6f206d616e792066756e6374696f6e73206f6e2066616365742e00000000815250906105555760405162461bcd60e51b815260040161054c9190610ab9565b60405180910390fd5b5089818151811061056857610568610aa3565b60200260200101805180919061057d90610b0e565b60ff169052506001915061059e565b8061059681610a88565b91505061042b565b5080156105ae57506106cf915050565b818b89815181106105c1576105c1610aa3565b60209081029190910101516001600160a01b03909116905260028a015461ffff1667ffffffffffffffff8111156105fa576105fa610a5c565b604051908082528060200260200182016040528015610623578160200160208202803683370190505b508b898151811061063657610636610aa3565b602002602001015160200181905250828b898151811061065857610658610aa3565b60200260200101516020015160008151811061067657610676610aa3565b60200260200101906001600160e01b03191690816001600160e01b0319168152505060018989815181106106ac576106ac610aa3565b60ff90921660209283029190910190910152876106c881610a88565b9850505050505b806106d981610a88565b9150506103d6565b505080806106ee90610a88565b9150506103b3565b5060005b8281101561075d57600084828151811061071657610716610aa3565b602002602001015160ff169050600087838151811061073757610737610aa3565b60200260200101516020015190508181525050808061075590610a88565b9150506106fa565b508185525050505090565b7fc8fcad8db84d3cc18b4c41d551ea0ee66dd599cde068d998e57d5e09332c131e54606090600080516020610b2f8339815191529060009061ffff1667ffffffffffffffff8111156107bc576107bc610a5c565b6040519080825280602002602001820160405280156107e5578160200160208202803683370190505b5092506000805b600284015461ffff168210156108d6576000818152600185016020526040812054905b60088110156108c1578361082281610a88565b600288015490955061ffff16851115905061083c576108c1565b600581901b82901b6001600160e01b0319811660009081526020889052604090205460601c6001600160a01b038a168114156108ac578189888151811061088557610885610aa3565b6001600160e01b031990921660209283029190910190910152866108a881610a88565b9750505b505080806108b990610a88565b91505061080f565b505080806108ce90610a88565b9150506107ec565b5050825250919050565b6020808252825182820181905260009190848201906040850190845b818110156109215783516001600160a01b0316835292840192918401916001016108fc565b50909695505050505050565b600081518084526020808501945080840160005b838110156109675781516001600160e01b03191687529582019590820190600101610941565b509495945050505050565b60006020808301818452808551808352604092508286019150828160051b87010184880160005b838110156109e157888303603f19018552815180516001600160a01b031684528701518784018790526109ce8785018261092d565b9588019593505090860190600101610999565b509098975050505050505050565b600060208284031215610a0157600080fd5b81356001600160a01b0381168114610a1857600080fd5b9392505050565b602081526000610a18602083018461092d565b600060208284031215610a4457600080fd5b81356001600160e01b031981168114610a1857600080fd5b634e487b7160e01b600052604160045260246000fd5b634e487b7160e01b600052601160045260246000fd5b6000600019821415610a9c57610a9c610a72565b5060010190565b634e487b7160e01b600052603260045260246000fd5b600060208083528351808285015260005b81811015610ae657858101830151858201604001528201610aca565b81811115610af8576000604083870101525b50601f01601f1916929092016040019392505050565b600060ff821660ff811415610b2557610b25610a72565b6001019291505056fec8fcad8db84d3cc18b4c41d551ea0ee66dd599cde068d998e57d5e09332c131ca26469706673582212207bf74c92fa36e87d7899ea75d75d14661b5c2f30fdfb383dc75895faff82712c64736f6c63430008090033",
  "linkReferences": {},
  "deployedLinkReferences": {}
}