{
  "_format": "hh-sol-artifact-1",
  "contractName": "ConduitControllerMock",
  "sourceName": "contracts/test/ConduitControllerMock.sol",
  "abi": [
    {
      "inputs": [
        {
          "internalType": "uint256",
          "name": "_conduitNum",
          "type": "uint256"
        }
      ],
      "stateMutability": "nonpayable",
      "type": "constructor"
    },
    {
      "inputs": [
        {
          "internalType": "address",
          "name": "conduit",
          "type": "address"
        }
      ],
      "name": "CallerIsNotNewPotentialOwner",
      "type": "error"
    },
    {
      "inputs": [
        {
          "internalType": "address",
          "name": "conduit",
          "type": "address"
        }
      ],
      "name": "CallerIsNotOwner",
      "type": "error"
    },
    {
      "inputs": [
        {
          "internalType": "address",
          "name": "conduit",
          "type": "address"
        }
      ],
      "name": "ChannelOutOfRange",
      "type": "error"
    },
    {
      "inputs": [
        {
          "internalType": "address",
          "name": "conduit",
          "type": "address"
        }
      ],
      "name": "ConduitAlreadyExists",
      "type": "error"
    },
    {
      "inputs": [],
      "name": "InvalidCreator",
      "type": "error"
    },
    {
      "inputs": [],
      "name": "InvalidInitialOwner",
      "type": "error"
    },
    {
      "inputs": [
        {
          "internalType": "address",
          "name": "conduit",
          "type": "address"
        },
        {
          "internalType": "address",
          "name": "newPotentialOwner",
          "type": "address"
        }
      ],
      "name": "NewPotentialOwnerAlreadySet",
      "type": "error"
    },
    {
      "inputs": [
        {
          "internalType": "address",
          "name": "conduit",
          "type": "address"
        }
      ],
      "name": "NewPotentialOwnerIsZeroAddress",
      "type": "error"
    },
    {
      "inputs": [],
      "name": "NoConduit",
      "type": "error"
    },
    {
      "inputs": [
        {
          "internalType": "address",
          "name": "conduit",
          "type": "address"
        }
      ],
      "name": "NoPotentialOwnerCurrentlySet",
      "type": "error"
    },
    {
      "anonymous": false,
      "inputs": [
        {
          "indexed": false,
          "internalType": "address",
          "name": "conduit",
          "type": "address"
        },
        {
          "indexed": false,
          "internalType": "bytes32",
          "name": "conduitKey",
          "type": "bytes32"
        }
      ],
      "name": "NewConduit",
      "type": "event"
    },
    {
      "anonymous": false,
      "inputs": [
        {
          "indexed": true,
          "internalType": "address",
          "name": "conduit",
          "type": "address"
        },
        {
          "indexed": true,
          "internalType": "address",
          "name": "previousOwner",
          "type": "address"
        },
        {
          "indexed": true,
          "internalType": "address",
          "name": "newOwner",
          "type": "address"
        }
      ],
      "name": "OwnershipTransferred",
      "type": "event"
    },
    {
      "anonymous": false,
      "inputs": [
        {
          "indexed": true,
          "internalType": "address",
          "name": "newPotentialOwner",
          "type": "address"
        }
      ],
      "name": "PotentialOwnerUpdated",
      "type": "event"
    },
    {
      "inputs": [
        {
          "internalType": "address",
          "name": "conduit",
          "type": "address"
        }
      ],
      "name": "acceptOwnership",
      "outputs": [],
      "stateMutability": "nonpayable",
      "type": "function"
    },
    {
      "inputs": [
        {
          "internalType": "address",
          "name": "conduit",
          "type": "address"
        }
      ],
      "name": "cancelOwnershipTransfer",
      "outputs": [],
      "stateMutability": "nonpayable",
      "type": "function"
    },
    {
      "inputs": [
        {
          "internalType": "bytes32",
          "name": "conduitKey",
          "type": "bytes32"
        },
        {
          "internalType": "address",
          "name": "initialOwner",
          "type": "address"
        }
      ],
      "name": "createConduit",
      "outputs": [
        {
          "internalType": "address",
          "name": "conduit",
          "type": "address"
        }
      ],
      "stateMutability": "nonpayable",
      "type": "function"
    },
    {
      "inputs": [
        {
          "internalType": "address",
          "name": "conduit",
          "type": "address"
        },
        {
          "internalType": "uint256",
          "name": "channelIndex",
          "type": "uint256"
        }
      ],
      "name": "getChannel",
      "outputs": [
        {
          "internalType": "address",
          "name": "channel",
          "type": "address"
        }
      ],
      "stateMutability": "view",
      "type": "function"
    },
    {
      "inputs": [
        {
          "internalType": "address",
          "name": "conduit",
          "type": "address"
        },
        {
          "internalType": "address",
          "name": "channel",
          "type": "address"
        }
      ],
      "name": "getChannelStatus",
      "outputs": [
        {
          "internalType": "bool",
          "name": "isOpen",
          "type": "bool"
        }
      ],
      "stateMutability": "view",
      "type": "function"
    },
    {
      "inputs": [
        {
          "internalType": "address",
          "name": "conduit",
          "type": "address"
        }
      ],
      "name": "getChannels",
      "outputs": [
        {
          "internalType": "address[]",
          "name": "channels",
          "type": "address[]"
        }
      ],
      "stateMutability": "view",
      "type": "function"
    },
    {
      "inputs": [
        {
          "internalType": "bytes32",
          "name": "conduitKey",
          "type": "bytes32"
        }
      ],
      "name": "getConduit",
      "outputs": [
        {
          "internalType": "address",
          "name": "conduit",
          "type": "address"
        },
        {
          "internalType": "bool",
          "name": "exists",
          "type": "bool"
        }
      ],
      "stateMutability": "view",
      "type": "function"
    },
    {
      "inputs": [],
      "name": "getConduitCodeHashes",
      "outputs": [
        {
          "internalType": "bytes32",
          "name": "creationCodeHash",
          "type": "bytes32"
        },
        {
          "internalType": "bytes32",
          "name": "runtimeCodeHash",
          "type": "bytes32"
        }
      ],
      "stateMutability": "view",
      "type": "function"
    },
    {
      "inputs": [
        {
          "internalType": "address",
          "name": "conduit",
          "type": "address"
        }
      ],
      "name": "getKey",
      "outputs": [
        {
          "internalType": "bytes32",
          "name": "conduitKey",
          "type": "bytes32"
        }
      ],
      "stateMutability": "view",
      "type": "function"
    },
    {
      "inputs": [
        {
          "internalType": "address",
          "name": "conduit",
          "type": "address"
        }
      ],
      "name": "getPotentialOwner",
      "outputs": [
        {
          "internalType": "address",
          "name": "potentialOwner",
          "type": "address"
        }
      ],
      "stateMutability": "view",
      "type": "function"
    },
    {
      "inputs": [
        {
          "internalType": "address",
          "name": "conduit",
          "type": "address"
        }
      ],
      "name": "getTotalChannels",
      "outputs": [
        {
          "internalType": "uint256",
          "name": "totalChannels",
          "type": "uint256"
        }
      ],
      "stateMutability": "view",
      "type": "function"
    },
    {
      "inputs": [
        {
          "internalType": "address",
          "name": "conduit",
          "type": "address"
        }
      ],
      "name": "ownerOf",
      "outputs": [
        {
          "internalType": "address",
          "name": "owner",
          "type": "address"
        }
      ],
      "stateMutability": "view",
      "type": "function"
    },
    {
      "inputs": [
        {
          "internalType": "address",
          "name": "conduit",
          "type": "address"
        },
        {
          "internalType": "address",
          "name": "newPotentialOwner",
          "type": "address"
        }
      ],
      "name": "transferOwnership",
      "outputs": [],
      "stateMutability": "nonpayable",
      "type": "function"
    },
    {
      "inputs": [
        {
          "internalType": "address",
          "name": "conduit",
          "type": "address"
        },
        {
          "internalType": "address",
          "name": "channel",
          "type": "address"
        },
        {
          "internalType": "bool",
          "name": "isOpen",
          "type": "bool"
        }
      ],
      "name": "updateChannel",
      "outputs": [],
      "stateMutability": "nonpayable",
      "type": "function"
    }
  ],
  "bytecode": "0x604060c081523462000252576200292d80380390816200001f8162000257565b92839283396020928391810103126200025257518060015560008091801560001462000105575050506102886200005882820162000257565b81815262001f2a9281019082848339519020835190928282016001600160401b03811183821017620000ef5760009383928339039082f58015620000e4576001600160a01b03163f905b60805260a05251611cac90816200027e8239608051818181610461015281816108310152610fc5015260a0518181816104c40152818161089c0152610fe80152f35b82513d6000823e3d90fd5b634e487b7160e01b600052604160045260246000fd5b60018103620001705750505061026d6200012182820162000257565b818152620026c09281019082848339519020835190928282016001600160401b03811183821017620000ef5760009383928339039082f58015620000e4576001600160a01b03163f90620000a2565b60028103620001db575050506102886200018c82820162000257565b818152620021b29281019082848339519020835190928282016001600160401b03811183821017620000ef5760009383928339039082f58015620000e4576001600160a01b03163f90620000a2565b91929091600314620001ef575b50620000a2565b9150506102866200020282820162000257565b8181526200243a9281019082848339519020835190928282016001600160401b03811183821017620000ef5760009383928339039082f58015620000e4576001600160a01b03163f9038620001e8565b600080fd5b6040519190601f01601f191682016001600160401b03811183821017620000ef5760405256fe6040608081526004908136101561001557600080fd5b6000803560e01c8063027cc7641461100e5780630a96ad3914610f9157806313ad9cab14610c7857806314afd79e14610c3957806333bc857214610bb55780634e3f958014610b4857806351710e4514610a0b5780636d435421146108c65780636e9bfd9f146107a0578063794593bc146103a15780637b37e561146102a75780638b9e028b146101c2578063906c87cc1461014d576393790f44146100ba57600080fd5b3461014a5760207ffffffffffffffffffffffffffffffffffffffffffffffffffffffffffffffffc36011261014a57819073ffffffffffffffffffffffffffffffffffffffff6101086110d6565b168152806020522054908115610122576020925051908152f35b9050517f4ca82090000000000000000000000000000000000000000000000000000000008152fd5b80fd5b5090346101be5760207ffffffffffffffffffffffffffffffffffffffffffffffffffffffffffffffffc3601126101be5760209160028261018c6110d6565b9261019684611247565b73ffffffffffffffffffffffffffffffffffffffff8094168152808652200154169051908152f35b5080fd5b5090346101be576020807ffffffffffffffffffffffffffffffffffffffffffffffffffffffffffffffffc3601126102a3576101fc6110d6565b9261020684611247565b73ffffffffffffffffffffffffffffffffffffffff809416815280825260038382200191835190818185549182815201908195855282852090855b81811061028d5750505082610257910383611121565b8451948186019282875251809352850193925b8281106102775785850386f35b835187168552938101939281019260010161026a565b82548a1684529284019260019283019201610241565b8280fd5b5091346102a35760207ffffffffffffffffffffffffffffffffffffffffffffffffffffffffffffffffc3601126102a3576102e06110d6565b906102ea826111d8565b73ffffffffffffffffffffffffffffffffffffffff8092169182855284602052600284862001541615610373575090600291837f11a3cf439fb225bfe74225716b6774765670ec1060e3796802e62139d69974da8180a28352826020528220017fffffffffffffffffffffffff0000000000000000000000000000000000000000815416905580f35b9060249251917f6b013616000000000000000000000000000000000000000000000000000000008352820152fd5b5082346101be57827ffffffffffffffffffffffffffffffffffffffffffffffffffffffffffffffffc3601126101be5773ffffffffffffffffffffffffffffffffffffffff8135816103f16110fe565b1691821561077857338260601c036107505785517fff00000000000000000000000000000000000000000000000000000000000000602082019081523060601b7fffffffffffffffffffffffffffffffffffffffff000000000000000000000000166021830152603582018490527f00000000000000000000000000000000000000000000000000000000000000006055830152906104bb81607581015b037fffffffffffffffffffffffffffffffffffffffffffffffffffffffffffffffe08101835282611121565b5190201692833f7f00000000000000000000000000000000000000000000000000000000000000001461072157600154806105ec57508551906102888083019183831067ffffffffffffffff8411176105c05750918091849361129d8339039086f5156105b657937f4397af6128d529b8ae0442f99db1296d5136062597a15bbc61c1b2a6431a7d15816020965b8587528688528082882060018101877fffffffffffffffffffffffff00000000000000000000000000000000000000008254161790555581519086825288820152a15192827fc8894f26f396ce8c004245c8b7cd1b92103a6e4302fcbab883987149ac01b7ec8280a48152f35b84513d85823e3d90fd5b8760416024927f4e487b7100000000000000000000000000000000000000000000000000000000835252fd5b60018103610651575085519061026d8083019183831067ffffffffffffffff8411176105c057509180918493611a338339039086f5156105b657937f4397af6128d529b8ae0442f99db1296d5136062597a15bbc61c1b2a6431a7d1581602096610549565b600281036106b657508551906102888083019183831067ffffffffffffffff8411176105c0575091809184936115258339039086f5156105b657937f4397af6128d529b8ae0442f99db1296d5136062597a15bbc61c1b2a6431a7d1581602096610549565b6003146106ea575b50937f4397af6128d529b8ae0442f99db1296d5136062597a15bbc61c1b2a6431a7d1581602096610549565b8551906102868083019183831067ffffffffffffffff8411176105c0575091809184936117ad8339039086f5156105b657856106be565b602490848751917f6328ccb2000000000000000000000000000000000000000000000000000000008352820152fd5b8386517fcb6e5344000000000000000000000000000000000000000000000000000000008152fd5b8386517f99faaa04000000000000000000000000000000000000000000000000000000008152fd5b5082903461014a5760207ffffffffffffffffffffffffffffffffffffffffffffffffffffffffffffffffc36011261014a575081517fff00000000000000000000000000000000000000000000000000000000000000602082019081523060601b7fffffffffffffffffffffffffffffffffffffffff000000000000000000000000166021830152913560358201527f0000000000000000000000000000000000000000000000000000000000000000605582015273ffffffffffffffffffffffffffffffffffffffff9190610879816075810161048f565b5190209151911673ffffffffffffffffffffffffffffffffffffffff811682523f7f0000000000000000000000000000000000000000000000000000000000000000146020820152604090f35b509190346102a357807ffffffffffffffffffffffffffffffffffffffffffffffffffffffffffffffffc3601126102a3576108ff6110d6565b916109086110fe565b90610912846111d8565b73ffffffffffffffffffffffffffffffffffffffff8092169384156109db5782169182865285602052600284872001541684146109a7575090600291837f11a3cf439fb225bfe74225716b6774765670ec1060e3796802e62139d69974da8680a2845283602052832001907fffffffffffffffffffffffff000000000000000000000000000000000000000082541617905580f35b836044928451927fcbc080ca0000000000000000000000000000000000000000000000000000000084528301526024820152fd5b9160249351927fa388d2630000000000000000000000000000000000000000000000000000000084521690820152fd5b5082346101be5760207ffffffffffffffffffffffffffffffffffffffffffffffffffffffffffffffffc3601126101be57610a446110d6565b92610a4e84611247565b73ffffffffffffffffffffffffffffffffffffffff80941691828452836020528460028386200154163303610b1a575060019084847f11a3cf439fb225bfe74225716b6774765670ec1060e3796802e62139d69974da8180a283855284602052600282862001937fffffffffffffffffffffffff000000000000000000000000000000000000000094858154169055339184848820015416907fc8894f26f396ce8c004245c8b7cd1b92103a6e4302fcbab883987149ac01b7ec8780a483200190339082541617905580f35b8260249251917f88c3a115000000000000000000000000000000000000000000000000000000008352820152fd5b5090346101be5760207ffffffffffffffffffffffffffffffffffffffffffffffffffffffffffffffffc3601126101be5760038160209373ffffffffffffffffffffffffffffffffffffffff610b9c6110d6565b610ba581611247565b1681528085522001549051908152f35b5091346102a357817ffffffffffffffffffffffffffffffffffffffffffffffffffffffffffffffffc3601126102a35791602092610bf16110d6565b9083610bfb6110fe565b93610c0584611247565b73ffffffffffffffffffffffffffffffffffffffff8094168152808752200191166000528252806000205415159051908152f35b5090346101be5760207ffffffffffffffffffffffffffffffffffffffffffffffffffffffffffffffffc3601126101be5760209160018261018c6110d6565b509190346102a35760607ffffffffffffffffffffffffffffffffffffffffffffffffffffffffffffffffc3601126102a357610cb26110d6565b91610cbb6110fe565b906044359182159485158403610f8d57610cd4816111d8565b73ffffffffffffffffffffffffffffffffffffffff809116803b15610f895785517fc4e8fcb500000000000000000000000000000000000000000000000000000000815273ffffffffffffffffffffffffffffffffffffffff84168582019081528615156020820152899082908190604001038183865af18015610f7f57610f38575b50875286602052848720908382019481841697886000528660205287600020549182159080610f31575b15610df8575050505060030191825490680100000000000000008210156105c0575090610db7826001610de99401855584611191565b90919082549060031b9173ffffffffffffffffffffffffffffffffffffffff9283811b93849216901b16911916179055565b54926000526020526000205580f35b95999895929450909181610f28575b50610e18575b505050505050905080f35b7fffffffffffffffffffffffffffffffffffffffffffffffffffffffffffffffff906003828201930192835490838201918211610efc57908186928203610ec5575b5050505081548015610e99578798500191610e758383611191565b909182549160031b1b19169055556000526020526000205580388080808080610e0d565b60248860318b7f4e487b7100000000000000000000000000000000000000000000000000000000835252fd5b610db792610ed6610ee79388611191565b90549060031b1c1692839187611191565b60005285602052866000205538838180610e5a565b60248a60118d7f4e487b7100000000000000000000000000000000000000000000000000000000835252fd5b90501538610e07565b5080610d81565b67ffffffffffffffff8199929911610f535786529638610d57565b6024826041877f4e487b7100000000000000000000000000000000000000000000000000000000835252fd5b87513d8b823e3d90fd5b8780fd5b8680fd5b503461014a57807ffffffffffffffffffffffffffffffffffffffffffffffffffffffffffffffffc36011261014a575080517f000000000000000000000000000000000000000000000000000000000000000081527f00000000000000000000000000000000000000000000000000000000000000006020820152f35b503461014a57817ffffffffffffffffffffffffffffffffffffffffffffffffffffffffffffffffc36011261014a576110456110d6565b906024359361105383611247565b73ffffffffffffffffffffffffffffffffffffffff8093169081835282602052600385842001548610156110a85750936003848360209761109995528088522001611191565b90549060031b1c169051908152f35b6024918551917f6ceb340b000000000000000000000000000000000000000000000000000000008352820152fd5b6004359073ffffffffffffffffffffffffffffffffffffffff821682036110f957565b600080fd5b6024359073ffffffffffffffffffffffffffffffffffffffff821682036110f957565b90601f7fffffffffffffffffffffffffffffffffffffffffffffffffffffffffffffffe0910116810190811067ffffffffffffffff82111761116257604052565b7f4e487b7100000000000000000000000000000000000000000000000000000000600052604160045260246000fd5b80548210156111a95760005260206000200190600090565b7f4e487b7100000000000000000000000000000000000000000000000000000000600052603260045260246000fd5b6111e181611247565b73ffffffffffffffffffffffffffffffffffffffff809116908160005260006020526001604060002001541633036112165750565b602490604051907fd4ed9a170000000000000000000000000000000000000000000000000000000082526004820152fd5b73ffffffffffffffffffffffffffffffffffffffff1660005260006020526040600020541561127257565b60046040517f4ca82090000000000000000000000000000000000000000000000000000000008152fdfe608080604052346100165761026c908161001c8239f35b600080fdfe60808060405260048036101561001457600080fd5b600091823560e01c9081634ce34aa21461017d57508063899e104c1461010e5780638df25d92146100af5763c4e8fcb51461004e57600080fd5b346100ab5760407ffffffffffffffffffffffffffffffffffffffffffffffffffffffffffffffffc3601126100ab573573ffffffffffffffffffffffffffffffffffffffff8116036100a857602435801515036100a85780f35b80fd5b5080fd5b50346100ab5760207ffffffffffffffffffffffffffffffffffffffffffffffffffffffffffffffffc3601126100ab57803567ffffffffffffffff811161010a57602092916101009136910161022e565b5050604051908152f35b8280fd5b50346100ab5760407ffffffffffffffffffffffffffffffffffffffffffffffffffffffffffffffffc3601126100ab5767ffffffffffffffff81358181116101795761015d90369084016101f8565b505060243590811161010a57602092916101009136910161022e565b8380fd5b905082346100a85760207ffffffffffffffffffffffffffffffffffffffffffffffffffffffffffffffffc3601126100a85782359067ffffffffffffffff82116100a857506020926101d1913691016101f8565b50507f4ce34aa2000000000000000000000000000000000000000000000000000000008152f35b9181601f840112156102295782359167ffffffffffffffff83116102295760208085019460c0850201011161022957565b600080fd5b9181601f840112156102295782359167ffffffffffffffff8311610229576020808501948460051b0101116102295756fea164736f6c6343000811000a608080604052346100165761026c908161001c8239f35b600080fdfe60808060405260048036101561001457600080fd5b600091823560e01c9081634ce34aa21461017d57508063899e104c1461010e5780638df25d92146100af5763c4e8fcb51461004e57600080fd5b346100ab5760407ffffffffffffffffffffffffffffffffffffffffffffffffffffffffffffffffc3601126100ab573573ffffffffffffffffffffffffffffffffffffffff8116036100a857602435801515036100a85780f35b80fd5b5080fd5b50346100ab5760207ffffffffffffffffffffffffffffffffffffffffffffffffffffffffffffffffc3601126100ab57803567ffffffffffffffff811161010a57602092916101009136910161022e565b5050604051908152f35b8280fd5b50346100ab5760407ffffffffffffffffffffffffffffffffffffffffffffffffffffffffffffffffc3601126100ab5767ffffffffffffffff81358181116101795761015d90369084016101f8565b505060243590811161010a57602092916101009136910161022e565b8380fd5b905082346100a85760207ffffffffffffffffffffffffffffffffffffffffffffffffffffffffffffffffc3601126100a85782359067ffffffffffffffff82116100a857506020926101d1913691016101f8565b50507fabcd0000000000000000000000000000000000000000000000000000000000008152f35b9181601f840112156102295782359167ffffffffffffffff83116102295760208085019460c0850201011161022957565b600080fd5b9181601f840112156102295782359167ffffffffffffffff8311610229576020808501948460051b0101116102295756fea164736f6c6343000811000a608080604052346100165761026a908161001c8239f35b600080fdfe60808060405260048036101561001457600080fd5b600091823560e01c9081634ce34aa21461017d57508063899e104c1461010e5780638df25d92146100af5763c4e8fcb51461004e57600080fd5b346100ab5760407ffffffffffffffffffffffffffffffffffffffffffffffffffffffffffffffffc3601126100ab573573ffffffffffffffffffffffffffffffffffffffff8116036100a857602435801515036100a85780f35b80fd5b5080fd5b50346100ab5760207ffffffffffffffffffffffffffffffffffffffffffffffffffffffffffffffffc3601126100ab57803567ffffffffffffffff811161010a57602092916101009136910161022c565b5050604051908152f35b8280fd5b50346100ab5760407ffffffffffffffffffffffffffffffffffffffffffffffffffffffffffffffffc3601126100ab5767ffffffffffffffff81358181116101795761015d90369084016101f6565b505060243590811161010a57602092916101009136910161022c565b8380fd5b905082346100a85760207ffffffffffffffffffffffffffffffffffffffffffffffffffffffffffffffffc3601126100a85782359067ffffffffffffffff82116100a857506101cf90369084016101f6565b50507f09caebf3000000000000000000000000000000000000000000000000000000008152fd5b9181601f840112156102275782359167ffffffffffffffff83116102275760208085019460c0850201011161022757565b600080fd5b9181601f840112156102275782359167ffffffffffffffff8311610227576020808501948460051b0101116102275756fea164736f6c6343000811000a6080806040523461001657610251908161001c8239f35b600080fdfe60808060405260048036101561001457600080fd5b600091823560e01c9081634ce34aa214610189578163899e104c1461010e575080638df25d92146100af5763c4e8fcb51461004e57600080fd5b346100ab5760407ffffffffffffffffffffffffffffffffffffffffffffffffffffffffffffffffc3601126100ab573573ffffffffffffffffffffffffffffffffffffffff8116036100a857602435801515036100a85780f35b80fd5b5080fd5b50346100ab5760207ffffffffffffffffffffffffffffffffffffffffffffffffffffffffffffffffc3601126100ab57803567ffffffffffffffff811161010a576020929161010091369101610213565b5050604051908152f35b8280fd5b9190503461010a5760407ffffffffffffffffffffffffffffffffffffffffffffffffffffffffffffffffc36011261010a5767ffffffffffffffff81358181116101855761015f90369084016101dd565b5050602435908111610181576020939161017b91369101610213565b50508152f35b8380fd5b8480fd5b5050346100ab5760207ffffffffffffffffffffffffffffffffffffffffffffffffffffffffffffffffc3601126100ab5780359067ffffffffffffffff821161010a576101d8913691016101dd565b505080fd5b9181601f8401121561020e5782359167ffffffffffffffff831161020e5760208085019460c0850201011161020e57565b600080fd5b9181601f8401121561020e5782359167ffffffffffffffff831161020e576020808501948460051b01011161020e5756fea164736f6c6343000811000aa164736f6c6343000811000a608080604052346100165761026c908161001c8239f35b600080fdfe60808060405260048036101561001457600080fd5b600091823560e01c9081634ce34aa21461017d57508063899e104c1461010e5780638df25d92146100af5763c4e8fcb51461004e57600080fd5b346100ab5760407ffffffffffffffffffffffffffffffffffffffffffffffffffffffffffffffffc3601126100ab573573ffffffffffffffffffffffffffffffffffffffff8116036100a857602435801515036100a85780f35b80fd5b5080fd5b50346100ab5760207ffffffffffffffffffffffffffffffffffffffffffffffffffffffffffffffffc3601126100ab57803567ffffffffffffffff811161010a57602092916101009136910161022e565b5050604051908152f35b8280fd5b50346100ab5760407ffffffffffffffffffffffffffffffffffffffffffffffffffffffffffffffffc3601126100ab5767ffffffffffffffff81358181116101795761015d90369084016101f8565b505060243590811161010a57602092916101009136910161022e565b8380fd5b905082346100a85760207ffffffffffffffffffffffffffffffffffffffffffffffffffffffffffffffffc3601126100a85782359067ffffffffffffffff82116100a857506020926101d1913691016101f8565b50507f4ce34aa2000000000000000000000000000000000000000000000000000000008152f35b9181601f840112156102295782359167ffffffffffffffff83116102295760208085019460c0850201011161022957565b600080fd5b9181601f840112156102295782359167ffffffffffffffff8311610229576020808501948460051b0101116102295756fea164736f6c6343000811000a608080604052346100165761026c908161001c8239f35b600080fdfe60808060405260048036101561001457600080fd5b600091823560e01c9081634ce34aa21461017d57508063899e104c1461010e5780638df25d92146100af5763c4e8fcb51461004e57600080fd5b346100ab5760407ffffffffffffffffffffffffffffffffffffffffffffffffffffffffffffffffc3601126100ab573573ffffffffffffffffffffffffffffffffffffffff8116036100a857602435801515036100a85780f35b80fd5b5080fd5b50346100ab5760207ffffffffffffffffffffffffffffffffffffffffffffffffffffffffffffffffc3601126100ab57803567ffffffffffffffff811161010a57602092916101009136910161022e565b5050604051908152f35b8280fd5b50346100ab5760407ffffffffffffffffffffffffffffffffffffffffffffffffffffffffffffffffc3601126100ab5767ffffffffffffffff81358181116101795761015d90369084016101f8565b505060243590811161010a57602092916101009136910161022e565b8380fd5b905082346100a85760207ffffffffffffffffffffffffffffffffffffffffffffffffffffffffffffffffc3601126100a85782359067ffffffffffffffff82116100a857506020926101d1913691016101f8565b50507fabcd0000000000000000000000000000000000000000000000000000000000008152f35b9181601f840112156102295782359167ffffffffffffffff83116102295760208085019460c0850201011161022957565b600080fd5b9181601f840112156102295782359167ffffffffffffffff8311610229576020808501948460051b0101116102295756fea164736f6c6343000811000a608080604052346100165761026a908161001c8239f35b600080fdfe60808060405260048036101561001457600080fd5b600091823560e01c9081634ce34aa21461017d57508063899e104c1461010e5780638df25d92146100af5763c4e8fcb51461004e57600080fd5b346100ab5760407ffffffffffffffffffffffffffffffffffffffffffffffffffffffffffffffffc3601126100ab573573ffffffffffffffffffffffffffffffffffffffff8116036100a857602435801515036100a85780f35b80fd5b5080fd5b50346100ab5760207ffffffffffffffffffffffffffffffffffffffffffffffffffffffffffffffffc3601126100ab57803567ffffffffffffffff811161010a57602092916101009136910161022c565b5050604051908152f35b8280fd5b50346100ab5760407ffffffffffffffffffffffffffffffffffffffffffffffffffffffffffffffffc3601126100ab5767ffffffffffffffff81358181116101795761015d90369084016101f6565b505060243590811161010a57602092916101009136910161022c565b8380fd5b905082346100a85760207ffffffffffffffffffffffffffffffffffffffffffffffffffffffffffffffffc3601126100a85782359067ffffffffffffffff82116100a857506101cf90369084016101f6565b50507f09caebf3000000000000000000000000000000000000000000000000000000008152fd5b9181601f840112156102275782359167ffffffffffffffff83116102275760208085019460c0850201011161022757565b600080fd5b9181601f840112156102275782359167ffffffffffffffff8311610227576020808501948460051b0101116102275756fea164736f6c6343000811000a6080806040523461001657610251908161001c8239f35b600080fdfe60808060405260048036101561001457600080fd5b600091823560e01c9081634ce34aa214610189578163899e104c1461010e575080638df25d92146100af5763c4e8fcb51461004e57600080fd5b346100ab5760407ffffffffffffffffffffffffffffffffffffffffffffffffffffffffffffffffc3601126100ab573573ffffffffffffffffffffffffffffffffffffffff8116036100a857602435801515036100a85780f35b80fd5b5080fd5b50346100ab5760207ffffffffffffffffffffffffffffffffffffffffffffffffffffffffffffffffc3601126100ab57803567ffffffffffffffff811161010a576020929161010091369101610213565b5050604051908152f35b8280fd5b9190503461010a5760407ffffffffffffffffffffffffffffffffffffffffffffffffffffffffffffffffc36011261010a5767ffffffffffffffff81358181116101855761015f90369084016101dd565b5050602435908111610181576020939161017b91369101610213565b50508152f35b8380fd5b8480fd5b5050346100ab5760207ffffffffffffffffffffffffffffffffffffffffffffffffffffffffffffffffc3601126100ab5780359067ffffffffffffffff821161010a576101d8913691016101dd565b505080fd5b9181601f8401121561020e5782359167ffffffffffffffff831161020e5760208085019460c0850201011161020e57565b600080fd5b9181601f8401121561020e5782359167ffffffffffffffff831161020e576020808501948460051b01011161020e5756fea164736f6c6343000811000a",
  "linkReferences": {},
  "deployedLinkReferences": {}
}