{
  "_format": "hh-sol-artifact-1",
  "contractName": "TestERC20Revert",
  "sourceName": "contracts/test/TestERC20Revert.sol",
  "abi": [
    {
      "anonymous": false,
      "inputs": [
        {
          "indexed": true,
          "internalType": "address",
          "name": "owner",
          "type": "address"
        },
        {
          "indexed": true,
          "internalType": "address",
          "name": "spender",
          "type": "address"
        },
        {
          "indexed": false,
          "internalType": "uint256",
          "name": "amount",
          "type": "uint256"
        }
      ],
      "name": "Approval",
      "type": "event"
    },
    {
      "anonymous": false,
      "inputs": [
        {
          "indexed": true,
          "internalType": "address",
          "name": "from",
          "type": "address"
        },
        {
          "indexed": true,
          "internalType": "address",
          "name": "to",
          "type": "address"
        },
        {
          "indexed": false,
          "internalType": "uint256",
          "name": "amount",
          "type": "uint256"
        }
      ],
      "name": "Transfer",
      "type": "event"
    },
    {
      "inputs": [],
      "name": "DOMAIN_SEPARATOR",
      "outputs": [
        {
          "internalType": "bytes32",
          "name": "",
          "type": "bytes32"
        }
      ],
      "stateMutability": "view",
      "type": "function"
    },
    {
      "inputs": [
        {
          "internalType": "address",
          "name": "",
          "type": "address"
        },
        {
          "internalType": "address",
          "name": "",
          "type": "address"
        }
      ],
      "name": "allowance",
      "outputs": [
        {
          "internalType": "uint256",
          "name": "",
          "type": "uint256"
        }
      ],
      "stateMutability": "view",
      "type": "function"
    },
    {
      "inputs": [
        {
          "internalType": "address",
          "name": "spender",
          "type": "address"
        },
        {
          "internalType": "uint256",
          "name": "amount",
          "type": "uint256"
        }
      ],
      "name": "approve",
      "outputs": [
        {
          "internalType": "bool",
          "name": "",
          "type": "bool"
        }
      ],
      "stateMutability": "nonpayable",
      "type": "function"
    },
    {
      "inputs": [
        {
          "internalType": "address",
          "name": "",
          "type": "address"
        }
      ],
      "name": "balanceOf",
      "outputs": [
        {
          "internalType": "uint256",
          "name": "",
          "type": "uint256"
        }
      ],
      "stateMutability": "view",
      "type": "function"
    },
    {
      "inputs": [],
      "name": "decimals",
      "outputs": [
        {
          "internalType": "uint8",
          "name": "",
          "type": "uint8"
        }
      ],
      "stateMutability": "view",
      "type": "function"
    },
    {
      "inputs": [
        {
          "internalType": "address",
          "name": "to",
          "type": "address"
        },
        {
          "internalType": "uint256",
          "name": "amount",
          "type": "uint256"
        }
      ],
      "name": "mint",
      "outputs": [],
      "stateMutability": "nonpayable",
      "type": "function"
    },
    {
      "inputs": [],
      "name": "name",
      "outputs": [
        {
          "internalType": "string",
          "name": "",
          "type": "string"
        }
      ],
      "stateMutability": "view",
      "type": "function"
    },
    {
      "inputs": [
        {
          "internalType": "address",
          "name": "",
          "type": "address"
        }
      ],
      "name": "nonces",
      "outputs": [
        {
          "internalType": "uint256",
          "name": "",
          "type": "uint256"
        }
      ],
      "stateMutability": "view",
      "type": "function"
    },
    {
      "inputs": [
        {
          "internalType": "address",
          "name": "owner",
          "type": "address"
        },
        {
          "internalType": "address",
          "name": "spender",
          "type": "address"
        },
        {
          "internalType": "uint256",
          "name": "value",
          "type": "uint256"
        },
        {
          "internalType": "uint256",
          "name": "deadline",
          "type": "uint256"
        },
        {
          "internalType": "uint8",
          "name": "v",
          "type": "uint8"
        },
        {
          "internalType": "bytes32",
          "name": "r",
          "type": "bytes32"
        },
        {
          "internalType": "bytes32",
          "name": "s",
          "type": "bytes32"
        }
      ],
      "name": "permit",
      "outputs": [],
      "stateMutability": "nonpayable",
      "type": "function"
    },
    {
      "inputs": [],
      "name": "symbol",
      "outputs": [
        {
          "internalType": "string",
          "name": "",
          "type": "string"
        }
      ],
      "stateMutability": "view",
      "type": "function"
    },
    {
      "inputs": [],
      "name": "totalSupply",
      "outputs": [
        {
          "internalType": "uint256",
          "name": "",
          "type": "uint256"
        }
      ],
      "stateMutability": "view",
      "type": "function"
    },
    {
      "inputs": [
        {
          "internalType": "address",
          "name": "to",
          "type": "address"
        },
        {
          "internalType": "uint256",
          "name": "amount",
          "type": "uint256"
        }
      ],
      "name": "transfer",
      "outputs": [
        {
          "internalType": "bool",
          "name": "",
          "type": "bool"
        }
      ],
      "stateMutability": "nonpayable",
      "type": "function"
    },
    {
      "inputs": [
        {
          "internalType": "address",
          "name": "",
          "type": "address"
        },
        {
          "internalType": "address",
          "name": "",
          "type": "address"
        },
        {
          "internalType": "uint256",
          "name": "",
          "type": "uint256"
        }
      ],
      "name": "transferFrom",
      "outputs": [
        {
          "internalType": "bool",
          "name": "",
          "type": "bool"
        }
      ],
      "stateMutability": "pure",
      "type": "function"
    }
  ],
  "bytecode": "0x60e0604081815234620004275762000017826200042c565b600a825260206915195cdd14995d995c9d60b21b818401528151926200003d846200042c565b600684526514915591549560d21b8285015280516001600160401b03939084811162000411576000908062000073835462000448565b94601f95868111620003c0575b508690868311600114620003585784926200034c575b50508160011b916000199060031b1c19161781555b85518581116200033857600190620000c4825462000448565b858111620002f0575b50858582116001146200028b57839495969798829394926200027f575b5050600019600383901b1c191690821b1781555b60126080524660a05282519382908354926200011a8462000448565b90818852888801948982821691826000146200026257505060011462000226575b505085601f1992030116840193808510878611176200021257848452519020938301937f8b73c3c69bb8fe3d512ecc4cf759cc79239f7b179b0ffacaa9a75d522b39400f8552828401527fc89efdaa54c0f20c7adf612882df0950f5a951637e0307cdcb4c672f298b8bc660608401524660808401523060a084015260a0835260c083019483861090861117620001fe575083905251902060c052610e1d908162000486823960805181610832015260a05181610c38015260c05181610c5f0152f35b634e487b7160e01b81526041600452602490fd5b634e487b7160e01b83526041600452602483fd5b90889293508580528286209186925b8284106200024c575050508601019038806200013b565b80548a85018601528a9490930192810162000235565b92509394505060ff19168452151560051b8601019038806200013b565b015190503880620000ea565b82845286842090601f198316855b818110620002da5750998385969798999a9b10620002c0575b505050811b018155620000fe565b015160001960f88460031b161c19169055388080620002b2565b8b83015184559285019291890191890162000299565b8284528684208680840160051c8201928985106200032e575b0160051c019083905b82811062000322575050620000cd565b85815501839062000312565b9250819262000309565b634e487b7160e01b82526041600452602482fd5b01519050388062000096565b8480528785209250601f198416855b89828210620003a95750509084600195949392106200038f575b505050811b018155620000ab565b015160001960f88460031b161c1916905538808062000381565b600185968293968601518155019501930162000367565b9091508380528684208680850160051c82019289861062000407575b9085949392910160051c01905b818110620003f8575062000080565b858155849350600101620003e9565b92508192620003dc565b634e487b7160e01b600052604160045260246000fd5b600080fd5b604081019081106001600160401b038211176200041157604052565b90600182811c921680156200047a575b60208310146200046457565b634e487b7160e01b600052602260045260246000fd5b91607f16916200045856fe6080604081815260048036101561001557600080fd5b600092833560e01c90816306fdde03146109fb57508063095ea7b31461096157806318160ddd1461092457806323b872dd14610856578063313ce567146107fa5780633644e515146107b857806340c10f19146106e957806370a08231146106875780637ecebe001461062557806395d89b411461050a578063a9059cbb14610428578063d505accf146101285763dd62ed3e146100b257600080fd5b3461012457817ffffffffffffffffffffffffffffffffffffffffffffffffffffffffffffffffc3601126101245760209282916100ed610be8565b6100f5610c10565b9173ffffffffffffffffffffffffffffffffffffffff8092168452865283832091168252845220549051908152f35b8280fd5b509190346104245760e07ffffffffffffffffffffffffffffffffffffffffffffffffffffffffffffffffc36011261042457610162610be8565b9061016b610c10565b91604435606435926084359260ff8416809403610420574285106103c357610191610c33565b9573ffffffffffffffffffffffffffffffffffffffff8092169586895260209560058752848a209889549960018b01905585519285898501957f6e71edae12b1b97f4d1f60370fef10105fa2faae0126114a169c64845d6126c987528b89870152169a8b606086015288608086015260a085015260c084015260c0835260e0830167ffffffffffffffff948482108683111761039657818852845190206101008501927f19010000000000000000000000000000000000000000000000000000000000008452610102860152610122850152604281526101608401948186109086111761036a57848752519020835261018082015260a4356101a082015260c4356101c0909101528780528490889060809060015afa15610360578651169687151580610357575b156102fc5786977f8c5be1e5ebec7d5bd14f71427d1e84f3dd0314c0f7b2291e5b200ac8c7c3b9259596975283528087208688528352818188205551908152a380f35b8360649251917f08c379a0000000000000000000000000000000000000000000000000000000008352820152600e60248201527f494e56414c49445f5349474e45520000000000000000000000000000000000006044820152fd5b508488146102b9565b81513d88823e3d90fd5b60248c60418f7f4e487b7100000000000000000000000000000000000000000000000000000000835252fd5b5060248c60418f7f4e487b7100000000000000000000000000000000000000000000000000000000835252fd5b60648860208451917f08c379a0000000000000000000000000000000000000000000000000000000008352820152601760248201527f5045524d49545f444541444c494e455f455850495245440000000000000000006044820152fd5b8680fd5b5080fd5b50913461050757817ffffffffffffffffffffffffffffffffffffffffffffffffffffffffffffffffc36011261050757610460610be8565b6024359033835260036020528383208054908382039182116104db57602096509173ffffffffffffffffffffffffffffffffffffffff918693551692838152600386522081815401905582519081527fddf252ad1be2c89b69c2b068fc378daa952ba7f163c4a11628f55a4df523b3ef843392a35160018152f35b6024856011897f4e487b7100000000000000000000000000000000000000000000000000000000835252fd5b80fd5b50503461042457817ffffffffffffffffffffffffffffffffffffffffffffffffffffffffffffffffc3601126104245780519082600180549161054c83610abf565b808652928281169081156105df5750600114610583575b5050506105758261057f940383610b12565b5191829182610b82565b0390f35b94508085527fb10e2d527612073b26eecdfd717e6a320cf44b4afac2b0732d9fcbe2b7fa0cf65b8286106105c75750505061057582602061057f9582010194610563565b805460208787018101919091529095019481016105aa565b61057f9750869350602092506105759491507fffffffffffffffffffffffffffffffffffffffffffffffffffffffffffffff001682840152151560051b82010194610563565b5050346104245760207ffffffffffffffffffffffffffffffffffffffffffffffffffffffffffffffffc360112610424578060209273ffffffffffffffffffffffffffffffffffffffff610677610be8565b1681526005845220549051908152f35b5050346104245760207ffffffffffffffffffffffffffffffffffffffffffffffffffffffffffffffffc360112610424578060209273ffffffffffffffffffffffffffffffffffffffff6106d9610be8565b1681526003845220549051908152f35b503461012457817ffffffffffffffffffffffffffffffffffffffffffffffffffffffffffffffffc36011261012457610720610be8565b602435916002549083820180921161078c5750849273ffffffffffffffffffffffffffffffffffffffff7fddf252ad1be2c89b69c2b068fc378daa952ba7f163c4a11628f55a4df523b3ef9360209360025516948585526003835280852082815401905551908152a380f35b8560116024927f4e487b7100000000000000000000000000000000000000000000000000000000835252fd5b50503461042457817ffffffffffffffffffffffffffffffffffffffffffffffffffffffffffffffffc360112610424576020906107f3610c33565b9051908152f35b50503461042457817ffffffffffffffffffffffffffffffffffffffffffffffffffffffffffffffffc360112610424576020905160ff7f0000000000000000000000000000000000000000000000000000000000000000168152f35b5082346105075760607ffffffffffffffffffffffffffffffffffffffffffffffffffffffffffffffffc3601126105075750602061014492610896610be8565b5061089f610c10565b5051917f08c379a000000000000000000000000000000000000000000000000000000000835282015261010060248201527f61616161616161616161616161616161616161616161616161616161616161618060448301528060648301528060848301528060a48301528060c48301528060e483015280610104830152610124820152fd5b50503461042457817ffffffffffffffffffffffffffffffffffffffffffffffffffffffffffffffffc360112610424576020906002549051908152f35b503461012457817ffffffffffffffffffffffffffffffffffffffffffffffffffffffffffffffffc3601126101245760209261099b610be8565b9183602435928392338252875273ffffffffffffffffffffffffffffffffffffffff8282209516948582528752205582519081527f8c5be1e5ebec7d5bd14f71427d1e84f3dd0314c0f7b2291e5b200ac8c7c3b925843392a35160018152f35b8490843461012457827ffffffffffffffffffffffffffffffffffffffffffffffffffffffffffffffffc36011261012457828054610a3881610abf565b808552916001918083169081156105df5750600114610a63575050506105758261057f940383610b12565b80809650527f290decd9548b62a8d60345a988386fc84ba6bc95484008f6362f93160ef3e5635b828610610aa75750505061057582602061057f9582010194610563565b80546020878701810191909152909501948101610a8a565b90600182811c92168015610b08575b6020831014610ad957565b7f4e487b7100000000000000000000000000000000000000000000000000000000600052602260045260246000fd5b91607f1691610ace565b90601f7fffffffffffffffffffffffffffffffffffffffffffffffffffffffffffffffe0910116810190811067ffffffffffffffff821117610b5357604052565b7f4e487b7100000000000000000000000000000000000000000000000000000000600052604160045260246000fd5b60208082528251818301819052939260005b858110610bd4575050507fffffffffffffffffffffffffffffffffffffffffffffffffffffffffffffffe0601f8460006040809697860101520116010190565b818101830151848201604001528201610b94565b6004359073ffffffffffffffffffffffffffffffffffffffff82168203610c0b57565b600080fd5b6024359073ffffffffffffffffffffffffffffffffffffffff82168203610c0b57565b6000467f000000000000000000000000000000000000000000000000000000000000000003610c8157507f000000000000000000000000000000000000000000000000000000000000000090565b60405181548291610c9182610abf565b8082528160209485820194600190878282169182600014610dd4575050600114610d7b575b50610cc392500382610b12565b51902091604051918201927f8b73c3c69bb8fe3d512ecc4cf759cc79239f7b179b0ffacaa9a75d522b39400f845260408301527fc89efdaa54c0f20c7adf612882df0950f5a951637e0307cdcb4c672f298b8bc660608301524660808301523060a083015260a0825260c082019082821067ffffffffffffffff831117610d4e575060405251902090565b807f4e487b7100000000000000000000000000000000000000000000000000000000602492526041600452fd5b87805286915087907f290decd9548b62a8d60345a988386fc84ba6bc95484008f6362f93160ef3e5635b858310610dbc575050610cc3935082010138610cb6565b80548388018501528694508893909201918101610da5565b7fffffffffffffffffffffffffffffffffffffffffffffffffffffffffffffff00168852610cc395151560051b8501019250389150610cb6905056fea164736f6c6343000811000a",
  "linkReferences": {},
  "deployedLinkReferences": {}
}