{
  "_format": "hh-sol-artifact-1",
  "contractName": "TransferHelper",
  "sourceName": "contracts/helpers/TransferHelper.sol",
  "abi": [
    {
      "inputs": [
        {
          "internalType": "address",
          "name": "conduitController",
          "type": "address"
        }
      ],
      "stateMutability": "nonpayable",
      "type": "constructor"
    },
    {
      "inputs": [
        {
          "internalType": "bytes",
          "name": "reason",
          "type": "bytes"
        },
        {
          "internalType": "bytes32",
          "name": "conduitKey",
          "type": "bytes32"
        },
        {
          "internalType": "address",
          "name": "conduit",
          "type": "address"
        }
      ],
      "name": "ConduitErrorRevertBytes",
      "type": "error"
    },
    {
      "inputs": [
        {
          "internalType": "string",
          "name": "reason",
          "type": "string"
        },
        {
          "internalType": "bytes32",
          "name": "conduitKey",
          "type": "bytes32"
        },
        {
          "internalType": "address",
          "name": "conduit",
          "type": "address"
        }
      ],
      "name": "ConduitErrorRevertString",
      "type": "error"
    },
    {
      "inputs": [
        {
          "internalType": "bytes",
          "name": "reason",
          "type": "bytes"
        },
        {
          "internalType": "address",
          "name": "receiver",
          "type": "address"
        },
        {
          "internalType": "address",
          "name": "sender",
          "type": "address"
        },
        {
          "internalType": "uint256",
          "name": "identifier",
          "type": "uint256"
        }
      ],
      "name": "ERC721ReceiverErrorRevertBytes",
      "type": "error"
    },
    {
      "inputs": [
        {
          "internalType": "string",
          "name": "reason",
          "type": "string"
        },
        {
          "internalType": "address",
          "name": "receiver",
          "type": "address"
        },
        {
          "internalType": "address",
          "name": "sender",
          "type": "address"
        },
        {
          "internalType": "uint256",
          "name": "identifier",
          "type": "uint256"
        }
      ],
      "name": "ERC721ReceiverErrorRevertString",
      "type": "error"
    },
    {
      "inputs": [
        {
          "internalType": "bytes32",
          "name": "conduitKey",
          "type": "bytes32"
        },
        {
          "internalType": "address",
          "name": "conduit",
          "type": "address"
        }
      ],
      "name": "InvalidConduit",
      "type": "error"
    },
    {
      "inputs": [],
      "name": "InvalidERC20Identifier",
      "type": "error"
    },
    {
      "inputs": [
        {
          "internalType": "address",
          "name": "recipient",
          "type": "address"
        }
      ],
      "name": "InvalidERC721Recipient",
      "type": "error"
    },
    {
      "inputs": [
        {
          "internalType": "uint256",
          "name": "amount",
          "type": "uint256"
        }
      ],
      "name": "InvalidERC721TransferAmount",
      "type": "error"
    },
    {
      "inputs": [],
      "name": "InvalidItemType",
      "type": "error"
    },
    {
      "inputs": [],
      "name": "RecipientCannotBeZeroAddress",
      "type": "error"
    },
    {
      "inputs": [
        {
          "components": [
            {
              "components": [
                {
                  "internalType": "enum ConduitItemType",
                  "name": "itemType",
                  "type": "uint8"
                },
                {
                  "internalType": "address",
                  "name": "token",
                  "type": "address"
                },
                {
                  "internalType": "uint256",
                  "name": "identifier",
                  "type": "uint256"
                },
                {
                  "internalType": "uint256",
                  "name": "amount",
                  "type": "uint256"
                }
              ],
              "internalType": "struct TransferHelperItem[]",
              "name": "items",
              "type": "tuple[]"
            },
            {
              "internalType": "address",
              "name": "recipient",
              "type": "address"
            },
            {
              "internalType": "bool",
              "name": "validateERC721Receiver",
              "type": "bool"
            }
          ],
          "internalType": "struct TransferHelperItemsWithRecipient[]",
          "name": "items",
          "type": "tuple[]"
        },
        {
          "internalType": "bytes32",
          "name": "conduitKey",
          "type": "bytes32"
        }
      ],
      "name": "bulkTransfer",
      "outputs": [
        {
          "internalType": "bytes4",
          "name": "magicValue",
          "type": "bytes4"
        }
      ],
      "stateMutability": "nonpayable",
      "type": "function"
    }
  ],
  "bytecode": "0x60e0604090808252346100d45760208161102c803803809161002182856100d9565b8339810103126100d457516001600160a01b038116908190036100d4578151630a96ad3960e01b81528281600481855afa80156100c9576000918291610091575b5060c05260a05260805251610f199081610113823960805181610136015260a05181610167015260c051815050f35b9190508382813d83116100c2575b6100a981836100d9565b810103126100bf57506020815191015138610062565b80fd5b503d61009f565b83513d6000823e3d90fd5b600080fd5b601f909101601f19168101906001600160401b038211908210176100fc57604052565b634e487b7160e01b600052604160045260246000fdfe6080604052600436101561001257600080fd5b6000803560e01c6332389b711461002857600080fd5b346100dc5760407ffffffffffffffffffffffffffffffffffffffffffffffffffffffffffffffffc3601126100dc576004359067ffffffffffffffff908183116100dc57366023840112156100dc5782600401359182116100dc573660248360051b850101116100dc576100d86100a584846024803592016100df565b6040517fffffffff0000000000000000000000000000000000000000000000000000000090911681529081906020820190565b0390f35b80fd5b9190918115610692576040517fff00000000000000000000000000000000000000000000000000000000000000602082019081527fffffffffffffffffffffffffffffffffffffffff0000000000000000000000007f000000000000000000000000000000000000000000000000000000000000000060601b166021830152603582018490527f000000000000000000000000000000000000000000000000000000000000000060558084019190915282526101da916101c191906101a56075826106fb565b51902073ffffffffffffffffffffffffffffffffffffffff1690565b73ffffffffffffffffffffffffffffffffffffffff1690565b906000805b85821061066f576101f09150610867565b93600090815b81811061049457505050506040517f4ce34aa200000000000000000000000000000000000000000000000000000000908181526020818061023b600498898301610a15565b0381600073ffffffffffffffffffffffffffffffffffffffff88165af160009181610463575b506103de5750506001610272610afe565b6308c379a014610395575b6102a9575050505b7f32389b710000000000000000000000000000000000000000000000000000000090565b6102b1610c43565b9060208201927fffffffff0000000000000000000000000000000000000000000000000000000084511683518681148061036c575b156102ef578686fd5b90602487959692149081610342575b5061033d575090610339916040519485947f9427693c0000000000000000000000000000000000000000000000000000000086528501610c0a565b0390fd5b602490fd5b7f69f9582700000000000000000000000000000000000000000000000000000000915014866102fe565b507f7932f1fc0000000000000000000000000000000000000000000000000000000082146102e6565b61039d610b1c565b806103a8575061027d565b8461033984866040519485947fc1670bde0000000000000000000000000000000000000000000000000000000086528501610c0a565b9293927fffffffff00000000000000000000000000000000000000000000000000000000160361041057505050610285565b604080517f1cf99b2600000000000000000000000000000000000000000000000000000000815292830193845273ffffffffffffffffffffffffffffffffffffffff909116602084015290918291010390fd5b61048691925060203d60201161048d575b61047e81836106fb565b8101906109dd565b9038610261565b503d610474565b61049f818386610779565b6104a981806107cc565b6104bd6104b86020850161091d565b610ec5565b6104c96040840161093e565b9283610658575b9291906000935b8185106104eb5750505050506001016101f6565b90919293968b6104fc89858761094b565b8b6001610508836109a2565b61051181610969565b1461061a575b836001949293846105e1938b600261052f8a996109a2565b61053881610969565b146105ee575b5050610549816109a2565b906105566020820161091d565b9061059661056660208c0161091d565b92610579610572610820565b95866109af565b73ffffffffffffffffffffffffffffffffffffffff166020850152565b3360408401526105c06060928385019073ffffffffffffffffffffffffffffffffffffffff169052565b60408101356080840152013560a08201526105db83836109bb565b526109bb565b50019701939291906104d7565b6105f9575b8b61053e565b6106149061060960208b0161091d565b604084013591610cf1565b8f6105f3565b509050604081013561062e578c908b610517565b60046040517fbef6db47000000000000000000000000000000000000000000000000000000008152fd5b92506106666020840161091d565b3b1515926104d0565b600190610686610680848987610779565b806107cc565b919050019101906101df565b6040517f1cf99b260000000000000000000000000000000000000000000000000000000081526004810183905260006024820152604490fd5b507f4e487b7100000000000000000000000000000000000000000000000000000000600052604160045260246000fd5b90601f7fffffffffffffffffffffffffffffffffffffffffffffffffffffffffffffffe0910116810190811067ffffffffffffffff82111761073c57604052565b6107446106cb565b604052565b507f4e487b7100000000000000000000000000000000000000000000000000000000600052603260045260246000fd5b91908110156107bf575b60051b810135907fffffffffffffffffffffffffffffffffffffffffffffffffffffffffffffffa1813603018212156107ba570190565b600080fd5b6107c7610749565b610783565b9035907fffffffffffffffffffffffffffffffffffffffffffffffffffffffffffffffe1813603018212156107ba570180359067ffffffffffffffff82116107ba57602001918160071b360383136107ba57565b6040519060c0820182811067ffffffffffffffff82111761073c57604052565b60209067ffffffffffffffff811161085a575b60051b0190565b6108626106cb565b610853565b9061087182610840565b604090610880825191826106fb565b8381527fffffffffffffffffffffffffffffffffffffffffffffffffffffffffffffffe06108ae8295610840565b019160005b8381106108c05750505050565b602090825160c0810181811067ffffffffffffffff821117610910575b845260008152826000818301526000858301526000606083015260006080830152600060a08301528286010152016108b3565b6109186106cb565b6108dd565b3573ffffffffffffffffffffffffffffffffffffffff811681036107ba5790565b3580151581036107ba5790565b919081101561095c575b60071b0190565b610964610749565b610955565b6004111561097357565b7f4e487b7100000000000000000000000000000000000000000000000000000000600052602160045260246000fd5b3560048110156107ba5790565b60048210156109735752565b60209181518110156109d0575b60051b010190565b6109d8610749565b6109c8565b908160209103126107ba57517fffffffff00000000000000000000000000000000000000000000000000000000811681036107ba5790565b602090818101828252835180915282604080930194019260009283905b838210610a425750505050505090565b90919293949586518051600480821015610ad2575082869260c0926001955273ffffffffffffffffffffffffffffffffffffffff80858301511685840152868201511686830152610ab06060808301519084019073ffffffffffffffffffffffffffffffffffffffff169052565b6080818101519083015260a09081015190820152019701959493920190610a32565b8860216024927f4e487b7100000000000000000000000000000000000000000000000000000000835252fd5b60009060033d11610b0b57565b905060046000803e60005160e01c90565b600060443d10610b98576040517ffffffffffffffffffffffffffffffffffffffffffffffffffffffffffffffffc91823d016004833e815167ffffffffffffffff918282113d602484011117610b9b57818401948551938411610ba3573d85010160208487010111610b9b5750610b98929101602001906106fb565b90565b949350505050565b50949350505050565b919082519283825260005b848110610bf65750507fffffffffffffffffffffffffffffffffffffffffffffffffffffffffffffffe0601f8460006020809697860101520116010190565b602081830181015184830182015201610bb7565b91939273ffffffffffffffffffffffffffffffffffffffff90610c37604093606086526060860190610bac565b95602085015216910152565b3d15610caa573d9067ffffffffffffffff8211610c9d575b60405191610c9160207fffffffffffffffffffffffffffffffffffffffffffffffffffffffffffffffe0601f84011601846106fb565b82523d6000602084013e565b610ca56106cb565b610c5b565b606090565b9091610cc960609396959496608084526080840190610bac565b9573ffffffffffffffffffffffffffffffffffffffff80921660208401521660408201520152565b6040517f150b7a020000000000000000000000000000000000000000000000000000000080825273ffffffffffffffffffffffffffffffffffffffff90921660048201523360248201526044810184905260806064820152600060848201526020818060a481010381600073ffffffffffffffffffffffffffffffffffffffff88165af160009181610ea5575b50610e2e5750506001610d8f610afe565b6308c379a014610de2575b610da2575050565b610339610dad610c43565b926040519384937fb25d2528000000000000000000000000000000000000000000000000000000008552339160048601610caf565b610dea610b1c565b80610df55750610d9a565b82610339856040519384937fb4482311000000000000000000000000000000000000000000000000000000008552339160048601610caf565b7fffffffff00000000000000000000000000000000000000000000000000000000919293501603610e5c5750565b6040517fbade48ef00000000000000000000000000000000000000000000000000000000815273ffffffffffffffffffffffffffffffffffffffff919091166004820152602490fd5b610ebe91925060203d811161048d5761047e81836106fb565b9038610d7e565b73ffffffffffffffffffffffffffffffffffffffff1615610ee257565b60046040517fd8707052000000000000000000000000000000000000000000000000000000008152fdfea164736f6c6343000811000a",
  "linkReferences": {},
  "deployedLinkReferences": {}
}