{
  "_format": "hh-sol-artifact-1",
  "contractName": "AccountHandlerFacet",
  "sourceName": "contracts/protocol/facets/AccountHandlerFacet.sol",
  "abi": [
    {
      "anonymous": false,
      "inputs": [
        {
          "indexed": true,
          "internalType": "uint256",
          "name": "buyerId",
          "type": "uint256"
        },
        {
          "components": [
            {
              "internalType": "uint256",
              "name": "id",
              "type": "uint256"
            },
            {
              "internalType": "address payable",
              "name": "wallet",
              "type": "address"
            },
            {
              "internalType": "bool",
              "name": "active",
              "type": "bool"
            }
          ],
          "indexed": false,
          "internalType": "struct BosonTypes.Buyer",
          "name": "buyer",
          "type": "tuple"
        }
      ],
      "name": "BuyerCreated",
      "type": "event"
    },
    {
      "anonymous": false,
      "inputs": [
        {
          "indexed": true,
          "internalType": "uint256",
          "name": "buyerId",
          "type": "uint256"
        },
        {
          "components": [
            {
              "internalType": "uint256",
              "name": "id",
              "type": "uint256"
            },
            {
              "internalType": "address payable",
              "name": "wallet",
              "type": "address"
            },
            {
              "internalType": "bool",
              "name": "active",
              "type": "bool"
            }
          ],
          "indexed": false,
          "internalType": "struct BosonTypes.Buyer",
          "name": "buyer",
          "type": "tuple"
        }
      ],
      "name": "BuyerUpdated",
      "type": "event"
    },
    {
      "anonymous": false,
      "inputs": [
        {
          "indexed": true,
          "internalType": "uint256",
          "name": "sellerId",
          "type": "uint256"
        },
        {
          "components": [
            {
              "internalType": "uint256",
              "name": "id",
              "type": "uint256"
            },
            {
              "internalType": "address",
              "name": "operator",
              "type": "address"
            },
            {
              "internalType": "address",
              "name": "admin",
              "type": "address"
            },
            {
              "internalType": "address",
              "name": "clerk",
              "type": "address"
            },
            {
              "internalType": "address payable",
              "name": "treasury",
              "type": "address"
            },
            {
              "internalType": "bool",
              "name": "active",
              "type": "bool"
            }
          ],
          "indexed": false,
          "internalType": "struct BosonTypes.Seller",
          "name": "seller",
          "type": "tuple"
        }
      ],
      "name": "SellerCreated",
      "type": "event"
    },
    {
      "anonymous": false,
      "inputs": [
        {
          "indexed": true,
          "internalType": "uint256",
          "name": "sellerId",
          "type": "uint256"
        },
        {
          "components": [
            {
              "internalType": "uint256",
              "name": "id",
              "type": "uint256"
            },
            {
              "internalType": "address",
              "name": "operator",
              "type": "address"
            },
            {
              "internalType": "address",
              "name": "admin",
              "type": "address"
            },
            {
              "internalType": "address",
              "name": "clerk",
              "type": "address"
            },
            {
              "internalType": "address payable",
              "name": "treasury",
              "type": "address"
            },
            {
              "internalType": "bool",
              "name": "active",
              "type": "bool"
            }
          ],
          "indexed": false,
          "internalType": "struct BosonTypes.Seller",
          "name": "seller",
          "type": "tuple"
        }
      ],
      "name": "SellerUpdated",
      "type": "event"
    },
    {
      "inputs": [
        {
          "components": [
            {
              "internalType": "uint256",
              "name": "id",
              "type": "uint256"
            },
            {
              "internalType": "address payable",
              "name": "wallet",
              "type": "address"
            },
            {
              "internalType": "bool",
              "name": "active",
              "type": "bool"
            }
          ],
          "internalType": "struct BosonTypes.Buyer",
          "name": "_buyer",
          "type": "tuple"
        }
      ],
      "name": "createBuyer",
      "outputs": [],
      "stateMutability": "nonpayable",
      "type": "function"
    },
    {
      "inputs": [
        {
          "components": [
            {
              "internalType": "uint256",
              "name": "id",
              "type": "uint256"
            },
            {
              "internalType": "address",
              "name": "operator",
              "type": "address"
            },
            {
              "internalType": "address",
              "name": "admin",
              "type": "address"
            },
            {
              "internalType": "address",
              "name": "clerk",
              "type": "address"
            },
            {
              "internalType": "address payable",
              "name": "treasury",
              "type": "address"
            },
            {
              "internalType": "bool",
              "name": "active",
              "type": "bool"
            }
          ],
          "internalType": "struct BosonTypes.Seller",
          "name": "_seller",
          "type": "tuple"
        }
      ],
      "name": "createSeller",
      "outputs": [],
      "stateMutability": "nonpayable",
      "type": "function"
    },
    {
      "inputs": [
        {
          "internalType": "uint256",
          "name": "_buyerId",
          "type": "uint256"
        }
      ],
      "name": "getBuyer",
      "outputs": [
        {
          "internalType": "bool",
          "name": "exists",
          "type": "bool"
        },
        {
          "components": [
            {
              "internalType": "uint256",
              "name": "id",
              "type": "uint256"
            },
            {
              "internalType": "address payable",
              "name": "wallet",
              "type": "address"
            },
            {
              "internalType": "bool",
              "name": "active",
              "type": "bool"
            }
          ],
          "internalType": "struct BosonTypes.Buyer",
          "name": "buyer",
          "type": "tuple"
        }
      ],
      "stateMutability": "view",
      "type": "function"
    },
    {
      "inputs": [],
      "name": "getNextAccountId",
      "outputs": [
        {
          "internalType": "uint256",
          "name": "nextAccountId",
          "type": "uint256"
        }
      ],
      "stateMutability": "view",
      "type": "function"
    },
    {
      "inputs": [
        {
          "internalType": "uint256",
          "name": "_sellerId",
          "type": "uint256"
        }
      ],
      "name": "getSeller",
      "outputs": [
        {
          "internalType": "bool",
          "name": "exists",
          "type": "bool"
        },
        {
          "components": [
            {
              "internalType": "uint256",
              "name": "id",
              "type": "uint256"
            },
            {
              "internalType": "address",
              "name": "operator",
              "type": "address"
            },
            {
              "internalType": "address",
              "name": "admin",
              "type": "address"
            },
            {
              "internalType": "address",
              "name": "clerk",
              "type": "address"
            },
            {
              "internalType": "address payable",
              "name": "treasury",
              "type": "address"
            },
            {
              "internalType": "bool",
              "name": "active",
              "type": "bool"
            }
          ],
          "internalType": "struct BosonTypes.Seller",
          "name": "seller",
          "type": "tuple"
        }
      ],
      "stateMutability": "view",
      "type": "function"
    },
    {
      "inputs": [
        {
          "internalType": "address",
          "name": "_associatedAddress",
          "type": "address"
        }
      ],
      "name": "getSellerByAddress",
      "outputs": [
        {
          "internalType": "bool",
          "name": "exists",
          "type": "bool"
        },
        {
          "components": [
            {
              "internalType": "uint256",
              "name": "id",
              "type": "uint256"
            },
            {
              "internalType": "address",
              "name": "operator",
              "type": "address"
            },
            {
              "internalType": "address",
              "name": "admin",
              "type": "address"
            },
            {
              "internalType": "address",
              "name": "clerk",
              "type": "address"
            },
            {
              "internalType": "address payable",
              "name": "treasury",
              "type": "address"
            },
            {
              "internalType": "bool",
              "name": "active",
              "type": "bool"
            }
          ],
          "internalType": "struct BosonTypes.Seller",
          "name": "seller",
          "type": "tuple"
        }
      ],
      "stateMutability": "view",
      "type": "function"
    },
    {
      "inputs": [],
      "name": "initialize",
      "outputs": [],
      "stateMutability": "nonpayable",
      "type": "function"
    },
    {
      "inputs": [
        {
          "components": [
            {
              "internalType": "uint256",
              "name": "id",
              "type": "uint256"
            },
            {
              "internalType": "address payable",
              "name": "wallet",
              "type": "address"
            },
            {
              "internalType": "bool",
              "name": "active",
              "type": "bool"
            }
          ],
          "internalType": "struct BosonTypes.Buyer",
          "name": "_buyer",
          "type": "tuple"
        }
      ],
      "name": "updateBuyer",
      "outputs": [],
      "stateMutability": "nonpayable",
      "type": "function"
    },
    {
      "inputs": [
        {
          "components": [
            {
              "internalType": "uint256",
              "name": "id",
              "type": "uint256"
            },
            {
              "internalType": "address",
              "name": "operator",
              "type": "address"
            },
            {
              "internalType": "address",
              "name": "admin",
              "type": "address"
            },
            {
              "internalType": "address",
              "name": "clerk",
              "type": "address"
            },
            {
              "internalType": "address payable",
              "name": "treasury",
              "type": "address"
            },
            {
              "internalType": "bool",
              "name": "active",
              "type": "bool"
            }
          ],
          "internalType": "struct BosonTypes.Seller",
          "name": "_seller",
          "type": "tuple"
        }
      ],
      "name": "updateSeller",
      "outputs": [],
      "stateMutability": "nonpayable",
      "type": "function"
    }
  ],
  "bytecode": "0x608060405234801561001057600080fd5b506114b6806100206000396000f3fe608060405234801561001057600080fd5b50600436106100935760003560e01c80638129fc1c116100665780638129fc1c1461010b578063ab00c0da14610113578063aca2bc0514610143578063d6a9de5114610156578063d6eada0e1461016957600080fd5b80630ae2126d146100985780632e1528ae146100ad5780635bf608b8146100d75780636adb0d9c146100f8575b600080fd5b6100ab6100a636600461114a565b61017c565b005b6100c06100bb3660046111bf565b61049c565b6040516100ce929190611231565b60405180910390f35b6100ea6100e5366004611247565b610593565b6040516100ce929190611260565b6100ab61010636600461114a565b6105f5565b6100ab610795565b7f236215f8ddaf4ac1232d1f2516766788cddc14962c93aafa73278d9e2e4497dd546040519081526020016100ce565b6100ab610151366004611295565b6108bb565b6100c0610164366004611247565b6108c7565b6100ab610177366004611295565b610967565b60006001600160a01b031681602001516001600160a01b031614156040518060400160405280600f81526020016e496e76616c6964206164647265737360881b815250906101e65760405162461bcd60e51b81526004016101dd9190611343565b60405180910390fd5b506000806101f78360000151610c28565b60408051808201909152600d81526c27379039bab1b410313abcb2b960991b602082015291935091508261023e5760405162461bcd60e51b81526004016101dd9190611343565b50600181015460408051808201909152601a81527f4e6f7420627579657227732077616c6c657420616464726573730000000000006020820152906001600160a01b031633146102a15760405162461bcd60e51b81526004016101dd9190611343565b50602083015160018201546001600160a01b039081169116146103a35760006102c8610c5d565b6002015460018301546040516370a0823160e01b81526001600160a01b0391821660048201529116915081906370a082319060240160206040518083038186803b15801561031557600080fd5b505afa158015610329573d6000803e3d6000fd5b505050506040513d601f19601f8201168201806040525081019061034d9190611398565b60408051808201909152601c81527f57616c6c65742061646472657373206f776e7320766f75636865727300000000602082015290156103a05760405162461bcd60e51b81526004016101dd9190611343565b50505b6103ab610c5d565b6020808501516001600160a01b03166000908152601292909201905260409020541580610400575082516103dd610c5d565b6020808601516001600160a01b0316600090815260129290920190526040902054145b60405180606001604052806034815260200161141760349139906104375760405162461bcd60e51b81526004016101dd9190611343565b50610440610c5d565b336000908152601291909101602052604081205561045d83610c81565b82516040517fcd435fc5ac133a48b3d4ed471f40e283e7edce5376233cc0ddd569b256ddbe729061048f9086906113b1565b60405180910390a2505050565b6040805160c081018252600080825260208201819052918101829052606081018290526080810182905260a0810182905260006104d884610d0d565b90935090508215610553576104ec81610d3e565b6040805160c0810182528254815260018301546001600160a01b03908116602083015260028401548116928201929092526003830154821660608201526004909201549081166080830152600160a01b900460ff16151560a0820152909590945092505050565b61055c84610d72565b90935090508215610570576104ec81610d3e565b61057984610da3565b9093509050821561058d576104ec81610d3e565b50915091565b604080516060810182526000808252602082018190529181018290526105b883610c28565b60408051606081018252825481526001909201546001600160a01b0381166020840152600160a01b900460ff161515908201529094909350915050565b60006001600160a01b031681602001516001600160a01b031614156040518060400160405280600f81526020016e496e76616c6964206164647265737360881b815250906106565760405162461bcd60e51b81526004016101dd9190611343565b50604080820151815180830190925260168252754163636f756e74206d7573742062652061637469766560501b60208301526106a55760405162461bcd60e51b81526004016101dd9190611343565b5060007f236215f8ddaf4ac1232d1f2516766788cddc14962c93aafa73278d9e2e4497dd80549060006106d7836113df565b9190505590506106e5610c5d565b601201600083602001516001600160a01b03166001600160a01b0316815260200190815260200160002054600014604051806060016040528060348152602001611417603491399061074a5760405162461bcd60e51b81526004016101dd9190611343565b5080825261075782610c81565b81516040517f33451dd35757371b066ad686832be880477d2aa6fc4e5681065656c4b8672c94906107899085906113b1565b60405180910390a25050565b63123b476760e01b60008190527fe7ad30265b8084c731e610579d091ebe2886115e8a5cacb6b704e4392f48b2c160208181527f70df6e03e1826c0aa1ae07a2c539a17dd96891ce8704b9a571fbbea0e0ee0b2454604080518082019091526013815272105b1c9958591e481a5b9a5d1a585b1a5e9959606a1b9281019290925260ff16156108375760405162461bcd60e51b81526004016101dd9190611343565b506001600160e01b0319821660009081526020828152604082208054600160ff19918216811790925563123b476760e01b9093527fc8fcad8db84d3cc18b4c41d551ea0ee66dd599cde068d998e57d5e09332c131f9091527e96fb8edad7c54cc47bf9cca18e7ffc113378b5cbbf40f4b95feec281f6d88680549092161790555050565b6108c481610dd4565b50565b6040805160c081018252600080825260208201819052918101829052606081018290526080810182905260a0810182905261090183610d3e565b6040805160c0810182528254815260018301546001600160a01b03908116602083015260028401548116928201929092526003830154821660608201526004909201549081166080830152600160a01b900460ff16151560a08201529094909350915050565b6000806109778360000151610d3e565b60408051808201909152600e81526d27379039bab1b41039b2b63632b960911b60208201529193509150826109bf5760405162461bcd60e51b81526004016101dd9190611343565b5060028101546040805180820190915260128152712737ba1039b2b63632b913b99030b236b4b760711b6020820152906001600160a01b03163314610a175760405162461bcd60e51b81526004016101dd9190611343565b50610a20610c5d565b6020808501516001600160a01b03166000908152600f92909201905260409020541580610a7557508251610a52610c5d565b6020808601516001600160a01b03166000908152600f9290920190526040902054145b8015610ad75750610a84610c5d565b6040808501516001600160a01b031660009081526010929092016020529020541580610ad757508251610ab5610c5d565b6040808601516001600160a01b03166000908152601092909201602052902054145b8015610b3b5750610ae6610c5d565b60608401516001600160a01b0316600090815260119190910160205260409020541580610b3b57508251610b18610c5d565b60608501516001600160a01b031660009081526011919091016020526040902054145b60405180606001604052806036815260200161144b6036913990610b725760405162461bcd60e51b81526004016101dd9190611343565b50610b7b610c5d565b6020808501516001600160a01b03166000908152600f9290920190526040812055610ba4610c5d565b6040808501516001600160a01b03166000908152601092909201602052812055610bcc610c5d565b60608401516001600160a01b031660009081526011919091016020526040812055610bf683610f5f565b82516040517f8fdc4bdd08049f2f09e4d4f3babe043986d4282478c7b9d1e023c3d045e73b029061048f908690611408565b600080610c33610c5d565b60008481526007919091016020526040902090508215801590610c565750805483145b9150915091565b7f14c87be183d40876b1316e67a92c4469522d68b1be15fad3f5453a003ce0952b90565b6000610c908260000151610c28565b8351808255602085015160018301805460408801511515600160a01b026001600160a81b03199091166001600160a01b03909316929092179190911790559092509050610cdb610c5d565b601201600084602001516001600160a01b03166001600160a01b03168152602001908152602001600020819055505050565b600080610d18610c5d565b6001600160a01b039093166000908152600f939093016020525050604090205480151591565b600080610d49610c5d565b60008481526006919091016020526040902090508215801590610c565750805483149150915091565b600080610d7d610c5d565b6001600160a01b0390931660009081526010939093016020525050604090205480151591565b600080610dae610c5d565b6001600160a01b0390931660009081526011939093016020525050604090205480151591565b8060a00151604051806040016040528060168152602001754163636f756e74206d7573742062652061637469766560501b81525090610e265760405162461bcd60e51b81526004016101dd9190611343565b5060007f236215f8ddaf4ac1232d1f2516766788cddc14962c93aafa73278d9e2e4497dd8054906000610e58836113df565b919050559050610e66610c5d565b6020808401516001600160a01b03166000908152600f9290920190526040902054158015610eb95750610e97610c5d565b6040808401516001600160a01b03166000908152601092909201602052902054155b8015610eeb5750610ec8610c5d565b60608301516001600160a01b031660009081526011919091016020526040902054155b60405180606001604052806036815260200161144b6036913990610f225760405162461bcd60e51b81526004016101dd9190611343565b50808252610f2f82610f5f565b807ff6f1580f911f702a0de6efe2316db2a2510c77bfd90c52562d127f7ef3a64011836040516107899190611408565b60408101516001600160a01b031615801590610f87575060208101516001600160a01b031615155b8015610f9f575060608101516001600160a01b031615155b8015610fb7575060808101516001600160a01b031615155b6040518060400160405280600f81526020016e496e76616c6964206164647265737360881b81525090610ffd5760405162461bcd60e51b81526004016101dd9190611343565b50600061100d8260000151610d3e565b835180825560208501516001830180546001600160a01b03199081166001600160a01b0393841617909155604087015160028501805483169184169190911790556060870151600385018054909216908316179055608086015160048401805460a0890151929093166001600160a81b031990931692909217600160a01b9115159190910217905590925090506110a2610c5d565b6020808501516001600160a01b03166000908152600f929092019052604090205581516110cd610c5d565b6040808501516001600160a01b0316600090815260109290920160205290205581516110f7610c5d565b6060909301516001600160a01b0316600090815260119390930160205260409092209190915550565b6001600160a01b03811681146108c457600080fd5b8035801515811461114557600080fd5b919050565b60006060828403121561115c57600080fd5b6040516060810181811067ffffffffffffffff8211171561118d57634e487b7160e01b600052604160045260246000fd5b6040528235815260208301356111a281611120565b60208201526111b360408401611135565b60408201529392505050565b6000602082840312156111d157600080fd5b81356111dc81611120565b9392505050565b80518252602081015160018060a01b038082166020850152806040840151166040850152806060840151166060850152806080840151166080850152505060a0810151151560a08301525050565b821515815260e081016111dc60208301846111e3565b60006020828403121561125957600080fd5b5035919050565b8215158152608081016111dc6020830184805182526020808201516001600160a01b0316908301526040908101511515910152565b600060c082840312156112a757600080fd5b60405160c0810181811067ffffffffffffffff821117156112d857634e487b7160e01b600052604160045260246000fd5b6040528235815260208301356112ed81611120565b6020820152604083013561130081611120565b6040820152606083013561131381611120565b6060820152608083013561132681611120565b608082015261133760a08401611135565b60a08201529392505050565b600060208083528351808285015260005b8181101561137057858101830151858201604001528201611354565b81811115611382576000604083870101525b50601f01601f1916929092016040019392505050565b6000602082840312156113aa57600080fd5b5051919050565b815181526020808301516001600160a01b031690820152604080830151151590820152606081015b92915050565b600060001982141561140157634e487b7160e01b600052601160045260246000fd5b5060010190565b60c081016113d982846111e356fe427579657220616464726573732063616e6e6f742062652061737369676e656420746f20616e6f7468657220627579657220496453656c6c657220616464726573732063616e6e6f742062652061737369676e656420746f20616e6f746865722073656c6c6572204964a2646970667358221220f975fb5adc7e21a3727c82e24dbb64c2df71327fa7707638db9038ef43f652b364736f6c63430008090033",
  "linkReferences": {},
  "deployedLinkReferences": {}
}