{
  "_format": "hh-sol-artifact-1",
  "contractName": "TestERC721Revert",
  "sourceName": "contracts/test/TestERC721Revert.sol",
  "abi": [
    {
      "inputs": [
        {
          "internalType": "address",
          "name": "",
          "type": "address"
        },
        {
          "internalType": "address",
          "name": "",
          "type": "address"
        },
        {
          "internalType": "uint256",
          "name": "",
          "type": "uint256"
        }
      ],
      "name": "transferFrom",
      "outputs": [],
      "stateMutability": "pure",
      "type": "function"
    }
  ],
  "bytecode": "0x6080806040523461001657610123908161001c8239f35b600080fdfe608080604052600436101561001357600080fd5b600090813560e01c6323b872dd1461002a57600080fd5b3461010e5760607ffffffffffffffffffffffffffffffffffffffffffffffffffffffffffffffffc36011261010e5773ffffffffffffffffffffffffffffffffffffffff60043581811603610112576024359081160361010e57807f08c379a00000000000000000000000000000000000000000000000000000000061014492526020600482015261010060248201527f61616161616161616161616161616161616161616161616161616161616161618060448301528060648301528060848301528060a48301528060c48301528060e483015280610104830152610124820152fd5b5080fd5b8280fdfea164736f6c6343000811000a",
  "linkReferences": {},
  "deployedLinkReferences": {}
}