{
  "_format": "hh-sol-artifact-1",
  "contractName": "EIP1271Wallet",
  "sourceName": "contracts/test/EIP1271Wallet.sol",
  "abi": [
    {
      "inputs": [
        {
          "internalType": "address",
          "name": "_owner",
          "type": "address"
        }
      ],
      "stateMutability": "nonpayable",
      "type": "constructor"
    },
    {
      "inputs": [
        {
          "internalType": "contract ERC20ApprovalInterface",
          "name": "token",
          "type": "address"
        },
        {
          "internalType": "address",
          "name": "operator",
          "type": "address"
        },
        {
          "internalType": "uint256",
          "name": "amount",
          "type": "uint256"
        }
      ],
      "name": "approveERC20",
      "outputs": [],
      "stateMutability": "nonpayable",
      "type": "function"
    },
    {
      "inputs": [
        {
          "internalType": "contract NFTApprovalInterface",
          "name": "token",
          "type": "address"
        },
        {
          "internalType": "address",
          "name": "operator",
          "type": "address"
        }
      ],
      "name": "approveNFT",
      "outputs": [],
      "stateMutability": "nonpayable",
      "type": "function"
    },
    {
      "inputs": [
        {
          "internalType": "bytes32",
          "name": "",
          "type": "bytes32"
        }
      ],
      "name": "digestApproved",
      "outputs": [
        {
          "internalType": "bool",
          "name": "",
          "type": "bool"
        }
      ],
      "stateMutability": "view",
      "type": "function"
    },
    {
      "inputs": [],
      "name": "isValid",
      "outputs": [
        {
          "internalType": "bool",
          "name": "",
          "type": "bool"
        }
      ],
      "stateMutability": "view",
      "type": "function"
    },
    {
      "inputs": [
        {
          "internalType": "bytes32",
          "name": "digest",
          "type": "bytes32"
        },
        {
          "internalType": "bytes",
          "name": "signature",
          "type": "bytes"
        }
      ],
      "name": "isValidSignature",
      "outputs": [
        {
          "internalType": "bytes4",
          "name": "",
          "type": "bytes4"
        }
      ],
      "stateMutability": "view",
      "type": "function"
    },
    {
      "inputs": [],
      "name": "owner",
      "outputs": [
        {
          "internalType": "address",
          "name": "",
          "type": "address"
        }
      ],
      "stateMutability": "view",
      "type": "function"
    },
    {
      "inputs": [
        {
          "internalType": "bytes32",
          "name": "digest",
          "type": "bytes32"
        },
        {
          "internalType": "bool",
          "name": "approved",
          "type": "bool"
        }
      ],
      "name": "registerDigest",
      "outputs": [],
      "stateMutability": "nonpayable",
      "type": "function"
    },
    {
      "inputs": [
        {
          "internalType": "bool",
          "name": "showMessage",
          "type": "bool"
        }
      ],
      "name": "revertWithMessage",
      "outputs": [],
      "stateMutability": "nonpayable",
      "type": "function"
    },
    {
      "inputs": [
        {
          "internalType": "bool",
          "name": "valid",
          "type": "bool"
        }
      ],
      "name": "setValid",
      "outputs": [],
      "stateMutability": "nonpayable",
      "type": "function"
    },
    {
      "inputs": [],
      "name": "showRevertMessage",
      "outputs": [
        {
          "internalType": "bool",
          "name": "",
          "type": "bool"
        }
      ],
      "stateMutability": "view",
      "type": "function"
    }
  ],
  "bytecode": "0x60a03461009657601f610b1238819003918201601f19168301916001600160401b0383118484101761009b5780849260209460405283398101031261009657516001600160a01b038116810361009657608052600160ff19818160005416176000556002541617600255604051610a6090816100b28239608051818181610467015281816105d20152818161069a01526108f50152f35b600080fd5b634e487b7160e01b600052604160045260246000fdfe60806040526004361015610013575b600080fd5b6000803560e01c9081631626ba7e146100de5750806329e282e8146100d557806346a35674146100cc5780636c64edee146100c357806384e6d7e7146100ba5780638da5cb5b146100b157806397fe8014146100a8578063a8e5e4aa1461009f578063bb5d40eb146100965763de77d5e01461008e57600080fd5b61000e6107ad565b5061000e61076b565b5061000e610638565b5061000e6105f6565b5061000e610586565b5061000e610405565b5061000e610377565b5061000e610307565b5061000e610288565b346101e95760407ffffffffffffffffffffffffffffffffffffffffffffffffffffffffffffffffc3601126101e95760243567ffffffffffffffff8082116101e557366023830112156101e55781600401359081116101d8575b6040519161016e60207fffffffffffffffffffffffffffffffffffffffffffffffffffffffffffffffe0601f850116018461023d565b81835236602483830101116101d4579260208261019d949360246101d097018386013783010152600435610822565b6040517fffffffff0000000000000000000000000000000000000000000000000000000090911681529081906020820190565b0390f35b8380fd5b6101e06101ec565b610138565b8280fd5b80fd5b507f4e487b7100000000000000000000000000000000000000000000000000000000600052604160045260246000fd5b67ffffffffffffffff811161023057604052565b6102386101ec565b604052565b90601f7fffffffffffffffffffffffffffffffffffffffffffffffffffffffffffffffe0910116810190811067ffffffffffffffff82111761023057604052565b8015150361000e57565b503461000e5760407ffffffffffffffffffffffffffffffffffffffffffffffffffffffffffffffffc36011261000e576024356102c48161027e565b600435600052600160205260406000209060ff7fffffffffffffffffffffffffffffffffffffffffffffffffffffffffffffff0083541691151516179055600080f35b503461000e5760207ffffffffffffffffffffffffffffffffffffffffffffffffffffffffffffffffc36011261000e576004356103438161027e565b60ff7fffffffffffffffffffffffffffffffffffffffffffffffffffffffffffffff00600054169115151617600055600080f35b503461000e5760207ffffffffffffffffffffffffffffffffffffffffffffffffffffffffffffffffc36011261000e576004356103b38161027e565b60ff7fffffffffffffffffffffffffffffffffffffffffffffffffffffffffffffff00600254169115151617600255600080f35b73ffffffffffffffffffffffffffffffffffffffff81160361000e57565b503461000e5760407ffffffffffffffffffffffffffffffffffffffffffffffffffffffffffffffffc36011261000e57600435610441816103e7565b6024359061044e826103e7565b73ffffffffffffffffffffffffffffffffffffffff90817f000000000000000000000000000000000000000000000000000000000000000016330361051c5716803b1561000e576040517fa22cb46500000000000000000000000000000000000000000000000000000000815273ffffffffffffffffffffffffffffffffffffffff8316600482015260016024820152906000908290604490829084905af1801561050f575b6104fa57005b8061050761050d9261021c565b8061057b565b005b610517610815565b6104f4565b6040517f08c379a000000000000000000000000000000000000000000000000000000000815260206004820152600a60248201527f4f6e6c79206f776e6572000000000000000000000000000000000000000000006044820152606490fd5b600091031261000e57565b503461000e5760007ffffffffffffffffffffffffffffffffffffffffffffffffffffffffffffffffc36011261000e57602060405173ffffffffffffffffffffffffffffffffffffffff7f0000000000000000000000000000000000000000000000000000000000000000168152f35b503461000e5760007ffffffffffffffffffffffffffffffffffffffffffffffffffffffffffffffffc36011261000e57602060ff600054166040519015158152f35b503461000e5760607ffffffffffffffffffffffffffffffffffffffffffffffffffffffffffffffffc36011261000e57600435610674816103e7565b60243590610681826103e7565b73ffffffffffffffffffffffffffffffffffffffff91827f000000000000000000000000000000000000000000000000000000000000000016330361051c576020916107259160006040519586809581947f095ea7b300000000000000000000000000000000000000000000000000000000835260443590600484016020909392919373ffffffffffffffffffffffffffffffffffffffff60408201951681520152565b0393165af1801561075e575b61073757005b61050d9060203d8111610757575b61074f818361023d565b8101906107fd565b503d610745565b610766610815565b610731565b503461000e5760007ffffffffffffffffffffffffffffffffffffffffffffffffffffffffffffffffc36011261000e57602060ff600254166040519015158152f35b503461000e5760207ffffffffffffffffffffffffffffffffffffffffffffffffffffffffffffffffc36011261000e576004356000526001602052602060ff604060002054166040519015158152f35b9081602091031261000e57516108128161027e565b90565b506040513d6000823e3d90fd5b610840610839826000526001602052604060002090565b5460ff1690565b610a2d578151604081146109f55760410361000e576020820151906060604084015193015192600093841a927f7fffffffffffffffffffffffffffffff5d576e7357a4501ddfe92f46681b20a082116109e657601b841415806109ea575b6109e6576040805193845260ff94909416602080850191909152938301526060820152828052829060809060015afa156109d9575b73ffffffffffffffffffffffffffffffffffffffff808251169081156101e5577f0000000000000000000000000000000000000000000000000000000000000000160361096e575060025460ff161561094a577f1626ba7e0000000000000000000000000000000000000000000000000000000090565b7fffffffff0000000000000000000000000000000000000000000000000000000090565b805460ff1661097a5780fd5b6040517f08c379a000000000000000000000000000000000000000000000000000000000815260206004820152600a60248201527f424144205349474e4552000000000000000000000000000000000000000000006044820152606490fd5b6109e1610815565b6108d3565b8480fd5b50601c84141561089e565b505050610a0460025460ff1690565b1561094a577f1626ba7e0000000000000000000000000000000000000000000000000000000090565b50507f1626ba7e000000000000000000000000000000000000000000000000000000009056fea164736f6c6343000811000a",
  "linkReferences": {},
  "deployedLinkReferences": {}
}