{
  "_format": "hh-sol-artifact-1",
  "contractName": "BundleHandlerFacet",
  "sourceName": "contracts/protocol/facets/BundleHandlerFacet.sol",
  "abi": [
    {
      "anonymous": false,
      "inputs": [
        {
          "indexed": true,
          "internalType": "uint256",
          "name": "bundleId",
          "type": "uint256"
        },
        {
          "indexed": true,
          "internalType": "uint256",
          "name": "sellerId",
          "type": "uint256"
        },
        {
          "components": [
            {
              "internalType": "uint256",
              "name": "id",
              "type": "uint256"
            },
            {
              "internalType": "uint256",
              "name": "sellerId",
              "type": "uint256"
            },
            {
              "internalType": "uint256[]",
              "name": "offerIds",
              "type": "uint256[]"
            },
            {
              "internalType": "uint256[]",
              "name": "twinIds",
              "type": "uint256[]"
            }
          ],
          "indexed": false,
          "internalType": "struct BosonTypes.Bundle",
          "name": "bundle",
          "type": "tuple"
        }
      ],
      "name": "BundleCreated",
      "type": "event"
    },
    {
      "anonymous": false,
      "inputs": [
        {
          "indexed": true,
          "internalType": "uint256",
          "name": "bundleId",
          "type": "uint256"
        },
        {
          "indexed": true,
          "internalType": "uint256",
          "name": "sellerId",
          "type": "uint256"
        }
      ],
      "name": "BundleDeleted",
      "type": "event"
    },
    {
      "anonymous": false,
      "inputs": [
        {
          "indexed": true,
          "internalType": "uint256",
          "name": "bundleId",
          "type": "uint256"
        },
        {
          "indexed": true,
          "internalType": "uint256",
          "name": "sellerId",
          "type": "uint256"
        },
        {
          "components": [
            {
              "internalType": "uint256",
              "name": "id",
              "type": "uint256"
            },
            {
              "internalType": "uint256",
              "name": "sellerId",
              "type": "uint256"
            },
            {
              "internalType": "uint256[]",
              "name": "offerIds",
              "type": "uint256[]"
            },
            {
              "internalType": "uint256[]",
              "name": "twinIds",
              "type": "uint256[]"
            }
          ],
          "indexed": false,
          "internalType": "struct BosonTypes.Bundle",
          "name": "bundle",
          "type": "tuple"
        }
      ],
      "name": "BundleUpdated",
      "type": "event"
    },
    {
      "inputs": [
        {
          "internalType": "uint256",
          "name": "_bundleId",
          "type": "uint256"
        },
        {
          "internalType": "uint256[]",
          "name": "_offerIds",
          "type": "uint256[]"
        }
      ],
      "name": "addOffersToBundle",
      "outputs": [],
      "stateMutability": "nonpayable",
      "type": "function"
    },
    {
      "inputs": [
        {
          "internalType": "uint256",
          "name": "_bundleId",
          "type": "uint256"
        },
        {
          "internalType": "uint256[]",
          "name": "_twinIds",
          "type": "uint256[]"
        }
      ],
      "name": "addTwinsToBundle",
      "outputs": [],
      "stateMutability": "nonpayable",
      "type": "function"
    },
    {
      "inputs": [
        {
          "components": [
            {
              "internalType": "uint256",
              "name": "id",
              "type": "uint256"
            },
            {
              "internalType": "uint256",
              "name": "sellerId",
              "type": "uint256"
            },
            {
              "internalType": "uint256[]",
              "name": "offerIds",
              "type": "uint256[]"
            },
            {
              "internalType": "uint256[]",
              "name": "twinIds",
              "type": "uint256[]"
            }
          ],
          "internalType": "struct BosonTypes.Bundle",
          "name": "_bundle",
          "type": "tuple"
        }
      ],
      "name": "createBundle",
      "outputs": [],
      "stateMutability": "nonpayable",
      "type": "function"
    },
    {
      "inputs": [
        {
          "internalType": "uint256",
          "name": "_bundleId",
          "type": "uint256"
        }
      ],
      "name": "getBundle",
      "outputs": [
        {
          "internalType": "bool",
          "name": "exists",
          "type": "bool"
        },
        {
          "components": [
            {
              "internalType": "uint256",
              "name": "id",
              "type": "uint256"
            },
            {
              "internalType": "uint256",
              "name": "sellerId",
              "type": "uint256"
            },
            {
              "internalType": "uint256[]",
              "name": "offerIds",
              "type": "uint256[]"
            },
            {
              "internalType": "uint256[]",
              "name": "twinIds",
              "type": "uint256[]"
            }
          ],
          "internalType": "struct BosonTypes.Bundle",
          "name": "bundle",
          "type": "tuple"
        }
      ],
      "stateMutability": "view",
      "type": "function"
    },
    {
      "inputs": [
        {
          "internalType": "uint256",
          "name": "_offerId",
          "type": "uint256"
        }
      ],
      "name": "getBundleIdByOffer",
      "outputs": [
        {
          "internalType": "bool",
          "name": "exists",
          "type": "bool"
        },
        {
          "internalType": "uint256",
          "name": "bundleId",
          "type": "uint256"
        }
      ],
      "stateMutability": "view",
      "type": "function"
    },
    {
      "inputs": [
        {
          "internalType": "uint256",
          "name": "_twinId",
          "type": "uint256"
        }
      ],
      "name": "getBundleIdsByTwin",
      "outputs": [
        {
          "internalType": "bool",
          "name": "exists",
          "type": "bool"
        },
        {
          "internalType": "uint256[]",
          "name": "bundleIds",
          "type": "uint256[]"
        }
      ],
      "stateMutability": "view",
      "type": "function"
    },
    {
      "inputs": [],
      "name": "getNextBundleId",
      "outputs": [
        {
          "internalType": "uint256",
          "name": "nextBundleId",
          "type": "uint256"
        }
      ],
      "stateMutability": "view",
      "type": "function"
    },
    {
      "inputs": [],
      "name": "initialize",
      "outputs": [],
      "stateMutability": "nonpayable",
      "type": "function"
    },
    {
      "inputs": [
        {
          "internalType": "uint256",
          "name": "_bundleId",
          "type": "uint256"
        }
      ],
      "name": "removeBundle",
      "outputs": [],
      "stateMutability": "nonpayable",
      "type": "function"
    },
    {
      "inputs": [
        {
          "internalType": "uint256",
          "name": "_bundleId",
          "type": "uint256"
        },
        {
          "internalType": "uint256[]",
          "name": "_offerIds",
          "type": "uint256[]"
        }
      ],
      "name": "removeOffersFromBundle",
      "outputs": [],
      "stateMutability": "nonpayable",
      "type": "function"
    },
    {
      "inputs": [
        {
          "internalType": "uint256",
          "name": "_bundleId",
          "type": "uint256"
        },
        {
          "internalType": "uint256[]",
          "name": "_twinIds",
          "type": "uint256[]"
        }
      ],
      "name": "removeTwinsFromBundle",
      "outputs": [],
      "stateMutability": "nonpayable",
      "type": "function"
    }
  ],
  "bytecode": "0x608060405234801561001057600080fd5b506120fd806100206000396000f3fe608060405234801561001057600080fd5b50600436106100a95760003560e01c80638129fc1c116100715780638129fc1c14610143578063a8e311071461014b578063b336501514610175578063c457b2d414610188578063cd1c4cfe1461019b578063f8533bd6146101ae57600080fd5b8063272efeae146100ae5780632d0821b7146100c35780634475643d146100ed57806379a29da21461011d5780637c016ad514610130575b600080fd5b6100c16100bc366004611b99565b6101cf565b005b6100d66100d1366004611c18565b610372565b6040516100e4929190611cb7565b60405180910390f35b7f236215f8ddaf4ac1232d1f2516766788cddc14962c93aafa73278d9e2e4497e2546040519081526020016100e4565b6100c161012b366004611b99565b610483565b6100c161013e366004611db4565b61073c565b6100c1610748565b61015e610159366004611c18565b61086f565b6040805192151583526020830191909152016100e4565b6100c1610183366004611b99565b610884565b6100c1610196366004611b99565b6109ad565b6100c16101a9366004611c18565b610ba6565b6101c16101bc366004611c18565b610f89565b6040516100e4929190611e59565b6000806101df8585856001610f96565b9150915060005b8381101561033157600085858381811061020257610202611ea9565b9050602002013590506102148161117f565b5060006102208261129e565b50905080156040518060400160405280601981526020017845786368616e676520666f72206f666665722065786973747360381b8152509061027e5760405162461bcd60e51b81526004016102759190611ebf565b60405180910390fd5b50600061028a8361131b565b50905080156040518060400160405280602081526020017f4f66666572206d75737420626520756e6971756520746f20612062756e646c65815250906102e35760405162461bcd60e51b81526004016102759190611ebf565b50886102ed61133e565b6000858152600c919091016020908152604082209290925560028701805460018101825590825291902001929092555081905061032981611f2a565b9150506101e6565b5081857f868f503c941d978b097ff61d2221ae42ee13530e5b2623cb073035fae10a5f1d836040516103639190611f7a565b60405180910390a35050505050565b600061039f6040518060800160405280600081526020016000815260200160608152602001606081525090565b6103a883611362565b8060405180608001604052908160008201548152602001600182015481526020016002820180548060200260200160405190810160405280929190818152602001828054801561041757602002820191906000526020600020905b815481526020019060010190808311610403575b505050505081526020016003820180548060200260200160405190810160405280929190818152602001828054801561046f57602002820191906000526020600020905b81548152602001906001019080831161045b575b505050505081525050905091509150915091565b6000806104938585856000610f96565b9150915060005b838110156103315760008585838181106104b6576104b6611ea9565b9050602002013590506000806104cb83611397565b91509150816040518060400160405280601b81526020017f5477696e206e6f742070617274206f66207468652062756e646c650000000000815250906105245760405162461bcd60e51b81526004016102759190611ebf565b506000805b825181101561060d578a83828151811061054557610545611ea9565b602002602001015114156105fb576001915082600184516105669190611fc1565b8151811061057657610576611ea9565b602002602001015161058661133e565b600d01600087815260200190815260200160002082815481106105ab576105ab611ea9565b6000918252602090912001556105bf61133e565b6000868152600d91909101602052604090208054806105e0576105e0611fd8565b6001900381819060005260206000200160009055905561060d565b8061060581611f2a565b915050610529565b5060408051808201909152601b81527f5477696e206e6f742070617274206f66207468652062756e646c6500000000006020820152816106605760405162461bcd60e51b81526004016102759190611ebf565b50600386015460005b81811015610723578588600301828154811061068757610687611ea9565b9060005260206000200154141561071157600388016106a7600184611fc1565b815481106106b7576106b7611ea9565b90600052602060002001548860030182815481106106d7576106d7611ea9565b600091825260209091200155600388018054806106f6576106f6611fd8565b60019003818190600052602060002001600090559055610723565b8061071b81611f2a565b915050610669565b505050505050808061073490611f2a565b91505061049a565b61074581611412565b50565b63a13dc8bd60e01b60008190527fe7ad30265b8084c731e610579d091ebe2886115e8a5cacb6b704e4392f48b2c160208181527f574ff5a5c7d2d11bbeeb1947caa4231f7f1365c84d7a2950cc4d96fd8c815e5454604080518082019091526013815272105b1c9958591e481a5b9a5d1a585b1a5e9959606a1b9281019290925260ff16156107ea5760405162461bcd60e51b81526004016102759190611ebf565b506001600160e01b0319821660009081526020828152604082208054600160ff19918216811790925563a13dc8bd60e01b9093527fc8fcad8db84d3cc18b4c41d551ea0ee66dd599cde068d998e57d5e09332c131f9091527f28dcf5fbf06a6a6090d813d396a0775631ed1bb20372e64439fbd95b74bae92c80549092161790555050565b60008061087b8361131b565b91509150915091565b6000806108948585856000610f96565b9150915060005b838110156103315760008585838181106108b7576108b7611ea9565b9050602002013590506108c9816118be565b506000806108d683611397565b9150915081156109555760005b815181101561095357898282815181106108ff576108ff611ea9565b602002602001015114156040518060600160405280602681526020016120a260269139906109405760405162461bcd60e51b81526004016102759190611ebf565b508061094b81611f2a565b9150506108e3565b505b61095d61133e565b6000848152600d91909101602090815260408220805460018181018355918452828420018c90556003880180549182018155835291200192909255508190506109a581611f2a565b91505061089b565b6000806109bd8585856001610f96565b9150915060005b838110156103315760008585838181106109e0576109e0611ea9565b90506020020135905060006109f48261131b565b9150508088146040518060400160405280601c81526020017f4f66666572206e6f742070617274206f66207468652062756e646c650000000081525090610a4e5760405162461bcd60e51b81526004016102759190611ebf565b506000610a5a8361129e565b50905080156040518060400160405280601981526020017845786368616e676520666f72206f666665722065786973747360381b81525090610aaf5760405162461bcd60e51b81526004016102759190611ebf565b50610ab861133e565b6000848152600c91909101602052604081208190556002860154905b81811015610b8e5784876002018281548110610af257610af2611ea9565b90600052602060002001541415610b7c5760028701610b12600184611fc1565b81548110610b2257610b22611ea9565b9060005260206000200154876002018281548110610b4257610b42611ea9565b60009182526020909120015560028701805480610b6157610b61611fd8565b60019003818190600052602060002001600090559055610b8e565b80610b8681611f2a565b915050610ad4565b50505050508080610b9e90611f2a565b9150506109c4565b600080610bb283611362565b604051806080016040529081600082015481526020016001820154815260200160028201805480602002602001604051908101604052809291908181526020018280548015610c2057602002820191906000526020600020905b815481526020019060010190808311610c0c575b5050505050815260200160038201805480602002602001604051908101604052809291908181526020018280548015610c7857602002820191906000526020600020905b815481526020019060010190808311610c64575b50505050508152505091509150816040518060400160405280600e81526020016d4e6f20737563682062756e646c6560901b81525090610ccb5760405162461bcd60e51b81526004016102759190611ebf565b506000610cd733611973565b91505081602001518114604051806040016040528060158152602001742737ba1039b2b63632b913b99037b832b930ba37b960591b81525090610d2d5760405162461bcd60e51b81526004016102759190611ebf565b50610d37846119a4565b604082015160005b8151811015610d9457610d5061133e565b600c016000838381518110610d6757610d67611ea9565b60200260200101518152602001908152602001600020600090558080610d8c90611f2a565b915050610d3f565b50606083015160005b8151811015610f0e576000828281518110610dba57610dba611ea9565b60200260200101519050600080610dd083611397565b915091508115610ef857805160005b81811015610ef5578b610df061133e565b600d0160008781526020019081526020016000208281548110610e1557610e15611ea9565b90600052602060002001541415610ee357610e2e61133e565b6000868152600d9190910160205260409020610e4b600184611fc1565b81548110610e5b57610e5b611ea9565b9060005260206000200154610e6e61133e565b600d0160008781526020019081526020016000208281548110610e9357610e93611ea9565b600091825260209091200155610ea761133e565b6000868152600d9190910160205260409020805480610ec857610ec8611fd8565b60019003818190600052602060002001600090559055610ef5565b80610eed81611f2a565b915050610ddf565b50505b5050508080610f0690611f2a565b915050610d9d565b50610f1761133e565b6000878152600991909101602052604081208181556001810182905590610f416002830182611b1b565b610f4f600383016000611b1b565b5050602084015160405187907f0ec32368509147accf13bc292f682591edf7abc7f80bc89c383a4690acfd6d6690600090a3505050505050565b6000606061087b83611397565b60408051808201909152600f81526e139bdd1a1a5b99c81d5c19185d1959608a1b6020820152600090819084610fdf5760405162461bcd60e51b81526004016102759190611ebf565b506000836001811115610ff457610ff4611fee565b14156110525761100261133e565b600201546040805160608101909152602e808252600160d01b90920461ffff168611159161207460208301399061104c5760405162461bcd60e51b81526004016102759190611ebf565b506110c0565b600183600181111561106657611066611fee565b14156110c05761107461133e565b600201546040805160608101909152602f808252600160c01b90920461ffff168611159161201f6020830139906110be5760405162461bcd60e51b81526004016102759190611ebf565b505b60006110cb87611362565b60408051808201909152600e81526d4e6f20737563682062756e646c6560901b6020820152909350909150816111145760405162461bcd60e51b81526004016102759190611ebf565b5061111e33611973565b60018401546040805180820190915260158152742737ba1039b2b63632b913b99037b832b930ba37b960591b602082015291955090915084146111745760405162461bcd60e51b81526004016102759190611ebf565b505094509492505050565b600080600061118d84611a7f565b60408051808201909152600d81526c27379039bab1b41037b33332b960991b6020820152909450909250826111d55760405162461bcd60e51b81526004016102759190611ebf565b50600f83015460408051808201909152601581527413d999995c881a185cc81899595b881d9bda591959605a1b60208201529060ff16156112295760405162461bcd60e51b81526004016102759190611ebf565b506112378360010154611ab3565b60018101546040805180820190915260158152742737ba1039b2b63632b913b99037b832b930ba37b960591b60208201529193509091506001600160a01b031633146112965760405162461bcd60e51b81526004016102759190611ebf565b505050919050565b600060606112aa61133e565b600b01600084815260200190815260200160002080548060200260200160405190810160405280929190818152602001828054801561130857602002820191906000526020600020905b8154815260200190600101908083116112f4575b5050505050905060008151119150915091565b60008061132661133e565b6000938452600c016020525050604090205480151591565b7f14c87be183d40876b1316e67a92c4469522d68b1be15fad3f5453a003ce0952b90565b60008061136d61133e565b600084815260099190910160205260409020905082158015906113905750805483145b9150915091565b600060606113a361133e565b600d01600084815260200190815260200160002080548060200260200160405190810160405280929190818152602001828054801561130857602002820191906000526020600020908154815260200190600101908083116112f4575050505050905060008151119150915091565b60008061141e33611973565b9150915081604051806040016040528060158152602001742737ba1039b2b63632b913b99037b832b930ba37b960591b8152509061146f5760405162461bcd60e51b81526004016102759190611ebf565b5061147861133e565b60020160189054906101000a900461ffff1661ffff1683604001515111156040518060600160405280602f815260200161201f602f9139906114cd5760405162461bcd60e51b81526004016102759190611ebf565b506114d661133e565b600201601a9054906101000a900461ffff1661ffff1683606001515111156040518060600160405280602e8152602001612074602e91399061152b5760405162461bcd60e51b81526004016102759190611ebf565b507f236215f8ddaf4ac1232d1f2516766788cddc14962c93aafa73278d9e2e4497e280546000918261155c83611f2a565b91905055905060005b8460400151518110156116ec576115988560400151828151811061158b5761158b611ea9565b602002602001015161117f565b5060006115c1866040015183815181106115b4576115b4611ea9565b602002602001015161131b565b50905080156040518060400160405280602081526020017f4f66666572206d75737420626520756e6971756520746f20612062756e646c658152509061161a5760405162461bcd60e51b81526004016102759190611ebf565b5060006116438760400151848151811061163657611636611ea9565b602002602001015161129e565b50905080156040518060400160405280601981526020017845786368616e676520666f72206f666665722065786973747360381b815250906116985760405162461bcd60e51b81526004016102759190611ebf565b50836116a261133e565b600c016000896040015186815181106116bd576116bd611ea9565b6020026020010151815260200190815260200160002081905550505080806116e490611f2a565b915050611565565b5060005b846060015151811015611833576117238560600151828151811061171657611716611ea9565b60200260200101516118be565b5060008061174d8760600151848151811061174057611740611ea9565b6020026020010151611397565b9150915081156117cc5760005b81518110156117ca578482828151811061177657611776611ea9565b602002602001015114156040518060600160405280602681526020016120a260269139906117b75760405162461bcd60e51b81526004016102759190611ebf565b50806117c281611f2a565b91505061175a565b505b6117d461133e565b600d016000886060015185815181106117ef576117ef611ea9565b60209081029190910181015182528181019290925260400160009081208054600181018255908252919020018490555081905061182b81611f2a565b9150506116f0565b50600061183f82611362565b8387528381556020808801869052600182018690556040880151805192945061187093506002850192910190611b39565b506060850151805161188c916003840191602090910190611b39565b5082827fcf8f9159d5f8995097f8c58aefe95e80146552ccedba0702a60fde60981ff5a8876040516103639190612004565b6000806118ca83611ae7565b60408051808201909152600c81526b27379039bab1b4103a3bb4b760a11b6020820152909350909150816119115760405162461bcd60e51b81526004016102759190611ebf565b50600061191d33611973565b91505082600101548114604051806040016040528060158152602001742737ba1039b2b63632b913b99037b832b930ba37b960591b815250906112965760405162461bcd60e51b81526004016102759190611ebf565b60008061197e61133e565b6001600160a01b039093166000908152600f939093016020525050604090205480151591565b60006119af82611362565b60028101805460408051602080840282018101909252828152939550600094508301828280156119fe57602002820191906000526020600020905b8154815260200190600101908083116119ea575b5050505050905060005b8151811015611a79576000611a2883838151811061163657611636611ea9565b509050801560405180606001604052806026815260200161204e6026913990611a645760405162461bcd60e51b81526004016102759190611ebf565b50508080611a7190611f2a565b915050611a08565b50505050565b600080611a8a61133e565b600084815260039190910160205260409020905082158015906113905750805483149150915091565b600080611abe61133e565b600084815260069190910160205260409020905082158015906113905750805483149150915091565b600080611af261133e565b6000848152600a9190910160205260409020905082158015906113905750805483149150915091565b50805460008255906000526020600020908101906107459190611b84565b828054828255906000526020600020908101928215611b74579160200282015b82811115611b74578251825591602001919060010190611b59565b50611b80929150611b84565b5090565b5b80821115611b805760008155600101611b85565b600080600060408486031215611bae57600080fd5b83359250602084013567ffffffffffffffff80821115611bcd57600080fd5b818601915086601f830112611be157600080fd5b813581811115611bf057600080fd5b8760208260051b8501011115611c0557600080fd5b6020830194508093505050509250925092565b600060208284031215611c2a57600080fd5b5035919050565b600081518084526020808501945080840160005b83811015611c6157815187529582019590820190600101611c45565b509495945050505050565b80518252602081015160208301526000604082015160806040850152611c956080850182611c31565b905060608301518482036060860152611cae8282611c31565b95945050505050565b8215158152604060208201526000611cd26040830184611c6c565b949350505050565b634e487b7160e01b600052604160045260246000fd5b6040516080810167ffffffffffffffff81118282101715611d1357611d13611cda565b60405290565b600082601f830112611d2a57600080fd5b8135602067ffffffffffffffff80831115611d4757611d47611cda565b8260051b604051601f19603f83011681018181108482111715611d6c57611d6c611cda565b604052938452858101830193838101925087851115611d8a57600080fd5b83870191505b84821015611da957813583529183019190830190611d90565b979650505050505050565b600060208284031215611dc657600080fd5b813567ffffffffffffffff80821115611dde57600080fd5b9083019060808286031215611df257600080fd5b611dfa611cf0565b8235815260208301356020820152604083013582811115611e1a57600080fd5b611e2687828601611d19565b604083015250606083013582811115611e3e57600080fd5b611e4a87828601611d19565b60608301525095945050505050565b60006040820184151583526020604081850152818551808452606086019150828701935060005b81811015611e9c57845183529383019391830191600101611e80565b5090979650505050505050565b634e487b7160e01b600052603260045260246000fd5b600060208083528351808285015260005b81811015611eec57858101830151858201604001528201611ed0565b81811115611efe576000604083870101525b50601f01601f1916929092016040019392505050565b634e487b7160e01b600052601160045260246000fd5b6000600019821415611f3e57611f3e611f14565b5060010190565b6000815480845260208085019450836000528060002060005b83811015611c6157815487529582019560019182019101611f5e565b602081528154602082015260018201546040820152608060608201526000611fa860a0830160028501611f45565b828103601f19016080840152611cd28160038601611f45565b600082821015611fd357611fd3611f14565b500390565b634e487b7160e01b600052603160045260246000fd5b634e487b7160e01b600052602160045260246000fd5b6020815260006120176020830184611c6c565b939250505056fe4578636565646564206d6178696d756d206f666665727320696e20612073696e676c65207472616e73616374696f6e45786368616e676520666f72207468652062756e646c6564206f6666657273206578697374734578636565646564206d6178696d756d207477696e7320696e20612073696e676c65207472616e73616374696f6e5477696e20616c72656164792065786973747320696e207468652073616d652062756e646c65a26469706673582212202328f557217b4a7f6cf9daf4325e0f38f94b01db53ce96f8f3a2507d9c67e68964736f6c63430008090033",
  "linkReferences": {},
  "deployedLinkReferences": {}
}