{
  "_format": "hh-sol-artifact-1",
  "contractName": "SeaportRouter",
  "sourceName": "contracts/helpers/SeaportRouter.sol",
  "abi": [
    {
      "inputs": [
        {
          "internalType": "address",
          "name": "seaportV1point1",
          "type": "address"
        },
        {
          "internalType": "address",
          "name": "seaportV1point4",
          "type": "address"
        }
      ],
      "stateMutability": "nonpayable",
      "type": "constructor"
    },
    {
      "inputs": [
        {
          "internalType": "address",
          "name": "recipient",
          "type": "address"
        },
        {
          "internalType": "uint256",
          "name": "amount",
          "type": "uint256"
        },
        {
          "internalType": "bytes",
          "name": "returnData",
          "type": "bytes"
        }
      ],
      "name": "EtherReturnTransferFailed",
      "type": "error"
    },
    {
      "inputs": [],
      "name": "NoReentrantCalls",
      "type": "error"
    },
    {
      "inputs": [
        {
          "internalType": "address",
          "name": "seaport",
          "type": "address"
        }
      ],
      "name": "SeaportNotAllowed",
      "type": "error"
    },
    {
      "inputs": [
        {
          "components": [
            {
              "internalType": "address[]",
              "name": "seaportContracts",
              "type": "address[]"
            },
            {
              "components": [
                {
                  "components": [
                    {
                      "components": [
                        {
                          "internalType": "address",
                          "name": "offerer",
                          "type": "address"
                        },
                        {
                          "internalType": "address",
                          "name": "zone",
                          "type": "address"
                        },
                        {
                          "components": [
                            {
                              "internalType": "enum ItemType",
                              "name": "itemType",
                              "type": "uint8"
                            },
                            {
                              "internalType": "address",
                              "name": "token",
                              "type": "address"
                            },
                            {
                              "internalType": "uint256",
                              "name": "identifierOrCriteria",
                              "type": "uint256"
                            },
                            {
                              "internalType": "uint256",
                              "name": "startAmount",
                              "type": "uint256"
                            },
                            {
                              "internalType": "uint256",
                              "name": "endAmount",
                              "type": "uint256"
                            }
                          ],
                          "internalType": "struct OfferItem[]",
                          "name": "offer",
                          "type": "tuple[]"
                        },
                        {
                          "components": [
                            {
                              "internalType": "enum ItemType",
                              "name": "itemType",
                              "type": "uint8"
                            },
                            {
                              "internalType": "address",
                              "name": "token",
                              "type": "address"
                            },
                            {
                              "internalType": "uint256",
                              "name": "identifierOrCriteria",
                              "type": "uint256"
                            },
                            {
                              "internalType": "uint256",
                              "name": "startAmount",
                              "type": "uint256"
                            },
                            {
                              "internalType": "uint256",
                              "name": "endAmount",
                              "type": "uint256"
                            },
                            {
                              "internalType": "address payable",
                              "name": "recipient",
                              "type": "address"
                            }
                          ],
                          "internalType": "struct ConsiderationItem[]",
                          "name": "consideration",
                          "type": "tuple[]"
                        },
                        {
                          "internalType": "enum OrderType",
                          "name": "orderType",
                          "type": "uint8"
                        },
                        {
                          "internalType": "uint256",
                          "name": "startTime",
                          "type": "uint256"
                        },
                        {
                          "internalType": "uint256",
                          "name": "endTime",
                          "type": "uint256"
                        },
                        {
                          "internalType": "bytes32",
                          "name": "zoneHash",
                          "type": "bytes32"
                        },
                        {
                          "internalType": "uint256",
                          "name": "salt",
                          "type": "uint256"
                        },
                        {
                          "internalType": "bytes32",
                          "name": "conduitKey",
                          "type": "bytes32"
                        },
                        {
                          "internalType": "uint256",
                          "name": "totalOriginalConsiderationItems",
                          "type": "uint256"
                        }
                      ],
                      "internalType": "struct OrderParameters",
                      "name": "parameters",
                      "type": "tuple"
                    },
                    {
                      "internalType": "uint120",
                      "name": "numerator",
                      "type": "uint120"
                    },
                    {
                      "internalType": "uint120",
                      "name": "denominator",
                      "type": "uint120"
                    },
                    {
                      "internalType": "bytes",
                      "name": "signature",
                      "type": "bytes"
                    },
                    {
                      "internalType": "bytes",
                      "name": "extraData",
                      "type": "bytes"
                    }
                  ],
                  "internalType": "struct AdvancedOrder[]",
                  "name": "advancedOrders",
                  "type": "tuple[]"
                },
                {
                  "components": [
                    {
                      "internalType": "uint256",
                      "name": "orderIndex",
                      "type": "uint256"
                    },
                    {
                      "internalType": "enum Side",
                      "name": "side",
                      "type": "uint8"
                    },
                    {
                      "internalType": "uint256",
                      "name": "index",
                      "type": "uint256"
                    },
                    {
                      "internalType": "uint256",
                      "name": "identifier",
                      "type": "uint256"
                    },
                    {
                      "internalType": "bytes32[]",
                      "name": "criteriaProof",
                      "type": "bytes32[]"
                    }
                  ],
                  "internalType": "struct CriteriaResolver[]",
                  "name": "criteriaResolvers",
                  "type": "tuple[]"
                },
                {
                  "components": [
                    {
                      "internalType": "uint256",
                      "name": "orderIndex",
                      "type": "uint256"
                    },
                    {
                      "internalType": "uint256",
                      "name": "itemIndex",
                      "type": "uint256"
                    }
                  ],
                  "internalType": "struct FulfillmentComponent[][]",
                  "name": "offerFulfillments",
                  "type": "tuple[][]"
                },
                {
                  "components": [
                    {
                      "internalType": "uint256",
                      "name": "orderIndex",
                      "type": "uint256"
                    },
                    {
                      "internalType": "uint256",
                      "name": "itemIndex",
                      "type": "uint256"
                    }
                  ],
                  "internalType": "struct FulfillmentComponent[][]",
                  "name": "considerationFulfillments",
                  "type": "tuple[][]"
                },
                {
                  "internalType": "uint256",
                  "name": "etherValue",
                  "type": "uint256"
                }
              ],
              "internalType": "struct SeaportRouterInterface.AdvancedOrderParams[]",
              "name": "advancedOrderParams",
              "type": "tuple[]"
            },
            {
              "internalType": "bytes32",
              "name": "fulfillerConduitKey",
              "type": "bytes32"
            },
            {
              "internalType": "address",
              "name": "recipient",
              "type": "address"
            },
            {
              "internalType": "uint256",
              "name": "maximumFulfilled",
              "type": "uint256"
            }
          ],
          "internalType": "struct SeaportRouterInterface.FulfillAvailableAdvancedOrdersParams",
          "name": "params",
          "type": "tuple"
        }
      ],
      "name": "fulfillAvailableAdvancedOrders",
      "outputs": [
        {
          "internalType": "bool[][]",
          "name": "availableOrders",
          "type": "bool[][]"
        },
        {
          "components": [
            {
              "components": [
                {
                  "internalType": "enum ItemType",
                  "name": "itemType",
                  "type": "uint8"
                },
                {
                  "internalType": "address",
                  "name": "token",
                  "type": "address"
                },
                {
                  "internalType": "uint256",
                  "name": "identifier",
                  "type": "uint256"
                },
                {
                  "internalType": "uint256",
                  "name": "amount",
                  "type": "uint256"
                },
                {
                  "internalType": "address payable",
                  "name": "recipient",
                  "type": "address"
                }
              ],
              "internalType": "struct ReceivedItem",
              "name": "item",
              "type": "tuple"
            },
            {
              "internalType": "address",
              "name": "offerer",
              "type": "address"
            },
            {
              "internalType": "bytes32",
              "name": "conduitKey",
              "type": "bytes32"
            }
          ],
          "internalType": "struct Execution[][]",
          "name": "executions",
          "type": "tuple[][]"
        }
      ],
      "stateMutability": "payable",
      "type": "function"
    },
    {
      "inputs": [],
      "name": "getAllowedSeaportContracts",
      "outputs": [
        {
          "internalType": "address[]",
          "name": "seaportContracts",
          "type": "address[]"
        }
      ],
      "stateMutability": "view",
      "type": "function"
    },
    {
      "stateMutability": "payable",
      "type": "receive"
    }
  ],
  "bytecode": "0x60c03461008b57601f61191138819003918201601f19168301916001600160401b0383118484101761009057808492604094855283398101031261008b57610052602061004b836100a6565b92016100a6565b90600160005560805260a05260405161185690816100bb823960805181818160b1015261173d015260a05181818160e501526117180152f35b600080fd5b634e487b7160e01b600052604160045260246000fd5b51906001600160a01b038216820361008b5756fe60806040526004361015610023575b361561001957600080fd5b61002161073c565b005b6000803560e01c90816330af8b561461004e575063fc2a350b0361000e57610049610387565b61000e565b3461014a57807ffffffffffffffffffffffffffffffffffffffffffffffffffffffffffffffffc36011261014a5761008660e0604052565b600260805260403660a0376080511561013d575b73ffffffffffffffffffffffffffffffffffffffff7f00000000000000000000000000000000000000000000000000000000000000001660a05260805160011015610130575b61011f7f000000000000000000000000000000000000000000000000000000000000000073ffffffffffffffffffffffffffffffffffffffff1660c052565b6040518061012c8161014d565b0390f35b61013861098d565b6100e0565b61014561098d565b61009a565b80fd5b6020604081830192828152608051809452019160a09160005b828110610174575050505090565b835173ffffffffffffffffffffffffffffffffffffffff1685529381019392810192600101610166565b507f4e487b7100000000000000000000000000000000000000000000000000000000600052602160045260246000fd5b9060068210156101db5752565b6101e361019e565b52565b90815180825260208092019182818360051b8501950193600080925b858410610213575050505050505090565b9091929387828297989903855288519082808351928381520192019085905b808210610252575050509080600192990194019401929594939190610202565b919360e060019294865180519061026a8383516101ce565b73ffffffffffffffffffffffffffffffffffffffff80868401511686850152604092838101518486015260608082015190860152816080809201511690850152858201511660a0840152015160c0820152019401920188939291610232565b9092916040820191604081528451809352606081019460608460051b830101936020809201906000805b828210610312575050505061030f9495508184039101526101e6565b90565b90919296807fffffffffffffffffffffffffffffffffffffffffffffffffffffffffffffffa087879303018b5288519082808351928381520192019084905b80821061036c575050509981019997019291600101906102f3565b91938060019294865115158152019401920187939291610351565b507ffffffffffffffffffffffffffffffffffffffffffffffffffffffffffffffffc602081360112610737576004359067ffffffffffffffff82116107375760a0908236030112610737576103da61182a565b6103e76004820180610747565b9190506103fc6103f6836108fe565b926108fe565b60848201359061040e60648401610983565b9361045c61041a610889565b956060875260606020880152606060408801526060808801526044860135608088015260a087019073ffffffffffffffffffffffffffffffffffffffff169052565b8260c086015273ffffffffffffffffffffffffffffffffffffffff61049860a087015173ffffffffffffffffffffffffffffffffffffffff1690565b161561072c575b60005b6104af6004860180610747565b9050811015610721576104df6104da6104d5836104cf60048a0180610747565b906109bd565b610983565b6116fc565b8560006104fc836104f660248a018a600401610747565b906109d5565b6105106105098280610747565b3691610d32565b83526105296105226020830183610747565b3691610e7b565b602084015261054561053e6040830183610747565b3691610f3e565b604084015261055a61053e6060830183610747565b6060840152610590610577806104d5876104cf60048e0180610747565b73ffffffffffffffffffffffffffffffffffffffff1690565b90835191602085015190608060408701519461060d606089015198838101519060c06105d360a083015173ffffffffffffffffffffffffffffffffffffffff1690565b910151916040519b8c9a8b998a977f87201b4100000000000000000000000000000000000000000000000000000000895260048901611495565b03930135905af18060009283926106fb575b50610636575b50506001908460c0880152016104a2565b8161064184866116da565b5261064c83856116da565b5061065783866116da565b5261066282856116da565b508051906000915b8083106106b4575050508315610681573880610625565b5092509250505b476106a7575b6106986001600055565b61012c604051928392836102c9565b6106af611799565b61068e565b6106c76106c184846116da565b51151590565b1561066a5791957fffffffffffffffffffffffffffffffffffffffffffffffffffffffffffffffff6001910196019161066a565b909261071992503d8091833e6107118183610848565b810190611121565b90913861061f565b509250925050610688565b3360a086015261049f565b600080fd5b610745336116fc565b565b9035907fffffffffffffffffffffffffffffffffffffffffffffffffffffffffffffffe181360301821215610737570180359067ffffffffffffffff821161073757602001918160051b3603831361073757565b507f4e487b7100000000000000000000000000000000000000000000000000000000600052604160045260246000fd5b60a0810190811067ffffffffffffffff8211176107e757604052565b6107ef61079b565b604052565b60c0810190811067ffffffffffffffff8211176107e757604052565b6040810190811067ffffffffffffffff8211176107e757604052565b6060810190811067ffffffffffffffff8211176107e757604052565b90601f7fffffffffffffffffffffffffffffffffffffffffffffffffffffffffffffffe0910116810190811067ffffffffffffffff8211176107e757604052565b6040519060e0820182811067ffffffffffffffff8211176107e757604052565b60405190610160820182811067ffffffffffffffff8211176107e757604052565b60405190610745826107cb565b60209067ffffffffffffffff81116108f1575b60051b0190565b6108f961079b565b6108ea565b90610908826108d7565b6109156040519182610848565b8281527fffffffffffffffffffffffffffffffffffffffffffffffffffffffffffffffe061094382946108d7565b019060005b82811061095457505050565b806060602080938501015201610948565b73ffffffffffffffffffffffffffffffffffffffff81160361073757565b3561030f81610965565b507f4e487b7100000000000000000000000000000000000000000000000000000000600052603260045260246000fd5b91908110156109cd5760051b0190565b6108f961098d565b9190811015610a16575b60051b810135907fffffffffffffffffffffffffffffffffffffffffffffffffffffffffffffff6181360301821215610737570190565b610a1e61098d565b6109df565b359061074582610965565b6006111561073757565b81601f8201121561073757803590610a4f826108d7565b92604090610a5f82519586610848565b838552602091828601918360a080970286010194818611610737578401925b858410610a8f575050505050505090565b8684830312610737578487918451610aa6816107cb565b8635610ab181610a2e565b815282870135610ac081610965565b8382015285870135868201526060808801359082015260808088013590820152815201930192610a7e565b81601f8201121561073757803590610b02826108d7565b92604090610b1282519586610848565b838552602091828601918360c080970286010194818611610737578401925b858410610b42575050505050505090565b8684830312610737578487918451610b59816107f4565b8635610b6481610a2e565b815282870135610b7381610965565b838201528587013586820152606080880135908201526080808801359082015260a08088013590610ba382610965565b820152815201930192610b31565b3590600582101561073757565b9190916101608184031261073757610bd46108a9565b92610bde82610a23565b8452610bec60208301610a23565b602085015267ffffffffffffffff9060408301358281116107375781610c13918501610a38565b6040860152606083013591821161073757610c2f918301610aeb565b6060840152610c4060808201610bb1565b608084015260a081013560a084015260c081013560c084015260e081013560e0840152610100808201359084015261012080820135908401526101408091013590830152565b35906effffffffffffffffffffffffffffff8216820361073757565b7fffffffffffffffffffffffffffffffffffffffffffffffffffffffffffffffe0601f60209267ffffffffffffffff8111610cde575b01160190565b610ce661079b565b610cd8565b81601f8201121561073757803590610d0282610ca2565b92610d106040519485610848565b8284526020838301011161073757816000926020809301838601378301015290565b909291610d3e846108d7565b91604094610d4e86519485610848565b839581855260208095019160051b8301938085116107375783925b858410610d795750505050505050565b67ffffffffffffffff9084358281116107375786019060a08285031261073757610da16108ca565b82358481116107375785610db6918501610bbe565b8152610dc38a8401610c86565b8a820152610dd2868401610c86565b868201526060808401358581116107375786610def918601610ceb565b9082015260808084013594851161073757610e0e868c96879601610ceb565b90820152815201930192610d69565b81601f8201121561073757803591610e34836108d7565b92610e426040519485610848565b808452602092838086019260051b820101928311610737578301905b828210610e6c575050505090565b81358152908301908301610e5e565b909291610e87846108d7565b91604094610e9786519485610848565b839581855260208095019160051b8301938085116107375783925b858410610ec25750505050505050565b67ffffffffffffffff9084358281116107375786019060a082850312610737578451610eed816107cb565b82358152898301356002811015610737578a82015285830135868201526060808401359082015260808084013594851161073757610f2f868c96879601610e1d565b90820152815201930192610eb2565b929192610f4a826108d7565b91604094610f5a86519485610848565b839582855260208095019260051b8401938285116107375780935b858510610f855750505050505050565b843567ffffffffffffffff811161073757820184601f8201121561073757803590610faf826108d7565b91610fbc86519384610848565b808352898084019160061b8301019187831161073757918a8094929593015b818110610ff2575050829350815201940193610f75565b91935091938682890312610737578a8791825161100e81610810565b8435815282850135838201528152019101918a93919492610fdb565b519061074582610965565b81601f820112156107375780519061104c826108d7565b9260409061105c82519586610848565b838552602091828601918360e080970286010194818611610737578401925b85841061108c575050505050505090565b838203878112610737578351916110a28361082c565b60a0809212610737578892611109889387516110bd816107cb565b89516110c881610a2e565b8152858a01516110d781610965565b86820152888a0151898201526060808b0151908201526080808b0151906110fd82610965565b8201528352880161102a565b8382015260c08701518682015281520193019261107b565b9190916040818403126107375780519267ffffffffffffffff938481116107375782019381601f860112156107375784519461115c866108d7565b9061116a6040519283610848565b868252602096878084019160051b83010191858311610737578801905b8282106111a657505050948301519081116107375761030f9201611035565b81518015158103610737578152908801908801611187565b90815180825260208080930193019160005b8281106111de575050505090565b909192938260a060019287516111f58282516101ce565b8084015173ffffffffffffffffffffffffffffffffffffffff1682850152604080820151908301526060808201519083015260809081015190820152019501939291016111d0565b90815180825260208080930193019160005b82811061125d575050505090565b909192938260c060019287516112748282516101ce565b8084015173ffffffffffffffffffffffffffffffffffffffff9081168386015260408083015190840152606080830151908401526080808301519084015260a09182015116908201520195019392910161124f565b9060058210156101db5752565b919082519283825260005b8481106113205750507fffffffffffffffffffffffffffffffffffffffffffffffffffffffffffffffe0601f8460006020809697860101520116010190565b6020818301810151848301820152016112e1565b90815180825260208092019182818360051b8201950193600080925b858410611361575050505050505090565b9091929394959681810384528751908660c060a09283810193855182528386015160028110156113f9575b8483015260408087015190830152606080870151908301526080958601519582015284519384905291939101919083019085905b8082106113e0575050509080600192990194019401929594939190611350565b91938060019294865181520194019201889392916113c0565b61140161019e565b61138c565b90815180825260208092019182818360051b8201950193600080925b858410611433575050505050505090565b9091929387828297989903855288519082808351928381520192019085905b808210611472575050509080600192990194019401929594939190611422565b919360406001929482875180518352015183820152019401920188939291611452565b9497969593929160e0918287019280885281518094526101009384890194808260051b8b0101956020809501936000925b848410611539575050505050508695936114f48461153597946115029460c09b6115109803908b0152611334565b908782036040890152611406565b908582036060870152611406565b96608084015260a083019073ffffffffffffffffffffffffffffffffffffffff169052565b0152565b90919293949786806116ca8f937fffffffffffffffffffffffffffffffffffffffffffffffffffffffffffffff0060019582030188528c519081519060a09182825261159d838301825173ffffffffffffffffffffffffffffffffffffffff169052565b6116bb8a8a6116aa89850151946115ce60c0968789019073ffffffffffffffffffffffffffffffffffffffff169052565b8660409182810151996115ee6101609b8c898601526102008501906111be565b95611627606097888501517fffffffffffffffffffffffffffffffffffffffffffffffffffffffffffffff60878303018488015261123d565b9760809c8d9b8c8601519461164261012096878a01906112c9565b86015161014097880152850151908d01528301516101808c01528201516101a08b01528101516101c08a015201516101e0880152888b01516effffffffffffffffffffffffffffff168b880152888101516effffffffffffffffffffffffffffff1690870152565b8087015190858303908601526112d6565b930151918184039101526112d6565b9a019401940192949391906114c6565b60209181518110156116ef575b60051b010190565b6116f761098d565b6116e7565b73ffffffffffffffffffffffffffffffffffffffff80911690807f0000000000000000000000000000000000000000000000000000000000000000168214907f000000000000000000000000000000000000000000000000000000000000000016821417156117685750565b602490604051907f98d2897d0000000000000000000000000000000000000000000000000000000082526004820152fd5b60008080808047335af13d15611821573d6117b381610ca2565b906117c16040519283610848565b8152809260203d92013e5b156117d45750565b4761181d6040519283927fb188829100000000000000000000000000000000000000000000000000000000845233600485015260248401526060604484015260648301906112d6565b0390fd5b606091506117cc565b60016000540361183b576003600055565b637fa8a9876000526004601cfdfea164736f6c6343000811000a",
  "linkReferences": {},
  "deployedLinkReferences": {}
}