{
  "_format": "hh-sol-artifact-1",
  "contractName": "TestInvalidContractOfferer",
  "sourceName": "contracts/test/TestInvalidContractOfferer.sol",
  "abi": [
    {
      "inputs": [
        {
          "internalType": "address",
          "name": "seaport",
          "type": "address"
        }
      ],
      "stateMutability": "nonpayable",
      "type": "constructor"
    },
    {
      "inputs": [],
      "name": "OrderUnavailable",
      "type": "error"
    },
    {
      "inputs": [
        {
          "internalType": "bytes",
          "name": "revertData",
          "type": "bytes"
        }
      ],
      "name": "RevertWithData",
      "type": "error"
    },
    {
      "inputs": [
        {
          "components": [
            {
              "internalType": "enum ItemType",
              "name": "itemType",
              "type": "uint8"
            },
            {
              "internalType": "address",
              "name": "token",
              "type": "address"
            },
            {
              "internalType": "uint256",
              "name": "identifier",
              "type": "uint256"
            },
            {
              "internalType": "uint256",
              "name": "amount",
              "type": "uint256"
            }
          ],
          "internalType": "struct SpentItem",
          "name": "available",
          "type": "tuple"
        },
        {
          "components": [
            {
              "internalType": "enum ItemType",
              "name": "itemType",
              "type": "uint8"
            },
            {
              "internalType": "address",
              "name": "token",
              "type": "address"
            },
            {
              "internalType": "uint256",
              "name": "identifier",
              "type": "uint256"
            },
            {
              "internalType": "uint256",
              "name": "amount",
              "type": "uint256"
            }
          ],
          "internalType": "struct SpentItem",
          "name": "required",
          "type": "tuple"
        }
      ],
      "name": "activate",
      "outputs": [],
      "stateMutability": "payable",
      "type": "function"
    },
    {
      "inputs": [
        {
          "components": [
            {
              "internalType": "enum ItemType",
              "name": "itemType",
              "type": "uint8"
            },
            {
              "internalType": "address",
              "name": "token",
              "type": "address"
            },
            {
              "internalType": "uint256",
              "name": "identifier",
              "type": "uint256"
            },
            {
              "internalType": "uint256",
              "name": "amount",
              "type": "uint256"
            }
          ],
          "internalType": "struct SpentItem",
          "name": "available",
          "type": "tuple"
        },
        {
          "components": [
            {
              "internalType": "enum ItemType",
              "name": "itemType",
              "type": "uint8"
            },
            {
              "internalType": "address",
              "name": "token",
              "type": "address"
            },
            {
              "internalType": "uint256",
              "name": "identifier",
              "type": "uint256"
            },
            {
              "internalType": "uint256",
              "name": "amount",
              "type": "uint256"
            }
          ],
          "internalType": "struct SpentItem",
          "name": "required",
          "type": "tuple"
        },
        {
          "internalType": "uint256",
          "name": "identifier",
          "type": "uint256"
        }
      ],
      "name": "activateWithCriteria",
      "outputs": [],
      "stateMutability": "nonpayable",
      "type": "function"
    },
    {
      "inputs": [],
      "name": "extendAvailable",
      "outputs": [],
      "stateMutability": "nonpayable",
      "type": "function"
    },
    {
      "inputs": [],
      "name": "extendRequired",
      "outputs": [],
      "stateMutability": "nonpayable",
      "type": "function"
    },
    {
      "inputs": [],
      "name": "extraAvailable",
      "outputs": [
        {
          "internalType": "uint256",
          "name": "",
          "type": "uint256"
        }
      ],
      "stateMutability": "view",
      "type": "function"
    },
    {
      "inputs": [],
      "name": "extraRequired",
      "outputs": [
        {
          "internalType": "uint256",
          "name": "",
          "type": "uint256"
        }
      ],
      "stateMutability": "view",
      "type": "function"
    },
    {
      "inputs": [],
      "name": "fulfilled",
      "outputs": [
        {
          "internalType": "bool",
          "name": "",
          "type": "bool"
        }
      ],
      "stateMutability": "view",
      "type": "function"
    },
    {
      "inputs": [
        {
          "internalType": "address",
          "name": "",
          "type": "address"
        },
        {
          "components": [
            {
              "internalType": "enum ItemType",
              "name": "itemType",
              "type": "uint8"
            },
            {
              "internalType": "address",
              "name": "token",
              "type": "address"
            },
            {
              "internalType": "uint256",
              "name": "identifier",
              "type": "uint256"
            },
            {
              "internalType": "uint256",
              "name": "amount",
              "type": "uint256"
            }
          ],
          "internalType": "struct SpentItem[]",
          "name": "",
          "type": "tuple[]"
        },
        {
          "components": [
            {
              "internalType": "enum ItemType",
              "name": "itemType",
              "type": "uint8"
            },
            {
              "internalType": "address",
              "name": "token",
              "type": "address"
            },
            {
              "internalType": "uint256",
              "name": "identifier",
              "type": "uint256"
            },
            {
              "internalType": "uint256",
              "name": "amount",
              "type": "uint256"
            }
          ],
          "internalType": "struct SpentItem[]",
          "name": "",
          "type": "tuple[]"
        },
        {
          "internalType": "bytes",
          "name": "context",
          "type": "bytes"
        }
      ],
      "name": "generateOrder",
      "outputs": [
        {
          "components": [
            {
              "internalType": "enum ItemType",
              "name": "itemType",
              "type": "uint8"
            },
            {
              "internalType": "address",
              "name": "token",
              "type": "address"
            },
            {
              "internalType": "uint256",
              "name": "identifier",
              "type": "uint256"
            },
            {
              "internalType": "uint256",
              "name": "amount",
              "type": "uint256"
            }
          ],
          "internalType": "struct SpentItem[]",
          "name": "",
          "type": "tuple[]"
        },
        {
          "components": [
            {
              "internalType": "enum ItemType",
              "name": "itemType",
              "type": "uint8"
            },
            {
              "internalType": "address",
              "name": "token",
              "type": "address"
            },
            {
              "internalType": "uint256",
              "name": "identifier",
              "type": "uint256"
            },
            {
              "internalType": "uint256",
              "name": "amount",
              "type": "uint256"
            },
            {
              "internalType": "address payable",
              "name": "recipient",
              "type": "address"
            }
          ],
          "internalType": "struct ReceivedItem[]",
          "name": "",
          "type": "tuple[]"
        }
      ],
      "stateMutability": "pure",
      "type": "function"
    },
    {
      "inputs": [],
      "name": "getInventory",
      "outputs": [
        {
          "components": [
            {
              "internalType": "enum ItemType",
              "name": "itemType",
              "type": "uint8"
            },
            {
              "internalType": "address",
              "name": "token",
              "type": "address"
            },
            {
              "internalType": "uint256",
              "name": "identifier",
              "type": "uint256"
            },
            {
              "internalType": "uint256",
              "name": "amount",
              "type": "uint256"
            }
          ],
          "internalType": "struct SpentItem[]",
          "name": "offerable",
          "type": "tuple[]"
        },
        {
          "components": [
            {
              "internalType": "enum ItemType",
              "name": "itemType",
              "type": "uint8"
            },
            {
              "internalType": "address",
              "name": "token",
              "type": "address"
            },
            {
              "internalType": "uint256",
              "name": "identifier",
              "type": "uint256"
            },
            {
              "internalType": "uint256",
              "name": "amount",
              "type": "uint256"
            }
          ],
          "internalType": "struct SpentItem[]",
          "name": "receivable",
          "type": "tuple[]"
        }
      ],
      "stateMutability": "view",
      "type": "function"
    },
    {
      "inputs": [],
      "name": "getSeaportMetadata",
      "outputs": [
        {
          "internalType": "string",
          "name": "name",
          "type": "string"
        },
        {
          "components": [
            {
              "internalType": "uint256",
              "name": "id",
              "type": "uint256"
            },
            {
              "internalType": "bytes",
              "name": "metadata",
              "type": "bytes"
            }
          ],
          "internalType": "struct Schema[]",
          "name": "schemas",
          "type": "tuple[]"
        }
      ],
      "stateMutability": "pure",
      "type": "function"
    },
    {
      "inputs": [
        {
          "internalType": "address",
          "name": "",
          "type": "address"
        },
        {
          "internalType": "address",
          "name": "",
          "type": "address"
        },
        {
          "internalType": "uint256",
          "name": "",
          "type": "uint256"
        },
        {
          "internalType": "uint256",
          "name": "",
          "type": "uint256"
        },
        {
          "internalType": "bytes",
          "name": "",
          "type": "bytes"
        }
      ],
      "name": "onERC1155Received",
      "outputs": [
        {
          "internalType": "bytes4",
          "name": "",
          "type": "bytes4"
        }
      ],
      "stateMutability": "pure",
      "type": "function"
    },
    {
      "inputs": [
        {
          "internalType": "address",
          "name": "caller",
          "type": "address"
        },
        {
          "internalType": "address",
          "name": "",
          "type": "address"
        },
        {
          "components": [
            {
              "internalType": "enum ItemType",
              "name": "itemType",
              "type": "uint8"
            },
            {
              "internalType": "address",
              "name": "token",
              "type": "address"
            },
            {
              "internalType": "uint256",
              "name": "identifier",
              "type": "uint256"
            },
            {
              "internalType": "uint256",
              "name": "amount",
              "type": "uint256"
            }
          ],
          "internalType": "struct SpentItem[]",
          "name": "",
          "type": "tuple[]"
        },
        {
          "components": [
            {
              "internalType": "enum ItemType",
              "name": "itemType",
              "type": "uint8"
            },
            {
              "internalType": "address",
              "name": "token",
              "type": "address"
            },
            {
              "internalType": "uint256",
              "name": "identifier",
              "type": "uint256"
            },
            {
              "internalType": "uint256",
              "name": "amount",
              "type": "uint256"
            }
          ],
          "internalType": "struct SpentItem[]",
          "name": "",
          "type": "tuple[]"
        },
        {
          "internalType": "bytes",
          "name": "context",
          "type": "bytes"
        }
      ],
      "name": "previewOrder",
      "outputs": [
        {
          "components": [
            {
              "internalType": "enum ItemType",
              "name": "itemType",
              "type": "uint8"
            },
            {
              "internalType": "address",
              "name": "token",
              "type": "address"
            },
            {
              "internalType": "uint256",
              "name": "identifier",
              "type": "uint256"
            },
            {
              "internalType": "uint256",
              "name": "amount",
              "type": "uint256"
            }
          ],
          "internalType": "struct SpentItem[]",
          "name": "offer",
          "type": "tuple[]"
        },
        {
          "components": [
            {
              "internalType": "enum ItemType",
              "name": "itemType",
              "type": "uint8"
            },
            {
              "internalType": "address",
              "name": "token",
              "type": "address"
            },
            {
              "internalType": "uint256",
              "name": "identifier",
              "type": "uint256"
            },
            {
              "internalType": "uint256",
              "name": "amount",
              "type": "uint256"
            },
            {
              "internalType": "address payable",
              "name": "recipient",
              "type": "address"
            }
          ],
          "internalType": "struct ReceivedItem[]",
          "name": "consideration",
          "type": "tuple[]"
        }
      ],
      "stateMutability": "view",
      "type": "function"
    },
    {
      "inputs": [
        {
          "components": [
            {
              "internalType": "enum ItemType",
              "name": "itemType",
              "type": "uint8"
            },
            {
              "internalType": "address",
              "name": "token",
              "type": "address"
            },
            {
              "internalType": "uint256",
              "name": "identifier",
              "type": "uint256"
            },
            {
              "internalType": "uint256",
              "name": "amount",
              "type": "uint256"
            }
          ],
          "internalType": "struct SpentItem[]",
          "name": "",
          "type": "tuple[]"
        },
        {
          "components": [
            {
              "internalType": "enum ItemType",
              "name": "itemType",
              "type": "uint8"
            },
            {
              "internalType": "address",
              "name": "token",
              "type": "address"
            },
            {
              "internalType": "uint256",
              "name": "identifier",
              "type": "uint256"
            },
            {
              "internalType": "uint256",
              "name": "amount",
              "type": "uint256"
            },
            {
              "internalType": "address payable",
              "name": "recipient",
              "type": "address"
            }
          ],
          "internalType": "struct ReceivedItem[]",
          "name": "",
          "type": "tuple[]"
        },
        {
          "internalType": "bytes",
          "name": "context",
          "type": "bytes"
        },
        {
          "internalType": "bytes32[]",
          "name": "orderHashes",
          "type": "bytes32[]"
        },
        {
          "internalType": "uint256",
          "name": "",
          "type": "uint256"
        }
      ],
      "name": "ratifyOrder",
      "outputs": [
        {
          "internalType": "bytes4",
          "name": "",
          "type": "bytes4"
        }
      ],
      "stateMutability": "pure",
      "type": "function"
    },
    {
      "inputs": [],
      "name": "ready",
      "outputs": [
        {
          "internalType": "bool",
          "name": "",
          "type": "bool"
        }
      ],
      "stateMutability": "view",
      "type": "function"
    },
    {
      "stateMutability": "payable",
      "type": "receive"
    }
  ],
  "bytecode": "0x60a0346100a257601f611f1238819003918201601f19168301916001600160401b038311848410176100a7578084926020946040528339810103126100a257516001600160a01b03811681036100a25760805261ffff196006541660065560006007556000600855604051611e5490816100be823960805181818161077a015281816108e301528181610a4b01528181610daf01528181610fc501526116bd0152f35b600080fd5b634e487b7160e01b600052604160045260246000fdfe6080604081815260049081361015610022575b505050361561002057600080fd5b005b600092833560e01c9081632e778efc14611733575080634a29bec2146116f6578063582d4241146112ac5780635d7f850c1461106257806366ff49c514610c865780636defbf8014610c4457806375f9ef5214610bd75780639891976514610adb578063a69ea25c14610a9e578063b6f2634314610529578063b968b3991461049f578063e2d46f981461045a578063f23a6e61146103c95763f4dd92ce0361001257346103c55760a07ffffffffffffffffffffffffffffffffffffffffffffffffffffffffffffffffc3601126103c55767ffffffffffffffff82358181116103bd576101139036908501611989565b505060249283358281116103c157366023820112156103c15780820135908382116103b957859060a03693020101116103bd57604480358381116103b95761015e90369084016119ba565b9560649485358181116103b557366023820112156103b55780860135918083116103b157600590368585841b850101116103ad5760209a8b8111806103a2575b6101cb575b8b8b517ff4dd92ce000000000000000000000000000000000000000000000000000000008152f35b8601958b8188031261039e57803591821161039e57019a858c96601f809801121561039a578b8d8c9d9e9c9b9c359161020f61020684611cfb565b9d519d8e611b4c565b828d52808d0192861b82010192831161039657908e809201905b8382106103875750505050885198848a0361030657815b8a811061025157508c9b9a506101a3565b61025b8183611dd9565b51868210156102db578782861b870101350361027f5761027a90611c9f565b610240565b5050505050507f526576657274206f6e20756e6578706563746564206f72646572206861736800939450878751957f08c379a0000000000000000000000000000000000000000000000000000000008752860152840152820152fd5b878460328d7f4e487b7100000000000000000000000000000000000000000000000000000000835252fd5b508a517f08c379a00000000000000000000000000000000000000000000000000000000081528089018d90526028818701527f526576657274206f6e20756e6578706563746564206f72646572206861736865818901527f73206c656e677468000000000000000000000000000000000000000000000000818c0152608490fd5b81358152908201908201610229565b8380fd5b5080fd5b8c80fd5b50601f81161561019e565b8b80fd5b8a80fd5b8980fd5b8680fd5b8480fd5b8580fd5b8280fd5b5082346104575760a07ffffffffffffffffffffffffffffffffffffffffffffffffffffffffffffffffc3601126104575761040261193e565b5061040b611966565b506084359067ffffffffffffffff8211610457575060209261042f913691016119ba565b5050517ff23a6e61000000000000000000000000000000000000000000000000000000008152f35b80fd5b83823461039a57817ffffffffffffffffffffffffffffffffffffffffffffffffffffffffffffffffc36011261039a5760209060ff60065460081c1690519015158152f35b50346103c557827ffffffffffffffffffffffffffffffffffffffffffffffffffffffffffffffffc3601126103c55760065460ff81161590811561051b575b506104f557826104ef600854611c9f565b60085580f35b517f84b5ef6b000000000000000000000000000000000000000000000000000000008152fd5b60ff915060081c16386104de565b5082906101007ffffffffffffffffffffffffffffffffffffffffffffffffffffffffffffffffc36011261039a5761056036611b8d565b9261056a36611c0a565b90600692835460ff8116908115610a90575b506104f55785518481101561068c576106b8574760608701525b8551958487101561068c57606086549174ffffffffffffffffffffffffffffffffffffffff00988993602083015160ff7fffffffffffffffffffffff0000000000000000000000000000000000000000009c8d9260081b1693169116171788558381015160015501516002558351908582101561066057606095969760ff60035492602088015160081b169316911617176003558201519055015160055560017fffffffffffffffffffffffffffffffffffffffffffffffffffffffffffffff0082541617905580f35b6024876021867f4e487b7100000000000000000000000000000000000000000000000000000000835252fd5b6024866021857f4e487b7100000000000000000000000000000000000000000000000000000000835252fd5b85518481101561068c57600103610817576020868101516060808901805185517f23b872dd000000000000000000000000000000000000000000000000000000008152338882019081523081880152604081019290925273ffffffffffffffffffffffffffffffffffffffff948516949390918691839182910103818d885af1801561080d57916044918694936107f0575b5051918a875195869485937f095ea7b30000000000000000000000000000000000000000000000000000000085527f0000000000000000000000000000000000000000000000000000000000000000168b85015260248401525af180156107e6576107b8575b50505b610596565b816107d792903d106107df575b6107cf8183611b4c565b810190611c87565b5086806107b0565b503d6107c5565b83513d89823e3d90fd5b61080690853d87116107df576107cf8183611b4c565b508c61074a565b86513d8c823e3d90fd5b85518481101561068c576002036109645773ffffffffffffffffffffffffffffffffffffffff806020880151169082880151823b156109605783517f23b872dd00000000000000000000000000000000000000000000000000000000815233868201908152306020820152604081019290925290889082908190606001038183875af1801561095657908891610942575b5050813b156103b957869160448392855194859384927fa22cb4650000000000000000000000000000000000000000000000000000000084527f00000000000000000000000000000000000000000000000000000000000000001689840152600160248401525af1801561093857908691610924575050610596565b61092d90611ae4565b6103bd5784876107b0565b82513d88823e3d90fd5b61094b90611ae4565b6103b95786896108a8565b84513d8a823e3d90fd5b8780fd5b85518481101561068c576003036107b35773ffffffffffffffffffffffffffffffffffffffff806020880151169082880151606089015190833b15610a8c5784517ff242432a000000000000000000000000000000000000000000000000000000008152338782019081523060208201526040810192909252606082019290925260a06080820181905260009082015288908290819060c001038183875af1801561095657908891610942575050813b156103b957869160448392855194859384927fa22cb4650000000000000000000000000000000000000000000000000000000084527f00000000000000000000000000000000000000000000000000000000000000001689840152600160248401525af1801561093857908691610924575050610596565b8880fd5b60ff915060081c168761057c565b83823461039a57817ffffffffffffffffffffffffffffffffffffffffffffffffffffffffffffffffc36011261039a576020906008549051908152f35b50346103c55760807ffffffffffffffffffffffffffffffffffffffffffffffffffffffffffffffffc3601126103c557610b1361193e565b5067ffffffffffffffff6024358181116103bd57610b349036908501611989565b50506044358181116103bd57610b4d9036908501611989565b505060643590811161039657601f60449392602095610b907fffffffffffffffffffffffffffffffffffffffffffffffffffffffffffffffe094369087016119ba565b92908391519889977f84a87b8e0000000000000000000000000000000000000000000000000000000089528801528160248801528787013785828601015201168101030190fd5b50346103c557827ffffffffffffffffffffffffffffffffffffffffffffffffffffffffffffffffc3601126103c55760065460ff811615908115610c36575b506104f55782610c27600754611c9f565b60075560025460011c60025580f35b60ff915060081c1638610c16565b83823461039a57817ffffffffffffffffffffffffffffffffffffffffffffffffffffffffffffffffc36011261039a5760209060ff6006541690519015158152f35b5082903461039a576101207ffffffffffffffffffffffffffffffffffffffffffffffffffffffffffffffffc36011261039a57610cc236611b8d565b92610ccc36611c0a565b906101043592600693845460ff8116908115611054575b5061102d57865185811015610660578303610ede5773ffffffffffffffffffffffffffffffffffffffff8060208901511691823b156109605783517f23b872dd00000000000000000000000000000000000000000000000000000000815233868201908152306020820152604081019290925290889082908190606001038183875af1801561095657908891610eca575b5050813b156103b957869160448392855194859384927fa22cb4650000000000000000000000000000000000000000000000000000000084527f00000000000000000000000000000000000000000000000000000000000000001689840152600160248401525af1801561093857908691610eb6575b50508551958487101561068c57606086549174ffffffffffffffffffffffffffffffffffffffff00988993602083015160ff7fffffffffffffffffffffff0000000000000000000000000000000000000000009c8d9260081b1693169116171788558381015160015501516002558351908582101561066057606095969760ff60035492602088015160081b169316911617176003558201519055015160055560017fffffffffffffffffffffffffffffffffffffffffffffffffffffffffffffff0082541617905580f35b610ebf90611ae4565b6103bd578487610dea565b610ed390611ae4565b6103b9578689610d74565b86518581101561066057600514610ef6575b50610596565b73ffffffffffffffffffffffffffffffffffffffff8060208901511691606089015190833b15610a8c5784517ff242432a000000000000000000000000000000000000000000000000000000008152338782019081523060208201526040810192909252606082019290925260a06080820181905260009082015288908290819060c001038183875af180156109565761101a575b50813b156103b957869160448392855194859384927fa22cb4650000000000000000000000000000000000000000000000000000000084527f00000000000000000000000000000000000000000000000000000000000000001689840152600160248401525af1801561093857908691611006575b50610ef0565b61100f90611ae4565b6103bd578487611000565b61102690979197611ae4565b9588610f8b565b50517f84b5ef6b000000000000000000000000000000000000000000000000000000008152fd5b60ff915060081c1688610ce3565b5090346103c557827ffffffffffffffffffffffffffffffffffffffffffffffffffffffffffffffffc3601126103c55760065460ff81161590811561129e575b50156110ef57506110eb81516110b781611b30565b838152928251906110c782611b30565b81525b6110dd8351948486958652850190611a24565b908382036020850152611a24565b0390f35b906007549160019283019384841194856112725761110c81611d13565b9582865b611234575b5050509091926008548101908181118061120857928294936111378394611d13565b95826003549673ffffffffffffffffffffffffffffffffffffffff60ff89169860081c1693815495600554975b61117c575b505050505050505050506110eb906110ca565b816111dc578b858210156111d657908a6111bf828e8b866111ab6111d09851966111a588611af8565b87611ded565b8c60208701528501528c6060850152611dd9565b526111ca818d611dd9565b50611c9f565b88611164565b50611169565b6024846011857f4e487b7100000000000000000000000000000000000000000000000000000000835252fd5b6024846011877f4e487b7100000000000000000000000000000000000000000000000000000000835252fd5b81611208578281101561126d5790611265879392611250611df9565b61125a828c611dd9565b526111ca818b611dd9565b909192611110565b611115565b5060116024927f4e487b7100000000000000000000000000000000000000000000000000000000835252fd5b60ff915060081c16386110a2565b5082903461039a5760a090817ffffffffffffffffffffffffffffffffffffffffffffffffffffffffffffffffc3601126103c5576112e861193e565b6112f0611966565b5067ffffffffffffffff6044358181116103c1576113119036908801611989565b50506064358181116103c15761132a9036908801611989565b50506084359081116103bd5761134390369087016119ba565b90506006549160ff8316159283156116e8575b5082156116a2575b508115611695575b5061166d576007549360019485019384861193846112725761138786611d13565b956008548801908189119081611641579482918a966113a78b9995611cfb565b996113b486519b8c611b4c565b848b527fffffffffffffffffffffffffffffffffffffffffffffffffffffffffffffffe06113e186611cfb565b01885b8181106115f95750508888905b611575575b505050869086906003549460ff86169473ffffffffffffffffffffffffffffffffffffffff809760081c1692815494600554965b6114bf575b505050505050505061144982519683885283880190611a24565b926020928785038489015283808a519687815201990195925b85841061146f57888a0389f35b909192939495968584829b8a516114878282516119e8565b80840151861682850152868101518783015260608082015190830152608090810151861690820152019a980196959401929190611462565b819e9c9e9b999b9a989a61154957908b8f9796959493928e8582101561153857816111ca918c8a866114ff6115249851936114f985611a99565b84611ded565b8b60208401528201528b606082015230608082015261151e8383611dd9565b52611dd9565b909192939495969c9e9b999b9a989a61142a565b5050509d9b9d9a989a99979961142f565b60248a6011857f4e487b7100000000000000000000000000000000000000000000000000000000835252fd5b819b999b989698979594976115cd57908a82848e959410156115bc576111ca816115ab936115a1611df9565b61151e8383611dd9565b909192999b989698979495976113f1565b50509a989a979597969394966113f6565b60248760118a7f4e487b7100000000000000000000000000000000000000000000000000000000835252fd5b808d899c9e9c602093819d9b9c9a999c519261161484611a99565b8c84528c869381858701528501528c60608501528c6080850152010152019b999b989698979495976113e4565b6024856011887f4e487b7100000000000000000000000000000000000000000000000000000000835252fd5b8390517f84b5ef6b000000000000000000000000000000000000000000000000000000008152fd5b601f915016151585611366565b90915073ffffffffffffffffffffffffffffffffffffffff807f00000000000000000000000000000000000000000000000000000000000000001691161415908661135e565b60081c60ff16925087611356565b83823461039a57817ffffffffffffffffffffffffffffffffffffffffffffffffffffffffffffffffc36011261039a576020906007549051908152f35b84929150346103c557827ffffffffffffffffffffffffffffffffffffffffffffffffffffffffffffffffc3601126103c55761176e81611b14565b600190818152835b6020808210156117dd5784519085820182811067ffffffffffffffff8211176117b15786528682526060828201528383010152602001611776565b60248860418b7f4e487b7100000000000000000000000000000000000000000000000000000000835252fd5b828585886105396117ed85611d9d565b51528251926117fb84611b30565b8184526020938461180b87611d9d565b51015280519361181a85611b14565b601385527f54657374436f6e74726163744f6666657265720000000000000000000000000081860152611855825195838752838701906118e0565b858103828701528651928382528282019083808660051b850101990195925b85841061188157888a0389f35b9091929394959685806118cd8c7fffffffffffffffffffffffffffffffffffffffffffffffffffffffffffffffe086869f0301885286838d5180518452015191818582015201906118e0565b9b99019796959190910193019190611874565b919082519283825260005b84811061192a5750507fffffffffffffffffffffffffffffffffffffffffffffffffffffffffffffffe0601f8460006020809697860101520116010190565b6020818301810151848301820152016118eb565b6004359073ffffffffffffffffffffffffffffffffffffffff8216820361196157565b600080fd5b6024359073ffffffffffffffffffffffffffffffffffffffff8216820361196157565b9181601f840112156119615782359167ffffffffffffffff8311611961576020808501948460071b01011161196157565b9181601f840112156119615782359167ffffffffffffffff8311611961576020838186019501011161196157565b9060068210156119f55752565b7f4e487b7100000000000000000000000000000000000000000000000000000000600052602160045260246000fd5b90815180825260208080930193019160005b828110611a44575050505090565b909192938260806001928751611a5b8282516119e8565b8084015173ffffffffffffffffffffffffffffffffffffffff1682850152604080820151908301526060908101519082015201950193929101611a36565b60a0810190811067ffffffffffffffff821117611ab557604052565b7f4e487b7100000000000000000000000000000000000000000000000000000000600052604160045260246000fd5b67ffffffffffffffff8111611ab557604052565b6080810190811067ffffffffffffffff821117611ab557604052565b6040810190811067ffffffffffffffff821117611ab557604052565b6020810190811067ffffffffffffffff821117611ab557604052565b90601f7fffffffffffffffffffffffffffffffffffffffffffffffffffffffffffffffe0910116810190811067ffffffffffffffff821117611ab557604052565b7ffffffffffffffffffffffffffffffffffffffffffffffffffffffffffffffffc60809101126119615760405190611bc482611af8565b81600435600681101561196157815260243573ffffffffffffffffffffffffffffffffffffffff8116810361196157602082015260443560408201526060606435910152565b7fffffffffffffffffffffffffffffffffffffffffffffffffffffffffffffff7c60809101126119615760405190611c4182611af8565b81608435600681101561196157815260a43573ffffffffffffffffffffffffffffffffffffffff8116810361196157602082015260c4356040820152606060e435910152565b90816020910312611961575180151581036119615790565b7fffffffffffffffffffffffffffffffffffffffffffffffffffffffffffffffff8114611ccc5760010190565b7f4e487b7100000000000000000000000000000000000000000000000000000000600052601160045260246000fd5b67ffffffffffffffff8111611ab55760051b60200190565b90611d1d82611cfb565b604090611d2c82519182611b4c565b8381527fffffffffffffffffffffffffffffffffffffffffffffffffffffffffffffffe0611d5a8295611cfb565b019160005b838110611d6c5750505050565b6020908251611d7a81611af8565b600081528260008183015260008583015260006060830152828601015201611d5f565b805115611daa5760200190565b7f4e487b7100000000000000000000000000000000000000000000000000000000600052603260045260246000fd5b8051821015611daa5760209160051b010190565b60068210156119f55752565b60405190611e0682611af8565b8173ffffffffffffffffffffffffffffffffffffffff600054611e2c60ff821684611ded565b60081c1660208201526001546040820152606060025491015256fea164736f6c6343000811000a",
  "linkReferences": {},
  "deployedLinkReferences": {}
}